{
  "_format": "hh-sol-artifact-1",
  "contractName": "ERC_5521",
  "sourceName": "contracts/ERC_5521.sol",
  "abi": [
    {
      "inputs": [
        {
          "internalType": "string",
          "name": "name_",
          "type": "string"
        },
        {
          "internalType": "string",
          "name": "symbol_",
          "type": "string"
        }
      ],
      "stateMutability": "nonpayable",
      "type": "constructor"
    },
    {
      "inputs": [
        {
          "internalType": "address",
          "name": "sender",
          "type": "address"
        },
        {
          "internalType": "uint256",
          "name": "tokenId",
          "type": "uint256"
        },
        {
          "internalType": "address",
          "name": "owner",
          "type": "address"
        }
      ],
      "name": "ERC721IncorrectOwner",
      "type": "error"
    },
    {
      "inputs": [
        {
          "internalType": "address",
          "name": "operator",
          "type": "address"
        },
        {
          "internalType": "uint256",
          "name": "tokenId",
          "type": "uint256"
        }
      ],
      "name": "ERC721InsufficientApproval",
      "type": "error"
    },
    {
      "inputs": [
        {
          "internalType": "address",
          "name": "approver",
          "type": "address"
        }
      ],
      "name": "ERC721InvalidApprover",
      "type": "error"
    },
    {
      "inputs": [
        {
          "internalType": "address",
          "name": "operator",
          "type": "address"
        }
      ],
      "name": "ERC721InvalidOperator",
      "type": "error"
    },
    {
      "inputs": [
        {
          "internalType": "address",
          "name": "owner",
          "type": "address"
        }
      ],
      "name": "ERC721InvalidOwner",
      "type": "error"
    },
    {
      "inputs": [
        {
          "internalType": "address",
          "name": "receiver",
          "type": "address"
        }
      ],
      "name": "ERC721InvalidReceiver",
      "type": "error"
    },
    {
      "inputs": [
        {
          "internalType": "address",
          "name": "sender",
          "type": "address"
        }
      ],
      "name": "ERC721InvalidSender",
      "type": "error"
    },
    {
      "inputs": [
        {
          "internalType": "uint256",
          "name": "tokenId",
          "type": "uint256"
        }
      ],
      "name": "ERC721NonexistentToken",
      "type": "error"
    },
    {
      "anonymous": false,
      "inputs": [
        {
          "indexed": true,
          "internalType": "address",
          "name": "owner",
          "type": "address"
        },
        {
          "indexed": true,
          "internalType": "address",
          "name": "approved",
          "type": "address"
        },
        {
          "indexed": true,
          "internalType": "uint256",
          "name": "tokenId",
          "type": "uint256"
        }
      ],
      "name": "Approval",
      "type": "event"
    },
    {
      "anonymous": false,
      "inputs": [
        {
          "indexed": true,
          "internalType": "address",
          "name": "owner",
          "type": "address"
        },
        {
          "indexed": true,
          "internalType": "address",
          "name": "operator",
          "type": "address"
        },
        {
          "indexed": false,
          "internalType": "bool",
          "name": "approved",
          "type": "bool"
        }
      ],
      "name": "ApprovalForAll",
      "type": "event"
    },
    {
      "anonymous": false,
      "inputs": [
        {
          "indexed": false,
          "internalType": "uint256",
          "name": "_fromTokenId",
          "type": "uint256"
        },
        {
          "indexed": false,
          "internalType": "uint256",
          "name": "_toTokenId",
          "type": "uint256"
        }
      ],
      "name": "BatchMetadataUpdate",
      "type": "event"
    },
    {
      "anonymous": false,
      "inputs": [
        {
          "indexed": false,
          "internalType": "uint256",
          "name": "_tokenId",
          "type": "uint256"
        }
      ],
      "name": "MetadataUpdate",
      "type": "event"
    },
    {
      "anonymous": false,
      "inputs": [
        {
          "indexed": true,
          "internalType": "address",
          "name": "from",
          "type": "address"
        },
        {
          "indexed": true,
          "internalType": "address",
          "name": "to",
          "type": "address"
        },
        {
          "indexed": true,
          "internalType": "uint256",
          "name": "tokenId",
          "type": "uint256"
        }
      ],
      "name": "Transfer",
      "type": "event"
    },
    {
      "anonymous": false,
      "inputs": [
        {
          "indexed": true,
          "internalType": "uint256",
          "name": "tokenId",
          "type": "uint256"
        },
        {
          "indexed": true,
          "internalType": "address",
          "name": "owner",
          "type": "address"
        },
        {
          "indexed": false,
          "internalType": "address[]",
          "name": "_address_referringList",
          "type": "address[]"
        },
        {
          "indexed": false,
          "internalType": "uint256[][]",
          "name": "_tokenIds_referringList",
          "type": "uint256[][]"
        },
        {
          "indexed": false,
          "internalType": "address[]",
          "name": "_address_referredList",
          "type": "address[]"
        },
        {
          "indexed": false,
          "internalType": "uint256[][]",
          "name": "_tokenIds_referredList",
          "type": "uint256[][]"
        }
      ],
      "name": "UpdateNode",
      "type": "event"
    },
    {
      "inputs": [
        {
          "internalType": "address",
          "name": "to",
          "type": "address"
        },
        {
          "internalType": "uint256",
          "name": "tokenId",
          "type": "uint256"
        }
      ],
      "name": "approve",
      "outputs": [],
      "stateMutability": "nonpayable",
      "type": "function"
    },
    {
      "inputs": [
        {
          "internalType": "address",
          "name": "owner",
          "type": "address"
        }
      ],
      "name": "balanceOf",
      "outputs": [
        {
          "internalType": "uint256",
          "name": "",
          "type": "uint256"
        }
      ],
      "stateMutability": "view",
      "type": "function"
    },
    {
      "inputs": [
        {
          "internalType": "address",
          "name": "_address",
          "type": "address"
        },
        {
          "internalType": "uint256",
          "name": "tokenId",
          "type": "uint256"
        }
      ],
      "name": "createdTimestampOf",
      "outputs": [
        {
          "internalType": "uint256",
          "name": "",
          "type": "uint256"
        }
      ],
      "stateMutability": "view",
      "type": "function"
    },
    {
      "inputs": [
        {
          "internalType": "uint256",
          "name": "tokenId",
          "type": "uint256"
        }
      ],
      "name": "getApproved",
      "outputs": [
        {
          "internalType": "address",
          "name": "",
          "type": "address"
        }
      ],
      "stateMutability": "view",
      "type": "function"
    },
    {
      "inputs": [
        {
          "internalType": "address",
          "name": "owner",
          "type": "address"
        },
        {
          "internalType": "address",
          "name": "operator",
          "type": "address"
        }
      ],
      "name": "isApprovedForAll",
      "outputs": [
        {
          "internalType": "bool",
          "name": "",
          "type": "bool"
        }
      ],
      "stateMutability": "view",
      "type": "function"
    },
    {
      "inputs": [],
      "name": "name",
      "outputs": [
        {
          "internalType": "string",
          "name": "",
          "type": "string"
        }
      ],
      "stateMutability": "view",
      "type": "function"
    },
    {
      "inputs": [
        {
          "internalType": "uint256",
          "name": "tokenId",
          "type": "uint256"
        }
      ],
      "name": "ownerOf",
      "outputs": [
        {
          "internalType": "address",
          "name": "",
          "type": "address"
        }
      ],
      "stateMutability": "view",
      "type": "function"
    },
    {
      "inputs": [
        {
          "internalType": "address",
          "name": "_address",
          "type": "address"
        },
        {
          "internalType": "uint256",
          "name": "tokenId",
          "type": "uint256"
        }
      ],
      "name": "referredOf",
      "outputs": [
        {
          "internalType": "address[]",
          "name": "",
          "type": "address[]"
        },
        {
          "internalType": "uint256[][]",
          "name": "",
          "type": "uint256[][]"
        }
      ],
      "stateMutability": "view",
      "type": "function"
    },
    {
      "inputs": [
        {
          "internalType": "address",
          "name": "_address",
          "type": "address"
        },
        {
          "internalType": "uint256",
          "name": "tokenId",
          "type": "uint256"
        }
      ],
      "name": "referringOf",
      "outputs": [
        {
          "internalType": "address[]",
          "name": "",
          "type": "address[]"
        },
        {
          "internalType": "uint256[][]",
          "name": "",
          "type": "uint256[][]"
        }
      ],
      "stateMutability": "view",
      "type": "function"
    },
    {
      "inputs": [
        {
          "internalType": "address",
          "name": "to",
          "type": "address"
        },
        {
          "internalType": "uint256",
          "name": "tokenId",
          "type": "uint256"
        },
        {
          "internalType": "address[]",
          "name": "addresses",
          "type": "address[]"
        },
        {
          "internalType": "uint256[][]",
          "name": "_tokenIds",
          "type": "uint256[][]"
        }
      ],
      "name": "safeMint",
      "outputs": [],
      "stateMutability": "nonpayable",
      "type": "function"
    },
    {
      "inputs": [
        {
          "internalType": "address",
          "name": "from",
          "type": "address"
        },
        {
          "internalType": "address",
          "name": "to",
          "type": "address"
        },
        {
          "internalType": "uint256",
          "name": "tokenId",
          "type": "uint256"
        }
      ],
      "name": "safeTransferFrom",
      "outputs": [],
      "stateMutability": "nonpayable",
      "type": "function"
    },
    {
      "inputs": [
        {
          "internalType": "address",
          "name": "from",
          "type": "address"
        },
        {
          "internalType": "address",
          "name": "to",
          "type": "address"
        },
        {
          "internalType": "uint256",
          "name": "tokenId",
          "type": "uint256"
        },
        {
          "internalType": "bytes",
          "name": "data",
          "type": "bytes"
        }
      ],
      "name": "safeTransferFrom",
      "outputs": [],
      "stateMutability": "nonpayable",
      "type": "function"
    },
    {
      "inputs": [
        {
          "internalType": "address",
          "name": "operator",
          "type": "address"
        },
        {
          "internalType": "bool",
          "name": "approved",
          "type": "bool"
        }
      ],
      "name": "setApprovalForAll",
      "outputs": [],
      "stateMutability": "nonpayable",
      "type": "function"
    },
    {
      "inputs": [
        {
          "internalType": "uint256",
          "name": "tokenId",
          "type": "uint256"
        },
        {
          "internalType": "address[]",
          "name": "addresses",
          "type": "address[]"
        },
        {
          "internalType": "uint256[][]",
          "name": "tokenIds",
          "type": "uint256[][]"
        }
      ],
      "name": "setNode",
      "outputs": [],
      "stateMutability": "nonpayable",
      "type": "function"
    },
    {
      "inputs": [
        {
          "internalType": "address",
          "name": "_address",
          "type": "address"
        },
        {
          "internalType": "uint256",
          "name": "tokenId",
          "type": "uint256"
        },
        {
          "internalType": "uint256[]",
          "name": "_tokenIds",
          "type": "uint256[]"
        }
      ],
      "name": "setNodeReferredExternal",
      "outputs": [],
      "stateMutability": "nonpayable",
      "type": "function"
    },
    {
      "inputs": [
        {
          "internalType": "address",
          "name": "developer",
          "type": "address"
        },
        {
          "internalType": "uint256",
          "name": "tokenId",
          "type": "uint256"
        },
        {
          "internalType": "string",
          "name": "_tokenURI",
          "type": "string"
        }
      ],
      "name": "setTokenURI",
      "outputs": [],
      "stateMutability": "nonpayable",
      "type": "function"
    },
    {
      "inputs": [
        {
          "internalType": "bytes4",
          "name": "interfaceId",
          "type": "bytes4"
        }
      ],
      "name": "supportsInterface",
      "outputs": [
        {
          "internalType": "bool",
          "name": "",
          "type": "bool"
        }
      ],
      "stateMutability": "view",
      "type": "function"
    },
    {
      "inputs": [],
      "name": "symbol",
      "outputs": [
        {
          "internalType": "string",
          "name": "",
          "type": "string"
        }
      ],
      "stateMutability": "view",
      "type": "function"
    },
    {
      "inputs": [
        {
          "internalType": "uint256",
          "name": "tokenId",
          "type": "uint256"
        }
      ],
      "name": "tokenURI",
      "outputs": [
        {
          "internalType": "string",
          "name": "",
          "type": "string"
        }
      ],
      "stateMutability": "view",
      "type": "function"
    },
    {
      "inputs": [
        {
          "internalType": "address",
          "name": "from",
          "type": "address"
        },
        {
          "internalType": "address",
          "name": "to",
          "type": "address"
        },
        {
          "internalType": "uint256",
          "name": "tokenId",
          "type": "uint256"
        }
      ],
      "name": "transferFrom",
      "outputs": [],
      "stateMutability": "nonpayable",
      "type": "function"
    }
  ],
  "bytecode": "0x60806040526000600860006101000a81548173ffffffffffffffffffffffffffffffffffffffff021916908373ffffffffffffffffffffffffffffffffffffffff16021790555034801561005257600080fd5b506040516162bc3803806162bc8339818101604052810190610074919061028c565b818181600090816100859190610525565b5080600190816100959190610525565b5050506100b267c840a870701d7d7e60c01b61011460201b60201c565b6100cc67823150fe3b41ad9d60c01b61011460201b60201c565b33600860006101000a81548173ffffffffffffffffffffffffffffffffffffffff021916908373ffffffffffffffffffffffffffffffffffffffff16021790555050506105f7565b50565b6000604051905090565b600080fd5b600080fd5b600080fd5b600080fd5b6000601f19601f8301169050919050565b7f4e487b7100000000000000000000000000000000000000000000000000000000600052604160045260246000fd5b61017e82610135565b810181811067ffffffffffffffff8211171561019d5761019c610146565b5b80604052505050565b60006101b0610117565b90506101bc8282610175565b919050565b600067ffffffffffffffff8211156101dc576101db610146565b5b6101e582610135565b9050602081019050919050565b60005b838110156102105780820151818401526020810190506101f5565b60008484015250505050565b600061022f61022a846101c1565b6101a6565b90508281526020810184848401111561024b5761024a610130565b5b6102568482856101f2565b509392505050565b600082601f8301126102735761027261012b565b5b815161028384826020860161021c565b91505092915050565b600080604083850312156102a3576102a2610121565b5b600083015167ffffffffffffffff8111156102c1576102c0610126565b5b6102cd8582860161025e565b925050602083015167ffffffffffffffff8111156102ee576102ed610126565b5b6102fa8582860161025e565b9150509250929050565b600081519050919050565b7f4e487b7100000000000000000000000000000000000000000000000000000000600052602260045260246000fd5b6000600282049050600182168061035657607f821691505b6020821081036103695761036861030f565b5b50919050565b60008190508160005260206000209050919050565b60006020601f8301049050919050565b600082821b905092915050565b6000600883026103d17fffffffffffffffffffffffffffffffffffffffffffffffffffffffffffffffff82610394565b6103db8683610394565b95508019841693508086168417925050509392505050565b6000819050919050565b6000819050919050565b600061042261041d610418846103f3565b6103fd565b6103f3565b9050919050565b6000819050919050565b61043c83610407565b61045061044882610429565b8484546103a1565b825550505050565b600090565b610465610458565b610470818484610433565b505050565b5b818110156104945761048960008261045d565b600181019050610476565b5050565b601f8211156104d9576104aa8161036f565b6104b384610384565b810160208510156104c2578190505b6104d66104ce85610384565b830182610475565b50505b505050565b600082821c905092915050565b60006104fc600019846008026104de565b1980831691505092915050565b600061051583836104eb565b9150826002028217905092915050565b61052e82610304565b67ffffffffffffffff81111561054757610546610146565b5b610551825461033e565b61055c828285610498565b600060209050601f83116001811461058f576000841561057d578287015190505b6105878582610509565b8655506105ef565b601f19841661059d8661036f565b60005b828110156105c5578489015182556001820191506020850194506020810190506105a0565b868310156105e257848901516105de601f8916826104eb565b8355505b6001600288020188555050505b505050505050565b615cb6806106066000396000f3fe608060405234801561001057600080fd5b506004361061012c5760003560e01c806364f9b0e6116100ad578063b88d4fde11610071578063b88d4fde14610353578063c87b56dd1461036f578063d30d968d1461039f578063e985e9c5146103cf578063edda5e73146103ff5761012c565b806364f9b0e61461028757806370a08231146102b857806395d89b41146102e8578063a22cb46514610306578063a35391ac146103225761012c565b806342842e0e116100f457806342842e0e146101e75780634e5786bf1461020357806355c104401461021f578063616c55351461023b5780636352211e146102575761012c565b806301ffc9a71461013157806306fdde0314610161578063081812fc1461017f578063095ea7b3146101af57806323b872dd146101cb575b600080fd5b61014b60048036038101906101469190614233565b61041b565b604051610158919061427b565b60405180910390f35b6101696105a9565b6040516101769190614326565b60405180910390f35b6101996004803603810190610194919061437e565b61063b565b6040516101a691906143ec565b60405180910390f35b6101c960048036038101906101c49190614433565b610657565b005b6101e560048036038101906101e09190614473565b61066d565b005b61020160048036038101906101fc9190614473565b61076f565b005b61021d600480360381019061021891906145fb565b61078f565b005b61023960048036038101906102349190614732565b610938565b005b61025560048036038101906102509190614945565b610d96565b005b610271600480360381019061026c919061437e565b610fc1565b60405161027e91906143ec565b60405180910390f35b6102a1600480360381019061029c9190614433565b610fd3565b6040516102af929190614c0e565b60405180910390f35b6102d260048036038101906102cd9190614c45565b6113b1565b6040516102df9190614c81565b60405180910390f35b6102f061146b565b6040516102fd9190614326565b60405180910390f35b610320600480360381019061031b9190614cc8565b6114fd565b005b61033c60048036038101906103379190614433565b611513565b60405161034a929190614c0e565b60405180910390f35b61036d60048036038101906103689190614da9565b6118f1565b005b6103896004803603810190610384919061437e565b611916565b6040516103969190614326565b60405180910390f35b6103b960048036038101906103b49190614433565b611964565b6040516103c69190614c81565b60405180910390f35b6103e960048036038101906103e49190614e2c565b611d3b565b6040516103f6919061427b565b60405180910390f35b61041960048036038101906104149190614e6c565b611dcf565b005b6000610431672c6691fc303c777460c01b611ebd565b610445676e3c9fc6d79090e060c01b611ebd565b6104596764d1d70437a1652860c01b611ebd565b7f74342b55000000000000000000000000000000000000000000000000000000007bffffffffffffffffffffffffffffffffffffffffffffffffffffffff1916827bffffffffffffffffffffffffffffffffffffffffffffffffffffffff19161480156104d657506104d567fdc747d6098a322960c01b611ec0565b5b8061057657507f40997a20000000000000000000000000000000000000000000000000000000007bffffffffffffffffffffffffffffffffffffffffffffffffffffffff1916827bffffffffffffffffffffffffffffffffffffffffffffffffffffffff1916148015610559575061055867d8fbbb74a60b8d6760c01b611ec0565b5b80156105755750610574673cbc8b5003de07f060c01b611ec0565b5b5b806105a2575061058582611ecb565b80156105a157506105a067581d91d92400a7ff60c01b611ec0565b5b5b9050919050565b6060600080546105b890614f3a565b80601f01602080910402602001604051908101604052809291908181526020018280546105e490614f3a565b80156106315780601f1061060657610100808354040283529160200191610631565b820191906000526020600020905b81548152906001019060200180831161061457829003601f168201915b5050505050905090565b600061064682611f2c565b5061065082611fb4565b9050919050565b6106698282610664611ff1565b611ff9565b5050565b600073ffffffffffffffffffffffffffffffffffffffff168273ffffffffffffffffffffffffffffffffffffffff16036106df5760006040517f64a0ae920000000000000000000000000000000000000000000000000000000081526004016106d691906143ec565b60405180910390fd5b60006106f383836106ee611ff1565b61200b565b90508373ffffffffffffffffffffffffffffffffffffffff168173ffffffffffffffffffffffffffffffffffffffff1614610769578382826040517f64283d7b00000000000000000000000000000000000000000000000000000000815260040161076093929190614f6b565b60405180910390fd5b50505050565b61078a838383604051806020016040528060008152506118f1565b505050565b6107a3675460d426fe03f53160c01b611ebd565b6107b7672369de8ba82750ae60c01b611ebd565b6107cb67c57cd77cbcf82b0860c01b611ebd565b6107df67d77ee60c6960a26b60c01b611ebd565b6107e882612225565b610827576040517f08c379a000000000000000000000000000000000000000000000000000000000815260040161081e90614fee565b60405180910390fd5b61083b674c6d96aa1ebd69de60c01b611ebd565b61084f679b09636edbce122260c01b611ebd565b61086367166969bd30f8c6a460c01b611ebd565b61087767c24a90b361552e8c60c01b611ebd565b8273ffffffffffffffffffffffffffffffffffffffff1661089783610fc1565b73ffffffffffffffffffffffffffffffffffffffff16146108ed576040517f08c379a00000000000000000000000000000000000000000000000000000000081526004016108e490615080565b60405180910390fd5b61090167e6da66c33ef13c0b60c01b611ebd565b61091567c2d40873c743479c60c01b611ebd565b61092967ec6a8f1db842c50760c01b611ebd565b61093382826122a3565b505050565b61094c6744d522bfc4dce1fd60c01b611ebd565b61096067cd07cbe570d009d060c01b611ebd565b610974676b5452cc7717c5f860c01b611ebd565b60005b8151811015610d905761099467dee8783c88618df560c01b611ebd565b6109a8672d8417a79d7b157360c01b611ebd565b6000600760008484815181106109c1576109c06150a0565b5b6020026020010151815260200190815260200160002090506109ed6703bc2de35def15fd60c01b611ebd565b610a016754eb828e1802581360c01b611ebd565b60008160010160008773ffffffffffffffffffffffffffffffffffffffff1673ffffffffffffffffffffffffffffffffffffffff1681526020019081526020016000208054905003610af357610a61679f559926d843336460c01b611ebd565b610a75679f9036cace47dac060c01b611ebd565b610a8967b9a37cc97320d6fd60c01b611ebd565b80600301859080600181540180825580915050600190039060005260206000200160009091909190916101000a81548173ffffffffffffffffffffffffffffffffffffffff021916908373ffffffffffffffffffffffffffffffffffffffff160217905550610b08565b610b0767e7fed0b1eee5515560c01b611ebd565b5b610b1c675026784be95772bf60c01b611ebd565b610b306734f274dde38c367060c01b611ebd565b610b446712c0c0b8bc82604760c01b611ebd565b3073ffffffffffffffffffffffffffffffffffffffff168573ffffffffffffffffffffffffffffffffffffffff1603610bb2576040517f08c379a0000000000000000000000000000000000000000000000000000000008152600401610ba990615141565b60405180910390fd5b610bc667d4d16ef04de2a37360c01b611ebd565b610bda6741a5f0e4fa1261a560c01b611ebd565b610bee6787fe8de97a936ad760c01b611ebd565b42816004015410610c7057610c0d67761ecbdd1b085eb660c01b611ebd565b610c2167dae5f892bd6cfb7060c01b611ebd565b610c35672fa4eaf35cccf81660c01b611ebd565b6040517f08c379a0000000000000000000000000000000000000000000000000000000008152600401610c67906151d3565b60405180910390fd5b610c8467ac14116296ace09b60c01b611ebd565b610c9867a0faf5961f12d78460c01b611ebd565b610cac670b95427db614c82d60c01b611ebd565b8060010160008673ffffffffffffffffffffffffffffffffffffffff1673ffffffffffffffffffffffffffffffffffffffff168152602001908152602001600020849080600181540180825580915050600190039060005260206000200160009091909190915055610d2867d3fd0ed1c1ab9dc060c01b611ebd565b610d3c6776c3a9e598f7f5a460c01b611ebd565b610d82838381518110610d5257610d516150a0565b5b6020026020010151610d7d858581518110610d7057610d6f6150a0565b5b6020026020010151610fc1565b6122ff565b508080600101915050610977565b50505050565b610daa67540a1f49f495207360c01b611ebd565b610dbe677a41a37a50ed1ab960c01b611ebd565b610dd267a9d0219c1451235a60c01b611ebd565b610de6679c399e9905d457ba60c01b611ebd565b8051825114610e2a576040517f08c379a0000000000000000000000000000000000000000000000000000000008152600401610e2190615265565b60405180910390fd5b610e3e6799f52b12bb4c812a60c01b611ebd565b610e5267d361ee80edb3b37660c01b611ebd565b610e666769ac35d2a3c4e1c660c01b611ebd565b60005b8151811015610f5557610e86679545a5b343d0855f60c01b611ebd565b610e9a674a7e5911a5acc5ed60c01b611ebd565b6000828281518110610eaf57610eae6150a0565b5b60200260200101515103610f3457610ed16768e12075e8729c1b60c01b611ebd565b610ee56746eb90669f0cec0e60c01b611ebd565b610ef9677a571f63fca5229460c01b611ebd565b6040517f08c379a0000000000000000000000000000000000000000000000000000000008152600401610f2b906152f7565b60405180910390fd5b610f48673f1d7d9e487855c760c01b611ebd565b8080600101915050610e69565b50610f6a673d882426684f689c60c01b611ebd565b610f7e67e44dddacb820741860c01b611ebd565b610f8982848361240c565b610f9d678bfe7a8981cd09ff60c01b611ebd565b610fb167dda4df4d0431397760c01b611ebd565b610fbc8284836126f7565b505050565b6000610fcc82611f2c565b9050919050565b606080610fea672a8057187da5cf8260c01b611ebd565b610ffe679add4aeda7003fe160c01b611ebd565b61101267c6660e119135058f60c01b611ebd565b606061102867b3a4a8259077ba9860c01b611ebd565b61103c672430bfeb8b97136260c01b611ebd565b606061105267bd3d68142fe6281b60c01b611ebd565b61106667174391bbb45b39a760c01b611ebd565b3073ffffffffffffffffffffffffffffffffffffffff168673ffffffffffffffffffffffffffffffffffffffff1603611171576110ad679e1e839d46291d9b60c01b611ebd565b6110c16764ca6838e432570260c01b611ebd565b6110d567ab0285a8fec84ec460c01b611ebd565b6110e96741c6b1f0e1bcabc860c01b611ebd565b6110f285612225565b611131576040517f08c379a000000000000000000000000000000000000000000000000000000000815260040161112890614fee565b60405180910390fd5b611145679ca3fa73c943ed2560c01b611ebd565b611159679fbae1ec2cabc93960c01b611ebd565b611164856000612ef9565b809250819350505061137a565b611185677b90ee9dee2b0dd260c01b611ebd565b61119967e2822b8f3364110c60c01b611ebd565b6111ad6718addc167f8b300360c01b611ebd565b60008690506111c6673af9373257c4372f60c01b611ebd565b6111da67af82304f2637001e60c01b611ebd565b6111ee67cb839d786b652eee60c01b611ebd565b8073ffffffffffffffffffffffffffffffffffffffff166301ffc9a77f40997a20000000000000000000000000000000000000000000000000000000006040518263ffffffff1660e01b81526004016112479190615326565b602060405180830381865afa158015611264573d6000803e3d6000fd5b505050506040513d601f19601f820116820180604052508101906112889190615356565b6112c7576040517f08c379a00000000000000000000000000000000000000000000000000000000081526004016112be906153f5565b60405180910390fd5b6112db676d207c4bfc3ed37060c01b611ebd565b6112ef6760547426a1aa4e5e60c01b611ebd565b8073ffffffffffffffffffffffffffffffffffffffff166364f9b0e688886040518363ffffffff1660e01b815260040161132a929190615415565b600060405180830381865afa158015611347573d6000803e3d6000fd5b505050506040513d6000823e3d601f19601f82011682018060405250810190611370919061564b565b8093508194505050505b61138e67a716787646ac1d3f60c01b611ebd565b6113a2675e3e396560457aec60c01b611ebd565b81819350935050509250929050565b60008073ffffffffffffffffffffffffffffffffffffffff168273ffffffffffffffffffffffffffffffffffffffff16036114245760006040517f89c62b6400000000000000000000000000000000000000000000000000000000815260040161141b91906143ec565b60405180910390fd5b600360008373ffffffffffffffffffffffffffffffffffffffff1673ffffffffffffffffffffffffffffffffffffffff168152602001908152602001600020549050919050565b60606001805461147a90614f3a565b80601f01602080910402602001604051908101604052809291908181526020018280546114a690614f3a565b80156114f35780601f106114c8576101008083540402835291602001916114f3565b820191906000526020600020905b8154815290600101906020018083116114d657829003601f168201915b5050505050905090565b61150f611508611ff1565b838361347b565b5050565b60608061152a67d86d32e20293ebb160c01b611ebd565b61153e670a586fffcbf4c6f760c01b611ebd565b61155267f645f467f738065560c01b611ebd565b6060611568678b1676a574efa5a960c01b611ebd565b61157c67d949a6b568906fc160c01b611ebd565b6060611592677fcebe001c6a9be160c01b611ebd565b6115a667c22d6f017b655ce360c01b611ebd565b3073ffffffffffffffffffffffffffffffffffffffff168673ffffffffffffffffffffffffffffffffffffffff16036116b1576115ed67a0ea19dce62cac5560c01b611ebd565b611601677e5afd651f520a6660c01b611ebd565b611615676b5f420ffff6827660c01b611ebd565b611629673349e809553ef15c60c01b611ebd565b61163285612225565b611671576040517f08c379a000000000000000000000000000000000000000000000000000000000815260040161166890614fee565b60405180910390fd5b6116856749eccfc133eb6c5660c01b611ebd565b6116996710d325ca5b6fb94d60c01b611ebd565b6116a4856001612ef9565b80925081935050506118ba565b6116c5674c3d438bfd38ee0e60c01b611ebd565b6116d967877f097faf13e03060c01b611ebd565b6116ed67ae8d316ce031b54f60c01b611ebd565b6000869050611706679bfddd83cca26e5660c01b611ebd565b61171a6730904ec10040453060c01b611ebd565b61172e677c2d222a48483e7e60c01b611ebd565b8073ffffffffffffffffffffffffffffffffffffffff166301ffc9a77f40997a20000000000000000000000000000000000000000000000000000000006040518263ffffffff1660e01b81526004016117879190615326565b602060405180830381865afa1580156117a4573d6000803e3d6000fd5b505050506040513d601f19601f820116820180604052508101906117c89190615356565b611807576040517f08c379a00000000000000000000000000000000000000000000000000000000081526004016117fe906153f5565b60405180910390fd5b61181b6722d6790ee4835cd960c01b611ebd565b61182f67991a0eb7a444ecba60c01b611ebd565b8073ffffffffffffffffffffffffffffffffffffffff1663a35391ac88886040518363ffffffff1660e01b815260040161186a929190615415565b600060405180830381865afa158015611887573d6000803e3d6000fd5b505050506040513d6000823e3d601f19601f820116820180604052508101906118b0919061564b565b8093508194505050505b6118ce67499cc878fa47decd60c01b611ebd565b6118e267908473de3423b77f60c01b611ebd565b81819350935050509250929050565b6118fc84848461066d565b611910611907611ff1565b858585856135ea565b50505050565b606061192c67219dff15491ec04860c01b611ebd565b61194067fb03ce6e7d29487e60c01b611ebd565b61195467c3ed6073bf9b7c8f60c01b611ebd565b61195d8261379b565b9050919050565b600061197a67922a19d09fbeb1f060c01b611ebd565b61198e67b6089a468e74062e60c01b611ebd565b6119a2670489b003a74db55260c01b611ebd565b60006119b8673565147131b76fbd60c01b611ebd565b6119cc672847415d99b6576360c01b611ebd565b3073ffffffffffffffffffffffffffffffffffffffff168473ffffffffffffffffffffffffffffffffffffffff1603611b0b57611a1367d967ca7a173dce7160c01b611ebd565b611a276777f507db8991dd9660c01b611ebd565b611a3b67671e4031e8f1a71660c01b611ebd565b611a4f67a442e2f69ea8e32360c01b611ebd565b611a5883612225565b611a97576040517f08c379a0000000000000000000000000000000000000000000000000000000008152600401611a8e90614fee565b60405180910390fd5b611aab6773dd998ecc5fd80060c01b611ebd565b611abf67d28be19dad1d4e7f60c01b611ebd565b611ad36757cc17201b11ea0660c01b611ebd565b6000600760008581526020019081526020016000209050611afe6731d0ff825dbc1fcc60c01b611ebd565b8060040154915050611d09565b611b1f67b402457233ff120260c01b611ebd565b611b336798b3e8f4f484e8c160c01b611ebd565b611b4767da8c3905f1548e9960c01b611ebd565b6000849050611b6067584e8a86ecdb28bb60c01b611ebd565b611b7467bc5b15fe5430a67460c01b611ebd565b611b8867bbc49cc2a21cbe1560c01b611ebd565b8073ffffffffffffffffffffffffffffffffffffffff166301ffc9a77f40997a20000000000000000000000000000000000000000000000000000000006040518263ffffffff1660e01b8152600401611be19190615326565b602060405180830381865afa158015611bfe573d6000803e3d6000fd5b505050506040513d601f19601f82011682018060405250810190611c229190615356565b611c61576040517f08c379a0000000000000000000000000000000000000000000000000000000008152600401611c58906153f5565b60405180910390fd5b611c7567ec6e3248fade815260c01b611ebd565b611c8967406563109d49183b60c01b611ebd565b8073ffffffffffffffffffffffffffffffffffffffff1663d30d968d86866040518363ffffffff1660e01b8152600401611cc4929190615415565b602060405180830381865afa158015611ce1573d6000803e3d6000fd5b505050506040513d601f19601f82011682018060405250810190611d0591906156c3565b9150505b611d1d67bac7073e1bce58a060c01b611ebd565b611d3167ee374d7fafbcf9c760c01b611ebd565b8091505092915050565b6000600560008473ffffffffffffffffffffffffffffffffffffffff1673ffffffffffffffffffffffffffffffffffffffff16815260200190815260200160002060008373ffffffffffffffffffffffffffffffffffffffff1673ffffffffffffffffffffffffffffffffffffffff16815260200190815260200160002060009054906101000a900460ff16905092915050565b611de3675492b8c535dc75e060c01b611ebd565b611df767c5665a1e311030ac60c01b611ebd565b611e0b67e9f7d1de8c0500a260c01b611ebd565b611e1584846138ae565b611e296703fd6745a2b1e4a960c01b611ebd565b611e3d6791ae5ffffe978b5260c01b611ebd565b6000815114158015611e5157506000825114155b15611ea257611e6a67197bd7e8bc0b52ed60c01b611ebd565b611e7e67724e9ef09b32a50860c01b611ebd565b611e926757f07f7f0e85bc9b60c01b611ebd565b611e9d838383610d96565b611eb7565b611eb667cf7332ec9bc2c88a60c01b611ebd565b5b50505050565b50565b600060019050919050565b6000634906490660e01b7bffffffffffffffffffffffffffffffffffffffffffffffffffffffff1916827bffffffffffffffffffffffffffffffffffffffffffffffffffffffff19161480611f255750611f24826138cc565b5b9050919050565b600080611f38836139ae565b9050600073ffffffffffffffffffffffffffffffffffffffff168173ffffffffffffffffffffffffffffffffffffffff1603611fab57826040517f7e273289000000000000000000000000000000000000000000000000000000008152600401611fa29190614c81565b60405180910390fd5b80915050919050565b60006004600083815260200190815260200160002060009054906101000a900473ffffffffffffffffffffffffffffffffffffffff169050919050565b600033905090565b61200683838360016139eb565b505050565b600080612017846139ae565b9050600073ffffffffffffffffffffffffffffffffffffffff168373ffffffffffffffffffffffffffffffffffffffff161461205957612058818486613bb0565b5b600073ffffffffffffffffffffffffffffffffffffffff168173ffffffffffffffffffffffffffffffffffffffff16146120ea5761209b6000856000806139eb565b6001600360008373ffffffffffffffffffffffffffffffffffffffff1673ffffffffffffffffffffffffffffffffffffffff168152602001908152602001600020600082825403925050819055505b600073ffffffffffffffffffffffffffffffffffffffff168573ffffffffffffffffffffffffffffffffffffffff161461216d576001600360008773ffffffffffffffffffffffffffffffffffffffff1673ffffffffffffffffffffffffffffffffffffffff168152602001908152602001600020600082825401925050819055505b846002600086815260200190815260200160002060006101000a81548173ffffffffffffffffffffffffffffffffffffffff021916908373ffffffffffffffffffffffffffffffffffffffff160217905550838573ffffffffffffffffffffffffffffffffffffffff168273ffffffffffffffffffffffffffffffffffffffff167fddf252ad1be2c89b69c2b068fc378daa952ba7f163c4a11628f55a4df523b3ef60405160405180910390a4809150509392505050565b600061223b6796a6b609c6d1eb2d60c01b611ebd565b61224f679026c3eb5a9d11b860c01b611ebd565b61226367f8bd7d56748f9d3460c01b611ebd565b600073ffffffffffffffffffffffffffffffffffffffff1661228483610fc1565b73ffffffffffffffffffffffffffffffffffffffff1614159050919050565b806006600084815260200190815260200160002090816122c3919061589c565b507ff8e1a15aba9398e019f0b49df1a4fde98ee17ae345cb5f6b5e2c27f5033e8ce7826040516122f39190614c81565b60405180910390a15050565b61231367adf78b3b1579fc6260c01b611ebd565b6123276733b954b076514d7060c01b611ebd565b61233b6781714145c809a1dc60c01b611ebd565b600080612349846001612ef9565b9150915061236167df8a3382a9c03d3c60c01b611ebd565b61237567d6b849daa297032c60c01b611ebd565b600080612383866000612ef9565b9150915061239b6750249e3ad984a83760c01b611ebd565b6123af678e16e2923a7dea6a60c01b611ebd565b8473ffffffffffffffffffffffffffffffffffffffff16867f81bed52c04e8cd65796985202162bad7e20a8ffaa732fe2e0a0bc79f687e4d66868686866040516123fc949392919061596e565b60405180910390a3505050505050565b612420674dac4d6b12717c7e60c01b611ebd565b61243467685a152b54e717f360c01b611ebd565b6124486777f929af3438512f60c01b611ebd565b6000600760008481526020019081526020016000209050612473678e458fbeadabdd5960c01b611ebd565b612487675f2fc45deea99fdd60c01b611ebd565b60005b84518110156126a1576124a76785c5e3fbc183606460c01b611ebd565b6124bb67d8a1d2bcc3e516c060c01b611ebd565b60008260000160008784815181106124d6576124d56150a0565b5b602002602001015173ffffffffffffffffffffffffffffffffffffffff1673ffffffffffffffffffffffffffffffffffffffff16815260200190815260200160002080549050036125e15761253567c83094816b0c8dc260c01b611ebd565b61254967bce6fe83daee16fc60c01b611ebd565b61255d674eb186806663984560c01b611ebd565b81600201858281518110612574576125736150a0565b5b60200260200101519080600181540180825580915050600190039060005260206000200160009091909190916101000a81548173ffffffffffffffffffffffffffffffffffffffff021916908373ffffffffffffffffffffffffffffffffffffffff1602179055506125f6565b6125f567cf8089f71bb59d0560c01b611ebd565b5b61260a675536f92cec9768c660c01b611ebd565b82818151811061261d5761261c6150a0565b5b602002602001015182600001600087848151811061263e5761263d6150a0565b5b602002602001015173ffffffffffffffffffffffffffffffffffffffff1673ffffffffffffffffffffffffffffffffffffffff168152602001908152602001600020908051906020019061269392919061415d565b50808060010191505061248a565b506126b667698030a8e604f0d060c01b611ebd565b4281600401819055506126d367416ffe2852f1c6ab60c01b611ebd565b6126e7673f6b5792e10bf97a60c01b611ebd565b6126f183336122ff565b50505050565b61270b670dfd7d5a926631bc60c01b611ebd565b61271e6612171346c366fc60c01b611ebd565b61273267ebdd72b62daa7fe060c01b611ebd565b60005b8351811015612ef35761275267ac1d061f240d056e60c01b611ebd565b612766673d2b56996d6dac3b60c01b611ebd565b3073ffffffffffffffffffffffffffffffffffffffff168482815181106127905761278f6150a0565b5b602002602001015173ffffffffffffffffffffffffffffffffffffffff1603612cb5576127c767cf95859994893d4b60c01b611ebd565b6127db67101c6357f20657d160c01b611ebd565b6127ef67bddb021f04a8936660c01b611ebd565b60005b828281518110612805576128046150a0565b5b602002602001015151811015612caf57612829671ec3aaf902715c8d60c01b611ebd565b61283d67e39e39f0833e87e960c01b611ebd565b600060076000858581518110612856576128556150a0565b5b602002602001015184815181106128705761286f6150a0565b5b60200260200101518152602001908152602001600020905061289c6789696f61d4096f0060c01b611ebd565b6128b067eab6a0c1bfd93c6f60c01b611ebd565b60008160010160008886815181106128cb576128ca6150a0565b5b602002602001015173ffffffffffffffffffffffffffffffffffffffff1673ffffffffffffffffffffffffffffffffffffffff16815260200190815260200160002080549050036129d65761292a6783a8528c3982cd0e60c01b611ebd565b61293e67fb9b0b5b9e018d0460c01b611ebd565b6129526713501e79ad84128660c01b611ebd565b80600301868481518110612969576129686150a0565b5b60200260200101519080600181540180825580915050600190039060005260206000200160009091909190916101000a81548173ffffffffffffffffffffffffffffffffffffffff021916908373ffffffffffffffffffffffffffffffffffffffff1602179055506129eb565b6129ea67c5ba9666b37d3bc260c01b611ebd565b5b6129ff67239e433522a110da60c01b611ebd565b612a1367d301368bedc65ad560c01b611ebd565b612a27670726be337865ba4d60c01b611ebd565b838381518110612a3a57612a396150a0565b5b60200260200101518281518110612a5457612a536150a0565b5b60200260200101518503612a9d576040517f08c379a0000000000000000000000000000000000000000000000000000000008152600401612a9490615a41565b60405180910390fd5b612ab1674f7cc68646c24e4e60c01b611ebd565b612ac567c7e8abb19549febe60c01b611ebd565b612ad967da11b2fbd1e6987660c01b611ebd565b42816004015410612b5b57612af867fcd4831cbe36884560c01b611ebd565b612b0c67c8a634ac8f73f9ce60c01b611ebd565b612b2067f0543f15e11c4ab760c01b611ebd565b6040517f08c379a0000000000000000000000000000000000000000000000000000000008152600401612b52906151d3565b60405180910390fd5b612b6f67db4510bc9be57d4860c01b611ebd565b612b83672a229b5d514333d960c01b611ebd565b612b9767e642867953b38ffa60c01b611ebd565b8060010160003073ffffffffffffffffffffffffffffffffffffffff1673ffffffffffffffffffffffffffffffffffffffff168152602001908152602001600020859080600181540180825580915050600190039060005260206000200160009091909190915055612c13675d7fbc5563d058e360c01b611ebd565b612c2767a13f6b70785cd77b60c01b611ebd565b612ca1848481518110612c3d57612c3c6150a0565b5b60200260200101518381518110612c5757612c566150a0565b5b6020026020010151612c9c868681518110612c7557612c746150a0565b5b60200260200101518581518110612c8f57612c8e6150a0565b5b6020026020010151610fc1565b6122ff565b5080806001019150506127f2565b50612ee6565b612cc96712a8f52de2a8923360c01b611ebd565b612cdd67c810b4a0fe24a62160c01b611ebd565b612cf1670102fb90a76c52da60c01b611ebd565b6000848281518110612d0657612d056150a0565b5b60200260200101519050612d24677416649f45a6056760c01b611ebd565b612d3867c14326e58b85d4a360c01b611ebd565b60008173ffffffffffffffffffffffffffffffffffffffff166301ffc9a77f40997a20000000000000000000000000000000000000000000000000000000006040518263ffffffff1660e01b8152600401612d939190615326565b602060405180830381865afa158015612db0573d6000803e3d6000fd5b505050506040513d601f19601f82011682018060405250810190612dd49190615356565b9050612dea674c10347e8f2fab9e60c01b611ebd565b612dfe6753b8de672ad546c360c01b611ebd565b8015612ece57612e1867d3d0a0e2ef0a59ec60c01b611ebd565b612e2c6702f1f267c4a3746e60c01b611ebd565b612e4067ffb6e75851ba729260c01b611ebd565b8173ffffffffffffffffffffffffffffffffffffffff166355c104403087878781518110612e7157612e706150a0565b5b60200260200101516040518463ffffffff1660e01b8152600401612e9793929190615ad0565b600060405180830381600087803b158015612eb157600080fd5b505af1158015612ec5573d6000803e3d6000fd5b50505050612ee3565b612ee267a0d76f2af6bb283c60c01b611ebd565b5b50505b8080600101915050612735565b50505050565b606080612f1067c045bb855c8f90ca60c01b611ebd565b612f24679afe305efbb6915b60c01b611ebd565b612f3867af67464a02ffe4ab60c01b611ebd565b6000600760008681526020019081526020016000209050612f636795dc51acdbfb697060c01b611ebd565b612f77675fb0b59e7d80728160c01b611ebd565b6060612f8d671d9c1dfdbd39a0ff60c01b611ebd565b612fa167056f61d010f0977960c01b611ebd565b6060612fb767a284e1d97d603e5d60c01b611ebd565b612fcb67f8974b53bf13562860c01b611ebd565b851561320c57612fe5673576a8e80fa0ae7060c01b611ebd565b612ff96793ee727b96137bcd60c01b611ebd565b8260020180548060200260200160405190810160405280929190818152602001828054801561307d57602002820191906000526020600020905b8160009054906101000a900473ffffffffffffffffffffffffffffffffffffffff1673ffffffffffffffffffffffffffffffffffffffff1681526020019060010190808311613033575b5050505050915061309867bff9ea6d1820fce960c01b611ebd565b815167ffffffffffffffff8111156130b3576130b26144d0565b5b6040519080825280602002602001820160405280156130e657816020015b60608152602001906001900390816130d15790505b5090506130fd676532678eeb57114c60c01b611ebd565b613111672fd1a4bf1c90fd7360c01b611ebd565b60005b825181101561320657613131674ffdf90c89f3122a60c01b611ebd565b83600001600084838151811061314a576131496150a0565b5b602002602001015173ffffffffffffffffffffffffffffffffffffffff1673ffffffffffffffffffffffffffffffffffffffff1681526020019081526020016000208054806020026020016040519081016040528092919081815260200182805480156131d657602002820191906000526020600020905b8154815260200190600101908083116131c2575b50505050508282815181106131ee576131ed6150a0565b5b60200260200101819052508080600101915050613114565b50613443565b613220679c0cba8c4db5c38560c01b611ebd565b61323467ae0c2bf4b808856760c01b611ebd565b826003018054806020026020016040519081016040528092919081815260200182805480156132b857602002820191906000526020600020905b8160009054906101000a900473ffffffffffffffffffffffffffffffffffffffff1673ffffffffffffffffffffffffffffffffffffffff168152602001906001019080831161326e575b505050505091506132d367bc16725d583300a460c01b611ebd565b815167ffffffffffffffff8111156132ee576132ed6144d0565b5b60405190808252806020026020018201604052801561332157816020015b606081526020019060019003908161330c5790505b50905061333867d798f0a5671d5b2360c01b611ebd565b61334c67571e1f6b7880669760c01b611ebd565b60005b82518110156134415761336c67ebf71c5b21f77b4860c01b611ebd565b836001016000848381518110613385576133846150a0565b5b602002602001015173ffffffffffffffffffffffffffffffffffffffff1673ffffffffffffffffffffffffffffffffffffffff16815260200190815260200160002080548060200260200160405190810160405280929190818152602001828054801561341157602002820191906000526020600020905b8154815260200190600101908083116133fd575b5050505050828281518110613429576134286150a0565b5b6020026020010181905250808060010191505061334f565b505b6134576777a3ee7b95ea2e0560c01b611ebd565b61346b672218791ed2864eda60c01b611ebd565b8181945094505050509250929050565b600073ffffffffffffffffffffffffffffffffffffffff168273ffffffffffffffffffffffffffffffffffffffff16036134ec57816040517f5b08ba180000000000000000000000000000000000000000000000000000000081526004016134e391906143ec565b60405180910390fd5b80600560008573ffffffffffffffffffffffffffffffffffffffff1673ffffffffffffffffffffffffffffffffffffffff16815260200190815260200160002060008473ffffffffffffffffffffffffffffffffffffffff1673ffffffffffffffffffffffffffffffffffffffff16815260200190815260200160002060006101000a81548160ff0219169083151502179055508173ffffffffffffffffffffffffffffffffffffffff168373ffffffffffffffffffffffffffffffffffffffff167f17307eab39ab6107e8899845ad3d59bd9653f200f220920489ca2b5937696c31836040516135dd919061427b565b60405180910390a3505050565b60008373ffffffffffffffffffffffffffffffffffffffff163b1115613794578273ffffffffffffffffffffffffffffffffffffffff1663150b7a02868685856040518563ffffffff1660e01b81526004016136499493929190615b63565b6020604051808303816000875af192505050801561368557506040513d601f19601f820116820180604052508101906136829190615bc4565b60015b613709573d80600081146136b5576040519150601f19603f3d011682016040523d82523d6000602084013e6136ba565b606091505b50600081510361370157836040517f64a0ae920000000000000000000000000000000000000000000000000000000081526004016136f891906143ec565b60405180910390fd5b805181602001fd5b63150b7a0260e01b7bffffffffffffffffffffffffffffffffffffffffffffffffffffffff1916817bffffffffffffffffffffffffffffffffffffffffffffffffffffffff19161461379257836040517f64a0ae9200000000000000000000000000000000000000000000000000000000815260040161378991906143ec565b60405180910390fd5b505b5050505050565b60606137a682611f2c565b5060006006600084815260200190815260200160002080546137c790614f3a565b80601f01602080910402602001604051908101604052809291908181526020018280546137f390614f3a565b80156138405780601f1061381557610100808354040283529160200191613840565b820191906000526020600020905b81548152906001019060200180831161382357829003601f168201915b505050505090506000613851613c74565b905060008151036138665781925050506138a9565b60008251111561389b578082604051602001613883929190615c2d565b604051602081830303815290604052925050506138a9565b6138a484613c8b565b925050505b919050565b6138c8828260405180602001604052806000815250613cf4565b5050565b60007f80ac58cd000000000000000000000000000000000000000000000000000000007bffffffffffffffffffffffffffffffffffffffffffffffffffffffff1916827bffffffffffffffffffffffffffffffffffffffffffffffffffffffff1916148061399757507f5b5e139f000000000000000000000000000000000000000000000000000000007bffffffffffffffffffffffffffffffffffffffffffffffffffffffff1916827bffffffffffffffffffffffffffffffffffffffffffffffffffffffff1916145b806139a757506139a682613d18565b5b9050919050565b60006002600083815260200190815260200160002060009054906101000a900473ffffffffffffffffffffffffffffffffffffffff169050919050565b8080613a245750600073ffffffffffffffffffffffffffffffffffffffff168273ffffffffffffffffffffffffffffffffffffffff1614155b15613b58576000613a3484611f2c565b9050600073ffffffffffffffffffffffffffffffffffffffff168373ffffffffffffffffffffffffffffffffffffffff1614158015613a9f57508273ffffffffffffffffffffffffffffffffffffffff168173ffffffffffffffffffffffffffffffffffffffff1614155b8015613ab25750613ab08184611d3b565b155b15613af457826040517fa9fbf51f000000000000000000000000000000000000000000000000000000008152600401613aeb91906143ec565b60405180910390fd5b8115613b5657838573ffffffffffffffffffffffffffffffffffffffff168273ffffffffffffffffffffffffffffffffffffffff167f8c5be1e5ebec7d5bd14f71427d1e84f3dd0314c0f7b2291e5b200ac8c7c3b92560405160405180910390a45b505b836004600085815260200190815260200160002060006101000a81548173ffffffffffffffffffffffffffffffffffffffff021916908373ffffffffffffffffffffffffffffffffffffffff16021790555050505050565b613bbb838383613d82565b613c6f57600073ffffffffffffffffffffffffffffffffffffffff168373ffffffffffffffffffffffffffffffffffffffff1603613c3057806040517f7e273289000000000000000000000000000000000000000000000000000000008152600401613c279190614c81565b60405180910390fd5b81816040517f177e802f000000000000000000000000000000000000000000000000000000008152600401613c66929190615415565b60405180910390fd5b505050565b606060405180602001604052806000815250905090565b6060613c9682611f2c565b506000613ca1613c74565b90506000815111613cc15760405180602001604052806000815250613cec565b80613ccb84613e43565b604051602001613cdc929190615c2d565b6040516020818303038152906040525b915050919050565b613cfe8383613f11565b613d13613d09611ff1565b60008585856135ea565b505050565b60007f01ffc9a7000000000000000000000000000000000000000000000000000000007bffffffffffffffffffffffffffffffffffffffffffffffffffffffff1916827bffffffffffffffffffffffffffffffffffffffffffffffffffffffff1916149050919050565b60008073ffffffffffffffffffffffffffffffffffffffff168373ffffffffffffffffffffffffffffffffffffffff1614158015613e3a57508273ffffffffffffffffffffffffffffffffffffffff168473ffffffffffffffffffffffffffffffffffffffff161480613dfb5750613dfa8484611d3b565b5b80613e3957508273ffffffffffffffffffffffffffffffffffffffff16613e2183611fb4565b73ffffffffffffffffffffffffffffffffffffffff16145b5b90509392505050565b606060006001613e528461400a565b01905060008167ffffffffffffffff811115613e7157613e706144d0565b5b6040519080825280601f01601f191660200182016040528015613ea35781602001600182028036833780820191505090505b509050600082602001820190505b600115613f06578080600190039150507f3031323334353637383961626364656600000000000000000000000000000000600a86061a8153600a8581613efa57613ef9615c51565b5b04945060008503613eb1575b819350505050919050565b600073ffffffffffffffffffffffffffffffffffffffff168273ffffffffffffffffffffffffffffffffffffffff1603613f835760006040517f64a0ae92000000000000000000000000000000000000000000000000000000008152600401613f7a91906143ec565b60405180910390fd5b6000613f918383600061200b565b9050600073ffffffffffffffffffffffffffffffffffffffff168173ffffffffffffffffffffffffffffffffffffffff16146140055760006040517f73c6ac6e000000000000000000000000000000000000000000000000000000008152600401613ffc91906143ec565b60405180910390fd5b505050565b600080600090507a184f03e93ff9f4daa797ed6e38ed64bf6a1f0100000000000000008310614068577a184f03e93ff9f4daa797ed6e38ed64bf6a1f010000000000000000838161405e5761405d615c51565b5b0492506040810190505b6d04ee2d6d415b85acef810000000083106140a5576d04ee2d6d415b85acef8100000000838161409b5761409a615c51565b5b0492506020810190505b662386f26fc1000083106140d457662386f26fc1000083816140ca576140c9615c51565b5b0492506010810190505b6305f5e10083106140fd576305f5e10083816140f3576140f2615c51565b5b0492506008810190505b612710831061412257612710838161411857614117615c51565b5b0492506004810190505b60648310614145576064838161413b5761413a615c51565b5b0492506002810190505b600a8310614154576001810190505b80915050919050565b828054828255906000526020600020908101928215614199579160200282015b8281111561419857825182559160200191906001019061417d565b5b5090506141a691906141aa565b5090565b5b808211156141c35760008160009055506001016141ab565b5090565b6000604051905090565b600080fd5b600080fd5b60007fffffffff0000000000000000000000000000000000000000000000000000000082169050919050565b614210816141db565b811461421b57600080fd5b50565b60008135905061422d81614207565b92915050565b600060208284031215614249576142486141d1565b5b60006142578482850161421e565b91505092915050565b60008115159050919050565b61427581614260565b82525050565b6000602082019050614290600083018461426c565b92915050565b600081519050919050565b600082825260208201905092915050565b60005b838110156142d05780820151818401526020810190506142b5565b60008484015250505050565b6000601f19601f8301169050919050565b60006142f882614296565b61430281856142a1565b93506143128185602086016142b2565b61431b816142dc565b840191505092915050565b6000602082019050818103600083015261434081846142ed565b905092915050565b6000819050919050565b61435b81614348565b811461436657600080fd5b50565b60008135905061437881614352565b92915050565b600060208284031215614394576143936141d1565b5b60006143a284828501614369565b91505092915050565b600073ffffffffffffffffffffffffffffffffffffffff82169050919050565b60006143d6826143ab565b9050919050565b6143e6816143cb565b82525050565b600060208201905061440160008301846143dd565b92915050565b614410816143cb565b811461441b57600080fd5b50565b60008135905061442d81614407565b92915050565b6000806040838503121561444a576144496141d1565b5b60006144588582860161441e565b925050602061446985828601614369565b9150509250929050565b60008060006060848603121561448c5761448b6141d1565b5b600061449a8682870161441e565b93505060206144ab8682870161441e565b92505060406144bc86828701614369565b9150509250925092565b600080fd5b600080fd5b7f4e487b7100000000000000000000000000000000000000000000000000000000600052604160045260246000fd5b614508826142dc565b810181811067ffffffffffffffff82111715614527576145266144d0565b5b80604052505050565b600061453a6141c7565b905061454682826144ff565b919050565b600067ffffffffffffffff821115614566576145656144d0565b5b61456f826142dc565b9050602081019050919050565b82818337600083830152505050565b600061459e6145998461454b565b614530565b9050828152602081018484840111156145ba576145b96144cb565b5b6145c584828561457c565b509392505050565b600082601f8301126145e2576145e16144c6565b5b81356145f284826020860161458b565b91505092915050565b600080600060608486031215614614576146136141d1565b5b60006146228682870161441e565b935050602061463386828701614369565b925050604084013567ffffffffffffffff811115614654576146536141d6565b5b614660868287016145cd565b9150509250925092565b600067ffffffffffffffff821115614685576146846144d0565b5b602082029050602081019050919050565b600080fd5b60006146ae6146a98461466a565b614530565b905080838252602082019050602084028301858111156146d1576146d0614696565b5b835b818110156146fa57806146e68882614369565b8452602084019350506020810190506146d3565b5050509392505050565b600082601f830112614719576147186144c6565b5b813561472984826020860161469b565b91505092915050565b60008060006060848603121561474b5761474a6141d1565b5b60006147598682870161441e565b935050602061476a86828701614369565b925050604084013567ffffffffffffffff81111561478b5761478a6141d6565b5b61479786828701614704565b9150509250925092565b600067ffffffffffffffff8211156147bc576147bb6144d0565b5b602082029050602081019050919050565b60006147e06147db846147a1565b614530565b9050808382526020820190506020840283018581111561480357614802614696565b5b835b8181101561482c5780614818888261441e565b845260208401935050602081019050614805565b5050509392505050565b600082601f83011261484b5761484a6144c6565b5b813561485b8482602086016147cd565b91505092915050565b600067ffffffffffffffff82111561487f5761487e6144d0565b5b602082029050602081019050919050565b60006148a361489e84614864565b614530565b905080838252602082019050602084028301858111156148c6576148c5614696565b5b835b8181101561490d57803567ffffffffffffffff8111156148eb576148ea6144c6565b5b8086016148f88982614704565b855260208501945050506020810190506148c8565b5050509392505050565b600082601f83011261492c5761492b6144c6565b5b813561493c848260208601614890565b91505092915050565b60008060006060848603121561495e5761495d6141d1565b5b600061496c86828701614369565b935050602084013567ffffffffffffffff81111561498d5761498c6141d6565b5b61499986828701614836565b925050604084013567ffffffffffffffff8111156149ba576149b96141d6565b5b6149c686828701614917565b9150509250925092565b600081519050919050565b600082825260208201905092915050565b6000819050602082019050919050565b614a05816143cb565b82525050565b6000614a1783836149fc565b60208301905092915050565b6000602082019050919050565b6000614a3b826149d0565b614a4581856149db565b9350614a50836149ec565b8060005b83811015614a81578151614a688882614a0b565b9750614a7383614a23565b925050600181019050614a54565b5085935050505092915050565b600081519050919050565b600082825260208201905092915050565b6000819050602082019050919050565b600081519050919050565b600082825260208201905092915050565b6000819050602082019050919050565b614aef81614348565b82525050565b6000614b018383614ae6565b60208301905092915050565b6000602082019050919050565b6000614b2582614aba565b614b2f8185614ac5565b9350614b3a83614ad6565b8060005b83811015614b6b578151614b528882614af5565b9750614b5d83614b0d565b925050600181019050614b3e565b5085935050505092915050565b6000614b848383614b1a565b905092915050565b6000602082019050919050565b6000614ba482614a8e565b614bae8185614a99565b935083602082028501614bc085614aaa565b8060005b85811015614bfc5784840389528151614bdd8582614b78565b9450614be883614b8c565b925060208a01995050600181019050614bc4565b50829750879550505050505092915050565b60006040820190508181036000830152614c288185614a30565b90508181036020830152614c3c8184614b99565b90509392505050565b600060208284031215614c5b57614c5a6141d1565b5b6000614c698482850161441e565b91505092915050565b614c7b81614348565b82525050565b6000602082019050614c966000830184614c72565b92915050565b614ca581614260565b8114614cb057600080fd5b50565b600081359050614cc281614c9c565b92915050565b60008060408385031215614cdf57614cde6141d1565b5b6000614ced8582860161441e565b9250506020614cfe85828601614cb3565b9150509250929050565b600067ffffffffffffffff821115614d2357614d226144d0565b5b614d2c826142dc565b9050602081019050919050565b6000614d4c614d4784614d08565b614530565b905082815260208101848484011115614d6857614d676144cb565b5b614d7384828561457c565b509392505050565b600082601f830112614d9057614d8f6144c6565b5b8135614da0848260208601614d39565b91505092915050565b60008060008060808587031215614dc357614dc26141d1565b5b6000614dd18782880161441e565b9450506020614de28782880161441e565b9350506040614df387828801614369565b925050606085013567ffffffffffffffff811115614e1457614e136141d6565b5b614e2087828801614d7b565b91505092959194509250565b60008060408385031215614e4357614e426141d1565b5b6000614e518582860161441e565b9250506020614e628582860161441e565b9150509250929050565b60008060008060808587031215614e8657614e856141d1565b5b6000614e948782880161441e565b9450506020614ea587828801614369565b935050604085013567ffffffffffffffff811115614ec657614ec56141d6565b5b614ed287828801614836565b925050606085013567ffffffffffffffff811115614ef357614ef26141d6565b5b614eff87828801614917565b91505092959194509250565b7f4e487b7100000000000000000000000000000000000000000000000000000000600052602260045260246000fd5b60006002820490506001821680614f5257607f821691505b602082108103614f6557614f64614f0b565b5b50919050565b6000606082019050614f8060008301866143dd565b614f8d6020830185614c72565b614f9a60408301846143dd565b949350505050565b7f4552435f353532313a20746f6b656e204944206e6f7420657869737465640000600082015250565b6000614fd8601e836142a1565b9150614fe382614fa2565b602082019050919050565b6000602082019050818103600083015261500781614fcb565b9050919050565b7f4552435f353532313a207472616e736665722063616c6c6572206973206e6f7460008201527f206f776e6572206e6f7220617070726f76656400000000000000000000000000602082015250565b600061506a6033836142a1565b91506150758261500e565b604082019050919050565b600060208201905081810360008301526150998161505d565b9050919050565b7f4e487b7100000000000000000000000000000000000000000000000000000000600052603260045260246000fd5b7f4552435f353532313a2074686973206d75737420626520616e2065787465726e60008201527f616c20636f6e7472616374206164647265737300000000000000000000000000602082015250565b600061512b6033836142a1565b9150615136826150cf565b604082019050919050565b6000602082019050818103600083015261515a8161511e565b9050919050565b7f4552435f353532313a2074686520726566657272656420724e4654206e65656460008201527f7320746f2062652061207072656465636573736f720000000000000000000000602082015250565b60006151bd6035836142a1565b91506151c882615161565b604082019050919050565b600060208201905081810360008301526151ec816151b0565b9050919050565b7f41646472657373657320616e6420546f6b656e494420617272617973206d757360008201527f742068617665207468652073616d65206c656e67746800000000000000000000602082015250565b600061524f6036836142a1565b915061525a826151f3565b604082019050919050565b6000602082019050818103600083015261527e81615242565b9050919050565b7f4552435f353532313a2074686520726566657272696e67206c6973742063616e60008201527f6e6f7420626520656d7074790000000000000000000000000000000000000000602082015250565b60006152e1602c836142a1565b91506152ec82615285565b604082019050919050565b60006020820190508181036000830152615310816152d4565b9050919050565b615320816141db565b82525050565b600060208201905061533b6000830184615317565b92915050565b60008151905061535081614c9c565b92915050565b60006020828403121561536c5761536b6141d1565b5b600061537a84828501615341565b91505092915050565b7f4552435f353532313a2074617267657420636f6e7472616374206e6f7420737560008201527f70706f7274656400000000000000000000000000000000000000000000000000602082015250565b60006153df6027836142a1565b91506153ea82615383565b604082019050919050565b6000602082019050818103600083015261540e816153d2565b9050919050565b600060408201905061542a60008301856143dd565b6154376020830184614c72565b9392505050565b60008151905061544d81614407565b92915050565b6000615466615461846147a1565b614530565b9050808382526020820190506020840283018581111561548957615488614696565b5b835b818110156154b2578061549e888261543e565b84526020840193505060208101905061548b565b5050509392505050565b600082601f8301126154d1576154d06144c6565b5b81516154e1848260208601615453565b91505092915050565b6000815190506154f981614352565b92915050565b600061551261550d8461466a565b614530565b9050808382526020820190506020840283018581111561553557615534614696565b5b835b8181101561555e578061554a88826154ea565b845260208401935050602081019050615537565b5050509392505050565b600082601f83011261557d5761557c6144c6565b5b815161558d8482602086016154ff565b91505092915050565b60006155a96155a484614864565b614530565b905080838252602082019050602084028301858111156155cc576155cb614696565b5b835b8181101561561357805167ffffffffffffffff8111156155f1576155f06144c6565b5b8086016155fe8982615568565b855260208501945050506020810190506155ce565b5050509392505050565b600082601f830112615632576156316144c6565b5b8151615642848260208601615596565b91505092915050565b60008060408385031215615662576156616141d1565b5b600083015167ffffffffffffffff8111156156805761567f6141d6565b5b61568c858286016154bc565b925050602083015167ffffffffffffffff8111156156ad576156ac6141d6565b5b6156b98582860161561d565b9150509250929050565b6000602082840312156156d9576156d86141d1565b5b60006156e7848285016154ea565b91505092915050565b60008190508160005260206000209050919050565b60006020601f8301049050919050565b600082821b905092915050565b6000600883026157527fffffffffffffffffffffffffffffffffffffffffffffffffffffffffffffffff82615715565b61575c8683615715565b95508019841693508086168417925050509392505050565b6000819050919050565b600061579961579461578f84614348565b615774565b614348565b9050919050565b6000819050919050565b6157b38361577e565b6157c76157bf826157a0565b848454615722565b825550505050565b600090565b6157dc6157cf565b6157e78184846157aa565b505050565b5b8181101561580b576158006000826157d4565b6001810190506157ed565b5050565b601f82111561585057615821816156f0565b61582a84615705565b81016020851015615839578190505b61584d61584585615705565b8301826157ec565b50505b505050565b600082821c905092915050565b600061587360001984600802615855565b1980831691505092915050565b600061588c8383615862565b9150826002028217905092915050565b6158a582614296565b67ffffffffffffffff8111156158be576158bd6144d0565b5b6158c88254614f3a565b6158d382828561580f565b600060209050601f83116001811461590657600084156158f4578287015190505b6158fe8582615880565b865550615966565b601f198416615914866156f0565b60005b8281101561593c57848901518255600182019150602085019450602081019050615917565b868310156159595784890151615955601f891682615862565b8355505b6001600288020188555050505b505050505050565b600060808201905081810360008301526159888187614a30565b9050818103602083015261599c8186614b99565b905081810360408301526159b08185614a30565b905081810360608301526159c48184614b99565b905095945050505050565b7f4552435f353532313a2073656c662d7265666572656e6365206e6f7420616c6c60008201527f6f77656400000000000000000000000000000000000000000000000000000000602082015250565b6000615a2b6024836142a1565b9150615a36826159cf565b604082019050919050565b60006020820190508181036000830152615a5a81615a1e565b9050919050565b600082825260208201905092915050565b6000615a7d82614aba565b615a878185615a61565b9350615a9283614ad6565b8060005b83811015615ac3578151615aaa8882614af5565b9750615ab583614b0d565b925050600181019050615a96565b5085935050505092915050565b6000606082019050615ae560008301866143dd565b615af26020830185614c72565b8181036040830152615b048184615a72565b9050949350505050565b600081519050919050565b600082825260208201905092915050565b6000615b3582615b0e565b615b3f8185615b19565b9350615b4f8185602086016142b2565b615b58816142dc565b840191505092915050565b6000608082019050615b7860008301876143dd565b615b8560208301866143dd565b615b926040830185614c72565b8181036060830152615ba48184615b2a565b905095945050505050565b600081519050615bbe81614207565b92915050565b600060208284031215615bda57615bd96141d1565b5b6000615be884828501615baf565b91505092915050565b600081905092915050565b6000615c0782614296565b615c118185615bf1565b9350615c218185602086016142b2565b80840191505092915050565b6000615c398285615bfc565b9150615c458284615bfc565b91508190509392505050565b7f4e487b7100000000000000000000000000000000000000000000000000000000600052601260045260246000fdfea2646970667358221220b5c0e8278e291e5b9f402469cca0b053126e17d9a45696bd64b68285fca5e52c64736f6c634300081c0033",
  "linkReferences": {},
  "deployedLinkReferences": {}
}