{
  "_format": "hh-sol-artifact-1",
  "contractName": "ERC_5521",
  "sourceName": "contracts/ERC_5521.sol",
  "abi": [
    {
      "inputs": [
        {
          "internalType": "string",
          "name": "name_",
          "type": "string"
        },
        {
          "internalType": "string",
          "name": "symbol_",
          "type": "string"
        }
      ],
      "stateMutability": "nonpayable",
      "type": "constructor"
    },
    {
      "inputs": [
        {
          "internalType": "address",
          "name": "sender",
          "type": "address"
        },
        {
          "internalType": "uint256",
          "name": "tokenId",
          "type": "uint256"
        },
        {
          "internalType": "address",
          "name": "owner",
          "type": "address"
        }
      ],
      "name": "ERC721IncorrectOwner",
      "type": "error"
    },
    {
      "inputs": [
        {
          "internalType": "address",
          "name": "operator",
          "type": "address"
        },
        {
          "internalType": "uint256",
          "name": "tokenId",
          "type": "uint256"
        }
      ],
      "name": "ERC721InsufficientApproval",
      "type": "error"
    },
    {
      "inputs": [
        {
          "internalType": "address",
          "name": "approver",
          "type": "address"
        }
      ],
      "name": "ERC721InvalidApprover",
      "type": "error"
    },
    {
      "inputs": [
        {
          "internalType": "address",
          "name": "operator",
          "type": "address"
        }
      ],
      "name": "ERC721InvalidOperator",
      "type": "error"
    },
    {
      "inputs": [
        {
          "internalType": "address",
          "name": "owner",
          "type": "address"
        }
      ],
      "name": "ERC721InvalidOwner",
      "type": "error"
    },
    {
      "inputs": [
        {
          "internalType": "address",
          "name": "receiver",
          "type": "address"
        }
      ],
      "name": "ERC721InvalidReceiver",
      "type": "error"
    },
    {
      "inputs": [
        {
          "internalType": "address",
          "name": "sender",
          "type": "address"
        }
      ],
      "name": "ERC721InvalidSender",
      "type": "error"
    },
    {
      "inputs": [
        {
          "internalType": "uint256",
          "name": "tokenId",
          "type": "uint256"
        }
      ],
      "name": "ERC721NonexistentToken",
      "type": "error"
    },
    {
      "anonymous": false,
      "inputs": [
        {
          "indexed": true,
          "internalType": "address",
          "name": "owner",
          "type": "address"
        },
        {
          "indexed": true,
          "internalType": "address",
          "name": "approved",
          "type": "address"
        },
        {
          "indexed": true,
          "internalType": "uint256",
          "name": "tokenId",
          "type": "uint256"
        }
      ],
      "name": "Approval",
      "type": "event"
    },
    {
      "anonymous": false,
      "inputs": [
        {
          "indexed": true,
          "internalType": "address",
          "name": "owner",
          "type": "address"
        },
        {
          "indexed": true,
          "internalType": "address",
          "name": "operator",
          "type": "address"
        },
        {
          "indexed": false,
          "internalType": "bool",
          "name": "approved",
          "type": "bool"
        }
      ],
      "name": "ApprovalForAll",
      "type": "event"
    },
    {
      "anonymous": false,
      "inputs": [
        {
          "indexed": false,
          "internalType": "uint256",
          "name": "_fromTokenId",
          "type": "uint256"
        },
        {
          "indexed": false,
          "internalType": "uint256",
          "name": "_toTokenId",
          "type": "uint256"
        }
      ],
      "name": "BatchMetadataUpdate",
      "type": "event"
    },
    {
      "anonymous": false,
      "inputs": [
        {
          "indexed": false,
          "internalType": "uint256",
          "name": "_tokenId",
          "type": "uint256"
        }
      ],
      "name": "MetadataUpdate",
      "type": "event"
    },
    {
      "anonymous": false,
      "inputs": [
        {
          "indexed": true,
          "internalType": "address",
          "name": "from",
          "type": "address"
        },
        {
          "indexed": true,
          "internalType": "address",
          "name": "to",
          "type": "address"
        },
        {
          "indexed": true,
          "internalType": "uint256",
          "name": "tokenId",
          "type": "uint256"
        }
      ],
      "name": "Transfer",
      "type": "event"
    },
    {
      "anonymous": false,
      "inputs": [
        {
          "indexed": true,
          "internalType": "uint256",
          "name": "tokenId",
          "type": "uint256"
        },
        {
          "indexed": true,
          "internalType": "address",
          "name": "owner",
          "type": "address"
        },
        {
          "indexed": false,
          "internalType": "address[]",
          "name": "_address_referringList",
          "type": "address[]"
        },
        {
          "indexed": false,
          "internalType": "uint256[][]",
          "name": "_tokenIds_referringList",
          "type": "uint256[][]"
        },
        {
          "indexed": false,
          "internalType": "address[]",
          "name": "_address_referredList",
          "type": "address[]"
        },
        {
          "indexed": false,
          "internalType": "uint256[][]",
          "name": "_tokenIds_referredList",
          "type": "uint256[][]"
        }
      ],
      "name": "UpdateNode",
      "type": "event"
    },
    {
      "inputs": [
        {
          "internalType": "address",
          "name": "to",
          "type": "address"
        },
        {
          "internalType": "uint256",
          "name": "tokenId",
          "type": "uint256"
        }
      ],
      "name": "approve",
      "outputs": [],
      "stateMutability": "nonpayable",
      "type": "function"
    },
    {
      "inputs": [
        {
          "internalType": "address",
          "name": "owner",
          "type": "address"
        }
      ],
      "name": "balanceOf",
      "outputs": [
        {
          "internalType": "uint256",
          "name": "",
          "type": "uint256"
        }
      ],
      "stateMutability": "view",
      "type": "function"
    },
    {
      "inputs": [
        {
          "internalType": "address",
          "name": "_address",
          "type": "address"
        },
        {
          "internalType": "uint256",
          "name": "tokenId",
          "type": "uint256"
        }
      ],
      "name": "createdTimestampOf",
      "outputs": [
        {
          "internalType": "uint256",
          "name": "",
          "type": "uint256"
        }
      ],
      "stateMutability": "view",
      "type": "function"
    },
    {
      "inputs": [
        {
          "internalType": "uint256",
          "name": "tokenId",
          "type": "uint256"
        }
      ],
      "name": "getApproved",
      "outputs": [
        {
          "internalType": "address",
          "name": "",
          "type": "address"
        }
      ],
      "stateMutability": "view",
      "type": "function"
    },
    {
      "inputs": [
        {
          "internalType": "address",
          "name": "owner",
          "type": "address"
        },
        {
          "internalType": "address",
          "name": "operator",
          "type": "address"
        }
      ],
      "name": "isApprovedForAll",
      "outputs": [
        {
          "internalType": "bool",
          "name": "",
          "type": "bool"
        }
      ],
      "stateMutability": "view",
      "type": "function"
    },
    {
      "inputs": [],
      "name": "name",
      "outputs": [
        {
          "internalType": "string",
          "name": "",
          "type": "string"
        }
      ],
      "stateMutability": "view",
      "type": "function"
    },
    {
      "inputs": [
        {
          "internalType": "uint256",
          "name": "tokenId",
          "type": "uint256"
        }
      ],
      "name": "ownerOf",
      "outputs": [
        {
          "internalType": "address",
          "name": "",
          "type": "address"
        }
      ],
      "stateMutability": "view",
      "type": "function"
    },
    {
      "inputs": [
        {
          "internalType": "address",
          "name": "_address",
          "type": "address"
        },
        {
          "internalType": "uint256",
          "name": "tokenId",
          "type": "uint256"
        }
      ],
      "name": "referredOf",
      "outputs": [
        {
          "internalType": "address[]",
          "name": "",
          "type": "address[]"
        },
        {
          "internalType": "uint256[][]",
          "name": "",
          "type": "uint256[][]"
        }
      ],
      "stateMutability": "view",
      "type": "function"
    },
    {
      "inputs": [
        {
          "internalType": "address",
          "name": "_address",
          "type": "address"
        },
        {
          "internalType": "uint256",
          "name": "tokenId",
          "type": "uint256"
        }
      ],
      "name": "referringOf",
      "outputs": [
        {
          "internalType": "address[]",
          "name": "",
          "type": "address[]"
        },
        {
          "internalType": "uint256[][]",
          "name": "",
          "type": "uint256[][]"
        }
      ],
      "stateMutability": "view",
      "type": "function"
    },
    {
      "inputs": [
        {
          "internalType": "address",
          "name": "to",
          "type": "address"
        },
        {
          "internalType": "uint256",
          "name": "tokenId",
          "type": "uint256"
        },
        {
          "internalType": "address[]",
          "name": "addresses",
          "type": "address[]"
        },
        {
          "internalType": "uint256[][]",
          "name": "_tokenIds",
          "type": "uint256[][]"
        }
      ],
      "name": "safeMint",
      "outputs": [],
      "stateMutability": "nonpayable",
      "type": "function"
    },
    {
      "inputs": [
        {
          "internalType": "address",
          "name": "from",
          "type": "address"
        },
        {
          "internalType": "address",
          "name": "to",
          "type": "address"
        },
        {
          "internalType": "uint256",
          "name": "tokenId",
          "type": "uint256"
        }
      ],
      "name": "safeTransferFrom",
      "outputs": [],
      "stateMutability": "nonpayable",
      "type": "function"
    },
    {
      "inputs": [
        {
          "internalType": "address",
          "name": "from",
          "type": "address"
        },
        {
          "internalType": "address",
          "name": "to",
          "type": "address"
        },
        {
          "internalType": "uint256",
          "name": "tokenId",
          "type": "uint256"
        },
        {
          "internalType": "bytes",
          "name": "data",
          "type": "bytes"
        }
      ],
      "name": "safeTransferFrom",
      "outputs": [],
      "stateMutability": "nonpayable",
      "type": "function"
    },
    {
      "inputs": [
        {
          "internalType": "address",
          "name": "operator",
          "type": "address"
        },
        {
          "internalType": "bool",
          "name": "approved",
          "type": "bool"
        }
      ],
      "name": "setApprovalForAll",
      "outputs": [],
      "stateMutability": "nonpayable",
      "type": "function"
    },
    {
      "inputs": [
        {
          "internalType": "uint256",
          "name": "tokenId",
          "type": "uint256"
        },
        {
          "internalType": "address[]",
          "name": "addresses",
          "type": "address[]"
        },
        {
          "internalType": "uint256[][]",
          "name": "tokenIds",
          "type": "uint256[][]"
        }
      ],
      "name": "setNode",
      "outputs": [],
      "stateMutability": "nonpayable",
      "type": "function"
    },
    {
      "inputs": [
        {
          "internalType": "address",
          "name": "_address",
          "type": "address"
        },
        {
          "internalType": "uint256",
          "name": "tokenId",
          "type": "uint256"
        },
        {
          "internalType": "uint256[]",
          "name": "_tokenIds",
          "type": "uint256[]"
        }
      ],
      "name": "setNodeReferredExternal",
      "outputs": [],
      "stateMutability": "nonpayable",
      "type": "function"
    },
    {
      "inputs": [
        {
          "internalType": "address",
          "name": "developer",
          "type": "address"
        },
        {
          "internalType": "uint256",
          "name": "tokenId",
          "type": "uint256"
        },
        {
          "internalType": "string",
          "name": "_tokenURI",
          "type": "string"
        }
      ],
      "name": "setTokenURI",
      "outputs": [],
      "stateMutability": "nonpayable",
      "type": "function"
    },
    {
      "inputs": [
        {
          "internalType": "bytes4",
          "name": "interfaceId",
          "type": "bytes4"
        }
      ],
      "name": "supportsInterface",
      "outputs": [
        {
          "internalType": "bool",
          "name": "",
          "type": "bool"
        }
      ],
      "stateMutability": "view",
      "type": "function"
    },
    {
      "inputs": [],
      "name": "symbol",
      "outputs": [
        {
          "internalType": "string",
          "name": "",
          "type": "string"
        }
      ],
      "stateMutability": "view",
      "type": "function"
    },
    {
      "inputs": [
        {
          "internalType": "uint256",
          "name": "tokenId",
          "type": "uint256"
        }
      ],
      "name": "tokenURI",
      "outputs": [
        {
          "internalType": "string",
          "name": "",
          "type": "string"
        }
      ],
      "stateMutability": "view",
      "type": "function"
    },
    {
      "inputs": [
        {
          "internalType": "address",
          "name": "from",
          "type": "address"
        },
        {
          "internalType": "address",
          "name": "to",
          "type": "address"
        },
        {
          "internalType": "uint256",
          "name": "tokenId",
          "type": "uint256"
        }
      ],
      "name": "transferFrom",
      "outputs": [],
      "stateMutability": "nonpayable",
      "type": "function"
    }
  ],
  "bytecode": "0x6080604052600880546001600160a01b031916905534801561002057600080fd5b50604051612e1a380380612e1a83398101604081905261003f91610130565b8181600061004d8382610222565b50600161005a8282610222565b5050600880546001600160a01b03191633179055506102e0915050565b634e487b7160e01b600052604160045260246000fd5b600082601f83011261009e57600080fd5b81516001600160401b038111156100b7576100b7610077565b604051601f8201601f19908116603f011681016001600160401b03811182821017156100e5576100e5610077565b6040528181528382016020018510156100fd57600080fd5b60005b8281101561011c57602081860181015183830182015201610100565b506000918101602001919091529392505050565b6000806040838503121561014357600080fd5b82516001600160401b0381111561015957600080fd5b6101658582860161008d565b602085015190935090506001600160401b0381111561018357600080fd5b61018f8582860161008d565b9150509250929050565b600181811c908216806101ad57607f821691505b6020821081036101cd57634e487b7160e01b600052602260045260246000fd5b50919050565b601f82111561021d57806000526020600020601f840160051c810160208510156101fa5750805b601f840160051c820191505b8181101561021a5760008155600101610206565b50505b505050565b81516001600160401b0381111561023b5761023b610077565b61024f816102498454610199565b846101d3565b6020601f821160018114610283576000831561026b5750848201515b600019600385901b1c1916600184901b17845561021a565b600084815260208120601f198516915b828110156102b35787850151825560209485019460019092019101610293565b50848210156102d15786840151600019600387901b60f8161c191681555b50505050600190811b01905550565b612b2b806102ef6000396000f3fe608060405234801561001057600080fd5b506004361061012c5760003560e01c806364f9b0e6116100ad578063b88d4fde11610071578063b88d4fde14610290578063c87b56dd146102a3578063d30d968d146102b6578063e985e9c5146102c9578063edda5e73146102dc57600080fd5b806364f9b0e61461022057806370a082311461024157806395d89b4114610262578063a22cb4651461026a578063a35391ac1461027d57600080fd5b806342842e0e116100f457806342842e0e146101c15780634e5786bf146101d457806355c10440146101e7578063616c5535146101fa5780636352211e1461020d57600080fd5b806301ffc9a71461013157806306fdde0314610159578063081812fc1461016e578063095ea7b31461019957806323b872dd146101ae575b600080fd5b61014461013f366004611f05565b6102ef565b60405190151581526020015b60405180910390f35b610161610335565b6040516101509190611f72565b61018161017c366004611f85565b6103c7565b6040516001600160a01b039091168152602001610150565b6101ac6101a7366004611fb3565b6103f0565b005b6101ac6101bc366004611fdf565b6103ff565b6101ac6101cf366004611fdf565b61048f565b6101ac6101e23660046120c1565b6104af565b6101ac6101f53660046121bd565b610563565b6101ac6102083660046122f4565b610716565b61018161021b366004611f85565b610830565b61023361022e366004611fb3565b61083b565b60405161015092919061242d565b61025461024f36600461245b565b61099f565b604051908152602001610150565b6101616109e7565b6101ac610278366004612486565b6109f6565b61023361028b366004611fb3565b610a01565b6101ac61029e3660046124bf565b610b08565b6101616102b1366004611f85565b610b20565b6102546102c4366004611fb3565b610b2b565b6101446102d736600461253e565b610c84565b6101ac6102ea36600461256c565b610cb2565b60006001600160e01b031982166374342b5560e01b148061032057506001600160e01b03198216630204cbd160e51b145b8061032f575061032f82610cdc565b92915050565b606060008054610344906125e3565b80601f0160208091040260200160405190810160405280929190818152602001828054610370906125e3565b80156103bd5780601f10610392576101008083540402835291602001916103bd565b820191906000526020600020905b8154815290600101906020018083116103a057829003601f168201915b5050505050905090565b60006103d282610d01565b506000828152600460205260409020546001600160a01b031661032f565b6103fb828233610d3a565b5050565b6001600160a01b03821661042e57604051633250574960e11b8152600060048201526024015b60405180910390fd5b600061043b838333610d47565b9050836001600160a01b0316816001600160a01b031614610489576040516364283d7b60e01b81526001600160a01b0380861660048301526024820184905282166044820152606401610425565b50505050565b6104aa83838360405180602001604052806000815250610b08565b505050565b6104b882610e40565b6104d45760405162461bcd60e51b81526004016104259061261d565b826001600160a01b03166104e783610830565b6001600160a01b0316146105595760405162461bcd60e51b815260206004820152603360248201527f4552435f353532313a207472616e736665722063616c6c6572206973206e6f74604482015272081bdddb995c881b9bdc88185c1c1c9bdd9959606a1b6064820152608401610425565b6104aa8282610e5d565b60005b81518110156104895760006007600084848151811061058757610587612654565b602002602001015181526020019081526020016000209050806001016000866001600160a01b03166001600160a01b031681526020019081526020016000208054905060000361060257600381018054600181018255600091825260209091200180546001600160a01b0319166001600160a01b0387161790555b306001600160a01b038616036106765760405162461bcd60e51b815260206004820152603360248201527f4552435f353532313a2074686973206d75737420626520616e2065787465726e604482015272616c20636f6e7472616374206164647265737360681b6064820152608401610425565b428160040154106106995760405162461bcd60e51b81526004016104259061266a565b6001600160a01b0385166000908152600180830160209081526040832080549283018155835290912001849055825161070d908490849081106106de576106de612654565b60200260200101516107088585815181106106fb576106fb612654565b6020026020010151610830565b610ead565b50600101610566565b80518251146107865760405162461bcd60e51b815260206004820152603660248201527f41646472657373657320616e6420546f6b656e494420617272617973206d75736044820152750e840d0c2ecca40e8d0ca40e6c2daca40d8cadccee8d60531b6064820152608401610425565b60005b8151811015610819578181815181106107a4576107a4612654565b6020026020010151516000036108115760405162461bcd60e51b815260206004820152602c60248201527f4552435f353532313a2074686520726566657272696e67206c6973742063616e60448201526b6e6f7420626520656d70747960a01b6064820152608401610425565b600101610789565b50610825828483610f21565b6104aa82848361105e565b600061032f82610d01565b6060808080306001600160a01b0387160361088a5761085985610e40565b6108755760405162461bcd60e51b81526004016104259061261d565b610880856000611414565b9092509050610994565b6040516301ffc9a760e01b8152630204cbd160e51b600482015286906001600160a01b038216906301ffc9a790602401602060405180830381865afa1580156108d7573d6000803e3d6000fd5b505050506040513d601f19601f820116820180604052508101906108fb91906126bf565b6109175760405162461bcd60e51b8152600401610425906126dc565b60405163327cd87360e11b81526001600160a01b038881166004830152602482018890528216906364f9b0e6906044015b600060405180830381865afa158015610965573d6000803e3d6000fd5b505050506040513d6000823e601f3d908101601f1916820160405261098d9190810190612804565b9093509150505b909590945092505050565b60006001600160a01b0382166109cb576040516322718ad960e21b815260006004820152602401610425565b506001600160a01b031660009081526003602052604090205490565b606060018054610344906125e3565b6103fb33838361171f565b6060808080306001600160a01b03871603610a4657610a1f85610e40565b610a3b5760405162461bcd60e51b81526004016104259061261d565b610880856001611414565b6040516301ffc9a760e01b8152630204cbd160e51b600482015286906001600160a01b038216906301ffc9a790602401602060405180830381865afa158015610a93573d6000803e3d6000fd5b505050506040513d601f19601f82011682018060405250810190610ab791906126bf565b610ad35760405162461bcd60e51b8152600401610425906126dc565b6040516328d4e46b60e21b81526001600160a01b0388811660048301526024820188905282169063a35391ac90604401610948565b610b138484846103ff565b61048933858585856117be565b606061032f826118e9565b600080306001600160a01b03851603610b7b57610b4783610e40565b610b635760405162461bcd60e51b81526004016104259061261d565b50600082815260076020526040902060040154610c7d565b6040516301ffc9a760e01b8152630204cbd160e51b600482015284906001600160a01b038216906301ffc9a790602401602060405180830381865afa158015610bc8573d6000803e3d6000fd5b505050506040513d601f19601f82011682018060405250810190610bec91906126bf565b610c085760405162461bcd60e51b8152600401610425906126dc565b60405163d30d968d60e01b81526001600160a01b0386811660048301526024820186905282169063d30d968d90604401602060405180830381865afa158015610c55573d6000803e3d6000fd5b505050506040513d601f19601f82011682018060405250810190610c7991906128cf565b9150505b9392505050565b6001600160a01b03918216600090815260056020908152604080832093909416825291909152205460ff1690565b610cbc84846119fa565b805115801590610ccc5750815115155b1561048957610489838383610716565b60006001600160e01b03198216632483248360e11b148061032f575061032f82611a14565b6000818152600260205260408120546001600160a01b03168061032f57604051637e27328960e01b815260048101849052602401610425565b6104aa8383836001611a64565b6000828152600260205260408120546001600160a01b0390811690831615610d7457610d74818486611b6a565b6001600160a01b03811615610db257610d91600085600080611a64565b6001600160a01b038116600090815260036020526040902080546000190190555b6001600160a01b03851615610de1576001600160a01b0385166000908152600360205260409020805460010190555b60008481526002602052604080822080546001600160a01b0319166001600160a01b0389811691821790925591518793918516917fddf252ad1be2c89b69c2b068fc378daa952ba7f163c4a11628f55a4df523b3ef91a4949350505050565b600080610e4c83610830565b6001600160a01b0316141592915050565b6000828152600660205260409020610e75828261292f565b506040518281527ff8e1a15aba9398e019f0b49df1a4fde98ee17ae345cb5f6b5e2c27f5033e8ce79060200160405180910390a15050565b600080610ebb846001611414565b91509150600080610ecd866000611414565b91509150846001600160a01b0316867f81bed52c04e8cd65796985202162bad7e20a8ffaa732fe2e0a0bc79f687e4d6686868686604051610f1194939291906129ed565b60405180910390a3505050505050565b6000828152600760205260408120905b845181101561104d57816000016000868381518110610f5257610f52612654565b60200260200101516001600160a01b03166001600160a01b0316815260200190815260200160002080549050600003610fd75781600201858281518110610f9b57610f9b612654565b60209081029190910181015182546001810184556000938452919092200180546001600160a01b0319166001600160a01b039092169190911790555b828181518110610fe957610fe9612654565b602002602001015182600001600087848151811061100957611009612654565b60200260200101516001600160a01b03166001600160a01b031681526020019081526020016000209080519060200190611044929190611e8c565b50600101610f31565b504260048201556104898333610ead565b60005b835181101561048957306001600160a01b031684828151811061108657611086612654565b60200260200101516001600160a01b0316036112f15760005b8282815181106110b1576110b1612654565b6020026020010151518110156112eb576000600760008585815181106110d9576110d9612654565b602002602001015184815181106110f2576110f2612654565b60200260200101518152602001908152602001600020905080600101600087858151811061112257611122612654565b60200260200101516001600160a01b03166001600160a01b03168152602001908152602001600020805490506000036111a7578060030186848151811061116b5761116b612654565b60209081029190910181015182546001810184556000938452919092200180546001600160a01b0319166001600160a01b039092169190911790555b8383815181106111b9576111b9612654565b602002602001015182815181106111d2576111d2612654565b602002602001015185036112345760405162461bcd60e51b8152602060048201526024808201527f4552435f353532313a2073656c662d7265666572656e6365206e6f7420616c6c6044820152631bddd95960e21b6064820152608401610425565b428160040154106112575760405162461bcd60e51b81526004016104259061266a565b30600090815260018083016020908152604083208054928301815583529091200185905583516112e29085908590811061129357611293612654565b602002602001015183815181106112ac576112ac612654565b60200260200101516107088686815181106112c9576112c9612654565b602002602001015185815181106106fb576106fb612654565b5060010161109f565b5061140c565b600084828151811061130557611305612654565b60209081029190910101516040516301ffc9a760e01b8152630204cbd160e51b60048201529091506000906001600160a01b038316906301ffc9a790602401602060405180830381865afa158015611361573d6000803e3d6000fd5b505050506040513d601f19601f8201168201806040525081019061138591906126bf565b9050801561140957816001600160a01b03166355c1044030878787815181106113b0576113b0612654565b60200260200101516040518463ffffffff1660e01b81526004016113d693929190612a45565b600060405180830381600087803b1580156113f057600080fd5b505af1158015611404573d6000803e3d6000fd5b505050505b50505b600101611061565b60008281526007602052604090206060908190818085156115a3578260020180548060200260200160405190810160405280929190818152602001828054801561148757602002820191906000526020600020905b81546001600160a01b03168152600190910190602001808311611469575b5050505050915081516001600160401b038111156114a7576114a7612020565b6040519080825280602002602001820160405280156114da57816020015b60608152602001906001900390816114c55790505b50905060005b825181101561159d5783600001600084838151811061150157611501612654565b60200260200101516001600160a01b03166001600160a01b0316815260200190815260200160002080548060200260200160405190810160405280929190818152602001828054801561157357602002820191906000526020600020905b81548152602001906001019080831161155f575b505050505082828151811061158a5761158a612654565b60209081029190910101526001016114e0565b50611713565b826003018054806020026020016040519081016040528092919081815260200182805480156115fb57602002820191906000526020600020905b81546001600160a01b031681526001909101906020018083116115dd575b5050505050915081516001600160401b0381111561161b5761161b612020565b60405190808252806020026020018201604052801561164e57816020015b60608152602001906001900390816116395790505b50905060005b82518110156117115783600101600084838151811061167557611675612654565b60200260200101516001600160a01b03166001600160a01b031681526020019081526020016000208054806020026020016040519081016040528092919081815260200182805480156116e757602002820191906000526020600020905b8154815260200190600101908083116116d3575b50505050508282815181106116fe576116fe612654565b6020908102919091010152600101611654565b505b90969095509350505050565b6001600160a01b03821661175157604051630b61174360e31b81526001600160a01b0383166004820152602401610425565b6001600160a01b03838116600081815260056020908152604080832094871680845294825291829020805460ff191686151590811790915591519182527f17307eab39ab6107e8899845ad3d59bd9653f200f220920489ca2b5937696c31910160405180910390a3505050565b6001600160a01b0383163b156118e257604051630a85bd0160e11b81526001600160a01b0384169063150b7a0290611800908890889087908790600401612a6c565b6020604051808303816000875af192505050801561183b575060408051601f3d908101601f1916820190925261183891810190612aa9565b60015b6118a4573d808015611869576040519150601f19603f3d011682016040523d82523d6000602084013e61186e565b606091505b50805160000361189c57604051633250574960e11b81526001600160a01b0385166004820152602401610425565b805181602001fd5b6001600160e01b03198116630a85bd0160e11b146118e057604051633250574960e11b81526001600160a01b0385166004820152602401610425565b505b5050505050565b60606118f482610d01565b506000828152600660205260408120805461190e906125e3565b80601f016020809104026020016040519081016040528092919081815260200182805461193a906125e3565b80156119875780601f1061195c57610100808354040283529160200191611987565b820191906000526020600020905b81548152906001019060200180831161196a57829003601f168201915b5050505050905060006119a560408051602081019091526000815290565b905080516000036119b7575092915050565b8151156119e95780826040516020016119d1929190612ac6565b60405160208183030381529060405292505050919050565b6119f284611bce565b949350505050565b6103fb828260405180602001604052806000815250611c42565b60006001600160e01b031982166380ac58cd60e01b1480611a4557506001600160e01b03198216635b5e139f60e01b145b8061032f57506301ffc9a760e01b6001600160e01b031983161461032f565b8080611a7857506001600160a01b03821615155b15611b3a576000611a8884610d01565b90506001600160a01b03831615801590611ab45750826001600160a01b0316816001600160a01b031614155b8015611ac75750611ac58184610c84565b155b15611af05760405163a9fbf51f60e01b81526001600160a01b0384166004820152602401610425565b8115611b385783856001600160a01b0316826001600160a01b03167f8c5be1e5ebec7d5bd14f71427d1e84f3dd0314c0f7b2291e5b200ac8c7c3b92560405160405180910390a45b505b5050600090815260046020526040902080546001600160a01b0319166001600160a01b0392909216919091179055565b611b75838383611c5a565b6104aa576001600160a01b038316611ba357604051637e27328960e01b815260048101829052602401610425565b60405163177e802f60e01b81526001600160a01b038316600482015260248101829052604401610425565b6060611bd982610d01565b506000611bf160408051602081019091526000815290565b90506000815111611c115760405180602001604052806000815250610c7d565b80611c1b84611cbd565b604051602001611c2c929190612ac6565b6040516020818303038152906040529392505050565b611c4c8383611d4f565b6104aa3360008585856117be565b60006001600160a01b038316158015906119f25750826001600160a01b0316846001600160a01b03161480611c945750611c948484610c84565b806119f25750506000908152600460205260409020546001600160a01b03908116911614919050565b60606000611cca83611db4565b60010190506000816001600160401b03811115611ce957611ce9612020565b6040519080825280601f01601f191660200182016040528015611d13576020820181803683370190505b5090508181016020015b600019016f181899199a1a9b1b9c1cb0b131b232b360811b600a86061a8153600a8504945084611d1d57509392505050565b6001600160a01b038216611d7957604051633250574960e11b815260006004820152602401610425565b6000611d8783836000610d47565b90506001600160a01b038116156104aa576040516339e3563760e11b815260006004820152602401610425565b60008072184f03e93ff9f4daa797ed6e38ed64bf6a1f0160401b8310611df35772184f03e93ff9f4daa797ed6e38ed64bf6a1f0160401b830492506040015b6d04ee2d6d415b85acef81000000008310611e1f576d04ee2d6d415b85acef8100000000830492506020015b662386f26fc100008310611e3d57662386f26fc10000830492506010015b6305f5e1008310611e55576305f5e100830492506008015b6127108310611e6957612710830492506004015b60648310611e7b576064830492506002015b600a831061032f5760010192915050565b828054828255906000526020600020908101928215611ec7579160200282015b82811115611ec7578251825591602001919060010190611eac565b50611ed3929150611ed7565b5090565b5b80821115611ed35760008155600101611ed8565b6001600160e01b031981168114611f0257600080fd5b50565b600060208284031215611f1757600080fd5b8135610c7d81611eec565b60005b83811015611f3d578181015183820152602001611f25565b50506000910152565b60008151808452611f5e816020860160208601611f22565b601f01601f19169290920160200192915050565b602081526000610c7d6020830184611f46565b600060208284031215611f9757600080fd5b5035919050565b6001600160a01b0381168114611f0257600080fd5b60008060408385031215611fc657600080fd5b8235611fd181611f9e565b946020939093013593505050565b600080600060608486031215611ff457600080fd5b8335611fff81611f9e565b9250602084013561200f81611f9e565b929592945050506040919091013590565b634e487b7160e01b600052604160045260246000fd5b604051601f8201601f191681016001600160401b038111828210171561205e5761205e612020565b604052919050565b6000806001600160401b0384111561208057612080612020565b50601f8301601f191660200161209581612036565b9150508281528383830111156120aa57600080fd5b828260208301376000602084830101529392505050565b6000806000606084860312156120d657600080fd5b83356120e181611f9e565b92506020840135915060408401356001600160401b0381111561210357600080fd5b8401601f8101861361211457600080fd5b61212386823560208401612066565b9150509250925092565b60006001600160401b0382111561214657612146612020565b5060051b60200190565b600082601f83011261216157600080fd5b813561217461216f8261212d565b612036565b8082825260208201915060208360051b86010192508583111561219657600080fd5b602085015b838110156121b357803583526020928301920161219b565b5095945050505050565b6000806000606084860312156121d257600080fd5b83356121dd81611f9e565b92506020840135915060408401356001600160401b038111156121ff57600080fd5b61212386828701612150565b600082601f83011261221c57600080fd5b813561222a61216f8261212d565b8082825260208201915060208360051b86010192508583111561224c57600080fd5b602085015b838110156121b357803561226481611f9e565b835260209283019201612251565b600082601f83011261228357600080fd5b813561229161216f8261212d565b8082825260208201915060208360051b8601019250858311156122b357600080fd5b602085015b838110156121b35780356001600160401b038111156122d657600080fd5b6122e5886020838a0101612150565b845250602092830192016122b8565b60008060006060848603121561230957600080fd5b8335925060208401356001600160401b0381111561232657600080fd5b6123328682870161220b565b92505060408401356001600160401b0381111561234e57600080fd5b61212386828701612272565b600081518084526020840193506020830160005b828110156123955781516001600160a01b031686526020958601959091019060010161236e565b5093949350505050565b600081518084526020840193506020830160005b828110156123955781518652602095860195909101906001016123b3565b600082825180855260208501945060208160051b8301016020850160005b8381101561242157601f1985840301885261240b83835161239f565b60209889019890935091909101906001016123ef565b50909695505050505050565b604081526000612440604083018561235a565b828103602084015261245281856123d1565b95945050505050565b60006020828403121561246d57600080fd5b8135610c7d81611f9e565b8015158114611f0257600080fd5b6000806040838503121561249957600080fd5b82356124a481611f9e565b915060208301356124b481612478565b809150509250929050565b600080600080608085870312156124d557600080fd5b84356124e081611f9e565b935060208501356124f081611f9e565b92506040850135915060608501356001600160401b0381111561251257600080fd5b8501601f8101871361252357600080fd5b61253287823560208401612066565b91505092959194509250565b6000806040838503121561255157600080fd5b823561255c81611f9e565b915060208301356124b481611f9e565b6000806000806080858703121561258257600080fd5b843561258d81611f9e565b93506020850135925060408501356001600160401b038111156125af57600080fd5b6125bb8782880161220b565b92505060608501356001600160401b038111156125d757600080fd5b61253287828801612272565b600181811c908216806125f757607f821691505b60208210810361261757634e487b7160e01b600052602260045260246000fd5b50919050565b6020808252601e908201527f4552435f353532313a20746f6b656e204944206e6f7420657869737465640000604082015260600190565b634e487b7160e01b600052603260045260246000fd5b60208082526035908201527f4552435f353532313a2074686520726566657272656420724e4654206e65656460408201527439903a37903132903090383932b232b1b2b9b9b7b960591b606082015260800190565b6000602082840312156126d157600080fd5b8151610c7d81612478565b60208082526027908201527f4552435f353532313a2074617267657420636f6e7472616374206e6f742073756040820152661c1c1bdc9d195960ca1b606082015260800190565b600082601f83011261273457600080fd5b815161274261216f8261212d565b8082825260208201915060208360051b86010192508583111561276457600080fd5b602085015b838110156121b35780516001600160401b0381111561278757600080fd5b8601603f8101881361279857600080fd5b60208101516127a961216f8261212d565b808282526020820191506020808460051b8601010192508a8311156127cd57600080fd5b6040840193505b828410156127ef5783518252602093840193909101906127d4565b86525050602093840193919091019050612769565b6000806040838503121561281757600080fd5b82516001600160401b0381111561282d57600080fd5b8301601f8101851361283e57600080fd5b805161284c61216f8261212d565b8082825260208201915060208360051b85010192508783111561286e57600080fd5b6020840193505b8284101561289957835161288881611f9e565b825260209384019390910190612875565b8095505050505060208301516001600160401b038111156128b957600080fd5b6128c585828601612723565b9150509250929050565b6000602082840312156128e157600080fd5b5051919050565b601f8211156104aa57806000526020600020601f840160051c8101602085101561290f5750805b601f840160051c820191505b818110156118e2576000815560010161291b565b81516001600160401b0381111561294857612948612020565b61295c8161295684546125e3565b846128e8565b6020601f82116001811461299057600083156129785750848201515b600019600385901b1c1916600184901b1784556118e2565b600084815260208120601f198516915b828110156129c057878501518255602094850194600190920191016129a0565b50848210156129de5786840151600019600387901b60f8161c191681555b50505050600190811b01905550565b608081526000612a00608083018761235a565b8281036020840152612a1281876123d1565b90508281036040840152612a26818661235a565b90508281036060840152612a3a81856123d1565b979650505050505050565b60018060a01b0384168152826020820152606060408201526000612452606083018461239f565b6001600160a01b0385811682528416602082015260408101839052608060608201819052600090612a9f90830184611f46565b9695505050505050565b600060208284031215612abb57600080fd5b8151610c7d81611eec565b60008351612ad8818460208801611f22565b835190830190612aec818360208801611f22565b0194935050505056fea26469706673582212203b1257a349ea00ae4809dfb2676a5c5e53c61cdfb1c26f3784eb58c43f1acaaa64736f6c634300081c0033",
  "linkReferences": {},
  "deployedLinkReferences": {}
}