{
  "_format": "hh-sol-artifact-1",
  "contractName": "Registry",
  "sourceName": "contracts/Registry.sol",
  "abi": [
    {
      "inputs": [],
      "stateMutability": "nonpayable",
      "type": "constructor"
    },
    {
      "inputs": [],
      "name": "AlreadyRegistered",
      "type": "error"
    },
    {
      "inputs": [],
      "name": "DeveloperHasNoRepository",
      "type": "error"
    },
    {
      "inputs": [],
      "name": "NotContractOwner",
      "type": "error"
    },
    {
      "inputs": [],
      "name": "NotMarketplace",
      "type": "error"
    },
    {
      "inputs": [],
      "name": "NotRegisteredDeveloper",
      "type": "error"
    },
    {
      "inputs": [],
      "name": "NotRegisteredRepository",
      "type": "error"
    },
    {
      "anonymous": false,
      "inputs": [
        {
          "indexed": true,
          "internalType": "address",
          "name": "buyer",
          "type": "address"
        },
        {
          "indexed": true,
          "internalType": "address",
          "name": "repository",
          "type": "address"
        },
        {
          "indexed": true,
          "internalType": "uint256",
          "name": "softwareId",
          "type": "uint256"
        },
        {
          "indexed": false,
          "internalType": "uint256",
          "name": "licenseId",
          "type": "uint256"
        }
      ],
      "name": "LicenseMinted",
      "type": "event"
    },
    {
      "anonymous": false,
      "inputs": [
        {
          "indexed": true,
          "internalType": "address",
          "name": "developer",
          "type": "address"
        },
        {
          "indexed": true,
          "internalType": "address",
          "name": "repository",
          "type": "address"
        }
      ],
      "name": "RepositoryCreated",
      "type": "event"
    },
    {
      "anonymous": false,
      "inputs": [
        {
          "indexed": true,
          "internalType": "address",
          "name": "developer",
          "type": "address"
        },
        {
          "indexed": true,
          "internalType": "uint256",
          "name": "softwareId",
          "type": "uint256"
        },
        {
          "indexed": false,
          "internalType": "string",
          "name": "tokenURI",
          "type": "string"
        }
      ],
      "name": "SoftwareMinted",
      "type": "event"
    },
    {
      "inputs": [],
      "name": "createRepository",
      "outputs": [
        {
          "internalType": "address",
          "name": "",
          "type": "address"
        }
      ],
      "stateMutability": "nonpayable",
      "type": "function"
    },
    {
      "inputs": [],
      "name": "getLicenseManager",
      "outputs": [
        {
          "internalType": "address",
          "name": "",
          "type": "address"
        }
      ],
      "stateMutability": "view",
      "type": "function"
    },
    {
      "inputs": [],
      "name": "getMarketplace",
      "outputs": [
        {
          "internalType": "address",
          "name": "",
          "type": "address"
        }
      ],
      "stateMutability": "view",
      "type": "function"
    },
    {
      "inputs": [
        {
          "internalType": "address",
          "name": "_sender",
          "type": "address"
        }
      ],
      "name": "getRepositoryContract",
      "outputs": [
        {
          "internalType": "address",
          "name": "",
          "type": "address"
        }
      ],
      "stateMutability": "view",
      "type": "function"
    },
    {
      "inputs": [],
      "name": "getRoyaltyManager",
      "outputs": [
        {
          "internalType": "address",
          "name": "",
          "type": "address"
        }
      ],
      "stateMutability": "view",
      "type": "function"
    },
    {
      "inputs": [
        {
          "internalType": "address",
          "name": "user",
          "type": "address"
        },
        {
          "internalType": "address",
          "name": "repository",
          "type": "address"
        },
        {
          "internalType": "uint256",
          "name": "softwareId",
          "type": "uint256"
        }
      ],
      "name": "hasLicense",
      "outputs": [
        {
          "internalType": "bool",
          "name": "",
          "type": "bool"
        }
      ],
      "stateMutability": "view",
      "type": "function"
    },
    {
      "inputs": [
        {
          "internalType": "address",
          "name": "_sender",
          "type": "address"
        }
      ],
      "name": "isDeveloper",
      "outputs": [
        {
          "internalType": "bool",
          "name": "",
          "type": "bool"
        }
      ],
      "stateMutability": "view",
      "type": "function"
    },
    {
      "inputs": [
        {
          "internalType": "address",
          "name": "_repositoryAddress",
          "type": "address"
        }
      ],
      "name": "isRepository",
      "outputs": [
        {
          "internalType": "bool",
          "name": "",
          "type": "bool"
        }
      ],
      "stateMutability": "view",
      "type": "function"
    },
    {
      "inputs": [
        {
          "internalType": "address",
          "name": "buyer",
          "type": "address"
        },
        {
          "internalType": "address",
          "name": "developer",
          "type": "address"
        },
        {
          "internalType": "uint256",
          "name": "softwareId",
          "type": "uint256"
        }
      ],
      "name": "mintLicense",
      "outputs": [
        {
          "internalType": "uint256",
          "name": "",
          "type": "uint256"
        }
      ],
      "stateMutability": "nonpayable",
      "type": "function"
    },
    {
      "inputs": [
        {
          "internalType": "string",
          "name": "_tokenURI",
          "type": "string"
        },
        {
          "internalType": "address[]",
          "name": "addresses",
          "type": "address[]"
        },
        {
          "internalType": "uint256[][]",
          "name": "_tokenIds",
          "type": "uint256[][]"
        }
      ],
      "name": "mintSoftware",
      "outputs": [
        {
          "internalType": "uint256",
          "name": "",
          "type": "uint256"
        }
      ],
      "stateMutability": "nonpayable",
      "type": "function"
    },
    {
      "inputs": [
        {
          "internalType": "address",
          "name": "_repository",
          "type": "address"
        },
        {
          "internalType": "uint256",
          "name": "_tokenId",
          "type": "uint256"
        }
      ],
      "name": "repositoryOwnsSoftware",
      "outputs": [
        {
          "internalType": "bool",
          "name": "",
          "type": "bool"
        }
      ],
      "stateMutability": "view",
      "type": "function"
    },
    {
      "inputs": [
        {
          "internalType": "address",
          "name": "_marketplace",
          "type": "address"
        }
      ],
      "name": "setMarketplace",
      "outputs": [],
      "stateMutability": "nonpayable",
      "type": "function"
    }
  ],
  "bytecode": "0x60e060405234801561001057600080fd5b5033608052600080556040513090610027906100ac565b6001600160a01b039091168152602001604051809103906000f080158015610053573d6000803e3d6000fd5b506001600160a01b031660a052604051309061006e906100b9565b6001600160a01b039091168152602001604051809103906000f08015801561009a573d6000803e3d6000fd5b506001600160a01b031660c0526100c6565b6136db8061464683390190565b6107d280617d2183390190565b60805160a05160c05161454361010360003960006101cc015260008181610205015281816102d401526106f90152600061054901526145436000f3fe608060405234801561001057600080fd5b50600436106100b45760003560e01c80635eca4a70116100715780635eca4a701461018757806373ad6c2d146101b55780639a1b2fb4146101ca578063bb6e2f86146101f0578063bdcf1ae514610203578063eb40f8181461022957600080fd5b80630d21bcd5146100b95780631a7c177e146100e357806338ffc1941461010f5780633b058753146101305780633ff7ca361461016c5780634b8a72bf14610174575b600080fd5b6001546001600160a01b03165b6040516001600160a01b0390911681526020015b60405180910390f35b6100c66100f136600461080b565b6001600160a01b039081166000908152600360205260409020541690565b61012261011d36600461082f565b61023c565b6040519081526020016100da565b61015c61013e36600461080b565b6001600160a01b031660009081526002602052604090205460ff1690565b60405190151581526020016100da565b6100c661039c565b610122610182366004610a33565b61046f565b61015c61019536600461080b565b6001600160a01b0390811660009081526003602052604090205416151590565b6101c86101c336600461080b565b61053e565b005b7f00000000000000000000000000000000000000000000000000000000000000006100c6565b61015c6101fe366004610b24565b6105a9565b7f00000000000000000000000000000000000000000000000000000000000000006100c6565b61015c61023736600461082f565b6106c8565b6001546000906001600160a01b0316331461026a5760405163386317a360e01b815260040160405180910390fd5b6001600160a01b0380841660009081526003602052604090205416806102a357604051631cf5058760e01b815260040160405180910390fd5b604051630e3ff06560e21b81526001600160a01b0386811660048301528281166024830152604482018590526000917f0000000000000000000000000000000000000000000000000000000000000000909116906338ffc194906064016020604051808303816000875af115801561031f573d6000803e3d6000fd5b505050506040513d601f19601f820116820180604052508101906103439190610b50565b905083826001600160a01b0316876001600160a01b03167f7d6c807015644a13677b72fa64b4723e35fda24690206e70b5a90980a58e6e568460405161038b91815260200190565b60405180910390a495945050505050565b336000908152600360205260408120546001600160a01b0316156103d357604051630ea075bf60e21b815260040160405180910390fd5b60006103de3361076e565b6001600160a01b0381166000818152600260209081526040808320805460ff191660011790553383526003909152812080546001600160a01b03191690921790915580549192508061042f83610b69565b90915550506040516001600160a01b0382169033907f93c0f4df093f44bcf0049a1ef099ac09ae66edf71248dab0d2bbb5f0764bcaf190600090a3919050565b60008061047a6107b8565b90506000816001600160a01b0316634b8a72bf8787876040518463ffffffff1660e01b81526004016104ae93929190610bd6565b6020604051808303816000875af11580156104cd573d6000803e3d6000fd5b505050506040513d601f19601f820116820180604052508101906104f19190610b50565b905080336001600160a01b03167fc22959efb680c6d8228e97bab1f5c623b45568d2b75cc1b828362fe1eea2df658860405161052d9190610cbc565b60405180910390a395945050505050565b336001600160a01b037f000000000000000000000000000000000000000000000000000000000000000016146105875760405163bfcafd3760e01b815260040160405180910390fd5b600180546001600160a01b0319166001600160a01b0392909216919091179055565b6001600160a01b03821660009081526002602052604081205460ff166105e257604051630a60014160e21b815260040160405180910390fd5b6000839050806001600160a01b0316637a4440726040518163ffffffff1660e01b8152600401602060405180830381865afa158015610625573d6000803e3d6000fd5b505050506040513d601f19601f820116820180604052508101906106499190610ccf565b6040516331a9108f60e11b8152600481018590526001600160a01b0391821691831690636352211e90602401602060405180830381865afa158015610692573d6000803e3d6000fd5b505050506040513d601f19601f820116820180604052508101906106b69190610ccf565b6001600160a01b031614949350505050565b604051631d681f0360e31b81526001600160a01b0384811660048301528381166024830152604482018390526000917f00000000000000000000000000000000000000000000000000000000000000009091169063eb40f81890606401602060405180830381865afa158015610742573d6000803e3d6000fd5b505050506040513d601f19601f820116820180604052508101906107669190610cec565b949350505050565b6000308260405161077e906107e6565b6001600160a01b03928316815291166020820152604001604051809103906000f0801580156107b1573d6000803e3d6000fd5b5092915050565b336000908152600360205260408120546001600160a01b0316806107e1576107de61039c565b90505b919050565b6137ff80610d0f83390190565b6001600160a01b038116811461080857600080fd5b50565b60006020828403121561081d57600080fd5b8135610828816107f3565b9392505050565b60008060006060848603121561084457600080fd5b833561084f816107f3565b9250602084013561085f816107f3565b929592945050506040919091013590565b634e487b7160e01b600052604160045260246000fd5b604051601f8201601f1916810167ffffffffffffffff811182821017156108af576108af610870565b604052919050565b600067ffffffffffffffff8211156108d1576108d1610870565b5060051b60200190565b600082601f8301126108ec57600080fd5b81356108ff6108fa826108b7565b610886565b8082825260208201915060208360051b86010192508583111561092157600080fd5b602085015b83811015610947578035610939816107f3565b835260209283019201610926565b5095945050505050565b600082601f83011261096257600080fd5b81356109706108fa826108b7565b8082825260208201915060208360051b86010192508583111561099257600080fd5b602085015b8381101561094757803567ffffffffffffffff8111156109b657600080fd5b8601603f810188136109c757600080fd5b60208101356109d86108fa826108b7565b808282526020820191506020808460051b8601010192508a8311156109fc57600080fd5b6040840193505b82841015610a1e578335825260209384019390910190610a03565b86525050602093840193919091019050610997565b600080600060608486031215610a4857600080fd5b833567ffffffffffffffff811115610a5f57600080fd5b8401601f81018613610a7057600080fd5b803567ffffffffffffffff811115610a8a57610a8a610870565b610a9d601f8201601f1916602001610886565b818152876020838501011115610ab257600080fd5b81602084016020830137600060208383010152809550505050602084013567ffffffffffffffff811115610ae557600080fd5b610af1868287016108db565b925050604084013567ffffffffffffffff811115610b0e57600080fd5b610b1a86828701610951565b9150509250925092565b60008060408385031215610b3757600080fd5b8235610b42816107f3565b946020939093013593505050565b600060208284031215610b6257600080fd5b5051919050565b600060018201610b8957634e487b7160e01b600052601160045260246000fd5b5060010190565b6000815180845260005b81811015610bb657602081850181015186830182015201610b9a565b506000602082860101526020601f19601f83011685010191505092915050565b606081526000610be96060830186610b90565b828103602084015280855180835260208301915060208701925060005b81811015610c2d5783516001600160a01b0316835260209384019390920191600101610c06565b50508381036040850152845180825260208083019350600582901b8301810190870160005b83811015610cad57848303601f190186528151805180855260209182019185019060005b81811015610c94578351835260209384019390920191600101610c76565b5050602097880197909450929092019150600101610c52565b50909998505050505050505050565b6020815260006108286020830184610b90565b600060208284031215610ce157600080fd5b8151610828816107f3565b600060208284031215610cfe57600080fd5b8151801515811461082857600080fdfe60c0604052600880546001600160a01b0319169055620f424060095534801561002757600080fd5b506040516137ff3803806137ff833981016040819052610046916100f0565b60405180604001604052806008815260200167536f66747761726560c01b8152506040518060400160405280600381526020016229a7a360e91b8152508181816000908161009491906101c2565b5060016100a182826101c2565b5050600880546001600160a01b031916331790555050506001600160a01b039182166080521660a0526000600a55610280565b80516001600160a01b03811681146100eb57600080fd5b919050565b6000806040838503121561010357600080fd5b61010c836100d4565b915061011a602084016100d4565b90509250929050565b634e487b7160e01b600052604160045260246000fd5b600181811c9082168061014d57607f821691505b60208210810361016d57634e487b7160e01b600052602260045260246000fd5b50919050565b601f8211156101bd57806000526020600020601f840160051c8101602085101561019a5750805b601f840160051c820191505b818110156101ba57600081556001016101a6565b50505b505050565b81516001600160401b038111156101db576101db610123565b6101ef816101e98454610139565b84610173565b6020601f821160018114610223576000831561020b5750848201515b600019600385901b1c1916600184901b1784556101ba565b600084815260208120601f198516915b828110156102535787850151825560209485019460019092019101610233565b50848210156102715786840151600019600387901b60f8161c191681555b50505050600190811b01905550565b60805160a0516135296102d6600039600081816103280152818161074b0152818161079f0152818161086f0152818161089d01528181611522015261158f01526000818161035701526113c001526135296000f3fe608060405234801561001057600080fd5b50600436106101a95760003560e01c806364f9b0e6116100f9578063a22cb46511610097578063c87b56dd11610071578063c87b56dd146103cf578063d30d968d146103e2578063e985e9c5146103f5578063edda5e731461040857600080fd5b8063a22cb46514610396578063a35391ac146103a9578063b88d4fde146103bc57600080fd5b8063853b592f116100d3578063853b592f1461034c578063893d20e8146103555780638e489d0c1461037b57806395d89b411461038e57600080fd5b806364f9b0e61461030057806370a08231146103135780637a4440721461032657600080fd5b806342842e0e1161016657806355c104401161014057806355c10440146102a6578063615f45a8146102b9578063616c5535146102da5780636352211e146102ed57600080fd5b806342842e0e1461025f5780634b8a72bf146102725780634e5786bf1461029357600080fd5b806301ffc9a7146101ae57806306fdde03146101d6578063081812fc146101eb578063095ea7b31461021657806323b872dd1461022b578063426e75011461023e575b600080fd5b6101c16101bc3660046127f4565b61041b565b60405190151581526020015b60405180910390f35b6101de610461565b6040516101cd9190612861565b6101fe6101f9366004612874565b6104f3565b6040516001600160a01b0390911681526020016101cd565b6102296102243660046128a2565b61051c565b005b6102296102393660046128ce565b61052b565b61025161024c366004612874565b6105bb565b6040516101cd9291906129d9565b61022961026d3660046128ce565b61071e565b610285610280366004612c41565b61073e565b6040519081526020016101cd565b6102296102a1366004612cd2565b61090c565b6102296102b4366004612d20565b6109c0565b6102cc6102c7366004612874565b610b73565b6040516101cd929190612d6e565b6102296102e8366004612d92565b610c22565b6101fe6102fb366004612874565b610d3c565b61025161030e3660046128a2565b610d47565b610285610321366004612dc4565b610eab565b7f00000000000000000000000000000000000000000000000000000000000000006101fe565b610285600a5481565b7f00000000000000000000000000000000000000000000000000000000000000006101fe565b6101de610389366004612874565b610ef3565b6101de610f24565b6102296103a4366004612def565b610f33565b6102516103b73660046128a2565b610f3e565b6102296103ca366004612e28565b611045565b6101de6103dd366004612874565b61105d565b6102856103f03660046128a2565b611068565b6101c1610403366004612ea7565b6111c1565b610229610416366004612ed5565b6111ef565b60006001600160e01b031982166374342b5560e01b148061044c57506001600160e01b03198216630204cbd160e51b145b8061045b575061045b82611219565b92915050565b60606000805461047090612f4c565b80601f016020809104026020016040519081016040528092919081815260200182805461049c90612f4c565b80156104e95780601f106104be576101008083540402835291602001916104e9565b820191906000526020600020905b8154815290600101906020018083116104cc57829003601f168201915b5050505050905090565b60006104fe8261123e565b506000828152600460205260409020546001600160a01b031661045b565b610527828233611277565b5050565b6001600160a01b03821661055a57604051633250574960e11b8152600060048201526024015b60405180910390fd5b6000610567838333611284565b9050836001600160a01b0316816001600160a01b0316146105b5576040516364283d7b60e01b81526001600160a01b0380861660048301526024820184905282166044820152606401610551565b50505050565b6060806105c78361137d565b6105e4576040516379dbbb9360e11b815260040160405180910390fd5b600b60006105f3600186612f9c565b8152602001908152602001600020600201600b60006001866106159190612f9c565b81526020019081526020016000206003018180548060200260200160405190810160405280929190818152602001828054801561067b57602002820191906000526020600020905b81546001600160a01b0316815260019091019060200180831161065d575b5050505050915080805480602002602001604051908101604052809291908181526020016000905b8282101561070f576000848152602090819020830180546040805182850281018501909152818152928301828280156106fb57602002820191906000526020600020905b8154815260200190600101908083116106e7575b5050505050815260200190600101906106a3565b50505050905091509150915091565b61073983838360405180602001604052806000815250611045565b505050565b6000336001600160a01b037f0000000000000000000000000000000000000000000000000000000000000000161461078957604051636932705760e11b815260040160405180910390fd5b610793838361139a565b604080516080810182527f00000000000000000000000000000000000000000000000000000000000000006001600160a01b039081168252602080830188815283850188905260608401879052600a546000908152600b909252939020825181546001600160a01b03191692169190911781559151909190600182019061081a9082612ff6565b5060408201518051610836916002840191602090910190612692565b50606082015180516108529160038401916020909101906126f7565b5050600a805491506000610865836130b4565b91905055506108987f0000000000000000000000000000000000000000000000000000000000000000600a5485856111ef565b6108c57f0000000000000000000000000000000000000000000000000000000000000000600a548661090c565b600a547fb3ac909e5e8f40ea473e9a3c1ae4e23caf0df5e322986ebf81ee5bf1b7029bea84846040516108f99291906129d9565b60405180910390a250600a549392505050565b6109158261137d565b6109315760405162461bcd60e51b8152600401610551906130cd565b826001600160a01b031661094483610d3c565b6001600160a01b0316146109b65760405162461bcd60e51b815260206004820152603360248201527f4552435f353532313a207472616e736665722063616c6c6572206973206e6f74604482015272081bdddb995c881b9bdc88185c1c1c9bdd9959606a1b6064820152608401610551565b6107398282611665565b60005b81518110156105b5576000600760008484815181106109e4576109e4613104565b602002602001015181526020019081526020016000209050806001016000866001600160a01b03166001600160a01b0316815260200190815260200160002080549050600003610a5f57600381018054600181018255600091825260209091200180546001600160a01b0319166001600160a01b0387161790555b306001600160a01b03861603610ad35760405162461bcd60e51b815260206004820152603360248201527f4552435f353532313a2074686973206d75737420626520616e2065787465726e604482015272616c20636f6e7472616374206164647265737360681b6064820152608401610551565b42816004015410610af65760405162461bcd60e51b81526004016105519061311a565b6001600160a01b03851660009081526001808301602090815260408320805492830181558352909120018490558251610b6a90849084908110610b3b57610b3b613104565b6020026020010151610b65858581518110610b5857610b58613104565b6020026020010151610d3c565b6116b5565b506001016109c3565b600b60205260009081526040902080546001820180546001600160a01b039092169291610b9f90612f4c565b80601f0160208091040260200160405190810160405280929190818152602001828054610bcb90612f4c565b8015610c185780601f10610bed57610100808354040283529160200191610c18565b820191906000526020600020905b815481529060010190602001808311610bfb57829003601f168201915b5050505050905082565b8051825114610c925760405162461bcd60e51b815260206004820152603660248201527f41646472657373657320616e6420546f6b656e494420617272617973206d75736044820152750e840d0c2ecca40e8d0ca40e6c2daca40d8cadccee8d60531b6064820152608401610551565b60005b8151811015610d2557818181518110610cb057610cb0613104565b602002602001015151600003610d1d5760405162461bcd60e51b815260206004820152602c60248201527f4552435f353532313a2074686520726566657272696e67206c6973742063616e60448201526b6e6f7420626520656d70747960a01b6064820152608401610551565b600101610c95565b50610d31828483611729565b610739828483611866565b600061045b8261123e565b6060808080306001600160a01b03871603610d9657610d658561137d565b610d815760405162461bcd60e51b8152600401610551906130cd565b610d8c856000611c1c565b9092509050610ea0565b6040516301ffc9a760e01b8152630204cbd160e51b600482015286906001600160a01b038216906301ffc9a790602401602060405180830381865afa158015610de3573d6000803e3d6000fd5b505050506040513d601f19601f82011682018060405250810190610e07919061316f565b610e235760405162461bcd60e51b81526004016105519061318c565b60405163327cd87360e11b81526001600160a01b038881166004830152602482018890528216906364f9b0e6906044015b600060405180830381865afa158015610e71573d6000803e3d6000fd5b505050506040513d6000823e601f3d908101601f19168201604052610e9991908101906132b4565b9093509150505b909590945092505050565b60006001600160a01b038216610ed7576040516322718ad960e21b815260006004820152602401610551565b506001600160a01b031660009081526003602052604090205490565b6060610efe8261137d565b610f1b576040516379dbbb9360e11b815260040160405180910390fd5b61045b8261105d565b60606001805461047090612f4c565b610527338383611f27565b6060808080306001600160a01b03871603610f8357610f5c8561137d565b610f785760405162461bcd60e51b8152600401610551906130cd565b610d8c856001611c1c565b6040516301ffc9a760e01b8152630204cbd160e51b600482015286906001600160a01b038216906301ffc9a790602401602060405180830381865afa158015610fd0573d6000803e3d6000fd5b505050506040513d601f19601f82011682018060405250810190610ff4919061316f565b6110105760405162461bcd60e51b81526004016105519061318c565b6040516328d4e46b60e21b81526001600160a01b0388811660048301526024820188905282169063a35391ac90604401610e54565b61105084848461052b565b6105b53385858585611fc6565b606061045b826120ef565b600080306001600160a01b038516036110b8576110848361137d565b6110a05760405162461bcd60e51b8152600401610551906130cd565b506000828152600760205260409020600401546111ba565b6040516301ffc9a760e01b8152630204cbd160e51b600482015284906001600160a01b038216906301ffc9a790602401602060405180830381865afa158015611105573d6000803e3d6000fd5b505050506040513d601f19601f82011682018060405250810190611129919061316f565b6111455760405162461bcd60e51b81526004016105519061318c565b60405163d30d968d60e01b81526001600160a01b0386811660048301526024820186905282169063d30d968d90604401602060405180830381865afa158015611192573d6000803e3d6000fd5b505050506040513d601f19601f820116820180604052508101906111b6919061337f565b9150505b9392505050565b6001600160a01b03918216600090815260056020908152604080832093909416825291909152205460ff1690565b6111f98484612200565b8051158015906112095750815115155b156105b5576105b5838383610c22565b60006001600160e01b03198216632483248360e11b148061045b575061045b8261221a565b6000818152600260205260408120546001600160a01b03168061045b57604051637e27328960e01b815260048101849052602401610551565b610739838383600161226a565b6000828152600260205260408120546001600160a01b03908116908316156112b1576112b1818486612370565b6001600160a01b038116156112ef576112ce60008560008061226a565b6001600160a01b038116600090815260036020526040902080546000190190555b6001600160a01b0385161561131e576001600160a01b0385166000908152600360205260409020805460010190555b60008481526002602052604080822080546001600160a01b0319166001600160a01b0389811691821790925591518793918516917fddf252ad1be2c89b69c2b068fc378daa952ba7f163c4a11628f55a4df523b3ef91a4949350505050565b60008061138983610d3c565b6001600160a01b0316141592915050565b80518251146113bc57604051631bc868fd60e31b815260040160405180910390fd5b60007f000000000000000000000000000000000000000000000000000000000000000090506000816001600160a01b031663bdcf1ae56040518163ffffffff1660e01b8152600401602060405180830381865afa158015611421573d6000803e3d6000fd5b505050506040513d601f19601f820116820180604052508101906114459190613398565b90508060005b855181101561165d57600086828151811061146857611468613104565b6020026020010151905060006001600160a01b0316816001600160a01b0316036114925750611655565b60005b8683815181106114a7576114a7613104565b6020026020010151518110156116525760008784815181106114cb576114cb613104565b602002602001015182815181106114e4576114e4613104565b60200260200101519050306001600160a01b0316836001600160a01b03161480156115115750600a548111155b801561156d57506001600160a01b037f000000000000000000000000000000000000000000000000000000000000000016600b6000611551600185612f9c565b81526020810191909152604001600020546001600160a01b0316145b15611578575061164a565b604051631d681f0360e31b81526001600160a01b037f0000000000000000000000000000000000000000000000000000000000000000811660048301528481166024830152604482018390526000919087169063eb40f81890606401602060405180830381865afa1580156115f1573d6000803e3d6000fd5b505050506040513d601f19601f82011682018060405250810190611615919061316f565b905080611647576040516313f5acc760e01b81526001600160a01b038516600482015260248101839052604401610551565b50505b600101611495565b50505b60010161144b565b505050505050565b600082815260066020526040902061167d8282612ff6565b506040518281527ff8e1a15aba9398e019f0b49df1a4fde98ee17ae345cb5f6b5e2c27f5033e8ce79060200160405180910390a15050565b6000806116c3846001611c1c565b915091506000806116d5866000611c1c565b91509150846001600160a01b0316867f81bed52c04e8cd65796985202162bad7e20a8ffaa732fe2e0a0bc79f687e4d668686868660405161171994939291906133b5565b60405180910390a3505050505050565b6000828152600760205260408120905b84518110156118555781600001600086838151811061175a5761175a613104565b60200260200101516001600160a01b03166001600160a01b03168152602001908152602001600020805490506000036117df57816002018582815181106117a3576117a3613104565b60209081029190910181015182546001810184556000938452919092200180546001600160a01b0319166001600160a01b039092169190911790555b8281815181106117f1576117f1613104565b602002602001015182600001600087848151811061181157611811613104565b60200260200101516001600160a01b03166001600160a01b03168152602001908152602001600020908051906020019061184c929190612750565b50600101611739565b504260048201556105b583336116b5565b60005b83518110156105b557306001600160a01b031684828151811061188e5761188e613104565b60200260200101516001600160a01b031603611af95760005b8282815181106118b9576118b9613104565b602002602001015151811015611af3576000600760008585815181106118e1576118e1613104565b602002602001015184815181106118fa576118fa613104565b60200260200101518152602001908152602001600020905080600101600087858151811061192a5761192a613104565b60200260200101516001600160a01b03166001600160a01b03168152602001908152602001600020805490506000036119af578060030186848151811061197357611973613104565b60209081029190910181015182546001810184556000938452919092200180546001600160a01b0319166001600160a01b039092169190911790555b8383815181106119c1576119c1613104565b602002602001015182815181106119da576119da613104565b60200260200101518503611a3c5760405162461bcd60e51b8152602060048201526024808201527f4552435f353532313a2073656c662d7265666572656e6365206e6f7420616c6c6044820152631bddd95960e21b6064820152608401610551565b42816004015410611a5f5760405162461bcd60e51b81526004016105519061311a565b3060009081526001808301602090815260408320805492830181558352909120018590558351611aea90859085908110611a9b57611a9b613104565b60200260200101518381518110611ab457611ab4613104565b6020026020010151610b65868681518110611ad157611ad1613104565b60200260200101518581518110610b5857610b58613104565b506001016118a7565b50611c14565b6000848281518110611b0d57611b0d613104565b60209081029190910101516040516301ffc9a760e01b8152630204cbd160e51b60048201529091506000906001600160a01b038316906301ffc9a790602401602060405180830381865afa158015611b69573d6000803e3d6000fd5b505050506040513d601f19601f82011682018060405250810190611b8d919061316f565b90508015611c1157816001600160a01b03166355c104403087878781518110611bb857611bb8613104565b60200260200101516040518463ffffffff1660e01b8152600401611bde9392919061340d565b600060405180830381600087803b158015611bf857600080fd5b505af1158015611c0c573d6000803e3d6000fd5b505050505b50505b600101611869565b6000828152600760205260409020606090819081808515611dab5782600201805480602002602001604051908101604052809291908181526020018280548015611c8f57602002820191906000526020600020905b81546001600160a01b03168152600190910190602001808311611c71575b5050505050915081516001600160401b03811115611caf57611caf612a07565b604051908082528060200260200182016040528015611ce257816020015b6060815260200190600190039081611ccd5790505b50905060005b8251811015611da557836000016000848381518110611d0957611d09613104565b60200260200101516001600160a01b03166001600160a01b03168152602001908152602001600020805480602002602001604051908101604052809291908181526020018280548015611d7b57602002820191906000526020600020905b815481526020019060010190808311611d67575b5050505050828281518110611d9257611d92613104565b6020908102919091010152600101611ce8565b50611f1b565b82600301805480602002602001604051908101604052809291908181526020018280548015611e0357602002820191906000526020600020905b81546001600160a01b03168152600190910190602001808311611de5575b5050505050915081516001600160401b03811115611e2357611e23612a07565b604051908082528060200260200182016040528015611e5657816020015b6060815260200190600190039081611e415790505b50905060005b8251811015611f1957836001016000848381518110611e7d57611e7d613104565b60200260200101516001600160a01b03166001600160a01b03168152602001908152602001600020805480602002602001604051908101604052809291908181526020018280548015611eef57602002820191906000526020600020905b815481526020019060010190808311611edb575b5050505050828281518110611f0657611f06613104565b6020908102919091010152600101611e5c565b505b90969095509350505050565b6001600160a01b038216611f5957604051630b61174360e31b81526001600160a01b0383166004820152602401610551565b6001600160a01b03838116600081815260056020908152604080832094871680845294825291829020805460ff191686151590811790915591519182527f17307eab39ab6107e8899845ad3d59bd9653f200f220920489ca2b5937696c31910160405180910390a3505050565b6001600160a01b0383163b156120e857604051630a85bd0160e11b81526001600160a01b0384169063150b7a029061200890889088908790879060040161346a565b6020604051808303816000875af1925050508015612043575060408051601f3d908101601f19168201909252612040918101906134a7565b60015b6120ac573d808015612071576040519150601f19603f3d011682016040523d82523d6000602084013e612076565b606091505b5080516000036120a457604051633250574960e11b81526001600160a01b0385166004820152602401610551565b805181602001fd5b6001600160e01b03198116630a85bd0160e11b1461165d57604051633250574960e11b81526001600160a01b0385166004820152602401610551565b5050505050565b60606120fa8261123e565b506000828152600660205260408120805461211490612f4c565b80601f016020809104026020016040519081016040528092919081815260200182805461214090612f4c565b801561218d5780601f106121625761010080835404028352916020019161218d565b820191906000526020600020905b81548152906001019060200180831161217057829003601f168201915b5050505050905060006121ab60408051602081019091526000815290565b905080516000036121bd575092915050565b8151156121ef5780826040516020016121d79291906134c4565b60405160208183030381529060405292505050919050565b6121f8846123d4565b949350505050565b610527828260405180602001604052806000815250612448565b60006001600160e01b031982166380ac58cd60e01b148061224b57506001600160e01b03198216635b5e139f60e01b145b8061045b57506301ffc9a760e01b6001600160e01b031983161461045b565b808061227e57506001600160a01b03821615155b1561234057600061228e8461123e565b90506001600160a01b038316158015906122ba5750826001600160a01b0316816001600160a01b031614155b80156122cd57506122cb81846111c1565b155b156122f65760405163a9fbf51f60e01b81526001600160a01b0384166004820152602401610551565b811561233e5783856001600160a01b0316826001600160a01b03167f8c5be1e5ebec7d5bd14f71427d1e84f3dd0314c0f7b2291e5b200ac8c7c3b92560405160405180910390a45b505b5050600090815260046020526040902080546001600160a01b0319166001600160a01b0392909216919091179055565b61237b838383612460565b610739576001600160a01b0383166123a957604051637e27328960e01b815260048101829052602401610551565b60405163177e802f60e01b81526001600160a01b038316600482015260248101829052604401610551565b60606123df8261123e565b5060006123f760408051602081019091526000815290565b9050600081511161241757604051806020016040528060008152506111ba565b80612421846124c3565b6040516020016124329291906134c4565b6040516020818303038152906040529392505050565b6124528383612555565b610739336000858585611fc6565b60006001600160a01b038316158015906121f85750826001600160a01b0316846001600160a01b0316148061249a575061249a84846111c1565b806121f85750506000908152600460205260409020546001600160a01b03908116911614919050565b606060006124d0836125ba565b60010190506000816001600160401b038111156124ef576124ef612a07565b6040519080825280601f01601f191660200182016040528015612519576020820181803683370190505b5090508181016020015b600019016f181899199a1a9b1b9c1cb0b131b232b360811b600a86061a8153600a850494508461252357509392505050565b6001600160a01b03821661257f57604051633250574960e11b815260006004820152602401610551565b600061258d83836000611284565b90506001600160a01b03811615610739576040516339e3563760e11b815260006004820152602401610551565b60008072184f03e93ff9f4daa797ed6e38ed64bf6a1f0160401b83106125f95772184f03e93ff9f4daa797ed6e38ed64bf6a1f0160401b830492506040015b6d04ee2d6d415b85acef81000000008310612625576d04ee2d6d415b85acef8100000000830492506020015b662386f26fc10000831061264357662386f26fc10000830492506010015b6305f5e100831061265b576305f5e100830492506008015b612710831061266f57612710830492506004015b60648310612681576064830492506002015b600a831061045b5760010192915050565b8280548282559060005260206000209081019282156126e7579160200282015b828111156126e757825182546001600160a01b0319166001600160a01b039091161782556020909201916001909101906126b2565b506126f392915061278b565b5090565b828054828255906000526020600020908101928215612744579160200282015b828111156127445782518051612734918491602090910190612750565b5091602001919060010190612717565b506126f39291506127a0565b8280548282559060005260206000209081019282156126e7579160200282015b828111156126e7578251825591602001919060010190612770565b5b808211156126f3576000815560010161278c565b808211156126f35760006127b482826127bd565b506001016127a0565b50805460008255906000526020600020908101906127db919061278b565b50565b6001600160e01b0319811681146127db57600080fd5b60006020828403121561280657600080fd5b81356111ba816127de565b60005b8381101561282c578181015183820152602001612814565b50506000910152565b6000815180845261284d816020860160208601612811565b601f01601f19169290920160200192915050565b6020815260006111ba6020830184612835565b60006020828403121561288657600080fd5b5035919050565b6001600160a01b03811681146127db57600080fd5b600080604083850312156128b557600080fd5b82356128c08161288d565b946020939093013593505050565b6000806000606084860312156128e357600080fd5b83356128ee8161288d565b925060208401356128fe8161288d565b929592945050506040919091013590565b600081518084526020840193506020830160005b8281101561294a5781516001600160a01b0316865260209586019590910190600101612923565b5093949350505050565b600082825180855260208501945060208160051b8301016020850160005b838110156129cd57848303601f190188528151805180855260209182019185019060005b818110156129b4578351835260209384019390920191600101612996565b50506020998a0199909450929092019150600101612972565b50909695505050505050565b6040815260006129ec604083018561290f565b82810360208401526129fe8185612954565b95945050505050565b634e487b7160e01b600052604160045260246000fd5b604051601f8201601f191681016001600160401b0381118282101715612a4557612a45612a07565b604052919050565b6000806001600160401b03841115612a6757612a67612a07565b50601f8301601f1916602001612a7c81612a1d565b915050828152838383011115612a9157600080fd5b828260208301376000602084830101529392505050565b600082601f830112612ab957600080fd5b6111ba83833560208501612a4d565b60006001600160401b03821115612ae157612ae1612a07565b5060051b60200190565b600082601f830112612afc57600080fd5b8135612b0f612b0a82612ac8565b612a1d565b8082825260208201915060208360051b860101925085831115612b3157600080fd5b602085015b83811015612b57578035612b498161288d565b835260209283019201612b36565b5095945050505050565b600082601f830112612b7257600080fd5b8135612b80612b0a82612ac8565b8082825260208201915060208360051b860101925085831115612ba257600080fd5b602085015b83811015612b57578035835260209283019201612ba7565b600082601f830112612bd057600080fd5b8135612bde612b0a82612ac8565b8082825260208201915060208360051b860101925085831115612c0057600080fd5b602085015b83811015612b575780356001600160401b03811115612c2357600080fd5b612c32886020838a0101612b61565b84525060209283019201612c05565b600080600060608486031215612c5657600080fd5b83356001600160401b03811115612c6c57600080fd5b612c7886828701612aa8565b93505060208401356001600160401b03811115612c9457600080fd5b612ca086828701612aeb565b92505060408401356001600160401b03811115612cbc57600080fd5b612cc886828701612bbf565b9150509250925092565b600080600060608486031215612ce757600080fd5b8335612cf28161288d565b92506020840135915060408401356001600160401b03811115612d1457600080fd5b612cc886828701612aa8565b600080600060608486031215612d3557600080fd5b8335612d408161288d565b92506020840135915060408401356001600160401b03811115612d6257600080fd5b612cc886828701612b61565b6001600160a01b03831681526040602082018190526000906121f890830184612835565b600080600060608486031215612da757600080fd5b8335925060208401356001600160401b03811115612c9457600080fd5b600060208284031215612dd657600080fd5b81356111ba8161288d565b80151581146127db57600080fd5b60008060408385031215612e0257600080fd5b8235612e0d8161288d565b91506020830135612e1d81612de1565b809150509250929050565b60008060008060808587031215612e3e57600080fd5b8435612e498161288d565b93506020850135612e598161288d565b92506040850135915060608501356001600160401b03811115612e7b57600080fd5b8501601f81018713612e8c57600080fd5b612e9b87823560208401612a4d565b91505092959194509250565b60008060408385031215612eba57600080fd5b8235612ec58161288d565b91506020830135612e1d8161288d565b60008060008060808587031215612eeb57600080fd5b8435612ef68161288d565b93506020850135925060408501356001600160401b03811115612f1857600080fd5b612f2487828801612aeb565b92505060608501356001600160401b03811115612f4057600080fd5b612e9b87828801612bbf565b600181811c90821680612f6057607f821691505b602082108103612f8057634e487b7160e01b600052602260045260246000fd5b50919050565b634e487b7160e01b600052601160045260246000fd5b8181038181111561045b5761045b612f86565b601f82111561073957806000526020600020601f840160051c81016020851015612fd65750805b601f840160051c820191505b818110156120e85760008155600101612fe2565b81516001600160401b0381111561300f5761300f612a07565b6130238161301d8454612f4c565b84612faf565b6020601f821160018114613057576000831561303f5750848201515b600019600385901b1c1916600184901b1784556120e8565b600084815260208120601f198516915b828110156130875787850151825560209485019460019092019101613067565b50848210156130a55786840151600019600387901b60f8161c191681555b50505050600190811b01905550565b6000600182016130c6576130c6612f86565b5060010190565b6020808252601e908201527f4552435f353532313a20746f6b656e204944206e6f7420657869737465640000604082015260600190565b634e487b7160e01b600052603260045260246000fd5b60208082526035908201527f4552435f353532313a2074686520726566657272656420724e4654206e65656460408201527439903a37903132903090383932b232b1b2b9b9b7b960591b606082015260800190565b60006020828403121561318157600080fd5b81516111ba81612de1565b60208082526027908201527f4552435f353532313a2074617267657420636f6e7472616374206e6f742073756040820152661c1c1bdc9d195960ca1b606082015260800190565b600082601f8301126131e457600080fd5b81516131f2612b0a82612ac8565b8082825260208201915060208360051b86010192508583111561321457600080fd5b602085015b83811015612b575780516001600160401b0381111561323757600080fd5b8601603f8101881361324857600080fd5b6020810151613259612b0a82612ac8565b808282526020820191506020808460051b8601010192508a83111561327d57600080fd5b6040840193505b8284101561329f578351825260209384019390910190613284565b86525050602093840193919091019050613219565b600080604083850312156132c757600080fd5b82516001600160401b038111156132dd57600080fd5b8301601f810185136132ee57600080fd5b80516132fc612b0a82612ac8565b8082825260208201915060208360051b85010192508783111561331e57600080fd5b6020840193505b828410156133495783516133388161288d565b825260209384019390910190613325565b8095505050505060208301516001600160401b0381111561336957600080fd5b613375858286016131d3565b9150509250929050565b60006020828403121561339157600080fd5b5051919050565b6000602082840312156133aa57600080fd5b81516111ba8161288d565b6080815260006133c8608083018761290f565b82810360208401526133da8187612954565b905082810360408401526133ee818661290f565b905082810360608401526134028185612954565b979650505050505050565b6001600160a01b0384168152602080820184905260606040830181905283519083018190526000918401906080840190835b8181101561345d57835183526020938401939092019160010161343f565b5090979650505050505050565b6001600160a01b038581168252841660208201526040810183905260806060820181905260009061349d90830184612835565b9695505050505050565b6000602082840312156134b957600080fd5b81516111ba816127de565b600083516134d6818460208801612811565b8351908301906134ea818360208801612811565b0194935050505056fea264697066735822122033b554ab40b2c3ac62cc892ca857c8ab3bcbbfeafdeb58c32896abfceec8b18a64736f6c634300081c0033a264697066735822122084c7e6a9d8908077a282ddd3286045c4eecf61d3550ceb45aadc0159015bd0c864736f6c634300081c003360a0604052600880546001600160a01b0319169055620f424060095534801561002757600080fd5b506040516136db3803806136db833981016040819052610046916100d5565b6040518060400160405280601081526020016f536f667477617265204c6963656e736560801b815250604051806040016040528060078152602001664c4943454e534560c81b815250818181600090816100a091906101a4565b5060016100ad82826101a4565b5050600880546001600160a01b031916331790555050506001600160a01b0316608052610262565b6000602082840312156100e757600080fd5b81516001600160a01b03811681146100fe57600080fd5b9392505050565b634e487b7160e01b600052604160045260246000fd5b600181811c9082168061012f57607f821691505b60208210810361014f57634e487b7160e01b600052602260045260246000fd5b50919050565b601f82111561019f57806000526020600020601f840160051c8101602085101561017c5750805b601f840160051c820191505b8181101561019c5760008155600101610188565b50505b505050565b81516001600160401b038111156101bd576101bd610105565b6101d1816101cb845461011b565b84610155565b6020601f82116001811461020557600083156101ed5750848201515b600019600385901b1c1916600184901b17845561019c565b600084815260208120601f198516915b828110156102355787850151825560209485019460019092019101610215565b50848210156102535786840151600019600387901b60f8161c191681555b50505050600190811b01905550565b60805161345e61027d60003960006105a0015261345e6000f3fe608060405234801561001057600080fd5b506004361061018e5760003560e01c806364f9b0e6116100de578063b88d4fde11610097578063e985e9c511610071578063e985e9c5146103a7578063eb40f818146103ba578063edda5e73146103cd578063f9a92730146103e057600080fd5b8063b88d4fde1461036e578063c87b56dd14610381578063d30d968d1461039457600080fd5b806364f9b0e6146102ec57806370a082311461030d57806377f2d69e1461032057806395d89b4114610340578063a22cb46514610348578063a35391ac1461035b57600080fd5b8063420859911161014b57806355c104401161012557806355c104401461028a5780635995d1581461029d578063616c5535146102c65780636352211e146102d957600080fd5b8063420859911461024457806342842e0e146102645780634e5786bf1461027757600080fd5b806301ffc9a71461019357806306fdde03146101bb578063081812fc146101d0578063095ea7b3146101fb57806323b872dd1461021057806338ffc19414610223575b600080fd5b6101a66101a136600461270f565b6103f3565b60405190151581526020015b60405180910390f35b6101c3610439565b6040516101b2919061277c565b6101e36101de36600461278f565b6104cb565b6040516001600160a01b0390911681526020016101b2565b61020e6102093660046127bd565b6104f4565b005b61020e61021e3660046127e9565b610503565b6102366102313660046127e9565b610593565b6040519081526020016101b2565b61023661025236600461278f565b600b6020526000908152604090205481565b61020e6102723660046127e9565b610991565b61020e6102853660046128d5565b6109b1565b61020e6102983660046129cc565b610a65565b6101e36102ab36600461278f565b600a602052600090815260409020546001600160a01b031681565b61020e6102d4366004612b03565b610c18565b6101e36102e736600461278f565b610d32565b6102ff6102fa3660046127bd565b610d3d565b6040516101b2929190612c3c565b61023661031b366004612c61565b610ea1565b61033361032e3660046127e9565b610ee9565b6040516101b29190612c7e565b6101c36110cb565b61020e610356366004612c9f565b6110da565b6102ff6103693660046127bd565b6110e5565b61020e61037c366004612cd8565b6111ec565b6101c361038f36600461278f565b611204565b6102366103a23660046127bd565b61120f565b6101a66103b5366004612d57565b611366565b6101a66103c83660046127e9565b611394565b61020e6103db366004612d85565b61147e565b6102366103ee366004612dfc565b6114a8565b60006001600160e01b031982166374342b5560e01b148061042457506001600160e01b03198216630204cbd160e51b145b806104335750610433826114e6565b92915050565b60606000805461044890612e31565b80601f016020809104026020016040519081016040528092919081815260200182805461047490612e31565b80156104c15780601f10610496576101008083540402835291602001916104c1565b820191906000526020600020905b8154815290600101906020018083116104a457829003601f168201915b5050505050905090565b60006104d68261150b565b506000828152600460205260409020546001600160a01b0316610433565b6104ff828233611544565b5050565b6001600160a01b03821661053257604051633250574960e11b8152600060048201526024015b60405180910390fd5b600061053f838333611551565b9050836001600160a01b0316816001600160a01b03161461058d576040516364283d7b60e01b81526001600160a01b0380861660048301526024820184905282166044820152606401610529565b50505050565b6000336001600160a01b037f000000000000000000000000000000000000000000000000000000000000000016146105de5760405163ea8e4eb560e01b815260040160405180910390fd5b6000839050806001600160a01b0316637a4440726040518163ffffffff1660e01b8152600401602060405180830381865afa92505050801561063d575060408051601f3d908101601f1916820190925261063a91810190612e6b565b60015b61065a5760405163b5be0bc360e01b815260040160405180910390fd5b50604051632392274360e21b8152600481018490526001600160a01b03821690638e489d0c90602401600060405180830381865afa9250505080156106c157506040513d6000823e601f3d908101601f191682016040526106be9190810190612e88565b60015b6106de57604051630f89114b60e41b815260040160405180910390fd5b506009805490819060006106f183612ef5565b909155505060408051600180825281830190925260009160208083019080368337019050509050858160008151811061072c5761072c612f1c565b6001600160a01b039290921660209283029190910190910152604080516001808252818301909252600091816020015b606081526020019060019003908161075c575050604080516001808252818301909252919250600091906020808301908036833701905050905086816000815181106107aa576107aa612f1c565b60200260200101818152505080826000815181106107ca576107ca612f1c565b60200260200101819052506107e18985858561147e565b604051632392274360e21b8152600481018890526000906001600160a01b03871690638e489d0c90602401600060405180830381865afa158015610829573d6000803e3d6000fd5b505050506040513d6000823e601f3d908101601f191682016040526108519190810190612e88565b90506000816040516020016108669190612f32565b6040516020818303038152906040529050610881868261164a565b89600a600088815260200190815260200160002060006101000a8154816001600160a01b0302191690836001600160a01b0316021790555088600b600088815260200190815260200160002081905550600c60008b6001600160a01b03166001600160a01b0316815260200190815260200160002060008a8152602001908152602001600020869080600181540180825580915050600190039060005260206000200160009091909190915055888a6001600160a01b0316877fd14409b136f4c46af205dbc7e9b237bb1ae44b59893a672421c9c5d56bd156ea8e60405161097891906001600160a01b0391909116815260200190565b60405180910390a45093955050505050505b9392505050565b6109ac838383604051806020016040528060008152506111ec565b505050565b6109ba8261169a565b6109d65760405162461bcd60e51b815260040161052990612f66565b826001600160a01b03166109e983610d32565b6001600160a01b031614610a5b5760405162461bcd60e51b815260206004820152603360248201527f4552435f353532313a207472616e736665722063616c6c6572206973206e6f74604482015272081bdddb995c881b9bdc88185c1c1c9bdd9959606a1b6064820152608401610529565b6109ac828261164a565b60005b815181101561058d57600060076000848481518110610a8957610a89612f1c565b602002602001015181526020019081526020016000209050806001016000866001600160a01b03166001600160a01b0316815260200190815260200160002080549050600003610b0457600381018054600181018255600091825260209091200180546001600160a01b0319166001600160a01b0387161790555b306001600160a01b03861603610b785760405162461bcd60e51b815260206004820152603360248201527f4552435f353532313a2074686973206d75737420626520616e2065787465726e604482015272616c20636f6e7472616374206164647265737360681b6064820152608401610529565b42816004015410610b9b5760405162461bcd60e51b815260040161052990612f9d565b6001600160a01b03851660009081526001808301602090815260408320805492830181558352909120018490558251610c0f90849084908110610be057610be0612f1c565b6020026020010151610c0a858581518110610bfd57610bfd612f1c565b6020026020010151610d32565b6116b7565b50600101610a68565b8051825114610c885760405162461bcd60e51b815260206004820152603660248201527f41646472657373657320616e6420546f6b656e494420617272617973206d75736044820152750e840d0c2ecca40e8d0ca40e6c2daca40d8cadccee8d60531b6064820152608401610529565b60005b8151811015610d1b57818181518110610ca657610ca6612f1c565b602002602001015151600003610d135760405162461bcd60e51b815260206004820152602c60248201527f4552435f353532313a2074686520726566657272696e67206c6973742063616e60448201526b6e6f7420626520656d70747960a01b6064820152608401610529565b600101610c8b565b50610d2782848361172b565b6109ac828483611868565b60006104338261150b565b6060808080306001600160a01b03871603610d8c57610d5b8561169a565b610d775760405162461bcd60e51b815260040161052990612f66565b610d82856000611c1e565b9092509050610e96565b6040516301ffc9a760e01b8152630204cbd160e51b600482015286906001600160a01b038216906301ffc9a790602401602060405180830381865afa158015610dd9573d6000803e3d6000fd5b505050506040513d601f19601f82011682018060405250810190610dfd9190612ff2565b610e195760405162461bcd60e51b81526004016105299061300f565b60405163327cd87360e11b81526001600160a01b038881166004830152602482018890528216906364f9b0e6906044015b600060405180830381865afa158015610e67573d6000803e3d6000fd5b505050506040513d6000823e601f3d908101601f19168201604052610e8f9190810190613137565b9093509150505b909590945092505050565b60006001600160a01b038216610ecd576040516322718ad960e21b815260006004820152602401610529565b506001600160a01b031660009081526003602052604090205490565b6001600160a01b0382166000908152600c602090815260408083208484528252808320805482518185028101850190935280835260609493830182828015610f5057602002820191906000526020600020905b815481526020019060010190808311610f3c575b505050505090506000805b8251811015610fd257610f86838281518110610f7957610f79612f1c565b602002602001015161169a565b8015610fb75750866001600160a01b0316610fac848381518110610bfd57610bfd612f1c565b6001600160a01b0316145b15610fca5781610fc681612ef5565b9250505b600101610f5b565b506000816001600160401b03811115610fed57610fed61282a565b604051908082528060200260200182016040528015611016578160200160208202803683370190505b5090506000805b84518110156110be5761103b858281518110610f7957610f79612f1c565b801561106c5750886001600160a01b0316611061868381518110610bfd57610bfd612f1c565b6001600160a01b0316145b156110b65784818151811061108357611083612f1c565b602002602001015183838151811061109d5761109d612f1c565b6020908102919091010152816110b281612ef5565b9250505b60010161101d565b5090979650505050505050565b60606001805461044890612e31565b6104ff338383611f29565b6060808080306001600160a01b0387160361112a576111038561169a565b61111f5760405162461bcd60e51b815260040161052990612f66565b610d82856001611c1e565b6040516301ffc9a760e01b8152630204cbd160e51b600482015286906001600160a01b038216906301ffc9a790602401602060405180830381865afa158015611177573d6000803e3d6000fd5b505050506040513d601f19601f8201168201806040525081019061119b9190612ff2565b6111b75760405162461bcd60e51b81526004016105299061300f565b6040516328d4e46b60e21b81526001600160a01b0388811660048301526024820188905282169063a35391ac90604401610e4a565b6111f7848484610503565b61058d3385858585611fc8565b6060610433826120f3565b600080306001600160a01b0385160361125f5761122b8361169a565b6112475760405162461bcd60e51b815260040161052990612f66565b5060008281526007602052604090206004015461098a565b6040516301ffc9a760e01b8152630204cbd160e51b600482015284906001600160a01b038216906301ffc9a790602401602060405180830381865afa1580156112ac573d6000803e3d6000fd5b505050506040513d601f19601f820116820180604052508101906112d09190612ff2565b6112ec5760405162461bcd60e51b81526004016105299061300f565b60405163d30d968d60e01b81526001600160a01b0386811660048301526024820186905282169063d30d968d90604401602060405180830381865afa158015611339573d6000803e3d6000fd5b505050506040513d601f19601f8201168201806040525081019061135d9190613202565b95945050505050565b6001600160a01b03918216600090815260056020908152604080832093909416825291909152205460ff1690565b6001600160a01b0382166000908152600c602090815260408083208484528252808320805482518185028101850190935280835284938301828280156113f957602002820191906000526020600020905b8154815260200190600101908083116113e5575b5050505050905060005b815181101561147257600082828151811061142057611420612f1c565b602002602001015190506114338161169a565b80156114585750866001600160a01b031661144d82610d32565b6001600160a01b0316145b15611469576001935050505061098a565b50600101611403565b50600095945050505050565b6114888484612204565b8051158015906114985750815115155b1561058d5761058d838383610c18565b600c60205282600052604060002060205281600052604060002081815481106114d057600080fd5b9060005260206000200160009250925050505481565b60006001600160e01b03198216632483248360e11b148061043357506104338261221e565b6000818152600260205260408120546001600160a01b03168061043357604051637e27328960e01b815260048101849052602401610529565b6109ac838383600161226e565b6000828152600260205260408120546001600160a01b039081169083161561157e5761157e818486612374565b6001600160a01b038116156115bc5761159b60008560008061226e565b6001600160a01b038116600090815260036020526040902080546000190190555b6001600160a01b038516156115eb576001600160a01b0385166000908152600360205260409020805460010190555b60008481526002602052604080822080546001600160a01b0319166001600160a01b0389811691821790925591518793918516917fddf252ad1be2c89b69c2b068fc378daa952ba7f163c4a11628f55a4df523b3ef91a4949350505050565b60008281526006602052604090206116628282613262565b506040518281527ff8e1a15aba9398e019f0b49df1a4fde98ee17ae345cb5f6b5e2c27f5033e8ce79060200160405180910390a15050565b6000806116a683610d32565b6001600160a01b0316141592915050565b6000806116c5846001611c1e565b915091506000806116d7866000611c1e565b91509150846001600160a01b0316867f81bed52c04e8cd65796985202162bad7e20a8ffaa732fe2e0a0bc79f687e4d668686868660405161171b9493929190613320565b60405180910390a3505050505050565b6000828152600760205260408120905b84518110156118575781600001600086838151811061175c5761175c612f1c565b60200260200101516001600160a01b03166001600160a01b03168152602001908152602001600020805490506000036117e157816002018582815181106117a5576117a5612f1c565b60209081029190910181015182546001810184556000938452919092200180546001600160a01b0319166001600160a01b039092169190911790555b8281815181106117f3576117f3612f1c565b602002602001015182600001600087848151811061181357611813612f1c565b60200260200101516001600160a01b03166001600160a01b03168152602001908152602001600020908051906020019061184e929190612696565b5060010161173b565b5042600482015561058d83336116b7565b60005b835181101561058d57306001600160a01b031684828151811061189057611890612f1c565b60200260200101516001600160a01b031603611afb5760005b8282815181106118bb576118bb612f1c565b602002602001015151811015611af5576000600760008585815181106118e3576118e3612f1c565b602002602001015184815181106118fc576118fc612f1c565b60200260200101518152602001908152602001600020905080600101600087858151811061192c5761192c612f1c565b60200260200101516001600160a01b03166001600160a01b03168152602001908152602001600020805490506000036119b1578060030186848151811061197557611975612f1c565b60209081029190910181015182546001810184556000938452919092200180546001600160a01b0319166001600160a01b039092169190911790555b8383815181106119c3576119c3612f1c565b602002602001015182815181106119dc576119dc612f1c565b60200260200101518503611a3e5760405162461bcd60e51b8152602060048201526024808201527f4552435f353532313a2073656c662d7265666572656e6365206e6f7420616c6c6044820152631bddd95960e21b6064820152608401610529565b42816004015410611a615760405162461bcd60e51b815260040161052990612f9d565b3060009081526001808301602090815260408320805492830181558352909120018590558351611aec90859085908110611a9d57611a9d612f1c565b60200260200101518381518110611ab657611ab6612f1c565b6020026020010151610c0a868681518110611ad357611ad3612f1c565b60200260200101518581518110610bfd57610bfd612f1c565b506001016118a9565b50611c16565b6000848281518110611b0f57611b0f612f1c565b60209081029190910101516040516301ffc9a760e01b8152630204cbd160e51b60048201529091506000906001600160a01b038316906301ffc9a790602401602060405180830381865afa158015611b6b573d6000803e3d6000fd5b505050506040513d601f19601f82011682018060405250810190611b8f9190612ff2565b90508015611c1357816001600160a01b03166355c104403087878781518110611bba57611bba612f1c565b60200260200101516040518463ffffffff1660e01b8152600401611be093929190613378565b600060405180830381600087803b158015611bfa57600080fd5b505af1158015611c0e573d6000803e3d6000fd5b505050505b50505b60010161186b565b6000828152600760205260409020606090819081808515611dad5782600201805480602002602001604051908101604052809291908181526020018280548015611c9157602002820191906000526020600020905b81546001600160a01b03168152600190910190602001808311611c73575b5050505050915081516001600160401b03811115611cb157611cb161282a565b604051908082528060200260200182016040528015611ce457816020015b6060815260200190600190039081611ccf5790505b50905060005b8251811015611da757836000016000848381518110611d0b57611d0b612f1c565b60200260200101516001600160a01b03166001600160a01b03168152602001908152602001600020805480602002602001604051908101604052809291908181526020018280548015611d7d57602002820191906000526020600020905b815481526020019060010190808311611d69575b5050505050828281518110611d9457611d94612f1c565b6020908102919091010152600101611cea565b50611f1d565b82600301805480602002602001604051908101604052809291908181526020018280548015611e0557602002820191906000526020600020905b81546001600160a01b03168152600190910190602001808311611de7575b5050505050915081516001600160401b03811115611e2557611e2561282a565b604051908082528060200260200182016040528015611e5857816020015b6060815260200190600190039081611e435790505b50905060005b8251811015611f1b57836001016000848381518110611e7f57611e7f612f1c565b60200260200101516001600160a01b03166001600160a01b03168152602001908152602001600020805480602002602001604051908101604052809291908181526020018280548015611ef157602002820191906000526020600020905b815481526020019060010190808311611edd575b5050505050828281518110611f0857611f08612f1c565b6020908102919091010152600101611e5e565b505b90969095509350505050565b6001600160a01b038216611f5b57604051630b61174360e31b81526001600160a01b0383166004820152602401610529565b6001600160a01b03838116600081815260056020908152604080832094871680845294825291829020805460ff191686151590811790915591519182527f17307eab39ab6107e8899845ad3d59bd9653f200f220920489ca2b5937696c31910160405180910390a3505050565b6001600160a01b0383163b156120ec57604051630a85bd0160e11b81526001600160a01b0384169063150b7a029061200a90889088908790879060040161339f565b6020604051808303816000875af1925050508015612045575060408051601f3d908101601f19168201909252612042918101906133dc565b60015b6120ae573d808015612073576040519150601f19603f3d011682016040523d82523d6000602084013e612078565b606091505b5080516000036120a657604051633250574960e11b81526001600160a01b0385166004820152602401610529565b805181602001fd5b6001600160e01b03198116630a85bd0160e11b146120ea57604051633250574960e11b81526001600160a01b0385166004820152602401610529565b505b5050505050565b60606120fe8261150b565b506000828152600660205260408120805461211890612e31565b80601f016020809104026020016040519081016040528092919081815260200182805461214490612e31565b80156121915780601f1061216657610100808354040283529160200191612191565b820191906000526020600020905b81548152906001019060200180831161217457829003601f168201915b5050505050905060006121af60408051602081019091526000815290565b905080516000036121c1575092915050565b8151156121f35780826040516020016121db9291906133f9565b60405160208183030381529060405292505050919050565b6121fc846123d8565b949350505050565b6104ff82826040518060200160405280600081525061244c565b60006001600160e01b031982166380ac58cd60e01b148061224f57506001600160e01b03198216635b5e139f60e01b145b8061043357506301ffc9a760e01b6001600160e01b0319831614610433565b808061228257506001600160a01b03821615155b156123445760006122928461150b565b90506001600160a01b038316158015906122be5750826001600160a01b0316816001600160a01b031614155b80156122d157506122cf8184611366565b155b156122fa5760405163a9fbf51f60e01b81526001600160a01b0384166004820152602401610529565b81156123425783856001600160a01b0316826001600160a01b03167f8c5be1e5ebec7d5bd14f71427d1e84f3dd0314c0f7b2291e5b200ac8c7c3b92560405160405180910390a45b505b5050600090815260046020526040902080546001600160a01b0319166001600160a01b0392909216919091179055565b61237f838383612464565b6109ac576001600160a01b0383166123ad57604051637e27328960e01b815260048101829052602401610529565b60405163177e802f60e01b81526001600160a01b038316600482015260248101829052604401610529565b60606123e38261150b565b5060006123fb60408051602081019091526000815290565b9050600081511161241b576040518060200160405280600081525061098a565b80612425846124c7565b6040516020016124369291906133f9565b6040516020818303038152906040529392505050565b6124568383612559565b6109ac336000858585611fc8565b60006001600160a01b038316158015906121fc5750826001600160a01b0316846001600160a01b0316148061249e575061249e8484611366565b806121fc5750506000908152600460205260409020546001600160a01b03908116911614919050565b606060006124d4836125be565b60010190506000816001600160401b038111156124f3576124f361282a565b6040519080825280601f01601f19166020018201604052801561251d576020820181803683370190505b5090508181016020015b600019016f181899199a1a9b1b9c1cb0b131b232b360811b600a86061a8153600a850494508461252757509392505050565b6001600160a01b03821661258357604051633250574960e11b815260006004820152602401610529565b600061259183836000611551565b90506001600160a01b038116156109ac576040516339e3563760e11b815260006004820152602401610529565b60008072184f03e93ff9f4daa797ed6e38ed64bf6a1f0160401b83106125fd5772184f03e93ff9f4daa797ed6e38ed64bf6a1f0160401b830492506040015b6d04ee2d6d415b85acef81000000008310612629576d04ee2d6d415b85acef8100000000830492506020015b662386f26fc10000831061264757662386f26fc10000830492506010015b6305f5e100831061265f576305f5e100830492506008015b612710831061267357612710830492506004015b60648310612685576064830492506002015b600a83106104335760010192915050565b8280548282559060005260206000209081019282156126d1579160200282015b828111156126d15782518255916020019190600101906126b6565b506126dd9291506126e1565b5090565b5b808211156126dd57600081556001016126e2565b6001600160e01b03198116811461270c57600080fd5b50565b60006020828403121561272157600080fd5b813561098a816126f6565b60005b8381101561274757818101518382015260200161272f565b50506000910152565b6000815180845261276881602086016020860161272c565b601f01601f19169290920160200192915050565b60208152600061098a6020830184612750565b6000602082840312156127a157600080fd5b5035919050565b6001600160a01b038116811461270c57600080fd5b600080604083850312156127d057600080fd5b82356127db816127a8565b946020939093013593505050565b6000806000606084860312156127fe57600080fd5b8335612809816127a8565b92506020840135612819816127a8565b929592945050506040919091013590565b634e487b7160e01b600052604160045260246000fd5b604051601f8201601f191681016001600160401b03811182821017156128685761286861282a565b604052919050565b60006001600160401b038211156128895761288961282a565b50601f01601f191660200190565b60006128aa6128a584612870565b612840565b90508281528383830111156128be57600080fd5b828260208301376000602084830101529392505050565b6000806000606084860312156128ea57600080fd5b83356128f5816127a8565b92506020840135915060408401356001600160401b0381111561291757600080fd5b8401601f8101861361292857600080fd5b61293786823560208401612897565b9150509250925092565b60006001600160401b0382111561295a5761295a61282a565b5060051b60200190565b600082601f83011261297557600080fd5b81356129836128a582612941565b8082825260208201915060208360051b8601019250858311156129a557600080fd5b602085015b838110156129c25780358352602092830192016129aa565b5095945050505050565b6000806000606084860312156129e157600080fd5b83356129ec816127a8565b92506020840135915060408401356001600160401b03811115612a0e57600080fd5b61293786828701612964565b600082601f830112612a2b57600080fd5b8135612a396128a582612941565b8082825260208201915060208360051b860101925085831115612a5b57600080fd5b602085015b838110156129c2578035612a73816127a8565b835260209283019201612a60565b600082601f830112612a9257600080fd5b8135612aa06128a582612941565b8082825260208201915060208360051b860101925085831115612ac257600080fd5b602085015b838110156129c25780356001600160401b03811115612ae557600080fd5b612af4886020838a0101612964565b84525060209283019201612ac7565b600080600060608486031215612b1857600080fd5b8335925060208401356001600160401b03811115612b3557600080fd5b612b4186828701612a1a565b92505060408401356001600160401b03811115612b5d57600080fd5b61293786828701612a81565b600081518084526020840193506020830160005b82811015612ba45781516001600160a01b0316865260209586019590910190600101612b7d565b5093949350505050565b600081518084526020840193506020830160005b82811015612ba4578151865260209586019590910190600101612bc2565b600082825180855260208501945060208160051b8301016020850160005b83811015612c3057601f19858403018852612c1a838351612bae565b6020988901989093509190910190600101612bfe565b50909695505050505050565b604081526000612c4f6040830185612b69565b828103602084015261135d8185612be0565b600060208284031215612c7357600080fd5b813561098a816127a8565b60208152600061098a6020830184612bae565b801515811461270c57600080fd5b60008060408385031215612cb257600080fd5b8235612cbd816127a8565b91506020830135612ccd81612c91565b809150509250929050565b60008060008060808587031215612cee57600080fd5b8435612cf9816127a8565b93506020850135612d09816127a8565b92506040850135915060608501356001600160401b03811115612d2b57600080fd5b8501601f81018713612d3c57600080fd5b612d4b87823560208401612897565b91505092959194509250565b60008060408385031215612d6a57600080fd5b8235612d75816127a8565b91506020830135612ccd816127a8565b60008060008060808587031215612d9b57600080fd5b8435612da6816127a8565b93506020850135925060408501356001600160401b03811115612dc857600080fd5b612dd487828801612a1a565b92505060608501356001600160401b03811115612df057600080fd5b612d4b87828801612a81565b600080600060608486031215612e1157600080fd5b8335612e1c816127a8565b95602085013595506040909401359392505050565b600181811c90821680612e4557607f821691505b602082108103612e6557634e487b7160e01b600052602260045260246000fd5b50919050565b600060208284031215612e7d57600080fd5b815161098a816127a8565b600060208284031215612e9a57600080fd5b81516001600160401b03811115612eb057600080fd5b8201601f81018413612ec157600080fd5b8051612ecf6128a582612870565b818152856020838501011115612ee457600080fd5b61135d82602083016020860161272c565b600060018201612f1557634e487b7160e01b600052601160045260246000fd5b5060010190565b634e487b7160e01b600052603260045260246000fd5b6b6c6963656e73652d666f722d60a01b815260008251612f5981600c85016020870161272c565b91909101600c0192915050565b6020808252601e908201527f4552435f353532313a20746f6b656e204944206e6f7420657869737465640000604082015260600190565b60208082526035908201527f4552435f353532313a2074686520726566657272656420724e4654206e65656460408201527439903a37903132903090383932b232b1b2b9b9b7b960591b606082015260800190565b60006020828403121561300457600080fd5b815161098a81612c91565b60208082526027908201527f4552435f353532313a2074617267657420636f6e7472616374206e6f742073756040820152661c1c1bdc9d195960ca1b606082015260800190565b600082601f83011261306757600080fd5b81516130756128a582612941565b8082825260208201915060208360051b86010192508583111561309757600080fd5b602085015b838110156129c25780516001600160401b038111156130ba57600080fd5b8601603f810188136130cb57600080fd5b60208101516130dc6128a582612941565b808282526020820191506020808460051b8601010192508a83111561310057600080fd5b6040840193505b82841015613122578351825260209384019390910190613107565b8652505060209384019391909101905061309c565b6000806040838503121561314a57600080fd5b82516001600160401b0381111561316057600080fd5b8301601f8101851361317157600080fd5b805161317f6128a582612941565b8082825260208201915060208360051b8501019250878311156131a157600080fd5b6020840193505b828410156131cc5783516131bb816127a8565b8252602093840193909101906131a8565b8095505050505060208301516001600160401b038111156131ec57600080fd5b6131f885828601613056565b9150509250929050565b60006020828403121561321457600080fd5b5051919050565b601f8211156109ac57806000526020600020601f840160051c810160208510156132425750805b601f840160051c820191505b818110156120ec576000815560010161324e565b81516001600160401b0381111561327b5761327b61282a565b61328f816132898454612e31565b8461321b565b6020601f8211600181146132c357600083156132ab5750848201515b600019600385901b1c1916600184901b1784556120ec565b600084815260208120601f198516915b828110156132f357878501518255602094850194600190920191016132d3565b50848210156133115786840151600019600387901b60f8161c191681555b50505050600190811b01905550565b6080815260006133336080830187612b69565b82810360208401526133458187612be0565b905082810360408401526133598186612b69565b9050828103606084015261336d8185612be0565b979650505050505050565b60018060a01b038416815282602082015260606040820152600061135d6060830184612bae565b6001600160a01b03858116825284166020820152604081018390526080606082018190526000906133d290830184612750565b9695505050505050565b6000602082840312156133ee57600080fd5b815161098a816126f6565b6000835161340b81846020880161272c565b83519083019061341f81836020880161272c565b0194935050505056fea264697066735822122088321701a179caf76735642be9df68ad49d9f09e23d2cb15a0ef0d8b5a2847a864736f6c634300081c003360c060405234801561001057600080fd5b506040516107d23803806107d283398101604081905261002f91610089565b336080526001600160a01b03811660a05260408051600a8152605f602082015262278d008183015290517f93a30136aae1c03168149ad89c17916bf87e42510e99641ddf9d6e11234af9c19181900360600190a1506100b9565b60006020828403121561009b57600080fd5b81516001600160a01b03811681146100b257600080fd5b9392505050565b60805160a0516106ed6100e5600039600061026401526000818161046401526104f301526106ed6000f3fe6080604052600436106100705760003560e01c806322964af91161004e57806322964af91461010c5780639a2fa9bb1461011f578063bce7b0301461014c578063ea0cf9a01461016c57600080fd5b8063024fa0d61461007557806308f2da85146100bd57806321c34fcb146100f5575b600080fd5b34801561008157600080fd5b506100ab6100903660046105b1565b6001600160a01b031660009081526020819052604090205490565b60405190815260200160405180910390f35b3480156100c957600080fd5b506100ab6100d83660046105d5565b600160209081526000928352604080842090915290825290205481565b34801561010157600080fd5b5061010a61017f565b005b61010a61011a366004610601565b610262565b34801561012b57600080fd5b506100ab61013a3660046105b1565b60006020819052908152604090205481565b34801561015857600080fd5b5061010a610167366004610647565b610459565b61010a61017a3660046105d5565b6104e8565b33600090815260208190526040812054908190036101b05760405163a844960960e01b815260040160405180910390fd5b336000818152602081905260408082208290555190919083908381818185875af1925050503d8060008114610201576040519150601f19603f3d011682016040523d82523d6000602084013e610206565b606091505b5050905080610228576040516312171d8360e31b815260040160405180910390fd5b60405182815233907f9c56d4e207b08f0df71c47be77f4558c7954505688b8f5372c828ed167846e40906020015b60405180910390a25050565b7f00000000000000000000000000000000000000000000000000000000000000006001600160a01b0316630d21bcd56040518163ffffffff1660e01b8152600401602060405180830381865afa1580156102c0573d6000803e3d6000fd5b505050506040513d601f19601f820116820180604052508101906102e49190610673565b6001600160a01b0316336001600160a01b0316146103155760405163ea8e4eb560e01b815260040160405180910390fd5b6001600160a01b0383166000908152600160209081526040808320858452909152812054908190036103a257506001600160a01b0383166000818152600160209081526040808320868452825291829020429081905591518281529192859290917fdf56f2f27826d2cd8261b4e3db31dd34e9144d75dbd025f377f4e8ad296fca25910160405180910390a35b6040805183815242602082015284916001600160a01b038716917f1fe2676d3fb5db35fe57bc07eb1a115f73987b40048ec0965764cce5e989a75a910160405180910390a36001600160a01b0385166000908152602081905260408120805434929061040f908490610690565b90915550506040513481526001600160a01b038616907f4815a443b3844e28d56b6a4a5f8a561f0b349b6dd58953295aaec7b5d5a55e459060200160405180910390a25050505050565b336001600160a01b037f000000000000000000000000000000000000000000000000000000000000000016146104a25760405163ea8e4eb560e01b815260040160405180910390fd5b60408051848152602081018490529081018290527f93a30136aae1c03168149ad89c17916bf87e42510e99641ddf9d6e11234af9c19060600160405180910390a1505050565b336001600160a01b037f000000000000000000000000000000000000000000000000000000000000000016146105315760405163ea8e4eb560e01b815260040160405180910390fd5b6001600160a01b03821660009081526020819052604081208054839290610559908490610690565b90915550506040518181526001600160a01b038316907f4815a443b3844e28d56b6a4a5f8a561f0b349b6dd58953295aaec7b5d5a55e4590602001610256565b6001600160a01b03811681146105ae57600080fd5b50565b6000602082840312156105c357600080fd5b81356105ce81610599565b9392505050565b600080604083850312156105e857600080fd5b82356105f381610599565b946020939093013593505050565b6000806000806080858703121561061757600080fd5b843561062281610599565b9350602085013561063281610599565b93969395505050506040820135916060013590565b60008060006060848603121561065c57600080fd5b505081359360208301359350604090920135919050565b60006020828403121561068557600080fd5b81516105ce81610599565b808201808211156106b157634e487b7160e01b600052601160045260246000fd5b9291505056fea2646970667358221220f23080fa5d03870933388998470d89937362a508333734d0930e315c0fc7d4ef64736f6c634300081c0033",
  "linkReferences": {},
  "deployedLinkReferences": {}
}