{
  "_format": "hh-sol-artifact-1",
  "contractName": "Registry",
  "sourceName": "contracts/Registry.sol",
  "abi": [
    {
      "inputs": [],
      "stateMutability": "nonpayable",
      "type": "constructor"
    },
    {
      "inputs": [],
      "name": "AlreadyRegistered",
      "type": "error"
    },
    {
      "inputs": [],
      "name": "DeveloperHasNoRepository",
      "type": "error"
    },
    {
      "inputs": [],
      "name": "NotContractOwner",
      "type": "error"
    },
    {
      "inputs": [],
      "name": "NotMarketplace",
      "type": "error"
    },
    {
      "inputs": [],
      "name": "NotRegisteredDeveloper",
      "type": "error"
    },
    {
      "inputs": [],
      "name": "NotRegisteredRepository",
      "type": "error"
    },
    {
      "anonymous": false,
      "inputs": [
        {
          "indexed": true,
          "internalType": "address",
          "name": "buyer",
          "type": "address"
        },
        {
          "indexed": true,
          "internalType": "address",
          "name": "repository",
          "type": "address"
        },
        {
          "indexed": true,
          "internalType": "uint256",
          "name": "softwareId",
          "type": "uint256"
        },
        {
          "indexed": false,
          "internalType": "uint256",
          "name": "licenseId",
          "type": "uint256"
        }
      ],
      "name": "LicenseMinted",
      "type": "event"
    },
    {
      "anonymous": false,
      "inputs": [
        {
          "indexed": true,
          "internalType": "address",
          "name": "developer",
          "type": "address"
        },
        {
          "indexed": true,
          "internalType": "address",
          "name": "repository",
          "type": "address"
        }
      ],
      "name": "RepositoryCreated",
      "type": "event"
    },
    {
      "anonymous": false,
      "inputs": [
        {
          "indexed": true,
          "internalType": "address",
          "name": "developer",
          "type": "address"
        },
        {
          "indexed": true,
          "internalType": "uint256",
          "name": "softwareId",
          "type": "uint256"
        },
        {
          "indexed": false,
          "internalType": "string",
          "name": "tokenURI",
          "type": "string"
        }
      ],
      "name": "SoftwareMinted",
      "type": "event"
    },
    {
      "inputs": [],
      "name": "createRepository",
      "outputs": [
        {
          "internalType": "address",
          "name": "",
          "type": "address"
        }
      ],
      "stateMutability": "nonpayable",
      "type": "function"
    },
    {
      "inputs": [],
      "name": "getLicenseManager",
      "outputs": [
        {
          "internalType": "address",
          "name": "",
          "type": "address"
        }
      ],
      "stateMutability": "view",
      "type": "function"
    },
    {
      "inputs": [
        {
          "internalType": "address",
          "name": "_sender",
          "type": "address"
        }
      ],
      "name": "getRepositoryContract",
      "outputs": [
        {
          "internalType": "address",
          "name": "",
          "type": "address"
        }
      ],
      "stateMutability": "view",
      "type": "function"
    },
    {
      "inputs": [
        {
          "internalType": "address",
          "name": "user",
          "type": "address"
        },
        {
          "internalType": "address",
          "name": "repository",
          "type": "address"
        },
        {
          "internalType": "uint256",
          "name": "softwareId",
          "type": "uint256"
        }
      ],
      "name": "hasLicense",
      "outputs": [
        {
          "internalType": "bool",
          "name": "",
          "type": "bool"
        }
      ],
      "stateMutability": "view",
      "type": "function"
    },
    {
      "inputs": [
        {
          "internalType": "address",
          "name": "_sender",
          "type": "address"
        }
      ],
      "name": "isDeveloper",
      "outputs": [
        {
          "internalType": "bool",
          "name": "",
          "type": "bool"
        }
      ],
      "stateMutability": "view",
      "type": "function"
    },
    {
      "inputs": [
        {
          "internalType": "address",
          "name": "_repositoryAddress",
          "type": "address"
        }
      ],
      "name": "isRepository",
      "outputs": [
        {
          "internalType": "bool",
          "name": "",
          "type": "bool"
        }
      ],
      "stateMutability": "view",
      "type": "function"
    },
    {
      "inputs": [
        {
          "internalType": "address",
          "name": "buyer",
          "type": "address"
        },
        {
          "internalType": "address",
          "name": "developer",
          "type": "address"
        },
        {
          "internalType": "uint256",
          "name": "softwareId",
          "type": "uint256"
        }
      ],
      "name": "mintLicense",
      "outputs": [
        {
          "internalType": "uint256",
          "name": "",
          "type": "uint256"
        }
      ],
      "stateMutability": "nonpayable",
      "type": "function"
    },
    {
      "inputs": [
        {
          "internalType": "string",
          "name": "_tokenURI",
          "type": "string"
        },
        {
          "internalType": "address[]",
          "name": "addresses",
          "type": "address[]"
        },
        {
          "internalType": "uint256[][]",
          "name": "_tokenIds",
          "type": "uint256[][]"
        }
      ],
      "name": "mintSoftware",
      "outputs": [
        {
          "internalType": "uint256",
          "name": "",
          "type": "uint256"
        }
      ],
      "stateMutability": "nonpayable",
      "type": "function"
    },
    {
      "inputs": [
        {
          "internalType": "address",
          "name": "_repository",
          "type": "address"
        },
        {
          "internalType": "uint256",
          "name": "_tokenId",
          "type": "uint256"
        }
      ],
      "name": "repositoryOwnsSoftware",
      "outputs": [
        {
          "internalType": "bool",
          "name": "",
          "type": "bool"
        }
      ],
      "stateMutability": "view",
      "type": "function"
    },
    {
      "inputs": [
        {
          "internalType": "address",
          "name": "_marketplace",
          "type": "address"
        }
      ],
      "name": "setMarketplace",
      "outputs": [],
      "stateMutability": "nonpayable",
      "type": "function"
    }
  ],
  "bytecode": "0x60c060405234801561001057600080fd5b503360805260008055604051309061002790610065565b6001600160a01b039091168152602001604051809103906000f080158015610053573d6000803e3d6000fd5b506001600160a01b031660a052610072565b6136db8061425483390190565b60805160a0516141af6100a5600039600081816101bc0152818161028b01526106b00152600061050001526141af6000f3fe608060405234801561001057600080fd5b506004361061009e5760003560e01c80635eca4a70116100665780635eca4a701461016457806373ad6c2d14610192578063bb6e2f86146101a7578063bdcf1ae5146101ba578063eb40f818146101e057600080fd5b80631a7c177e146100a357806338ffc194146100ec5780633b0587531461010d5780633ff7ca36146101495780634b8a72bf14610151575b600080fd5b6100cf6100b13660046107c2565b6001600160a01b039081166000908152600360205260409020541690565b6040516001600160a01b0390911681526020015b60405180910390f35b6100ff6100fa3660046107e6565b6101f3565b6040519081526020016100e3565b61013961011b3660046107c2565b6001600160a01b031660009081526002602052604090205460ff1690565b60405190151581526020016100e3565b6100cf610353565b6100ff61015f3660046109ea565b610426565b6101396101723660046107c2565b6001600160a01b0390811660009081526003602052604090205416151590565b6101a56101a03660046107c2565b6104f5565b005b6101396101b5366004610adb565b610560565b7f00000000000000000000000000000000000000000000000000000000000000006100cf565b6101396101ee3660046107e6565b61067f565b6001546000906001600160a01b031633146102215760405163386317a360e01b815260040160405180910390fd5b6001600160a01b03808416600090815260036020526040902054168061025a57604051631cf5058760e01b815260040160405180910390fd5b604051630e3ff06560e21b81526001600160a01b0386811660048301528281166024830152604482018590526000917f0000000000000000000000000000000000000000000000000000000000000000909116906338ffc194906064016020604051808303816000875af11580156102d6573d6000803e3d6000fd5b505050506040513d601f19601f820116820180604052508101906102fa9190610b07565b905083826001600160a01b0316876001600160a01b03167f7d6c807015644a13677b72fa64b4723e35fda24690206e70b5a90980a58e6e568460405161034291815260200190565b60405180910390a495945050505050565b336000908152600360205260408120546001600160a01b03161561038a57604051630ea075bf60e21b815260040160405180910390fd5b600061039533610725565b6001600160a01b0381166000818152600260209081526040808320805460ff191660011790553383526003909152812080546001600160a01b0319169092179091558054919250806103e683610b20565b90915550506040516001600160a01b0382169033907f93c0f4df093f44bcf0049a1ef099ac09ae66edf71248dab0d2bbb5f0764bcaf190600090a3919050565b60008061043161076f565b90506000816001600160a01b0316634b8a72bf8787876040518463ffffffff1660e01b815260040161046593929190610b8d565b6020604051808303816000875af1158015610484573d6000803e3d6000fd5b505050506040513d601f19601f820116820180604052508101906104a89190610b07565b905080336001600160a01b03167fc22959efb680c6d8228e97bab1f5c623b45568d2b75cc1b828362fe1eea2df65886040516104e49190610c73565b60405180910390a395945050505050565b336001600160a01b037f0000000000000000000000000000000000000000000000000000000000000000161461053e5760405163bfcafd3760e01b815260040160405180910390fd5b600180546001600160a01b0319166001600160a01b0392909216919091179055565b6001600160a01b03821660009081526002602052604081205460ff1661059957604051630a60014160e21b815260040160405180910390fd5b6000839050806001600160a01b0316637a4440726040518163ffffffff1660e01b8152600401602060405180830381865afa1580156105dc573d6000803e3d6000fd5b505050506040513d601f19601f820116820180604052508101906106009190610c86565b6040516331a9108f60e11b8152600481018590526001600160a01b0391821691831690636352211e90602401602060405180830381865afa158015610649573d6000803e3d6000fd5b505050506040513d601f19601f8201168201806040525081019061066d9190610c86565b6001600160a01b031614949350505050565b604051631d681f0360e31b81526001600160a01b0384811660048301528381166024830152604482018390526000917f00000000000000000000000000000000000000000000000000000000000000009091169063eb40f81890606401602060405180830381865afa1580156106f9573d6000803e3d6000fd5b505050506040513d601f19601f8201168201806040525081019061071d9190610ca3565b949350505050565b600030826040516107359061079d565b6001600160a01b03928316815291166020820152604001604051809103906000f080158015610768573d6000803e3d6000fd5b5092915050565b336000908152600360205260408120546001600160a01b03168061079857610795610353565b90505b919050565b6134b480610cc683390190565b6001600160a01b03811681146107bf57600080fd5b50565b6000602082840312156107d457600080fd5b81356107df816107aa565b9392505050565b6000806000606084860312156107fb57600080fd5b8335610806816107aa565b92506020840135610816816107aa565b929592945050506040919091013590565b634e487b7160e01b600052604160045260246000fd5b604051601f8201601f1916810167ffffffffffffffff8111828210171561086657610866610827565b604052919050565b600067ffffffffffffffff82111561088857610888610827565b5060051b60200190565b600082601f8301126108a357600080fd5b81356108b66108b18261086e565b61083d565b8082825260208201915060208360051b8601019250858311156108d857600080fd5b602085015b838110156108fe5780356108f0816107aa565b8352602092830192016108dd565b5095945050505050565b600082601f83011261091957600080fd5b81356109276108b18261086e565b8082825260208201915060208360051b86010192508583111561094957600080fd5b602085015b838110156108fe57803567ffffffffffffffff81111561096d57600080fd5b8601603f8101881361097e57600080fd5b602081013561098f6108b18261086e565b808282526020820191506020808460051b8601010192508a8311156109b357600080fd5b6040840193505b828410156109d55783358252602093840193909101906109ba565b8652505060209384019391909101905061094e565b6000806000606084860312156109ff57600080fd5b833567ffffffffffffffff811115610a1657600080fd5b8401601f81018613610a2757600080fd5b803567ffffffffffffffff811115610a4157610a41610827565b610a54601f8201601f191660200161083d565b818152876020838501011115610a6957600080fd5b81602084016020830137600060208383010152809550505050602084013567ffffffffffffffff811115610a9c57600080fd5b610aa886828701610892565b925050604084013567ffffffffffffffff811115610ac557600080fd5b610ad186828701610908565b9150509250925092565b60008060408385031215610aee57600080fd5b8235610af9816107aa565b946020939093013593505050565b600060208284031215610b1957600080fd5b5051919050565b600060018201610b4057634e487b7160e01b600052601160045260246000fd5b5060010190565b6000815180845260005b81811015610b6d57602081850181015186830182015201610b51565b506000602082860101526020601f19601f83011685010191505092915050565b606081526000610ba06060830186610b47565b828103602084015280855180835260208301915060208701925060005b81811015610be45783516001600160a01b0316835260209384019390920191600101610bbd565b50508381036040850152845180825260208083019350600582901b8301810190870160005b83811015610c6457848303601f190186528151805180855260209182019185019060005b81811015610c4b578351835260209384019390920191600101610c2d565b5050602097880197909450929092019150600101610c09565b50909998505050505050505050565b6020815260006107df6020830184610b47565b600060208284031215610c9857600080fd5b81516107df816107aa565b600060208284031215610cb557600080fd5b815180151581146107df57600080fdfe60c0604052600880546001600160a01b0319169055620f424060095534801561002757600080fd5b506040516134b43803806134b4833981016040819052610046916100f0565b60405180604001604052806008815260200167536f66747761726560c01b8152506040518060400160405280600381526020016229a7a360e91b8152508181816000908161009491906101c2565b5060016100a182826101c2565b5050600880546001600160a01b031916331790555050506001600160a01b039182166080521660a0526000600a55610280565b80516001600160a01b03811681146100eb57600080fd5b919050565b6000806040838503121561010357600080fd5b61010c836100d4565b915061011a602084016100d4565b90509250929050565b634e487b7160e01b600052604160045260246000fd5b600181811c9082168061014d57607f821691505b60208210810361016d57634e487b7160e01b600052602260045260246000fd5b50919050565b601f8211156101bd57806000526020600020601f840160051c8101602085101561019a5750805b601f840160051c820191505b818110156101ba57600081556001016101a6565b50505b505050565b81516001600160401b038111156101db576101db610123565b6101ef816101e98454610139565b84610173565b6020601f821160018114610223576000831561020b5750848201515b600019600385901b1c1916600184901b1784556101ba565b600084815260208120601f198516915b828110156102535787850151825560209485019460019092019101610233565b50848210156102715786840151600019600387901b60f8161c191681555b50505050600190811b01905550565b60805160a0516131f36102c1600039600081816103280152818161071f0152818161077e0152818161083a01526108680152600061035701526131f36000f3fe608060405234801561001057600080fd5b50600436106101a95760003560e01c806364f9b0e6116100f9578063a22cb46511610097578063c87b56dd11610071578063c87b56dd146103cf578063d30d968d146103e2578063e985e9c5146103f5578063edda5e731461040857600080fd5b8063a22cb46514610396578063a35391ac146103a9578063b88d4fde146103bc57600080fd5b8063853b592f116100d3578063853b592f1461034c578063893d20e8146103555780638e489d0c1461037b57806395d89b411461038e57600080fd5b806364f9b0e61461030057806370a08231146103135780637a4440721461032657600080fd5b806342842e0e1161016657806355c104401161014057806355c10440146102a6578063615f45a8146102b9578063616c5535146102da5780636352211e146102ed57600080fd5b806342842e0e1461025f5780634b8a72bf146102725780634e5786bf1461029357600080fd5b806301ffc9a7146101ae57806306fdde03146101d6578063081812fc146101eb578063095ea7b31461021657806323b872dd1461022b578063426e75011461023e575b600080fd5b6101c16101bc3660046124f6565b61041b565b60405190151581526020015b60405180910390f35b6101de610461565b6040516101cd9190612563565b6101fe6101f9366004612576565b6104f3565b6040516001600160a01b0390911681526020016101cd565b6102296102243660046125a4565b61051c565b005b6102296102393660046125d0565b61052b565b61025161024c366004612576565b6105bb565b6040516101cd9291906126db565b61022961026d3660046125d0565b6106f2565b610285610280366004612943565b610712565b6040519081526020016101cd565b6102296102a13660046129d4565b6108d7565b6102296102b4366004612a22565b61098b565b6102cc6102c7366004612576565b610b3e565b6040516101cd929190612a70565b6102296102e8366004612a94565b610bed565b6101fe6102fb366004612576565b610d07565b61025161030e3660046125a4565b610d12565b610285610321366004612ac6565b610e76565b7f00000000000000000000000000000000000000000000000000000000000000006101fe565b610285600a5481565b7f00000000000000000000000000000000000000000000000000000000000000006101fe565b6101de610389366004612576565b610ebe565b6101de610eef565b6102296103a4366004612af1565b610efe565b6102516103b73660046125a4565b610f09565b6102296103ca366004612b2a565b611010565b6101de6103dd366004612576565b611028565b6102856103f03660046125a4565b611033565b6101c1610403366004612ba9565b61118c565b610229610416366004612bd7565b6111ba565b60006001600160e01b031982166374342b5560e01b148061044c57506001600160e01b03198216630204cbd160e51b145b8061045b575061045b826111e4565b92915050565b60606000805461047090612c4e565b80601f016020809104026020016040519081016040528092919081815260200182805461049c90612c4e565b80156104e95780601f106104be576101008083540402835291602001916104e9565b820191906000526020600020905b8154815290600101906020018083116104cc57829003601f168201915b5050505050905090565b60006104fe82611209565b506000828152600460205260409020546001600160a01b031661045b565b610527828233611242565b5050565b6001600160a01b03821661055a57604051633250574960e11b8152600060048201526024015b60405180910390fd5b600061056783833361124f565b9050836001600160a01b0316816001600160a01b0316146105b5576040516364283d7b60e01b81526001600160a01b0380861660048301526024820184905282166044820152606401610551565b50505050565b6060806105c783611348565b6105e4576040516379dbbb9360e11b815260040160405180910390fd5b6000838152600b6020908152604091829020600281018054845181850281018501909552808552909360039092019284919083018282801561064f57602002820191906000526020600020905b81546001600160a01b03168152600190910190602001808311610631575b5050505050915080805480602002602001604051908101604052809291908181526020016000905b828210156106e3576000848152602090819020830180546040805182850281018501909152818152928301828280156106cf57602002820191906000526020600020905b8154815260200190600101908083116106bb575b505050505081526020019060010190610677565b50505050905091509150915091565b61070d83838360405180602001604052806000815250611010565b505050565b6000336001600160a01b037f0000000000000000000000000000000000000000000000000000000000000000161461075d57604051636932705760e11b815260040160405180910390fd5b600a805490600061076d83612c88565b9091555050604080516080810182527f00000000000000000000000000000000000000000000000000000000000000006001600160a01b039081168252602080830188815283850188905260608401879052600a546000908152600b909252939020825181546001600160a01b0319169216919091178155915190919060018201906107f99082612cf6565b5060408201518051610815916002840191602090910190612394565b50606082015180516108319160038401916020909101906123f9565b509050506108637f0000000000000000000000000000000000000000000000000000000000000000600a5485856111ba565b6108907f0000000000000000000000000000000000000000000000000000000000000000600a54866108d7565b600a547fb3ac909e5e8f40ea473e9a3c1ae4e23caf0df5e322986ebf81ee5bf1b7029bea84846040516108c49291906126db565b60405180910390a250600a549392505050565b6108e082611348565b6108fc5760405162461bcd60e51b815260040161055190612db4565b826001600160a01b031661090f83610d07565b6001600160a01b0316146109815760405162461bcd60e51b815260206004820152603360248201527f4552435f353532313a207472616e736665722063616c6c6572206973206e6f74604482015272081bdddb995c881b9bdc88185c1c1c9bdd9959606a1b6064820152608401610551565b61070d8282611365565b60005b81518110156105b5576000600760008484815181106109af576109af612deb565b602002602001015181526020019081526020016000209050806001016000866001600160a01b03166001600160a01b0316815260200190815260200160002080549050600003610a2a57600381018054600181018255600091825260209091200180546001600160a01b0319166001600160a01b0387161790555b306001600160a01b03861603610a9e5760405162461bcd60e51b815260206004820152603360248201527f4552435f353532313a2074686973206d75737420626520616e2065787465726e604482015272616c20636f6e7472616374206164647265737360681b6064820152608401610551565b42816004015410610ac15760405162461bcd60e51b815260040161055190612e01565b6001600160a01b03851660009081526001808301602090815260408320805492830181558352909120018490558251610b3590849084908110610b0657610b06612deb565b6020026020010151610b30858581518110610b2357610b23612deb565b6020026020010151610d07565b6113b5565b5060010161098e565b600b60205260009081526040902080546001820180546001600160a01b039092169291610b6a90612c4e565b80601f0160208091040260200160405190810160405280929190818152602001828054610b9690612c4e565b8015610be35780601f10610bb857610100808354040283529160200191610be3565b820191906000526020600020905b815481529060010190602001808311610bc657829003601f168201915b5050505050905082565b8051825114610c5d5760405162461bcd60e51b815260206004820152603660248201527f41646472657373657320616e6420546f6b656e494420617272617973206d75736044820152750e840d0c2ecca40e8d0ca40e6c2daca40d8cadccee8d60531b6064820152608401610551565b60005b8151811015610cf057818181518110610c7b57610c7b612deb565b602002602001015151600003610ce85760405162461bcd60e51b815260206004820152602c60248201527f4552435f353532313a2074686520726566657272696e67206c6973742063616e60448201526b6e6f7420626520656d70747960a01b6064820152608401610551565b600101610c60565b50610cfc828483611429565b61070d828483611566565b600061045b82611209565b6060808080306001600160a01b03871603610d6157610d3085611348565b610d4c5760405162461bcd60e51b815260040161055190612db4565b610d5785600061191c565b9092509050610e6b565b6040516301ffc9a760e01b8152630204cbd160e51b600482015286906001600160a01b038216906301ffc9a790602401602060405180830381865afa158015610dae573d6000803e3d6000fd5b505050506040513d601f19601f82011682018060405250810190610dd29190612e56565b610dee5760405162461bcd60e51b815260040161055190612e73565b60405163327cd87360e11b81526001600160a01b038881166004830152602482018890528216906364f9b0e6906044015b600060405180830381865afa158015610e3c573d6000803e3d6000fd5b505050506040513d6000823e601f3d908101601f19168201604052610e649190810190612f9b565b9093509150505b909590945092505050565b60006001600160a01b038216610ea2576040516322718ad960e21b815260006004820152602401610551565b506001600160a01b031660009081526003602052604090205490565b6060610ec982611348565b610ee6576040516379dbbb9360e11b815260040160405180910390fd5b61045b82611028565b60606001805461047090612c4e565b610527338383611c27565b6060808080306001600160a01b03871603610f4e57610f2785611348565b610f435760405162461bcd60e51b815260040161055190612db4565b610d5785600161191c565b6040516301ffc9a760e01b8152630204cbd160e51b600482015286906001600160a01b038216906301ffc9a790602401602060405180830381865afa158015610f9b573d6000803e3d6000fd5b505050506040513d601f19601f82011682018060405250810190610fbf9190612e56565b610fdb5760405162461bcd60e51b815260040161055190612e73565b6040516328d4e46b60e21b81526001600160a01b0388811660048301526024820188905282169063a35391ac90604401610e1f565b61101b84848461052b565b6105b53385858585611cc6565b606061045b82611df1565b600080306001600160a01b038516036110835761104f83611348565b61106b5760405162461bcd60e51b815260040161055190612db4565b50600082815260076020526040902060040154611185565b6040516301ffc9a760e01b8152630204cbd160e51b600482015284906001600160a01b038216906301ffc9a790602401602060405180830381865afa1580156110d0573d6000803e3d6000fd5b505050506040513d601f19601f820116820180604052508101906110f49190612e56565b6111105760405162461bcd60e51b815260040161055190612e73565b60405163d30d968d60e01b81526001600160a01b0386811660048301526024820186905282169063d30d968d90604401602060405180830381865afa15801561115d573d6000803e3d6000fd5b505050506040513d601f19601f820116820180604052508101906111819190613066565b9150505b9392505050565b6001600160a01b03918216600090815260056020908152604080832093909416825291909152205460ff1690565b6111c48484611f02565b8051158015906111d45750815115155b156105b5576105b5838383610bed565b60006001600160e01b03198216632483248360e11b148061045b575061045b82611f1c565b6000818152600260205260408120546001600160a01b03168061045b57604051637e27328960e01b815260048101849052602401610551565b61070d8383836001611f6c565b6000828152600260205260408120546001600160a01b039081169083161561127c5761127c818486612072565b6001600160a01b038116156112ba57611299600085600080611f6c565b6001600160a01b038116600090815260036020526040902080546000190190555b6001600160a01b038516156112e9576001600160a01b0385166000908152600360205260409020805460010190555b60008481526002602052604080822080546001600160a01b0319166001600160a01b0389811691821790925591518793918516917fddf252ad1be2c89b69c2b068fc378daa952ba7f163c4a11628f55a4df523b3ef91a4949350505050565b60008061135483610d07565b6001600160a01b0316141592915050565b600082815260066020526040902061137d8282612cf6565b506040518281527ff8e1a15aba9398e019f0b49df1a4fde98ee17ae345cb5f6b5e2c27f5033e8ce79060200160405180910390a15050565b6000806113c384600161191c565b915091506000806113d586600061191c565b91509150846001600160a01b0316867f81bed52c04e8cd65796985202162bad7e20a8ffaa732fe2e0a0bc79f687e4d6686868686604051611419949392919061307f565b60405180910390a3505050505050565b6000828152600760205260408120905b84518110156115555781600001600086838151811061145a5761145a612deb565b60200260200101516001600160a01b03166001600160a01b03168152602001908152602001600020805490506000036114df57816002018582815181106114a3576114a3612deb565b60209081029190910181015182546001810184556000938452919092200180546001600160a01b0319166001600160a01b039092169190911790555b8281815181106114f1576114f1612deb565b602002602001015182600001600087848151811061151157611511612deb565b60200260200101516001600160a01b03166001600160a01b03168152602001908152602001600020908051906020019061154c929190612452565b50600101611439565b504260048201556105b583336113b5565b60005b83518110156105b557306001600160a01b031684828151811061158e5761158e612deb565b60200260200101516001600160a01b0316036117f95760005b8282815181106115b9576115b9612deb565b6020026020010151518110156117f3576000600760008585815181106115e1576115e1612deb565b602002602001015184815181106115fa576115fa612deb565b60200260200101518152602001908152602001600020905080600101600087858151811061162a5761162a612deb565b60200260200101516001600160a01b03166001600160a01b03168152602001908152602001600020805490506000036116af578060030186848151811061167357611673612deb565b60209081029190910181015182546001810184556000938452919092200180546001600160a01b0319166001600160a01b039092169190911790555b8383815181106116c1576116c1612deb565b602002602001015182815181106116da576116da612deb565b6020026020010151850361173c5760405162461bcd60e51b8152602060048201526024808201527f4552435f353532313a2073656c662d7265666572656e6365206e6f7420616c6c6044820152631bddd95960e21b6064820152608401610551565b4281600401541061175f5760405162461bcd60e51b815260040161055190612e01565b30600090815260018083016020908152604083208054928301815583529091200185905583516117ea9085908590811061179b5761179b612deb565b602002602001015183815181106117b4576117b4612deb565b6020026020010151610b308686815181106117d1576117d1612deb565b60200260200101518581518110610b2357610b23612deb565b506001016115a7565b50611914565b600084828151811061180d5761180d612deb565b60209081029190910101516040516301ffc9a760e01b8152630204cbd160e51b60048201529091506000906001600160a01b038316906301ffc9a790602401602060405180830381865afa158015611869573d6000803e3d6000fd5b505050506040513d601f19601f8201168201806040525081019061188d9190612e56565b9050801561191157816001600160a01b03166355c1044030878787815181106118b8576118b8612deb565b60200260200101516040518463ffffffff1660e01b81526004016118de939291906130d7565b600060405180830381600087803b1580156118f857600080fd5b505af115801561190c573d6000803e3d6000fd5b505050505b50505b600101611569565b6000828152600760205260409020606090819081808515611aab578260020180548060200260200160405190810160405280929190818152602001828054801561198f57602002820191906000526020600020905b81546001600160a01b03168152600190910190602001808311611971575b5050505050915081516001600160401b038111156119af576119af612709565b6040519080825280602002602001820160405280156119e257816020015b60608152602001906001900390816119cd5790505b50905060005b8251811015611aa557836000016000848381518110611a0957611a09612deb565b60200260200101516001600160a01b03166001600160a01b03168152602001908152602001600020805480602002602001604051908101604052809291908181526020018280548015611a7b57602002820191906000526020600020905b815481526020019060010190808311611a67575b5050505050828281518110611a9257611a92612deb565b60209081029190910101526001016119e8565b50611c1b565b82600301805480602002602001604051908101604052809291908181526020018280548015611b0357602002820191906000526020600020905b81546001600160a01b03168152600190910190602001808311611ae5575b5050505050915081516001600160401b03811115611b2357611b23612709565b604051908082528060200260200182016040528015611b5657816020015b6060815260200190600190039081611b415790505b50905060005b8251811015611c1957836001016000848381518110611b7d57611b7d612deb565b60200260200101516001600160a01b03166001600160a01b03168152602001908152602001600020805480602002602001604051908101604052809291908181526020018280548015611bef57602002820191906000526020600020905b815481526020019060010190808311611bdb575b5050505050828281518110611c0657611c06612deb565b6020908102919091010152600101611b5c565b505b90969095509350505050565b6001600160a01b038216611c5957604051630b61174360e31b81526001600160a01b0383166004820152602401610551565b6001600160a01b03838116600081815260056020908152604080832094871680845294825291829020805460ff191686151590811790915591519182527f17307eab39ab6107e8899845ad3d59bd9653f200f220920489ca2b5937696c31910160405180910390a3505050565b6001600160a01b0383163b15611dea57604051630a85bd0160e11b81526001600160a01b0384169063150b7a0290611d08908890889087908790600401613134565b6020604051808303816000875af1925050508015611d43575060408051601f3d908101601f19168201909252611d4091810190613171565b60015b611dac573d808015611d71576040519150601f19603f3d011682016040523d82523d6000602084013e611d76565b606091505b508051600003611da457604051633250574960e11b81526001600160a01b0385166004820152602401610551565b805181602001fd5b6001600160e01b03198116630a85bd0160e11b14611de857604051633250574960e11b81526001600160a01b0385166004820152602401610551565b505b5050505050565b6060611dfc82611209565b5060008281526006602052604081208054611e1690612c4e565b80601f0160208091040260200160405190810160405280929190818152602001828054611e4290612c4e565b8015611e8f5780601f10611e6457610100808354040283529160200191611e8f565b820191906000526020600020905b815481529060010190602001808311611e7257829003601f168201915b505050505090506000611ead60408051602081019091526000815290565b90508051600003611ebf575092915050565b815115611ef1578082604051602001611ed992919061318e565b60405160208183030381529060405292505050919050565b611efa846120d6565b949350505050565b61052782826040518060200160405280600081525061214a565b60006001600160e01b031982166380ac58cd60e01b1480611f4d57506001600160e01b03198216635b5e139f60e01b145b8061045b57506301ffc9a760e01b6001600160e01b031983161461045b565b8080611f8057506001600160a01b03821615155b15612042576000611f9084611209565b90506001600160a01b03831615801590611fbc5750826001600160a01b0316816001600160a01b031614155b8015611fcf5750611fcd818461118c565b155b15611ff85760405163a9fbf51f60e01b81526001600160a01b0384166004820152602401610551565b81156120405783856001600160a01b0316826001600160a01b03167f8c5be1e5ebec7d5bd14f71427d1e84f3dd0314c0f7b2291e5b200ac8c7c3b92560405160405180910390a45b505b5050600090815260046020526040902080546001600160a01b0319166001600160a01b0392909216919091179055565b61207d838383612162565b61070d576001600160a01b0383166120ab57604051637e27328960e01b815260048101829052602401610551565b60405163177e802f60e01b81526001600160a01b038316600482015260248101829052604401610551565b60606120e182611209565b5060006120f960408051602081019091526000815290565b905060008151116121195760405180602001604052806000815250611185565b80612123846121c5565b60405160200161213492919061318e565b6040516020818303038152906040529392505050565b6121548383612257565b61070d336000858585611cc6565b60006001600160a01b03831615801590611efa5750826001600160a01b0316846001600160a01b0316148061219c575061219c848461118c565b80611efa5750506000908152600460205260409020546001600160a01b03908116911614919050565b606060006121d2836122bc565b60010190506000816001600160401b038111156121f1576121f1612709565b6040519080825280601f01601f19166020018201604052801561221b576020820181803683370190505b5090508181016020015b600019016f181899199a1a9b1b9c1cb0b131b232b360811b600a86061a8153600a850494508461222557509392505050565b6001600160a01b03821661228157604051633250574960e11b815260006004820152602401610551565b600061228f8383600061124f565b90506001600160a01b0381161561070d576040516339e3563760e11b815260006004820152602401610551565b60008072184f03e93ff9f4daa797ed6e38ed64bf6a1f0160401b83106122fb5772184f03e93ff9f4daa797ed6e38ed64bf6a1f0160401b830492506040015b6d04ee2d6d415b85acef81000000008310612327576d04ee2d6d415b85acef8100000000830492506020015b662386f26fc10000831061234557662386f26fc10000830492506010015b6305f5e100831061235d576305f5e100830492506008015b612710831061237157612710830492506004015b60648310612383576064830492506002015b600a831061045b5760010192915050565b8280548282559060005260206000209081019282156123e9579160200282015b828111156123e957825182546001600160a01b0319166001600160a01b039091161782556020909201916001909101906123b4565b506123f592915061248d565b5090565b828054828255906000526020600020908101928215612446579160200282015b828111156124465782518051612436918491602090910190612452565b5091602001919060010190612419565b506123f59291506124a2565b8280548282559060005260206000209081019282156123e9579160200282015b828111156123e9578251825591602001919060010190612472565b5b808211156123f5576000815560010161248e565b808211156123f55760006124b682826124bf565b506001016124a2565b50805460008255906000526020600020908101906124dd919061248d565b50565b6001600160e01b0319811681146124dd57600080fd5b60006020828403121561250857600080fd5b8135611185816124e0565b60005b8381101561252e578181015183820152602001612516565b50506000910152565b6000815180845261254f816020860160208601612513565b601f01601f19169290920160200192915050565b6020815260006111856020830184612537565b60006020828403121561258857600080fd5b5035919050565b6001600160a01b03811681146124dd57600080fd5b600080604083850312156125b757600080fd5b82356125c28161258f565b946020939093013593505050565b6000806000606084860312156125e557600080fd5b83356125f08161258f565b925060208401356126008161258f565b929592945050506040919091013590565b600081518084526020840193506020830160005b8281101561264c5781516001600160a01b0316865260209586019590910190600101612625565b5093949350505050565b600082825180855260208501945060208160051b8301016020850160005b838110156126cf57848303601f190188528151805180855260209182019185019060005b818110156126b6578351835260209384019390920191600101612698565b50506020998a0199909450929092019150600101612674565b50909695505050505050565b6040815260006126ee6040830185612611565b82810360208401526127008185612656565b95945050505050565b634e487b7160e01b600052604160045260246000fd5b604051601f8201601f191681016001600160401b038111828210171561274757612747612709565b604052919050565b6000806001600160401b0384111561276957612769612709565b50601f8301601f191660200161277e8161271f565b91505082815283838301111561279357600080fd5b828260208301376000602084830101529392505050565b600082601f8301126127bb57600080fd5b6111858383356020850161274f565b60006001600160401b038211156127e3576127e3612709565b5060051b60200190565b600082601f8301126127fe57600080fd5b813561281161280c826127ca565b61271f565b8082825260208201915060208360051b86010192508583111561283357600080fd5b602085015b8381101561285957803561284b8161258f565b835260209283019201612838565b5095945050505050565b600082601f83011261287457600080fd5b813561288261280c826127ca565b8082825260208201915060208360051b8601019250858311156128a457600080fd5b602085015b838110156128595780358352602092830192016128a9565b600082601f8301126128d257600080fd5b81356128e061280c826127ca565b8082825260208201915060208360051b86010192508583111561290257600080fd5b602085015b838110156128595780356001600160401b0381111561292557600080fd5b612934886020838a0101612863565b84525060209283019201612907565b60008060006060848603121561295857600080fd5b83356001600160401b0381111561296e57600080fd5b61297a868287016127aa565b93505060208401356001600160401b0381111561299657600080fd5b6129a2868287016127ed565b92505060408401356001600160401b038111156129be57600080fd5b6129ca868287016128c1565b9150509250925092565b6000806000606084860312156129e957600080fd5b83356129f48161258f565b92506020840135915060408401356001600160401b03811115612a1657600080fd5b6129ca868287016127aa565b600080600060608486031215612a3757600080fd5b8335612a428161258f565b92506020840135915060408401356001600160401b03811115612a6457600080fd5b6129ca86828701612863565b6001600160a01b0383168152604060208201819052600090611efa90830184612537565b600080600060608486031215612aa957600080fd5b8335925060208401356001600160401b0381111561299657600080fd5b600060208284031215612ad857600080fd5b81356111858161258f565b80151581146124dd57600080fd5b60008060408385031215612b0457600080fd5b8235612b0f8161258f565b91506020830135612b1f81612ae3565b809150509250929050565b60008060008060808587031215612b4057600080fd5b8435612b4b8161258f565b93506020850135612b5b8161258f565b92506040850135915060608501356001600160401b03811115612b7d57600080fd5b8501601f81018713612b8e57600080fd5b612b9d8782356020840161274f565b91505092959194509250565b60008060408385031215612bbc57600080fd5b8235612bc78161258f565b91506020830135612b1f8161258f565b60008060008060808587031215612bed57600080fd5b8435612bf88161258f565b93506020850135925060408501356001600160401b03811115612c1a57600080fd5b612c26878288016127ed565b92505060608501356001600160401b03811115612c4257600080fd5b612b9d878288016128c1565b600181811c90821680612c6257607f821691505b602082108103612c8257634e487b7160e01b600052602260045260246000fd5b50919050565b600060018201612ca857634e487b7160e01b600052601160045260246000fd5b5060010190565b601f82111561070d57806000526020600020601f840160051c81016020851015612cd65750805b601f840160051c820191505b81811015611dea5760008155600101612ce2565b81516001600160401b03811115612d0f57612d0f612709565b612d2381612d1d8454612c4e565b84612caf565b6020601f821160018114612d575760008315612d3f5750848201515b600019600385901b1c1916600184901b178455611dea565b600084815260208120601f198516915b82811015612d875787850151825560209485019460019092019101612d67565b5084821015612da55786840151600019600387901b60f8161c191681555b50505050600190811b01905550565b6020808252601e908201527f4552435f353532313a20746f6b656e204944206e6f7420657869737465640000604082015260600190565b634e487b7160e01b600052603260045260246000fd5b60208082526035908201527f4552435f353532313a2074686520726566657272656420724e4654206e65656460408201527439903a37903132903090383932b232b1b2b9b9b7b960591b606082015260800190565b600060208284031215612e6857600080fd5b815161118581612ae3565b60208082526027908201527f4552435f353532313a2074617267657420636f6e7472616374206e6f742073756040820152661c1c1bdc9d195960ca1b606082015260800190565b600082601f830112612ecb57600080fd5b8151612ed961280c826127ca565b8082825260208201915060208360051b860101925085831115612efb57600080fd5b602085015b838110156128595780516001600160401b03811115612f1e57600080fd5b8601603f81018813612f2f57600080fd5b6020810151612f4061280c826127ca565b808282526020820191506020808460051b8601010192508a831115612f6457600080fd5b6040840193505b82841015612f86578351825260209384019390910190612f6b565b86525050602093840193919091019050612f00565b60008060408385031215612fae57600080fd5b82516001600160401b03811115612fc457600080fd5b8301601f81018513612fd557600080fd5b8051612fe361280c826127ca565b8082825260208201915060208360051b85010192508783111561300557600080fd5b6020840193505b8284101561303057835161301f8161258f565b82526020938401939091019061300c565b8095505050505060208301516001600160401b0381111561305057600080fd5b61305c85828601612eba565b9150509250929050565b60006020828403121561307857600080fd5b5051919050565b6080815260006130926080830187612611565b82810360208401526130a48187612656565b905082810360408401526130b88186612611565b905082810360608401526130cc8185612656565b979650505050505050565b6001600160a01b0384168152602080820184905260606040830181905283519083018190526000918401906080840190835b81811015613127578351835260209384019390920191600101613109565b5090979650505050505050565b6001600160a01b038581168252841660208201526040810183905260806060820181905260009061316790830184612537565b9695505050505050565b60006020828403121561318357600080fd5b8151611185816124e0565b600083516131a0818460208801612513565b8351908301906131b4818360208801612513565b0194935050505056fea2646970667358221220f5299c34d59103520eb02a6b83c92063654bbec9b774a10aafffc3121b06467a64736f6c634300081c0033a264697066735822122078add33650a06a25333b0d6c432eddc6245350d99030e4a477977f4e5a652a0864736f6c634300081c003360a0604052600880546001600160a01b0319169055620f424060095534801561002757600080fd5b506040516136db3803806136db833981016040819052610046916100d5565b6040518060400160405280601081526020016f536f667477617265204c6963656e736560801b815250604051806040016040528060078152602001664c4943454e534560c81b815250818181600090816100a091906101a4565b5060016100ad82826101a4565b5050600880546001600160a01b031916331790555050506001600160a01b0316608052610262565b6000602082840312156100e757600080fd5b81516001600160a01b03811681146100fe57600080fd5b9392505050565b634e487b7160e01b600052604160045260246000fd5b600181811c9082168061012f57607f821691505b60208210810361014f57634e487b7160e01b600052602260045260246000fd5b50919050565b601f82111561019f57806000526020600020601f840160051c8101602085101561017c5750805b601f840160051c820191505b8181101561019c5760008155600101610188565b50505b505050565b81516001600160401b038111156101bd576101bd610105565b6101d1816101cb845461011b565b84610155565b6020601f82116001811461020557600083156101ed5750848201515b600019600385901b1c1916600184901b17845561019c565b600084815260208120601f198516915b828110156102355787850151825560209485019460019092019101610215565b50848210156102535786840151600019600387901b60f8161c191681555b50505050600190811b01905550565b60805161345e61027d60003960006105a0015261345e6000f3fe608060405234801561001057600080fd5b506004361061018e5760003560e01c806364f9b0e6116100de578063b88d4fde11610097578063e985e9c511610071578063e985e9c5146103a7578063eb40f818146103ba578063edda5e73146103cd578063f9a92730146103e057600080fd5b8063b88d4fde1461036e578063c87b56dd14610381578063d30d968d1461039457600080fd5b806364f9b0e6146102ec57806370a082311461030d57806377f2d69e1461032057806395d89b4114610340578063a22cb46514610348578063a35391ac1461035b57600080fd5b8063420859911161014b57806355c104401161012557806355c104401461028a5780635995d1581461029d578063616c5535146102c65780636352211e146102d957600080fd5b8063420859911461024457806342842e0e146102645780634e5786bf1461027757600080fd5b806301ffc9a71461019357806306fdde03146101bb578063081812fc146101d0578063095ea7b3146101fb57806323b872dd1461021057806338ffc19414610223575b600080fd5b6101a66101a136600461270f565b6103f3565b60405190151581526020015b60405180910390f35b6101c3610439565b6040516101b2919061277c565b6101e36101de36600461278f565b6104cb565b6040516001600160a01b0390911681526020016101b2565b61020e6102093660046127bd565b6104f4565b005b61020e61021e3660046127e9565b610503565b6102366102313660046127e9565b610593565b6040519081526020016101b2565b61023661025236600461278f565b600b6020526000908152604090205481565b61020e6102723660046127e9565b610991565b61020e6102853660046128d5565b6109b1565b61020e6102983660046129cc565b610a65565b6101e36102ab36600461278f565b600a602052600090815260409020546001600160a01b031681565b61020e6102d4366004612b03565b610c18565b6101e36102e736600461278f565b610d32565b6102ff6102fa3660046127bd565b610d3d565b6040516101b2929190612c3c565b61023661031b366004612c61565b610ea1565b61033361032e3660046127e9565b610ee9565b6040516101b29190612c7e565b6101c36110cb565b61020e610356366004612c9f565b6110da565b6102ff6103693660046127bd565b6110e5565b61020e61037c366004612cd8565b6111ec565b6101c361038f36600461278f565b611204565b6102366103a23660046127bd565b61120f565b6101a66103b5366004612d57565b611366565b6101a66103c83660046127e9565b611394565b61020e6103db366004612d85565b61147e565b6102366103ee366004612dfc565b6114a8565b60006001600160e01b031982166374342b5560e01b148061042457506001600160e01b03198216630204cbd160e51b145b806104335750610433826114e6565b92915050565b60606000805461044890612e31565b80601f016020809104026020016040519081016040528092919081815260200182805461047490612e31565b80156104c15780601f10610496576101008083540402835291602001916104c1565b820191906000526020600020905b8154815290600101906020018083116104a457829003601f168201915b5050505050905090565b60006104d68261150b565b506000828152600460205260409020546001600160a01b0316610433565b6104ff828233611544565b5050565b6001600160a01b03821661053257604051633250574960e11b8152600060048201526024015b60405180910390fd5b600061053f838333611551565b9050836001600160a01b0316816001600160a01b03161461058d576040516364283d7b60e01b81526001600160a01b0380861660048301526024820184905282166044820152606401610529565b50505050565b6000336001600160a01b037f000000000000000000000000000000000000000000000000000000000000000016146105de5760405163ea8e4eb560e01b815260040160405180910390fd5b6000839050806001600160a01b0316637a4440726040518163ffffffff1660e01b8152600401602060405180830381865afa92505050801561063d575060408051601f3d908101601f1916820190925261063a91810190612e6b565b60015b61065a5760405163b5be0bc360e01b815260040160405180910390fd5b50604051632392274360e21b8152600481018490526001600160a01b03821690638e489d0c90602401600060405180830381865afa9250505080156106c157506040513d6000823e601f3d908101601f191682016040526106be9190810190612e88565b60015b6106de57604051630f89114b60e41b815260040160405180910390fd5b506009805490819060006106f183612ef5565b909155505060408051600180825281830190925260009160208083019080368337019050509050858160008151811061072c5761072c612f1c565b6001600160a01b039290921660209283029190910190910152604080516001808252818301909252600091816020015b606081526020019060019003908161075c575050604080516001808252818301909252919250600091906020808301908036833701905050905086816000815181106107aa576107aa612f1c565b60200260200101818152505080826000815181106107ca576107ca612f1c565b60200260200101819052506107e18985858561147e565b604051632392274360e21b8152600481018890526000906001600160a01b03871690638e489d0c90602401600060405180830381865afa158015610829573d6000803e3d6000fd5b505050506040513d6000823e601f3d908101601f191682016040526108519190810190612e88565b90506000816040516020016108669190612f32565b6040516020818303038152906040529050610881868261164a565b89600a600088815260200190815260200160002060006101000a8154816001600160a01b0302191690836001600160a01b0316021790555088600b600088815260200190815260200160002081905550600c60008b6001600160a01b03166001600160a01b0316815260200190815260200160002060008a8152602001908152602001600020869080600181540180825580915050600190039060005260206000200160009091909190915055888a6001600160a01b0316877fd14409b136f4c46af205dbc7e9b237bb1ae44b59893a672421c9c5d56bd156ea8e60405161097891906001600160a01b0391909116815260200190565b60405180910390a45093955050505050505b9392505050565b6109ac838383604051806020016040528060008152506111ec565b505050565b6109ba8261169a565b6109d65760405162461bcd60e51b815260040161052990612f66565b826001600160a01b03166109e983610d32565b6001600160a01b031614610a5b5760405162461bcd60e51b815260206004820152603360248201527f4552435f353532313a207472616e736665722063616c6c6572206973206e6f74604482015272081bdddb995c881b9bdc88185c1c1c9bdd9959606a1b6064820152608401610529565b6109ac828261164a565b60005b815181101561058d57600060076000848481518110610a8957610a89612f1c565b602002602001015181526020019081526020016000209050806001016000866001600160a01b03166001600160a01b0316815260200190815260200160002080549050600003610b0457600381018054600181018255600091825260209091200180546001600160a01b0319166001600160a01b0387161790555b306001600160a01b03861603610b785760405162461bcd60e51b815260206004820152603360248201527f4552435f353532313a2074686973206d75737420626520616e2065787465726e604482015272616c20636f6e7472616374206164647265737360681b6064820152608401610529565b42816004015410610b9b5760405162461bcd60e51b815260040161052990612f9d565b6001600160a01b03851660009081526001808301602090815260408320805492830181558352909120018490558251610c0f90849084908110610be057610be0612f1c565b6020026020010151610c0a858581518110610bfd57610bfd612f1c565b6020026020010151610d32565b6116b7565b50600101610a68565b8051825114610c885760405162461bcd60e51b815260206004820152603660248201527f41646472657373657320616e6420546f6b656e494420617272617973206d75736044820152750e840d0c2ecca40e8d0ca40e6c2daca40d8cadccee8d60531b6064820152608401610529565b60005b8151811015610d1b57818181518110610ca657610ca6612f1c565b602002602001015151600003610d135760405162461bcd60e51b815260206004820152602c60248201527f4552435f353532313a2074686520726566657272696e67206c6973742063616e60448201526b6e6f7420626520656d70747960a01b6064820152608401610529565b600101610c8b565b50610d2782848361172b565b6109ac828483611868565b60006104338261150b565b6060808080306001600160a01b03871603610d8c57610d5b8561169a565b610d775760405162461bcd60e51b815260040161052990612f66565b610d82856000611c1e565b9092509050610e96565b6040516301ffc9a760e01b8152630204cbd160e51b600482015286906001600160a01b038216906301ffc9a790602401602060405180830381865afa158015610dd9573d6000803e3d6000fd5b505050506040513d601f19601f82011682018060405250810190610dfd9190612ff2565b610e195760405162461bcd60e51b81526004016105299061300f565b60405163327cd87360e11b81526001600160a01b038881166004830152602482018890528216906364f9b0e6906044015b600060405180830381865afa158015610e67573d6000803e3d6000fd5b505050506040513d6000823e601f3d908101601f19168201604052610e8f9190810190613137565b9093509150505b909590945092505050565b60006001600160a01b038216610ecd576040516322718ad960e21b815260006004820152602401610529565b506001600160a01b031660009081526003602052604090205490565b6001600160a01b0382166000908152600c602090815260408083208484528252808320805482518185028101850190935280835260609493830182828015610f5057602002820191906000526020600020905b815481526020019060010190808311610f3c575b505050505090506000805b8251811015610fd257610f86838281518110610f7957610f79612f1c565b602002602001015161169a565b8015610fb75750866001600160a01b0316610fac848381518110610bfd57610bfd612f1c565b6001600160a01b0316145b15610fca5781610fc681612ef5565b9250505b600101610f5b565b506000816001600160401b03811115610fed57610fed61282a565b604051908082528060200260200182016040528015611016578160200160208202803683370190505b5090506000805b84518110156110be5761103b858281518110610f7957610f79612f1c565b801561106c5750886001600160a01b0316611061868381518110610bfd57610bfd612f1c565b6001600160a01b0316145b156110b65784818151811061108357611083612f1c565b602002602001015183838151811061109d5761109d612f1c565b6020908102919091010152816110b281612ef5565b9250505b60010161101d565b5090979650505050505050565b60606001805461044890612e31565b6104ff338383611f29565b6060808080306001600160a01b0387160361112a576111038561169a565b61111f5760405162461bcd60e51b815260040161052990612f66565b610d82856001611c1e565b6040516301ffc9a760e01b8152630204cbd160e51b600482015286906001600160a01b038216906301ffc9a790602401602060405180830381865afa158015611177573d6000803e3d6000fd5b505050506040513d601f19601f8201168201806040525081019061119b9190612ff2565b6111b75760405162461bcd60e51b81526004016105299061300f565b6040516328d4e46b60e21b81526001600160a01b0388811660048301526024820188905282169063a35391ac90604401610e4a565b6111f7848484610503565b61058d3385858585611fc8565b6060610433826120f3565b600080306001600160a01b0385160361125f5761122b8361169a565b6112475760405162461bcd60e51b815260040161052990612f66565b5060008281526007602052604090206004015461098a565b6040516301ffc9a760e01b8152630204cbd160e51b600482015284906001600160a01b038216906301ffc9a790602401602060405180830381865afa1580156112ac573d6000803e3d6000fd5b505050506040513d601f19601f820116820180604052508101906112d09190612ff2565b6112ec5760405162461bcd60e51b81526004016105299061300f565b60405163d30d968d60e01b81526001600160a01b0386811660048301526024820186905282169063d30d968d90604401602060405180830381865afa158015611339573d6000803e3d6000fd5b505050506040513d601f19601f8201168201806040525081019061135d9190613202565b95945050505050565b6001600160a01b03918216600090815260056020908152604080832093909416825291909152205460ff1690565b6001600160a01b0382166000908152600c602090815260408083208484528252808320805482518185028101850190935280835284938301828280156113f957602002820191906000526020600020905b8154815260200190600101908083116113e5575b5050505050905060005b815181101561147257600082828151811061142057611420612f1c565b602002602001015190506114338161169a565b80156114585750866001600160a01b031661144d82610d32565b6001600160a01b0316145b15611469576001935050505061098a565b50600101611403565b50600095945050505050565b6114888484612204565b8051158015906114985750815115155b1561058d5761058d838383610c18565b600c60205282600052604060002060205281600052604060002081815481106114d057600080fd5b9060005260206000200160009250925050505481565b60006001600160e01b03198216632483248360e11b148061043357506104338261221e565b6000818152600260205260408120546001600160a01b03168061043357604051637e27328960e01b815260048101849052602401610529565b6109ac838383600161226e565b6000828152600260205260408120546001600160a01b039081169083161561157e5761157e818486612374565b6001600160a01b038116156115bc5761159b60008560008061226e565b6001600160a01b038116600090815260036020526040902080546000190190555b6001600160a01b038516156115eb576001600160a01b0385166000908152600360205260409020805460010190555b60008481526002602052604080822080546001600160a01b0319166001600160a01b0389811691821790925591518793918516917fddf252ad1be2c89b69c2b068fc378daa952ba7f163c4a11628f55a4df523b3ef91a4949350505050565b60008281526006602052604090206116628282613262565b506040518281527ff8e1a15aba9398e019f0b49df1a4fde98ee17ae345cb5f6b5e2c27f5033e8ce79060200160405180910390a15050565b6000806116a683610d32565b6001600160a01b0316141592915050565b6000806116c5846001611c1e565b915091506000806116d7866000611c1e565b91509150846001600160a01b0316867f81bed52c04e8cd65796985202162bad7e20a8ffaa732fe2e0a0bc79f687e4d668686868660405161171b9493929190613320565b60405180910390a3505050505050565b6000828152600760205260408120905b84518110156118575781600001600086838151811061175c5761175c612f1c565b60200260200101516001600160a01b03166001600160a01b03168152602001908152602001600020805490506000036117e157816002018582815181106117a5576117a5612f1c565b60209081029190910181015182546001810184556000938452919092200180546001600160a01b0319166001600160a01b039092169190911790555b8281815181106117f3576117f3612f1c565b602002602001015182600001600087848151811061181357611813612f1c565b60200260200101516001600160a01b03166001600160a01b03168152602001908152602001600020908051906020019061184e929190612696565b5060010161173b565b5042600482015561058d83336116b7565b60005b835181101561058d57306001600160a01b031684828151811061189057611890612f1c565b60200260200101516001600160a01b031603611afb5760005b8282815181106118bb576118bb612f1c565b602002602001015151811015611af5576000600760008585815181106118e3576118e3612f1c565b602002602001015184815181106118fc576118fc612f1c565b60200260200101518152602001908152602001600020905080600101600087858151811061192c5761192c612f1c565b60200260200101516001600160a01b03166001600160a01b03168152602001908152602001600020805490506000036119b1578060030186848151811061197557611975612f1c565b60209081029190910181015182546001810184556000938452919092200180546001600160a01b0319166001600160a01b039092169190911790555b8383815181106119c3576119c3612f1c565b602002602001015182815181106119dc576119dc612f1c565b60200260200101518503611a3e5760405162461bcd60e51b8152602060048201526024808201527f4552435f353532313a2073656c662d7265666572656e6365206e6f7420616c6c6044820152631bddd95960e21b6064820152608401610529565b42816004015410611a615760405162461bcd60e51b815260040161052990612f9d565b3060009081526001808301602090815260408320805492830181558352909120018590558351611aec90859085908110611a9d57611a9d612f1c565b60200260200101518381518110611ab657611ab6612f1c565b6020026020010151610c0a868681518110611ad357611ad3612f1c565b60200260200101518581518110610bfd57610bfd612f1c565b506001016118a9565b50611c16565b6000848281518110611b0f57611b0f612f1c565b60209081029190910101516040516301ffc9a760e01b8152630204cbd160e51b60048201529091506000906001600160a01b038316906301ffc9a790602401602060405180830381865afa158015611b6b573d6000803e3d6000fd5b505050506040513d601f19601f82011682018060405250810190611b8f9190612ff2565b90508015611c1357816001600160a01b03166355c104403087878781518110611bba57611bba612f1c565b60200260200101516040518463ffffffff1660e01b8152600401611be093929190613378565b600060405180830381600087803b158015611bfa57600080fd5b505af1158015611c0e573d6000803e3d6000fd5b505050505b50505b60010161186b565b6000828152600760205260409020606090819081808515611dad5782600201805480602002602001604051908101604052809291908181526020018280548015611c9157602002820191906000526020600020905b81546001600160a01b03168152600190910190602001808311611c73575b5050505050915081516001600160401b03811115611cb157611cb161282a565b604051908082528060200260200182016040528015611ce457816020015b6060815260200190600190039081611ccf5790505b50905060005b8251811015611da757836000016000848381518110611d0b57611d0b612f1c565b60200260200101516001600160a01b03166001600160a01b03168152602001908152602001600020805480602002602001604051908101604052809291908181526020018280548015611d7d57602002820191906000526020600020905b815481526020019060010190808311611d69575b5050505050828281518110611d9457611d94612f1c565b6020908102919091010152600101611cea565b50611f1d565b82600301805480602002602001604051908101604052809291908181526020018280548015611e0557602002820191906000526020600020905b81546001600160a01b03168152600190910190602001808311611de7575b5050505050915081516001600160401b03811115611e2557611e2561282a565b604051908082528060200260200182016040528015611e5857816020015b6060815260200190600190039081611e435790505b50905060005b8251811015611f1b57836001016000848381518110611e7f57611e7f612f1c565b60200260200101516001600160a01b03166001600160a01b03168152602001908152602001600020805480602002602001604051908101604052809291908181526020018280548015611ef157602002820191906000526020600020905b815481526020019060010190808311611edd575b5050505050828281518110611f0857611f08612f1c565b6020908102919091010152600101611e5e565b505b90969095509350505050565b6001600160a01b038216611f5b57604051630b61174360e31b81526001600160a01b0383166004820152602401610529565b6001600160a01b03838116600081815260056020908152604080832094871680845294825291829020805460ff191686151590811790915591519182527f17307eab39ab6107e8899845ad3d59bd9653f200f220920489ca2b5937696c31910160405180910390a3505050565b6001600160a01b0383163b156120ec57604051630a85bd0160e11b81526001600160a01b0384169063150b7a029061200a90889088908790879060040161339f565b6020604051808303816000875af1925050508015612045575060408051601f3d908101601f19168201909252612042918101906133dc565b60015b6120ae573d808015612073576040519150601f19603f3d011682016040523d82523d6000602084013e612078565b606091505b5080516000036120a657604051633250574960e11b81526001600160a01b0385166004820152602401610529565b805181602001fd5b6001600160e01b03198116630a85bd0160e11b146120ea57604051633250574960e11b81526001600160a01b0385166004820152602401610529565b505b5050505050565b60606120fe8261150b565b506000828152600660205260408120805461211890612e31565b80601f016020809104026020016040519081016040528092919081815260200182805461214490612e31565b80156121915780601f1061216657610100808354040283529160200191612191565b820191906000526020600020905b81548152906001019060200180831161217457829003601f168201915b5050505050905060006121af60408051602081019091526000815290565b905080516000036121c1575092915050565b8151156121f35780826040516020016121db9291906133f9565b60405160208183030381529060405292505050919050565b6121fc846123d8565b949350505050565b6104ff82826040518060200160405280600081525061244c565b60006001600160e01b031982166380ac58cd60e01b148061224f57506001600160e01b03198216635b5e139f60e01b145b8061043357506301ffc9a760e01b6001600160e01b0319831614610433565b808061228257506001600160a01b03821615155b156123445760006122928461150b565b90506001600160a01b038316158015906122be5750826001600160a01b0316816001600160a01b031614155b80156122d157506122cf8184611366565b155b156122fa5760405163a9fbf51f60e01b81526001600160a01b0384166004820152602401610529565b81156123425783856001600160a01b0316826001600160a01b03167f8c5be1e5ebec7d5bd14f71427d1e84f3dd0314c0f7b2291e5b200ac8c7c3b92560405160405180910390a45b505b5050600090815260046020526040902080546001600160a01b0319166001600160a01b0392909216919091179055565b61237f838383612464565b6109ac576001600160a01b0383166123ad57604051637e27328960e01b815260048101829052602401610529565b60405163177e802f60e01b81526001600160a01b038316600482015260248101829052604401610529565b60606123e38261150b565b5060006123fb60408051602081019091526000815290565b9050600081511161241b576040518060200160405280600081525061098a565b80612425846124c7565b6040516020016124369291906133f9565b6040516020818303038152906040529392505050565b6124568383612559565b6109ac336000858585611fc8565b60006001600160a01b038316158015906121fc5750826001600160a01b0316846001600160a01b0316148061249e575061249e8484611366565b806121fc5750506000908152600460205260409020546001600160a01b03908116911614919050565b606060006124d4836125be565b60010190506000816001600160401b038111156124f3576124f361282a565b6040519080825280601f01601f19166020018201604052801561251d576020820181803683370190505b5090508181016020015b600019016f181899199a1a9b1b9c1cb0b131b232b360811b600a86061a8153600a850494508461252757509392505050565b6001600160a01b03821661258357604051633250574960e11b815260006004820152602401610529565b600061259183836000611551565b90506001600160a01b038116156109ac576040516339e3563760e11b815260006004820152602401610529565b60008072184f03e93ff9f4daa797ed6e38ed64bf6a1f0160401b83106125fd5772184f03e93ff9f4daa797ed6e38ed64bf6a1f0160401b830492506040015b6d04ee2d6d415b85acef81000000008310612629576d04ee2d6d415b85acef8100000000830492506020015b662386f26fc10000831061264757662386f26fc10000830492506010015b6305f5e100831061265f576305f5e100830492506008015b612710831061267357612710830492506004015b60648310612685576064830492506002015b600a83106104335760010192915050565b8280548282559060005260206000209081019282156126d1579160200282015b828111156126d15782518255916020019190600101906126b6565b506126dd9291506126e1565b5090565b5b808211156126dd57600081556001016126e2565b6001600160e01b03198116811461270c57600080fd5b50565b60006020828403121561272157600080fd5b813561098a816126f6565b60005b8381101561274757818101518382015260200161272f565b50506000910152565b6000815180845261276881602086016020860161272c565b601f01601f19169290920160200192915050565b60208152600061098a6020830184612750565b6000602082840312156127a157600080fd5b5035919050565b6001600160a01b038116811461270c57600080fd5b600080604083850312156127d057600080fd5b82356127db816127a8565b946020939093013593505050565b6000806000606084860312156127fe57600080fd5b8335612809816127a8565b92506020840135612819816127a8565b929592945050506040919091013590565b634e487b7160e01b600052604160045260246000fd5b604051601f8201601f191681016001600160401b03811182821017156128685761286861282a565b604052919050565b60006001600160401b038211156128895761288961282a565b50601f01601f191660200190565b60006128aa6128a584612870565b612840565b90508281528383830111156128be57600080fd5b828260208301376000602084830101529392505050565b6000806000606084860312156128ea57600080fd5b83356128f5816127a8565b92506020840135915060408401356001600160401b0381111561291757600080fd5b8401601f8101861361292857600080fd5b61293786823560208401612897565b9150509250925092565b60006001600160401b0382111561295a5761295a61282a565b5060051b60200190565b600082601f83011261297557600080fd5b81356129836128a582612941565b8082825260208201915060208360051b8601019250858311156129a557600080fd5b602085015b838110156129c25780358352602092830192016129aa565b5095945050505050565b6000806000606084860312156129e157600080fd5b83356129ec816127a8565b92506020840135915060408401356001600160401b03811115612a0e57600080fd5b61293786828701612964565b600082601f830112612a2b57600080fd5b8135612a396128a582612941565b8082825260208201915060208360051b860101925085831115612a5b57600080fd5b602085015b838110156129c2578035612a73816127a8565b835260209283019201612a60565b600082601f830112612a9257600080fd5b8135612aa06128a582612941565b8082825260208201915060208360051b860101925085831115612ac257600080fd5b602085015b838110156129c25780356001600160401b03811115612ae557600080fd5b612af4886020838a0101612964565b84525060209283019201612ac7565b600080600060608486031215612b1857600080fd5b8335925060208401356001600160401b03811115612b3557600080fd5b612b4186828701612a1a565b92505060408401356001600160401b03811115612b5d57600080fd5b61293786828701612a81565b600081518084526020840193506020830160005b82811015612ba45781516001600160a01b0316865260209586019590910190600101612b7d565b5093949350505050565b600081518084526020840193506020830160005b82811015612ba4578151865260209586019590910190600101612bc2565b600082825180855260208501945060208160051b8301016020850160005b83811015612c3057601f19858403018852612c1a838351612bae565b6020988901989093509190910190600101612bfe565b50909695505050505050565b604081526000612c4f6040830185612b69565b828103602084015261135d8185612be0565b600060208284031215612c7357600080fd5b813561098a816127a8565b60208152600061098a6020830184612bae565b801515811461270c57600080fd5b60008060408385031215612cb257600080fd5b8235612cbd816127a8565b91506020830135612ccd81612c91565b809150509250929050565b60008060008060808587031215612cee57600080fd5b8435612cf9816127a8565b93506020850135612d09816127a8565b92506040850135915060608501356001600160401b03811115612d2b57600080fd5b8501601f81018713612d3c57600080fd5b612d4b87823560208401612897565b91505092959194509250565b60008060408385031215612d6a57600080fd5b8235612d75816127a8565b91506020830135612ccd816127a8565b60008060008060808587031215612d9b57600080fd5b8435612da6816127a8565b93506020850135925060408501356001600160401b03811115612dc857600080fd5b612dd487828801612a1a565b92505060608501356001600160401b03811115612df057600080fd5b612d4b87828801612a81565b600080600060608486031215612e1157600080fd5b8335612e1c816127a8565b95602085013595506040909401359392505050565b600181811c90821680612e4557607f821691505b602082108103612e6557634e487b7160e01b600052602260045260246000fd5b50919050565b600060208284031215612e7d57600080fd5b815161098a816127a8565b600060208284031215612e9a57600080fd5b81516001600160401b03811115612eb057600080fd5b8201601f81018413612ec157600080fd5b8051612ecf6128a582612870565b818152856020838501011115612ee457600080fd5b61135d82602083016020860161272c565b600060018201612f1557634e487b7160e01b600052601160045260246000fd5b5060010190565b634e487b7160e01b600052603260045260246000fd5b6b6c6963656e73652d666f722d60a01b815260008251612f5981600c85016020870161272c565b91909101600c0192915050565b6020808252601e908201527f4552435f353532313a20746f6b656e204944206e6f7420657869737465640000604082015260600190565b60208082526035908201527f4552435f353532313a2074686520726566657272656420724e4654206e65656460408201527439903a37903132903090383932b232b1b2b9b9b7b960591b606082015260800190565b60006020828403121561300457600080fd5b815161098a81612c91565b60208082526027908201527f4552435f353532313a2074617267657420636f6e7472616374206e6f742073756040820152661c1c1bdc9d195960ca1b606082015260800190565b600082601f83011261306757600080fd5b81516130756128a582612941565b8082825260208201915060208360051b86010192508583111561309757600080fd5b602085015b838110156129c25780516001600160401b038111156130ba57600080fd5b8601603f810188136130cb57600080fd5b60208101516130dc6128a582612941565b808282526020820191506020808460051b8601010192508a83111561310057600080fd5b6040840193505b82841015613122578351825260209384019390910190613107565b8652505060209384019391909101905061309c565b6000806040838503121561314a57600080fd5b82516001600160401b0381111561316057600080fd5b8301601f8101851361317157600080fd5b805161317f6128a582612941565b8082825260208201915060208360051b8501019250878311156131a157600080fd5b6020840193505b828410156131cc5783516131bb816127a8565b8252602093840193909101906131a8565b8095505050505060208301516001600160401b038111156131ec57600080fd5b6131f885828601613056565b9150509250929050565b60006020828403121561321457600080fd5b5051919050565b601f8211156109ac57806000526020600020601f840160051c810160208510156132425750805b601f840160051c820191505b818110156120ec576000815560010161324e565b81516001600160401b0381111561327b5761327b61282a565b61328f816132898454612e31565b8461321b565b6020601f8211600181146132c357600083156132ab5750848201515b600019600385901b1c1916600184901b1784556120ec565b600084815260208120601f198516915b828110156132f357878501518255602094850194600190920191016132d3565b50848210156133115786840151600019600387901b60f8161c191681555b50505050600190811b01905550565b6080815260006133336080830187612b69565b82810360208401526133458187612be0565b905082810360408401526133598186612b69565b9050828103606084015261336d8185612be0565b979650505050505050565b60018060a01b038416815282602082015260606040820152600061135d6060830184612bae565b6001600160a01b03858116825284166020820152604081018390526080606082018190526000906133d290830184612750565b9695505050505050565b6000602082840312156133ee57600080fd5b815161098a816126f6565b6000835161340b81846020880161272c565b83519083019061341f81836020880161272c565b0194935050505056fea26469706673582212200485220d7a6f0369d1a4c0af6461c25dfc29f50d0f06ef1705da49a9ae32b75564736f6c634300081c0033",
  "linkReferences": {},
  "deployedLinkReferences": {}
}