{
  "_format": "hh-sol-artifact-1",
  "contractName": "Registry",
  "sourceName": "contracts/Registry.sol",
  "abi": [
    {
      "inputs": [],
      "stateMutability": "nonpayable",
      "type": "constructor"
    },
    {
      "inputs": [],
      "name": "AlreadyRegistered",
      "type": "error"
    },
    {
      "inputs": [],
      "name": "DeveloperHasNoRepository",
      "type": "error"
    },
    {
      "inputs": [],
      "name": "NotContractOwner",
      "type": "error"
    },
    {
      "inputs": [],
      "name": "NotMarketplace",
      "type": "error"
    },
    {
      "inputs": [],
      "name": "NotRegisteredDeveloper",
      "type": "error"
    },
    {
      "inputs": [],
      "name": "NotRegisteredRepository",
      "type": "error"
    },
    {
      "anonymous": false,
      "inputs": [
        {
          "indexed": true,
          "internalType": "address",
          "name": "buyer",
          "type": "address"
        },
        {
          "indexed": true,
          "internalType": "address",
          "name": "repository",
          "type": "address"
        },
        {
          "indexed": true,
          "internalType": "uint256",
          "name": "softwareId",
          "type": "uint256"
        },
        {
          "indexed": false,
          "internalType": "uint256",
          "name": "licenseId",
          "type": "uint256"
        }
      ],
      "name": "LicenseMinted",
      "type": "event"
    },
    {
      "anonymous": false,
      "inputs": [
        {
          "indexed": true,
          "internalType": "address",
          "name": "developer",
          "type": "address"
        },
        {
          "indexed": true,
          "internalType": "address",
          "name": "repository",
          "type": "address"
        }
      ],
      "name": "RepositoryCreated",
      "type": "event"
    },
    {
      "anonymous": false,
      "inputs": [
        {
          "indexed": true,
          "internalType": "address",
          "name": "developer",
          "type": "address"
        },
        {
          "indexed": true,
          "internalType": "uint256",
          "name": "softwareId",
          "type": "uint256"
        },
        {
          "indexed": false,
          "internalType": "string",
          "name": "tokenURI",
          "type": "string"
        }
      ],
      "name": "SoftwareMinted",
      "type": "event"
    },
    {
      "inputs": [],
      "name": "createRepository",
      "outputs": [
        {
          "internalType": "address",
          "name": "",
          "type": "address"
        }
      ],
      "stateMutability": "nonpayable",
      "type": "function"
    },
    {
      "inputs": [],
      "name": "getLicenseManager",
      "outputs": [
        {
          "internalType": "address",
          "name": "",
          "type": "address"
        }
      ],
      "stateMutability": "view",
      "type": "function"
    },
    {
      "inputs": [],
      "name": "getMarketplace",
      "outputs": [
        {
          "internalType": "address",
          "name": "",
          "type": "address"
        }
      ],
      "stateMutability": "view",
      "type": "function"
    },
    {
      "inputs": [
        {
          "internalType": "address",
          "name": "_sender",
          "type": "address"
        }
      ],
      "name": "getRepositoryContract",
      "outputs": [
        {
          "internalType": "address",
          "name": "",
          "type": "address"
        }
      ],
      "stateMutability": "view",
      "type": "function"
    },
    {
      "inputs": [],
      "name": "getRoyaltyManager",
      "outputs": [
        {
          "internalType": "address",
          "name": "",
          "type": "address"
        }
      ],
      "stateMutability": "view",
      "type": "function"
    },
    {
      "inputs": [
        {
          "internalType": "address",
          "name": "user",
          "type": "address"
        },
        {
          "internalType": "address",
          "name": "repository",
          "type": "address"
        },
        {
          "internalType": "uint256",
          "name": "softwareId",
          "type": "uint256"
        }
      ],
      "name": "hasLicense",
      "outputs": [
        {
          "internalType": "bool",
          "name": "",
          "type": "bool"
        }
      ],
      "stateMutability": "view",
      "type": "function"
    },
    {
      "inputs": [
        {
          "internalType": "address",
          "name": "_sender",
          "type": "address"
        }
      ],
      "name": "isDeveloper",
      "outputs": [
        {
          "internalType": "bool",
          "name": "",
          "type": "bool"
        }
      ],
      "stateMutability": "view",
      "type": "function"
    },
    {
      "inputs": [
        {
          "internalType": "address",
          "name": "_repositoryAddress",
          "type": "address"
        }
      ],
      "name": "isRepository",
      "outputs": [
        {
          "internalType": "bool",
          "name": "",
          "type": "bool"
        }
      ],
      "stateMutability": "view",
      "type": "function"
    },
    {
      "inputs": [
        {
          "internalType": "address",
          "name": "buyer",
          "type": "address"
        },
        {
          "internalType": "address",
          "name": "developer",
          "type": "address"
        },
        {
          "internalType": "uint256",
          "name": "softwareId",
          "type": "uint256"
        }
      ],
      "name": "mintLicense",
      "outputs": [
        {
          "internalType": "uint256",
          "name": "",
          "type": "uint256"
        }
      ],
      "stateMutability": "nonpayable",
      "type": "function"
    },
    {
      "inputs": [
        {
          "internalType": "string",
          "name": "_tokenURI",
          "type": "string"
        },
        {
          "internalType": "address[]",
          "name": "addresses",
          "type": "address[]"
        },
        {
          "internalType": "uint256[][]",
          "name": "_tokenIds",
          "type": "uint256[][]"
        }
      ],
      "name": "mintSoftware",
      "outputs": [
        {
          "internalType": "uint256",
          "name": "",
          "type": "uint256"
        }
      ],
      "stateMutability": "nonpayable",
      "type": "function"
    },
    {
      "inputs": [
        {
          "internalType": "address",
          "name": "_repository",
          "type": "address"
        },
        {
          "internalType": "uint256",
          "name": "_tokenId",
          "type": "uint256"
        }
      ],
      "name": "repositoryOwnsSoftware",
      "outputs": [
        {
          "internalType": "bool",
          "name": "",
          "type": "bool"
        }
      ],
      "stateMutability": "view",
      "type": "function"
    },
    {
      "inputs": [
        {
          "internalType": "address",
          "name": "_marketplace",
          "type": "address"
        }
      ],
      "name": "setMarketplace",
      "outputs": [],
      "stateMutability": "nonpayable",
      "type": "function"
    }
  ],
  "bytecode": "0x60e060405234801561001057600080fd5b5061002b678ece4045d61ae54460c01b6101a160201b60201c565b610045673ba604152183e83760c01b6101a160201b60201c565b3373ffffffffffffffffffffffffffffffffffffffff1660808173ffffffffffffffffffffffffffffffffffffffff16815250506100936773ff26a5d848d30b60c01b6101a160201b60201c565b600080819055506100b467aaeb3e564037a8e760c01b6101a160201b60201c565b306040516100c1906101a4565b6100cb9190610201565b604051809103906000f0801580156100e7573d6000803e3d6000fd5b5073ffffffffffffffffffffffffffffffffffffffff1660a08173ffffffffffffffffffffffffffffffffffffffff168152505061013567b23fa937cc67ef2760c01b6101a160201b60201c565b30604051610142906101b2565b61014c9190610201565b604051809103906000f080158015610168573d6000803e3d6000fd5b5073ffffffffffffffffffffffffffffffffffffffff1660c08173ffffffffffffffffffffffffffffffffffffffff168152505061021c565b50565b617687806200994d83390190565b6113898062010fd483390190565b600073ffffffffffffffffffffffffffffffffffffffff82169050919050565b60006101eb826101c0565b9050919050565b6101fb816101e0565b82525050565b600060208201905061021660008301846101f2565b92915050565b60805160a05160c0516196f36200025a6000396000610f28015260008181610603015281816111e9015261124d01526000610de501526196f36000f3fe608060405234801561001057600080fd5b50600436106100b45760003560e01c80635eca4a70116100715780635eca4a70146101b557806373ad6c2d146101e55780639a1b2fb414610201578063bb6e2f861461021f578063bdcf1ae51461024f578063eb40f8181461026d576100b4565b80630d21bcd5146100b95780631a7c177e146100d757806338ffc194146101075780633b058753146101375780633ff7ca36146101675780634b8a72bf14610185575b600080fd5b6100c161029d565b6040516100ce9190611537565b60405180910390f35b6100f160048036038101906100ec9190611592565b610303565b6040516100fe9190611537565b60405180910390f35b610121600480360381019061011c91906115f5565b6103a8565b60405161012e9190611657565b60405180910390f35b610151600480360381019061014c9190611592565b610765565b60405161015e919061168d565b60405180910390f35b61016f6107f7565b60405161017c9190611537565b60405180910390f35b61019f600480360381019061019a9190611a5a565b610b31565b6040516101ac9190611657565b60405180910390f35b6101cf60048036038101906101ca9190611592565b610cd2565b6040516101dc919061168d565b60405180910390f35b6101ff60048036038101906101fa9190611592565b610da7565b005b610209610ee8565b6040516102169190611537565b60405180910390f35b61023960048036038101906102349190611b01565b610f4c565b604051610246919061168d565b60405180910390f35b6102576111a9565b6040516102649190611537565b60405180910390f35b610287600480360381019061028291906115f5565b61120d565b604051610294919061168d565b60405180910390f35b60006102b367331f2b97fc4ec11960c01b6112f2565b6102c767c2fdcef5c980dc4c60c01b6112f2565b6102db67d8244ddf13208d0360c01b6112f2565b600160009054906101000a900473ffffffffffffffffffffffffffffffffffffffff16905090565b60006103196735907781fb6a013760c01b6112f2565b61032d6714eef0ce5ab89a5160c01b6112f2565b610341674e5bd3086c338d7e60c01b6112f2565b600360008373ffffffffffffffffffffffffffffffffffffffff1673ffffffffffffffffffffffffffffffffffffffff16815260200190815260200160002060009054906101000a900473ffffffffffffffffffffffffffffffffffffffff169050919050565b60006103be67cdf0b3340e1a345e60c01b6112f2565b6103d2676f7e4fd85d8fd7c860c01b6112f2565b6103e667c2735700837dea8860c01b6112f2565b600160009054906101000a900473ffffffffffffffffffffffffffffffffffffffff1673ffffffffffffffffffffffffffffffffffffffff163373ffffffffffffffffffffffffffffffffffffffff16146104815761044f671a9a4d1327a13bdd60c01b6112f2565b6040517f386317a300000000000000000000000000000000000000000000000000000000815260040160405180910390fd5b61049567a60af5ff10d6d20960c01b6112f2565b6104a967c69857e1acd40dd360c01b6112f2565b6104bd67b941ec4a7411510760c01b6112f2565b6000600360008573ffffffffffffffffffffffffffffffffffffffff1673ffffffffffffffffffffffffffffffffffffffff16815260200190815260200160002060009054906101000a900473ffffffffffffffffffffffffffffffffffffffff16905061053567069bae281a0ff29d60c01b6112f2565b61054967ab3988e0cf6f389560c01b6112f2565b600073ffffffffffffffffffffffffffffffffffffffff168173ffffffffffffffffffffffffffffffffffffffff16036105c3576105916748e081559d6ac39d60c01b6112f2565b6040517f1cf5058700000000000000000000000000000000000000000000000000000000815260040160405180910390fd5b6105d7671d5bbd6c15266c0d60c01b6112f2565b6105eb6755f7ba8465ae258460c01b6112f2565b6105ff6746a771a35024a65160c01b6112f2565b60007f000000000000000000000000000000000000000000000000000000000000000073ffffffffffffffffffffffffffffffffffffffff166338ffc1948784876040518463ffffffff1660e01b815260040161065e93929190611b41565b6020604051808303816000875af115801561067d573d6000803e3d6000fd5b505050506040513d601f19601f820116820180604052508101906106a19190611b8d565b90506106b767b6988b4cae7be4a460c01b6112f2565b6106cb6702c57204e62bc3d560c01b6112f2565b838273ffffffffffffffffffffffffffffffffffffffff168773ffffffffffffffffffffffffffffffffffffffff167f7d6c807015644a13677b72fa64b4723e35fda24690206e70b5a90980a58e6e56846040516107299190611657565b60405180910390a461074567307ad680c3ee394a60c01b6112f2565b61075967fb812233034f958560c01b6112f2565b80925050509392505050565b600061077b678aab7ae9c9f116be60c01b6112f2565b61078f6782e94bb1dba33d0160c01b6112f2565b6107a367e79319e624f8655460c01b6112f2565b600260008373ffffffffffffffffffffffffffffffffffffffff1673ffffffffffffffffffffffffffffffffffffffff16815260200190815260200160002060009054906101000a900460ff169050919050565b600061080d67940ff277d95e0b1160c01b6112f2565b61082167cd540747d22cfe4060c01b6112f2565b610835678989b49f0d2a7c6460c01b6112f2565b600073ffffffffffffffffffffffffffffffffffffffff16600360003373ffffffffffffffffffffffffffffffffffffffff1673ffffffffffffffffffffffffffffffffffffffff16815260200190815260200160002060009054906101000a900473ffffffffffffffffffffffffffffffffffffffff1673ffffffffffffffffffffffffffffffffffffffff161461090e576108dc676e1d07897c3f082b60c01b6112f2565b6040517f3a81d6fc00000000000000000000000000000000000000000000000000000000815260040160405180910390fd5b6109226792c67e3d461f8d0860c01b6112f2565b61093667ceec350e8d16b25d60c01b6112f2565b61094a6725c2c644f6fccee560c01b6112f2565b6000610955336112f5565b905061096b67eba97415063508b060c01b6112f2565b6001600260008373ffffffffffffffffffffffffffffffffffffffff1673ffffffffffffffffffffffffffffffffffffffff16815260200190815260200160002060006101000a81548160ff0219169083151502179055506109d76761c99ea0ff29ec0660c01b6112f2565b80600360003373ffffffffffffffffffffffffffffffffffffffff1673ffffffffffffffffffffffffffffffffffffffff16815260200190815260200160002060006101000a81548173ffffffffffffffffffffffffffffffffffffffff021916908373ffffffffffffffffffffffffffffffffffffffff160217905550610a69670e52eff007a567be60c01b6112f2565b600080815480929190610a7b90611be9565b9190505550610a946772907eef17ef30c360c01b6112f2565b610aa867e0188c7067779f2960c01b6112f2565b8073ffffffffffffffffffffffffffffffffffffffff163373ffffffffffffffffffffffffffffffffffffffff167f93c0f4df093f44bcf0049a1ef099ac09ae66edf71248dab0d2bbb5f0764bcaf160405160405180910390a3610b1667d00fbc0275c8974360c01b6112f2565b610b2a67a045512082b6e22860c01b6112f2565b8091505090565b6000610b4767a9c7b3fb8b5acf4160c01b6112f2565b610b5b670bbf8d8dd8a0bba260c01b6112f2565b610b6f67e97e061741762d2c60c01b6112f2565b6000610b79611370565b9050610b8f67cb5c5b136825186060c01b6112f2565b610ba3671963155dae59604f60c01b6112f2565b60008173ffffffffffffffffffffffffffffffffffffffff16634b8a72bf8787876040518463ffffffff1660e01b8152600401610be293929190611eee565b6020604051808303816000875af1158015610c01573d6000803e3d6000fd5b505050506040513d601f19601f82011682018060405250810190610c259190611b8d565b9050610c3b6766e300218bb6496860c01b6112f2565b610c4f67151686b68f2cd8ea60c01b6112f2565b803373ffffffffffffffffffffffffffffffffffffffff167fc22959efb680c6d8228e97bab1f5c623b45568d2b75cc1b828362fe1eea2df6588604051610c969190611f3a565b60405180910390a3610cb267416268afc27accc060c01b6112f2565b610cc667ba82ae8d6e4fc15a60c01b6112f2565b80925050509392505050565b6000610ce8673ebc381026bf37ef60c01b6112f2565b610cfc676fd62a8d29e8116d60c01b6112f2565b610d10679f15135900ef864260c01b6112f2565b600073ffffffffffffffffffffffffffffffffffffffff16600360008473ffffffffffffffffffffffffffffffffffffffff1673ffffffffffffffffffffffffffffffffffffffff16815260200190815260200160002060009054906101000a900473ffffffffffffffffffffffffffffffffffffffff1673ffffffffffffffffffffffffffffffffffffffff1614159050919050565b610dbb67225185dea6f5a38260c01b6112f2565b610dcf6754d2da1e9683b49260c01b6112f2565b610de36732d107bfd609bc0160c01b6112f2565b7f000000000000000000000000000000000000000000000000000000000000000073ffffffffffffffffffffffffffffffffffffffff163373ffffffffffffffffffffffffffffffffffffffff1614610e7c57610e4a676215bc4aa309c9b260c01b6112f2565b6040517fbfcafd3700000000000000000000000000000000000000000000000000000000815260040160405180910390fd5b610e90676a8668cbce25e49360c01b6112f2565b610ea467ac33f43d76dd077460c01b6112f2565b80600160006101000a81548173ffffffffffffffffffffffffffffffffffffffff021916908373ffffffffffffffffffffffffffffffffffffffff16021790555050565b6000610efe671bb0247356e7226060c01b6112f2565b610f1267f4e74a638e01f07e60c01b6112f2565b610f2667bf5850d2cf8c33c760c01b6112f2565b7f0000000000000000000000000000000000000000000000000000000000000000905090565b6000610f62670d3cc080b2d37e6c60c01b6112f2565b610f766716f1ea45badead9860c01b6112f2565b610f8a67a40cf183dfe1bfce60c01b6112f2565b600260008473ffffffffffffffffffffffffffffffffffffffff1673ffffffffffffffffffffffffffffffffffffffff16815260200190815260200160002060009054906101000a900460ff1661102157610fef67ae7f5dc591a7b42360c01b6112f2565b6040517f2980050400000000000000000000000000000000000000000000000000000000815260040160405180910390fd5b61103567b82e1e27822a1cf960c01b6112f2565b61104967574e51de1b85ef9a60c01b6112f2565b61105d67685dead1b6a1815660c01b6112f2565b60008390506110766734b26263caa5bf6c60c01b6112f2565b61108a67498e1caf1ca1ce8c60c01b6112f2565b8073ffffffffffffffffffffffffffffffffffffffff16637a4440726040518163ffffffff1660e01b8152600401602060405180830381865afa1580156110d5573d6000803e3d6000fd5b505050506040513d601f19601f820116820180604052508101906110f99190611f71565b73ffffffffffffffffffffffffffffffffffffffff168173ffffffffffffffffffffffffffffffffffffffff16636352211e856040518263ffffffff1660e01b81526004016111489190611657565b602060405180830381865afa158015611165573d6000803e3d6000fd5b505050506040513d601f19601f820116820180604052508101906111899190611f71565b73ffffffffffffffffffffffffffffffffffffffff161491505092915050565b60006111bf679a8f5d21db1bd18060c01b6112f2565b6111d367cc342b605cd16cba60c01b6112f2565b6111e767bd3607fca0e281e160c01b6112f2565b7f0000000000000000000000000000000000000000000000000000000000000000905090565b60006112236740934c76285ea90060c01b6112f2565b6112376706ee622a5cddc59a60c01b6112f2565b61124b67f9255477a615f94960c01b6112f2565b7f000000000000000000000000000000000000000000000000000000000000000073ffffffffffffffffffffffffffffffffffffffff1663eb40f8188585856040518463ffffffff1660e01b81526004016112a893929190611b41565b602060405180830381865afa1580156112c5573d6000803e3d6000fd5b505050506040513d601f19601f820116820180604052508101906112e99190611fca565b90509392505050565b50565b600061130b67df6cfd4d0b64346760c01b6112f2565b61131f6794a06c74fad4c22160c01b6112f2565b61133367cc9a87dd8f0c4ac760c01b6112f2565b3082604051611341906114e9565b61134c929190611ff7565b604051809103906000f080158015611368573d6000803e3d6000fd5b509050919050565b6000611386675c07a35d2b609f1460c01b6112f2565b61139a673745cbde31a2961760c01b6112f2565b6113ae673528fe488b41a33b60c01b6112f2565b6000600360003373ffffffffffffffffffffffffffffffffffffffff1673ffffffffffffffffffffffffffffffffffffffff16815260200190815260200160002060009054906101000a900473ffffffffffffffffffffffffffffffffffffffff16905061142667564d91382024355560c01b6112f2565b61143a6796fb93a6a637216d60c01b6112f2565b600073ffffffffffffffffffffffffffffffffffffffff168173ffffffffffffffffffffffffffffffffffffffff16036114a5576114826701ec07fb87bac64460c01b6112f2565b611496677e197b4d9c42189060c01b6112f2565b61149e6107f7565b90506114ba565b6114b967321b620624b6e08360c01b6112f2565b5b6114ce679066ccc2c1b1bc6e60c01b6112f2565b6114e267bd99a7698761e85360c01b6112f2565b8091505090565b61769d8061202183390190565b600073ffffffffffffffffffffffffffffffffffffffff82169050919050565b6000611521826114f6565b9050919050565b61153181611516565b82525050565b600060208201905061154c6000830184611528565b92915050565b6000604051905090565b600080fd5b600080fd5b61156f81611516565b811461157a57600080fd5b50565b60008135905061158c81611566565b92915050565b6000602082840312156115a8576115a761155c565b5b60006115b68482850161157d565b91505092915050565b6000819050919050565b6115d2816115bf565b81146115dd57600080fd5b50565b6000813590506115ef816115c9565b92915050565b60008060006060848603121561160e5761160d61155c565b5b600061161c8682870161157d565b935050602061162d8682870161157d565b925050604061163e868287016115e0565b9150509250925092565b611651816115bf565b82525050565b600060208201905061166c6000830184611648565b92915050565b60008115159050919050565b61168781611672565b82525050565b60006020820190506116a2600083018461167e565b92915050565b600080fd5b600080fd5b6000601f19601f8301169050919050565b7f4e487b7100000000000000000000000000000000000000000000000000000000600052604160045260246000fd5b6116fb826116b2565b810181811067ffffffffffffffff8211171561171a576117196116c3565b5b80604052505050565b600061172d611552565b905061173982826116f2565b919050565b600067ffffffffffffffff821115611759576117586116c3565b5b611762826116b2565b9050602081019050919050565b82818337600083830152505050565b600061179161178c8461173e565b611723565b9050828152602081018484840111156117ad576117ac6116ad565b5b6117b884828561176f565b509392505050565b600082601f8301126117d5576117d46116a8565b5b81356117e584826020860161177e565b91505092915050565b600067ffffffffffffffff821115611809576118086116c3565b5b602082029050602081019050919050565b600080fd5b600061183261182d846117ee565b611723565b905080838252602082019050602084028301858111156118555761185461181a565b5b835b8181101561187e578061186a888261157d565b845260208401935050602081019050611857565b5050509392505050565b600082601f83011261189d5761189c6116a8565b5b81356118ad84826020860161181f565b91505092915050565b600067ffffffffffffffff8211156118d1576118d06116c3565b5b602082029050602081019050919050565b600067ffffffffffffffff8211156118fd576118fc6116c3565b5b602082029050602081019050919050565b600061192161191c846118e2565b611723565b905080838252602082019050602084028301858111156119445761194361181a565b5b835b8181101561196d578061195988826115e0565b845260208401935050602081019050611946565b5050509392505050565b600082601f83011261198c5761198b6116a8565b5b813561199c84826020860161190e565b91505092915050565b60006119b86119b3846118b6565b611723565b905080838252602082019050602084028301858111156119db576119da61181a565b5b835b81811015611a2257803567ffffffffffffffff811115611a00576119ff6116a8565b5b808601611a0d8982611977565b855260208501945050506020810190506119dd565b5050509392505050565b600082601f830112611a4157611a406116a8565b5b8135611a518482602086016119a5565b91505092915050565b600080600060608486031215611a7357611a7261155c565b5b600084013567ffffffffffffffff811115611a9157611a90611561565b5b611a9d868287016117c0565b935050602084013567ffffffffffffffff811115611abe57611abd611561565b5b611aca86828701611888565b925050604084013567ffffffffffffffff811115611aeb57611aea611561565b5b611af786828701611a2c565b9150509250925092565b60008060408385031215611b1857611b1761155c565b5b6000611b268582860161157d565b9250506020611b37858286016115e0565b9150509250929050565b6000606082019050611b566000830186611528565b611b636020830185611528565b611b706040830184611648565b949350505050565b600081519050611b87816115c9565b92915050565b600060208284031215611ba357611ba261155c565b5b6000611bb184828501611b78565b91505092915050565b7f4e487b7100000000000000000000000000000000000000000000000000000000600052601160045260246000fd5b6000611bf4826115bf565b91507fffffffffffffffffffffffffffffffffffffffffffffffffffffffffffffffff8203611c2657611c25611bba565b5b600182019050919050565b600081519050919050565b600082825260208201905092915050565b60005b83811015611c6b578082015181840152602081019050611c50565b60008484015250505050565b6000611c8282611c31565b611c8c8185611c3c565b9350611c9c818560208601611c4d565b611ca5816116b2565b840191505092915050565b600081519050919050565b600082825260208201905092915050565b6000819050602082019050919050565b611ce581611516565b82525050565b6000611cf78383611cdc565b60208301905092915050565b6000602082019050919050565b6000611d1b82611cb0565b611d258185611cbb565b9350611d3083611ccc565b8060005b83811015611d61578151611d488882611ceb565b9750611d5383611d03565b925050600181019050611d34565b5085935050505092915050565b600081519050919050565b600082825260208201905092915050565b6000819050602082019050919050565b600081519050919050565b600082825260208201905092915050565b6000819050602082019050919050565b611dcf816115bf565b82525050565b6000611de18383611dc6565b60208301905092915050565b6000602082019050919050565b6000611e0582611d9a565b611e0f8185611da5565b9350611e1a83611db6565b8060005b83811015611e4b578151611e328882611dd5565b9750611e3d83611ded565b925050600181019050611e1e565b5085935050505092915050565b6000611e648383611dfa565b905092915050565b6000602082019050919050565b6000611e8482611d6e565b611e8e8185611d79565b935083602082028501611ea085611d8a565b8060005b85811015611edc5784840389528151611ebd8582611e58565b9450611ec883611e6c565b925060208a01995050600181019050611ea4565b50829750879550505050505092915050565b60006060820190508181036000830152611f088186611c77565b90508181036020830152611f1c8185611d10565b90508181036040830152611f308184611e79565b9050949350505050565b60006020820190508181036000830152611f548184611c77565b905092915050565b600081519050611f6b81611566565b92915050565b600060208284031215611f8757611f8661155c565b5b6000611f9584828501611f5c565b91505092915050565b611fa781611672565b8114611fb257600080fd5b50565b600081519050611fc481611f9e565b92915050565b600060208284031215611fe057611fdf61155c565b5b6000611fee84828501611fb5565b91505092915050565b600060408201905061200c6000830185611528565b6120196020830184611528565b939250505056fe60c06040526000600860006101000a81548173ffffffffffffffffffffffffffffffffffffffff021916908373ffffffffffffffffffffffffffffffffffffffff160217905550620f424060095534801561005957600080fd5b5060405161769d38038061769d833981810160405281019061007b91906102ca565b6040518060400160405280600881526020017f536f6674776172650000000000000000000000000000000000000000000000008152506040518060400160405280600381526020017f534f460000000000000000000000000000000000000000000000000000000000815250818181600090816100f8919061055a565b508060019081610108919061055a565b50505061012567c840a870701d7d7e60c01b61026160201b60201c565b61013f67823150fe3b41ad9d60c01b61026160201b60201c565b33600860006101000a81548173ffffffffffffffffffffffffffffffffffffffff021916908373ffffffffffffffffffffffffffffffffffffffff160217905550505061019c671785e5495be5212760c01b61026460201b60201c565b6101b66746a293c97039600460c01b61026460201b60201c565b8173ffffffffffffffffffffffffffffffffffffffff1660808173ffffffffffffffffffffffffffffffffffffffff16815250506102046719f6da446f9b3f9660c01b61026460201b60201c565b8073ffffffffffffffffffffffffffffffffffffffff1660a08173ffffffffffffffffffffffffffffffffffffffff1681525050610252670f816bdd53fbe71560c01b61026460201b60201c565b6000600a81905550505061062c565b50565b50565b600080fd5b600073ffffffffffffffffffffffffffffffffffffffff82169050919050565b60006102978261026c565b9050919050565b6102a78161028c565b81146102b257600080fd5b50565b6000815190506102c48161029e565b92915050565b600080604083850312156102e1576102e0610267565b5b60006102ef858286016102b5565b9250506020610300858286016102b5565b9150509250929050565b600081519050919050565b7f4e487b7100000000000000000000000000000000000000000000000000000000600052604160045260246000fd5b7f4e487b7100000000000000000000000000000000000000000000000000000000600052602260045260246000fd5b6000600282049050600182168061038b57607f821691505b60208210810361039e5761039d610344565b5b50919050565b60008190508160005260206000209050919050565b60006020601f8301049050919050565b600082821b905092915050565b6000600883026104067fffffffffffffffffffffffffffffffffffffffffffffffffffffffffffffffff826103c9565b61041086836103c9565b95508019841693508086168417925050509392505050565b6000819050919050565b6000819050919050565b600061045761045261044d84610428565b610432565b610428565b9050919050565b6000819050919050565b6104718361043c565b61048561047d8261045e565b8484546103d6565b825550505050565b600090565b61049a61048d565b6104a5818484610468565b505050565b5b818110156104c9576104be600082610492565b6001810190506104ab565b5050565b601f82111561050e576104df816103a4565b6104e8846103b9565b810160208510156104f7578190505b61050b610503856103b9565b8301826104aa565b50505b505050565b600082821c905092915050565b600061053160001984600802610513565b1980831691505092915050565b600061054a8383610520565b9150826002028217905092915050565b6105638261030a565b67ffffffffffffffff81111561057c5761057b610315565b5b6105868254610373565b6105918282856104cd565b600060209050601f8311600181146105c457600084156105b2578287015190505b6105bc858261053e565b865550610624565b601f1984166105d2866103a4565b60005b828110156105fa578489015182556001820191506020850194506020810190506105d5565b868310156106175784890151610613601f891682610520565b8355505b6001600288020188555050505b505050505050565b60805160a05161701b61068260003960008181610ba401528181610ca201528181610df401528181610e4a01528181611cf20152818161308201526131a1015260008181611d5c0152612d77015261701b6000f3fe608060405234801561001057600080fd5b50600436106101a95760003560e01c806364f9b0e6116100f9578063a22cb46511610097578063c87b56dd11610071578063c87b56dd14610508578063d30d968d14610538578063e985e9c514610568578063edda5e7314610598576101a9565b8063a22cb4651461049f578063a35391ac146104bb578063b88d4fde146104ec576101a9565b8063853b592f116100d3578063853b592f14610415578063893d20e8146104335780638e489d0c1461045157806395d89b4114610481576101a9565b806364f9b0e61461039657806370a08231146103c75780637a444072146103f7576101a9565b806342842e0e1161016657806355c104401161014057806355c10440146102fd578063615f45a814610319578063616c55351461034a5780636352211e14610366576101a9565b806342842e0e146102955780634b8a72bf146102b15780634e5786bf146102e1576101a9565b806301ffc9a7146101ae57806306fdde03146101de578063081812fc146101fc578063095ea7b31461022c57806323b872dd14610248578063426e750114610264575b600080fd5b6101c860048036038101906101c391906153b2565b6105b4565b6040516101d591906153fa565b60405180910390f35b6101e6610742565b6040516101f391906154a5565b60405180910390f35b610216600480360381019061021191906154fd565b6107d4565b604051610223919061556b565b60405180910390f35b610246600480360381019061024191906155b2565b6107f0565b005b610262600480360381019061025d91906155f2565b610806565b005b61027e600480360381019061027991906154fd565b610908565b60405161028c929190615883565b60405180910390f35b6102af60048036038101906102aa91906155f2565b610b44565b005b6102cb60048036038101906102c69190615c5b565b610b64565b6040516102d89190615d11565b60405180910390f35b6102fb60048036038101906102f69190615d2c565b610f0a565b005b61031760048036038101906103129190615d9b565b6110b3565b005b610333600480360381019061032e91906154fd565b611511565b604051610341929190615e0a565b60405180910390f35b610364600480360381019061035f9190615e3a565b6115dd565b005b610380600480360381019061037b91906154fd565b611808565b60405161038d919061556b565b60405180910390f35b6103b060048036038101906103ab91906155b2565b61181a565b6040516103be929190615883565b60405180910390f35b6103e160048036038101906103dc9190615ec5565b611bf8565b6040516103ee9190615d11565b60405180910390f35b6103ff611cb2565b60405161040c919061556b565b60405180910390f35b61041d611d16565b60405161042a9190615d11565b60405180910390f35b61043b611d1c565b604051610448919061556b565b60405180910390f35b61046b600480360381019061046691906154fd565b611d80565b60405161047891906154a5565b60405180910390f35b610489611e5d565b60405161049691906154a5565b60405180910390f35b6104b960048036038101906104b49190615f1e565b611eef565b005b6104d560048036038101906104d091906155b2565b611f05565b6040516104e3929190615883565b60405180910390f35b61050660048036038101906105019190615fff565b6122e3565b005b610522600480360381019061051d91906154fd565b612308565b60405161052f91906154a5565b60405180910390f35b610552600480360381019061054d91906155b2565b612356565b60405161055f9190615d11565b60405180910390f35b610582600480360381019061057d9190616082565b61272d565b60405161058f91906153fa565b60405180910390f35b6105b260048036038101906105ad91906160c2565b6127c1565b005b60006105ca672c6691fc303c777460c01b6128af565b6105de676e3c9fc6d79090e060c01b6128af565b6105f26764d1d70437a1652860c01b6128af565b7f74342b55000000000000000000000000000000000000000000000000000000007bffffffffffffffffffffffffffffffffffffffffffffffffffffffff1916827bffffffffffffffffffffffffffffffffffffffffffffffffffffffff191614801561066f575061066e67fdc747d6098a322960c01b6128b2565b5b8061070f57507f40997a20000000000000000000000000000000000000000000000000000000007bffffffffffffffffffffffffffffffffffffffffffffffffffffffff1916827bffffffffffffffffffffffffffffffffffffffffffffffffffffffff19161480156106f257506106f167d8fbbb74a60b8d6760c01b6128b2565b5b801561070e575061070d673cbc8b5003de07f060c01b6128b2565b5b5b8061073b575061071e826128bd565b801561073a575061073967581d91d92400a7ff60c01b6128b2565b5b5b9050919050565b60606000805461075190616190565b80601f016020809104026020016040519081016040528092919081815260200182805461077d90616190565b80156107ca5780601f1061079f576101008083540402835291602001916107ca565b820191906000526020600020905b8154815290600101906020018083116107ad57829003601f168201915b5050505050905090565b60006107df8261291e565b506107e9826129a6565b9050919050565b61080282826107fd6129e3565b6129eb565b5050565b600073ffffffffffffffffffffffffffffffffffffffff168273ffffffffffffffffffffffffffffffffffffffff16036108785760006040517f64a0ae9200000000000000000000000000000000000000000000000000000000815260040161086f919061556b565b60405180910390fd5b600061088c83836108876129e3565b6129fd565b90508373ffffffffffffffffffffffffffffffffffffffff168173ffffffffffffffffffffffffffffffffffffffff1614610902578382826040517f64283d7b0000000000000000000000000000000000000000000000000000000081526004016108f9939291906161c1565b60405180910390fd5b50505050565b60608061091f67d8e58d0938f51b5e60c01b612c17565b61093367fb3a632c392e5b4a60c01b612c17565b610947678f7ff3b62938611a60c01b612c17565b61095083612c1a565b61099a57610968673938de2b27e8ecdb60c01b612c17565b6040517ff3b7772600000000000000000000000000000000000000000000000000000000815260040160405180910390fd5b6109ae67085b6fa2500f6c5360c01b612c17565b6109c2670f73cb27f9bd72ad60c01b612c17565b6109d667e0075842d6d9753060c01b612c17565b600b60006001856109e79190616227565b8152602001908152602001600020600201600b6000600186610a099190616227565b815260200190815260200160002060030181805480602002602001604051908101604052809291908181526020018280548015610a9b57602002820191906000526020600020905b8160009054906101000a900473ffffffffffffffffffffffffffffffffffffffff1673ffffffffffffffffffffffffffffffffffffffff1681526020019060010190808311610a51575b5050505050915080805480602002602001604051908101604052809291908181526020016000905b82821015610b3557838290600052602060002001805480602002602001604051908101604052809291908181526020018280548015610b2157602002820191906000526020600020905b815481526020019060010190808311610b0d575b505050505081526020019060010190610ac3565b50505050905091509150915091565b610b5f838383604051806020016040528060008152506122e3565b505050565b6000610b7a676dc68fe6dc9ef31b60c01b612c17565b610b8e67384d8fb842b3673b60c01b612c17565b610ba26779a4df70dab69d5560c01b612c17565b7f000000000000000000000000000000000000000000000000000000000000000073ffffffffffffffffffffffffffffffffffffffff163373ffffffffffffffffffffffffffffffffffffffff1614610c3b57610c0967527db8fca90a805a60c01b612c17565b6040517fd264e0ae00000000000000000000000000000000000000000000000000000000815260040160405180910390fd5b610c4f67af2a87f41f37855160c01b612c17565b610c63671e2d24cdef447cc360c01b612c17565b610c776752759db3457ac22c60c01b612c17565b610c818383612c98565b610c9567eb47c841b457778160c01b612c17565b60405180608001604052807f000000000000000000000000000000000000000000000000000000000000000073ffffffffffffffffffffffffffffffffffffffff16815260200185815260200184815260200183815250600b6000600a54815260200190815260200160002060008201518160000160006101000a81548173ffffffffffffffffffffffffffffffffffffffff021916908373ffffffffffffffffffffffffffffffffffffffff1602179055506020820151816001019081610d5d9190616407565b506040820151816002019080519060200190610d7a9291906151ad565b506060820151816003019080519060200190610d97929190615237565b50905050610daf67478a6a3363b5185060c01b612c17565b600a6000815480929190610dc2906164d9565b9190505550610ddb67f5cd81d031c535e560c01b612c17565b610def67549a802337e483ad60c01b612c17565b610e1d7f0000000000000000000000000000000000000000000000000000000000000000600a5485856127c1565b610e3167410b2ef6f2b369c760c01b612c17565b610e45679d43e96378ac6b9b60c01b612c17565b610e727f0000000000000000000000000000000000000000000000000000000000000000600a5486610f0a565b610e86671e5211679ea66a5760c01b612c17565b610e9a6745e0a6a73b5974d960c01b612c17565b600a547fb3ac909e5e8f40ea473e9a3c1ae4e23caf0df5e322986ebf81ee5bf1b7029bea8484604051610ece929190615883565b60405180910390a2610eea677277e3a01e97104260c01b612c17565b610efe67d7ea494e544bc8db60c01b612c17565b600a5490509392505050565b610f1e675460d426fe03f53160c01b6128af565b610f32672369de8ba82750ae60c01b6128af565b610f4667c57cd77cbcf82b0860c01b6128af565b610f5a67d77ee60c6960a26b60c01b6128af565b610f6382612c1a565b610fa2576040517f08c379a0000000000000000000000000000000000000000000000000000000008152600401610f999061656d565b60405180910390fd5b610fb6674c6d96aa1ebd69de60c01b6128af565b610fca679b09636edbce122260c01b6128af565b610fde67166969bd30f8c6a460c01b6128af565b610ff267c24a90b361552e8c60c01b6128af565b8273ffffffffffffffffffffffffffffffffffffffff1661101283611808565b73ffffffffffffffffffffffffffffffffffffffff1614611068576040517f08c379a000000000000000000000000000000000000000000000000000000000815260040161105f906165ff565b60405180910390fd5b61107c67e6da66c33ef13c0b60c01b6128af565b61109067c2d40873c743479c60c01b6128af565b6110a467ec6a8f1db842c50760c01b6128af565b6110ae82826132f3565b505050565b6110c76744d522bfc4dce1fd60c01b6128af565b6110db67cd07cbe570d009d060c01b6128af565b6110ef676b5452cc7717c5f860c01b6128af565b60005b815181101561150b5761110f67dee8783c88618df560c01b6128af565b611123672d8417a79d7b157360c01b6128af565b60006007600084848151811061113c5761113b61661f565b5b6020026020010151815260200190815260200160002090506111686703bc2de35def15fd60c01b6128af565b61117c6754eb828e1802581360c01b6128af565b60008160010160008773ffffffffffffffffffffffffffffffffffffffff1673ffffffffffffffffffffffffffffffffffffffff168152602001908152602001600020805490500361126e576111dc679f559926d843336460c01b6128af565b6111f0679f9036cace47dac060c01b6128af565b61120467b9a37cc97320d6fd60c01b6128af565b80600301859080600181540180825580915050600190039060005260206000200160009091909190916101000a81548173ffffffffffffffffffffffffffffffffffffffff021916908373ffffffffffffffffffffffffffffffffffffffff160217905550611283565b61128267e7fed0b1eee5515560c01b6128af565b5b611297675026784be95772bf60c01b6128af565b6112ab6734f274dde38c367060c01b6128af565b6112bf6712c0c0b8bc82604760c01b6128af565b3073ffffffffffffffffffffffffffffffffffffffff168573ffffffffffffffffffffffffffffffffffffffff160361132d576040517f08c379a0000000000000000000000000000000000000000000000000000000008152600401611324906166c0565b60405180910390fd5b61134167d4d16ef04de2a37360c01b6128af565b6113556741a5f0e4fa1261a560c01b6128af565b6113696787fe8de97a936ad760c01b6128af565b428160040154106113eb5761138867761ecbdd1b085eb660c01b6128af565b61139c67dae5f892bd6cfb7060c01b6128af565b6113b0672fa4eaf35cccf81660c01b6128af565b6040517f08c379a00000000000000000000000000000000000000000000000000000000081526004016113e290616752565b60405180910390fd5b6113ff67ac14116296ace09b60c01b6128af565b61141367a0faf5961f12d78460c01b6128af565b611427670b95427db614c82d60c01b6128af565b8060010160008673ffffffffffffffffffffffffffffffffffffffff1673ffffffffffffffffffffffffffffffffffffffff1681526020019081526020016000208490806001815401808255809150506001900390600052602060002001600090919091909150556114a367d3fd0ed1c1ab9dc060c01b6128af565b6114b76776c3a9e598f7f5a460c01b6128af565b6114fd8383815181106114cd576114cc61661f565b5b60200260200101516114f88585815181106114eb576114ea61661f565b5b6020026020010151611808565b61334f565b5080806001019150506110f2565b50505050565b600b6020528060005260406000206000915090508060000160009054906101000a900473ffffffffffffffffffffffffffffffffffffffff169080600101805461155a90616190565b80601f016020809104026020016040519081016040528092919081815260200182805461158690616190565b80156115d35780601f106115a8576101008083540402835291602001916115d3565b820191906000526020600020905b8154815290600101906020018083116115b657829003601f168201915b5050505050905082565b6115f167540a1f49f495207360c01b6128af565b611605677a41a37a50ed1ab960c01b6128af565b61161967a9d0219c1451235a60c01b6128af565b61162d679c399e9905d457ba60c01b6128af565b8051825114611671576040517f08c379a0000000000000000000000000000000000000000000000000000000008152600401611668906167e4565b60405180910390fd5b6116856799f52b12bb4c812a60c01b6128af565b61169967d361ee80edb3b37660c01b6128af565b6116ad6769ac35d2a3c4e1c660c01b6128af565b60005b815181101561179c576116cd679545a5b343d0855f60c01b6128af565b6116e1674a7e5911a5acc5ed60c01b6128af565b60008282815181106116f6576116f561661f565b5b6020026020010151510361177b576117186768e12075e8729c1b60c01b6128af565b61172c6746eb90669f0cec0e60c01b6128af565b611740677a571f63fca5229460c01b6128af565b6040517f08c379a000000000000000000000000000000000000000000000000000000000815260040161177290616876565b60405180910390fd5b61178f673f1d7d9e487855c760c01b6128af565b80806001019150506116b0565b506117b1673d882426684f689c60c01b6128af565b6117c567e44dddacb820741860c01b6128af565b6117d082848361345c565b6117e4678bfe7a8981cd09ff60c01b6128af565b6117f867dda4df4d0431397760c01b6128af565b611803828483613747565b505050565b60006118138261291e565b9050919050565b606080611831672a8057187da5cf8260c01b6128af565b611845679add4aeda7003fe160c01b6128af565b61185967c6660e119135058f60c01b6128af565b606061186f67b3a4a8259077ba9860c01b6128af565b611883672430bfeb8b97136260c01b6128af565b606061189967bd3d68142fe6281b60c01b6128af565b6118ad67174391bbb45b39a760c01b6128af565b3073ffffffffffffffffffffffffffffffffffffffff168673ffffffffffffffffffffffffffffffffffffffff16036119b8576118f4679e1e839d46291d9b60c01b6128af565b6119086764ca6838e432570260c01b6128af565b61191c67ab0285a8fec84ec460c01b6128af565b6119306741c6b1f0e1bcabc860c01b6128af565b61193985612c1a565b611978576040517f08c379a000000000000000000000000000000000000000000000000000000000815260040161196f9061656d565b60405180910390fd5b61198c679ca3fa73c943ed2560c01b6128af565b6119a0679fbae1ec2cabc93960c01b6128af565b6119ab856000613f49565b8092508193505050611bc1565b6119cc677b90ee9dee2b0dd260c01b6128af565b6119e067e2822b8f3364110c60c01b6128af565b6119f46718addc167f8b300360c01b6128af565b6000869050611a0d673af9373257c4372f60c01b6128af565b611a2167af82304f2637001e60c01b6128af565b611a3567cb839d786b652eee60c01b6128af565b8073ffffffffffffffffffffffffffffffffffffffff166301ffc9a77f40997a20000000000000000000000000000000000000000000000000000000006040518263ffffffff1660e01b8152600401611a8e91906168a5565b602060405180830381865afa158015611aab573d6000803e3d6000fd5b505050506040513d601f19601f82011682018060405250810190611acf91906168d5565b611b0e576040517f08c379a0000000000000000000000000000000000000000000000000000000008152600401611b0590616974565b60405180910390fd5b611b22676d207c4bfc3ed37060c01b6128af565b611b366760547426a1aa4e5e60c01b6128af565b8073ffffffffffffffffffffffffffffffffffffffff166364f9b0e688886040518363ffffffff1660e01b8152600401611b71929190616994565b600060405180830381865afa158015611b8e573d6000803e3d6000fd5b505050506040513d6000823e3d601f19601f82011682018060405250810190611bb79190616bca565b8093508194505050505b611bd567a716787646ac1d3f60c01b6128af565b611be9675e3e396560457aec60c01b6128af565b81819350935050509250929050565b60008073ffffffffffffffffffffffffffffffffffffffff168273ffffffffffffffffffffffffffffffffffffffff1603611c6b5760006040517f89c62b64000000000000000000000000000000000000000000000000000000008152600401611c62919061556b565b60405180910390fd5b600360008373ffffffffffffffffffffffffffffffffffffffff1673ffffffffffffffffffffffffffffffffffffffff168152602001908152602001600020549050919050565b6000611cc86708de1521711f7aca60c01b612c17565b611cdc6736efe4aebb53d31560c01b612c17565b611cf067f10bb1be852d7cb060c01b612c17565b7f0000000000000000000000000000000000000000000000000000000000000000905090565b600a5481565b6000611d32674ebaf3c3616117a660c01b612c17565b611d4667e4787bbabb14863b60c01b612c17565b611d5a67bc979307299ed0bf60c01b612c17565b7f0000000000000000000000000000000000000000000000000000000000000000905090565b6060611d96675e8733d5aa071ed260c01b612c17565b611daa67acb9a1a8392f4c4e60c01b612c17565b611dbe6733fd7973e6f10c1160c01b612c17565b611dc782612c1a565b611e1157611ddf672fe0f7f5c10920f160c01b612c17565b6040517ff3b7772600000000000000000000000000000000000000000000000000000000815260040160405180910390fd5b611e2567e44c8241752ee36160c01b612c17565b611e39676d10003abbae2e6460c01b612c17565b611e4d67220ed5855cf3897a60c01b612c17565b611e5682612308565b9050919050565b606060018054611e6c90616190565b80601f0160208091040260200160405190810160405280929190818152602001828054611e9890616190565b8015611ee55780601f10611eba57610100808354040283529160200191611ee5565b820191906000526020600020905b815481529060010190602001808311611ec857829003601f168201915b5050505050905090565b611f01611efa6129e3565b83836144cb565b5050565b606080611f1c67d86d32e20293ebb160c01b6128af565b611f30670a586fffcbf4c6f760c01b6128af565b611f4467f645f467f738065560c01b6128af565b6060611f5a678b1676a574efa5a960c01b6128af565b611f6e67d949a6b568906fc160c01b6128af565b6060611f84677fcebe001c6a9be160c01b6128af565b611f9867c22d6f017b655ce360c01b6128af565b3073ffffffffffffffffffffffffffffffffffffffff168673ffffffffffffffffffffffffffffffffffffffff16036120a357611fdf67a0ea19dce62cac5560c01b6128af565b611ff3677e5afd651f520a6660c01b6128af565b612007676b5f420ffff6827660c01b6128af565b61201b673349e809553ef15c60c01b6128af565b61202485612c1a565b612063576040517f08c379a000000000000000000000000000000000000000000000000000000000815260040161205a9061656d565b60405180910390fd5b6120776749eccfc133eb6c5660c01b6128af565b61208b6710d325ca5b6fb94d60c01b6128af565b612096856001613f49565b80925081935050506122ac565b6120b7674c3d438bfd38ee0e60c01b6128af565b6120cb67877f097faf13e03060c01b6128af565b6120df67ae8d316ce031b54f60c01b6128af565b60008690506120f8679bfddd83cca26e5660c01b6128af565b61210c6730904ec10040453060c01b6128af565b612120677c2d222a48483e7e60c01b6128af565b8073ffffffffffffffffffffffffffffffffffffffff166301ffc9a77f40997a20000000000000000000000000000000000000000000000000000000006040518263ffffffff1660e01b815260040161217991906168a5565b602060405180830381865afa158015612196573d6000803e3d6000fd5b505050506040513d601f19601f820116820180604052508101906121ba91906168d5565b6121f9576040517f08c379a00000000000000000000000000000000000000000000000000000000081526004016121f090616974565b60405180910390fd5b61220d6722d6790ee4835cd960c01b6128af565b61222167991a0eb7a444ecba60c01b6128af565b8073ffffffffffffffffffffffffffffffffffffffff1663a35391ac88886040518363ffffffff1660e01b815260040161225c929190616994565b600060405180830381865afa158015612279573d6000803e3d6000fd5b505050506040513d6000823e3d601f19601f820116820180604052508101906122a29190616bca565b8093508194505050505b6122c067499cc878fa47decd60c01b6128af565b6122d467908473de3423b77f60c01b6128af565b81819350935050509250929050565b6122ee848484610806565b6123026122f96129e3565b8585858561463a565b50505050565b606061231e67219dff15491ec04860c01b6128af565b61233267fb03ce6e7d29487e60c01b6128af565b61234667c3ed6073bf9b7c8f60c01b6128af565b61234f826147eb565b9050919050565b600061236c67922a19d09fbeb1f060c01b6128af565b61238067b6089a468e74062e60c01b6128af565b612394670489b003a74db55260c01b6128af565b60006123aa673565147131b76fbd60c01b6128af565b6123be672847415d99b6576360c01b6128af565b3073ffffffffffffffffffffffffffffffffffffffff168473ffffffffffffffffffffffffffffffffffffffff16036124fd5761240567d967ca7a173dce7160c01b6128af565b6124196777f507db8991dd9660c01b6128af565b61242d67671e4031e8f1a71660c01b6128af565b61244167a442e2f69ea8e32360c01b6128af565b61244a83612c1a565b612489576040517f08c379a00000000000000000000000000000000000000000000000000000000081526004016124809061656d565b60405180910390fd5b61249d6773dd998ecc5fd80060c01b6128af565b6124b167d28be19dad1d4e7f60c01b6128af565b6124c56757cc17201b11ea0660c01b6128af565b60006007600085815260200190815260200160002090506124f06731d0ff825dbc1fcc60c01b6128af565b80600401549150506126fb565b61251167b402457233ff120260c01b6128af565b6125256798b3e8f4f484e8c160c01b6128af565b61253967da8c3905f1548e9960c01b6128af565b600084905061255267584e8a86ecdb28bb60c01b6128af565b61256667bc5b15fe5430a67460c01b6128af565b61257a67bbc49cc2a21cbe1560c01b6128af565b8073ffffffffffffffffffffffffffffffffffffffff166301ffc9a77f40997a20000000000000000000000000000000000000000000000000000000006040518263ffffffff1660e01b81526004016125d391906168a5565b602060405180830381865afa1580156125f0573d6000803e3d6000fd5b505050506040513d601f19601f8201168201806040525081019061261491906168d5565b612653576040517f08c379a000000000000000000000000000000000000000000000000000000000815260040161264a90616974565b60405180910390fd5b61266767ec6e3248fade815260c01b6128af565b61267b67406563109d49183b60c01b6128af565b8073ffffffffffffffffffffffffffffffffffffffff1663d30d968d86866040518363ffffffff1660e01b81526004016126b6929190616994565b602060405180830381865afa1580156126d3573d6000803e3d6000fd5b505050506040513d601f19601f820116820180604052508101906126f79190616c42565b9150505b61270f67bac7073e1bce58a060c01b6128af565b61272367ee374d7fafbcf9c760c01b6128af565b8091505092915050565b6000600560008473ffffffffffffffffffffffffffffffffffffffff1673ffffffffffffffffffffffffffffffffffffffff16815260200190815260200160002060008373ffffffffffffffffffffffffffffffffffffffff1673ffffffffffffffffffffffffffffffffffffffff16815260200190815260200160002060009054906101000a900460ff16905092915050565b6127d5675492b8c535dc75e060c01b6128af565b6127e967c5665a1e311030ac60c01b6128af565b6127fd67e9f7d1de8c0500a260c01b6128af565b61280784846148fe565b61281b6703fd6745a2b1e4a960c01b6128af565b61282f6791ae5ffffe978b5260c01b6128af565b600081511415801561284357506000825114155b156128945761285c67197bd7e8bc0b52ed60c01b6128af565b61287067724e9ef09b32a50860c01b6128af565b6128846757f07f7f0e85bc9b60c01b6128af565b61288f8383836115dd565b6128a9565b6128a867cf7332ec9bc2c88a60c01b6128af565b5b50505050565b50565b600060019050919050565b6000634906490660e01b7bffffffffffffffffffffffffffffffffffffffffffffffffffffffff1916827bffffffffffffffffffffffffffffffffffffffffffffffffffffffff1916148061291757506129168261491c565b5b9050919050565b60008061292a836149fe565b9050600073ffffffffffffffffffffffffffffffffffffffff168173ffffffffffffffffffffffffffffffffffffffff160361299d57826040517f7e2732890000000000000000000000000000000000000000000000000000000081526004016129949190615d11565b60405180910390fd5b80915050919050565b60006004600083815260200190815260200160002060009054906101000a900473ffffffffffffffffffffffffffffffffffffffff169050919050565b600033905090565b6129f88383836001614a3b565b505050565b600080612a09846149fe565b9050600073ffffffffffffffffffffffffffffffffffffffff168373ffffffffffffffffffffffffffffffffffffffff1614612a4b57612a4a818486614c00565b5b600073ffffffffffffffffffffffffffffffffffffffff168173ffffffffffffffffffffffffffffffffffffffff1614612adc57612a8d600085600080614a3b565b6001600360008373ffffffffffffffffffffffffffffffffffffffff1673ffffffffffffffffffffffffffffffffffffffff168152602001908152602001600020600082825403925050819055505b600073ffffffffffffffffffffffffffffffffffffffff168573ffffffffffffffffffffffffffffffffffffffff1614612b5f576001600360008773ffffffffffffffffffffffffffffffffffffffff1673ffffffffffffffffffffffffffffffffffffffff168152602001908152602001600020600082825401925050819055505b846002600086815260200190815260200160002060006101000a81548173ffffffffffffffffffffffffffffffffffffffff021916908373ffffffffffffffffffffffffffffffffffffffff160217905550838573ffffffffffffffffffffffffffffffffffffffff168273ffffffffffffffffffffffffffffffffffffffff167fddf252ad1be2c89b69c2b068fc378daa952ba7f163c4a11628f55a4df523b3ef60405160405180910390a4809150509392505050565b50565b6000612c306796a6b609c6d1eb2d60c01b6128af565b612c44679026c3eb5a9d11b860c01b6128af565b612c5867f8bd7d56748f9d3460c01b6128af565b600073ffffffffffffffffffffffffffffffffffffffff16612c7983611808565b73ffffffffffffffffffffffffffffffffffffffff1614159050919050565b612cac676143b1b2bf5ad7bf60c01b612c17565b612cc067ef3d64bee4b692d760c01b612c17565b612cd467a5a2f4ebac528cde60c01b612c17565b8051825114612d3757612cf167edd6f5bffce2d5a960c01b612c17565b612d05676bd03b3aa491cf3260c01b612c17565b6040517fde4347e800000000000000000000000000000000000000000000000000000000815260040160405180910390fd5b612d4b674ed038c036a5100f60c01b612c17565b612d5f67a9ac0bbcc1f8a86960c01b612c17565b612d73671c2d780355274ba960c01b612c17565b60007f00000000000000000000000000000000000000000000000000000000000000009050612dac67e29917e7b6c7aec860c01b612c17565b612dc06778fb029eb3ce188960c01b612c17565b60008173ffffffffffffffffffffffffffffffffffffffff1663bdcf1ae56040518163ffffffff1660e01b8152600401602060405180830381865afa158015612e0d573d6000803e3d6000fd5b505050506040513d601f19601f82011682018060405250810190612e319190616c6f565b9050612e4767d7e811591b76162f60c01b612c17565b612e5b6787284d4120101ccd60c01b612c17565b6000819050612e74672a1b08990c98a77b60c01b612c17565b612e88673ee2bdf3e4bcce7a60c01b612c17565b60005b85518110156132eb57612ea867ef69e975da2d3ec560c01b612c17565b612ebc6744173d752313235f60c01b612c17565b6000868281518110612ed157612ed061661f565b5b60200260200101519050612eef67dc5ab5067ede1f3e60c01b612c17565b612f0367ffc3377c7ec40aaa60c01b612c17565b600073ffffffffffffffffffffffffffffffffffffffff168173ffffffffffffffffffffffffffffffffffffffff1603612f5157612f4b673649939a493f205c60c01b612c17565b506132de565b612f656776ee02cedef7291760c01b612c17565b612f796763795ab98fd8daf960c01b612c17565b612f8d679eb1e73b443d1b1860c01b612c17565b60005b868381518110612fa357612fa261661f565b5b6020026020010151518110156132db57612fc767f16553236e2a0e4660c01b612c17565b612fdb671a72c40fb15e900660c01b612c17565b6000878481518110612ff057612fef61661f565b5b6020026020010151828151811061300a5761300961661f565b5b6020026020010151905061302867f62d6055c657ff2460c01b612c17565b61303c679c006a0802f55c1260c01b612c17565b3073ffffffffffffffffffffffffffffffffffffffff168373ffffffffffffffffffffffffffffffffffffffff161480156130795750600a548111155b801561311257507f000000000000000000000000000000000000000000000000000000000000000073ffffffffffffffffffffffffffffffffffffffff16600b60006001846130c89190616227565b815260200190815260200160002060000160009054906101000a900473ffffffffffffffffffffffffffffffffffffffff1673ffffffffffffffffffffffffffffffffffffffff16145b156131455761312b671e8c7039cc1f99ab60c01b612c17565b61313f67e8f1ff7eed1ecaba60c01b612c17565b506132ce565b61315967c654a9b1144898fb60c01b612c17565b61316d67ef4bca2331060adb60c01b612c17565b613181672861888a890c83dc60c01b612c17565b60008573ffffffffffffffffffffffffffffffffffffffff1663eb40f8187f000000000000000000000000000000000000000000000000000000000000000086856040518463ffffffff1660e01b81526004016131e093929190616c9c565b602060405180830381865afa1580156131fd573d6000803e3d6000fd5b505050506040513d601f19601f8201168201806040525081019061322191906168d5565b9050613237671d7da5f1f1a474c260c01b612c17565b61324b67bea2b4bf057f13f760c01b612c17565b806132b757613264679bd11b461df34a3260c01b612c17565b613278676aeb506b258e905b60c01b612c17565b83826040517f13f5acc70000000000000000000000000000000000000000000000000000000081526004016132ae929190616994565b60405180910390fd5b6132cb67e2bdd84f9998daf860c01b612c17565b50505b8080600101915050612f90565b50505b8080600101915050612e8b565b505050505050565b806006600084815260200190815260200160002090816133139190616407565b507ff8e1a15aba9398e019f0b49df1a4fde98ee17ae345cb5f6b5e2c27f5033e8ce7826040516133439190615d11565b60405180910390a15050565b61336367adf78b3b1579fc6260c01b6128af565b6133776733b954b076514d7060c01b6128af565b61338b6781714145c809a1dc60c01b6128af565b600080613399846001613f49565b915091506133b167df8a3382a9c03d3c60c01b6128af565b6133c567d6b849daa297032c60c01b6128af565b6000806133d3866000613f49565b915091506133eb6750249e3ad984a83760c01b6128af565b6133ff678e16e2923a7dea6a60c01b6128af565b8473ffffffffffffffffffffffffffffffffffffffff16867f81bed52c04e8cd65796985202162bad7e20a8ffaa732fe2e0a0bc79f687e4d668686868660405161344c9493929190616cd3565b60405180910390a3505050505050565b613470674dac4d6b12717c7e60c01b6128af565b61348467685a152b54e717f360c01b6128af565b6134986777f929af3438512f60c01b6128af565b60006007600084815260200190815260200160002090506134c3678e458fbeadabdd5960c01b6128af565b6134d7675f2fc45deea99fdd60c01b6128af565b60005b84518110156136f1576134f76785c5e3fbc183606460c01b6128af565b61350b67d8a1d2bcc3e516c060c01b6128af565b60008260000160008784815181106135265761352561661f565b5b602002602001015173ffffffffffffffffffffffffffffffffffffffff1673ffffffffffffffffffffffffffffffffffffffff16815260200190815260200160002080549050036136315761358567c83094816b0c8dc260c01b6128af565b61359967bce6fe83daee16fc60c01b6128af565b6135ad674eb186806663984560c01b6128af565b816002018582815181106135c4576135c361661f565b5b60200260200101519080600181540180825580915050600190039060005260206000200160009091909190916101000a81548173ffffffffffffffffffffffffffffffffffffffff021916908373ffffffffffffffffffffffffffffffffffffffff160217905550613646565b61364567cf8089f71bb59d0560c01b6128af565b5b61365a675536f92cec9768c660c01b6128af565b82818151811061366d5761366c61661f565b5b602002602001015182600001600087848151811061368e5761368d61661f565b5b602002602001015173ffffffffffffffffffffffffffffffffffffffff1673ffffffffffffffffffffffffffffffffffffffff16815260200190815260200160002090805190602001906136e3929190615297565b5080806001019150506134da565b5061370667698030a8e604f0d060c01b6128af565b42816004018190555061372367416ffe2852f1c6ab60c01b6128af565b613737673f6b5792e10bf97a60c01b6128af565b613741833361334f565b50505050565b61375b670dfd7d5a926631bc60c01b6128af565b61376e6612171346c366fc60c01b6128af565b61378267ebdd72b62daa7fe060c01b6128af565b60005b8351811015613f43576137a267ac1d061f240d056e60c01b6128af565b6137b6673d2b56996d6dac3b60c01b6128af565b3073ffffffffffffffffffffffffffffffffffffffff168482815181106137e0576137df61661f565b5b602002602001015173ffffffffffffffffffffffffffffffffffffffff1603613d055761381767cf95859994893d4b60c01b6128af565b61382b67101c6357f20657d160c01b6128af565b61383f67bddb021f04a8936660c01b6128af565b60005b8282815181106138555761385461661f565b5b602002602001015151811015613cff57613879671ec3aaf902715c8d60c01b6128af565b61388d67e39e39f0833e87e960c01b6128af565b6000600760008585815181106138a6576138a561661f565b5b602002602001015184815181106138c0576138bf61661f565b5b6020026020010151815260200190815260200160002090506138ec6789696f61d4096f0060c01b6128af565b61390067eab6a0c1bfd93c6f60c01b6128af565b600081600101600088868151811061391b5761391a61661f565b5b602002602001015173ffffffffffffffffffffffffffffffffffffffff1673ffffffffffffffffffffffffffffffffffffffff1681526020019081526020016000208054905003613a265761397a6783a8528c3982cd0e60c01b6128af565b61398e67fb9b0b5b9e018d0460c01b6128af565b6139a26713501e79ad84128660c01b6128af565b806003018684815181106139b9576139b861661f565b5b60200260200101519080600181540180825580915050600190039060005260206000200160009091909190916101000a81548173ffffffffffffffffffffffffffffffffffffffff021916908373ffffffffffffffffffffffffffffffffffffffff160217905550613a3b565b613a3a67c5ba9666b37d3bc260c01b6128af565b5b613a4f67239e433522a110da60c01b6128af565b613a6367d301368bedc65ad560c01b6128af565b613a77670726be337865ba4d60c01b6128af565b838381518110613a8a57613a8961661f565b5b60200260200101518281518110613aa457613aa361661f565b5b60200260200101518503613aed576040517f08c379a0000000000000000000000000000000000000000000000000000000008152600401613ae490616da6565b60405180910390fd5b613b01674f7cc68646c24e4e60c01b6128af565b613b1567c7e8abb19549febe60c01b6128af565b613b2967da11b2fbd1e6987660c01b6128af565b42816004015410613bab57613b4867fcd4831cbe36884560c01b6128af565b613b5c67c8a634ac8f73f9ce60c01b6128af565b613b7067f0543f15e11c4ab760c01b6128af565b6040517f08c379a0000000000000000000000000000000000000000000000000000000008152600401613ba290616752565b60405180910390fd5b613bbf67db4510bc9be57d4860c01b6128af565b613bd3672a229b5d514333d960c01b6128af565b613be767e642867953b38ffa60c01b6128af565b8060010160003073ffffffffffffffffffffffffffffffffffffffff1673ffffffffffffffffffffffffffffffffffffffff168152602001908152602001600020859080600181540180825580915050600190039060005260206000200160009091909190915055613c63675d7fbc5563d058e360c01b6128af565b613c7767a13f6b70785cd77b60c01b6128af565b613cf1848481518110613c8d57613c8c61661f565b5b60200260200101518381518110613ca757613ca661661f565b5b6020026020010151613cec868681518110613cc557613cc461661f565b5b60200260200101518581518110613cdf57613cde61661f565b5b6020026020010151611808565b61334f565b508080600101915050613842565b50613f36565b613d196712a8f52de2a8923360c01b6128af565b613d2d67c810b4a0fe24a62160c01b6128af565b613d41670102fb90a76c52da60c01b6128af565b6000848281518110613d5657613d5561661f565b5b60200260200101519050613d74677416649f45a6056760c01b6128af565b613d8867c14326e58b85d4a360c01b6128af565b60008173ffffffffffffffffffffffffffffffffffffffff166301ffc9a77f40997a20000000000000000000000000000000000000000000000000000000006040518263ffffffff1660e01b8152600401613de391906168a5565b602060405180830381865afa158015613e00573d6000803e3d6000fd5b505050506040513d601f19601f82011682018060405250810190613e2491906168d5565b9050613e3a674c10347e8f2fab9e60c01b6128af565b613e4e6753b8de672ad546c360c01b6128af565b8015613f1e57613e6867d3d0a0e2ef0a59ec60c01b6128af565b613e7c6702f1f267c4a3746e60c01b6128af565b613e9067ffb6e75851ba729260c01b6128af565b8173ffffffffffffffffffffffffffffffffffffffff166355c104403087878781518110613ec157613ec061661f565b5b60200260200101516040518463ffffffff1660e01b8152600401613ee793929190616e35565b600060405180830381600087803b158015613f0157600080fd5b505af1158015613f15573d6000803e3d6000fd5b50505050613f33565b613f3267a0d76f2af6bb283c60c01b6128af565b5b50505b8080600101915050613785565b50505050565b606080613f6067c045bb855c8f90ca60c01b6128af565b613f74679afe305efbb6915b60c01b6128af565b613f8867af67464a02ffe4ab60c01b6128af565b6000600760008681526020019081526020016000209050613fb36795dc51acdbfb697060c01b6128af565b613fc7675fb0b59e7d80728160c01b6128af565b6060613fdd671d9c1dfdbd39a0ff60c01b6128af565b613ff167056f61d010f0977960c01b6128af565b606061400767a284e1d97d603e5d60c01b6128af565b61401b67f8974b53bf13562860c01b6128af565b851561425c57614035673576a8e80fa0ae7060c01b6128af565b6140496793ee727b96137bcd60c01b6128af565b826002018054806020026020016040519081016040528092919081815260200182805480156140cd57602002820191906000526020600020905b8160009054906101000a900473ffffffffffffffffffffffffffffffffffffffff1673ffffffffffffffffffffffffffffffffffffffff1681526020019060010190808311614083575b505050505091506140e867bff9ea6d1820fce960c01b6128af565b815167ffffffffffffffff811115614103576141026158c4565b5b60405190808252806020026020018201604052801561413657816020015b60608152602001906001900390816141215790505b50905061414d676532678eeb57114c60c01b6128af565b614161672fd1a4bf1c90fd7360c01b6128af565b60005b825181101561425657614181674ffdf90c89f3122a60c01b6128af565b83600001600084838151811061419a5761419961661f565b5b602002602001015173ffffffffffffffffffffffffffffffffffffffff1673ffffffffffffffffffffffffffffffffffffffff16815260200190815260200160002080548060200260200160405190810160405280929190818152602001828054801561422657602002820191906000526020600020905b815481526020019060010190808311614212575b505050505082828151811061423e5761423d61661f565b5b60200260200101819052508080600101915050614164565b50614493565b614270679c0cba8c4db5c38560c01b6128af565b61428467ae0c2bf4b808856760c01b6128af565b8260030180548060200260200160405190810160405280929190818152602001828054801561430857602002820191906000526020600020905b8160009054906101000a900473ffffffffffffffffffffffffffffffffffffffff1673ffffffffffffffffffffffffffffffffffffffff16815260200190600101908083116142be575b5050505050915061432367bc16725d583300a460c01b6128af565b815167ffffffffffffffff81111561433e5761433d6158c4565b5b60405190808252806020026020018201604052801561437157816020015b606081526020019060019003908161435c5790505b50905061438867d798f0a5671d5b2360c01b6128af565b61439c67571e1f6b7880669760c01b6128af565b60005b8251811015614491576143bc67ebf71c5b21f77b4860c01b6128af565b8360010160008483815181106143d5576143d461661f565b5b602002602001015173ffffffffffffffffffffffffffffffffffffffff1673ffffffffffffffffffffffffffffffffffffffff16815260200190815260200160002080548060200260200160405190810160405280929190818152602001828054801561446157602002820191906000526020600020905b81548152602001906001019080831161444d575b50505050508282815181106144795761447861661f565b5b6020026020010181905250808060010191505061439f565b505b6144a76777a3ee7b95ea2e0560c01b6128af565b6144bb672218791ed2864eda60c01b6128af565b8181945094505050509250929050565b600073ffffffffffffffffffffffffffffffffffffffff168273ffffffffffffffffffffffffffffffffffffffff160361453c57816040517f5b08ba18000000000000000000000000000000000000000000000000000000008152600401614533919061556b565b60405180910390fd5b80600560008573ffffffffffffffffffffffffffffffffffffffff1673ffffffffffffffffffffffffffffffffffffffff16815260200190815260200160002060008473ffffffffffffffffffffffffffffffffffffffff1673ffffffffffffffffffffffffffffffffffffffff16815260200190815260200160002060006101000a81548160ff0219169083151502179055508173ffffffffffffffffffffffffffffffffffffffff168373ffffffffffffffffffffffffffffffffffffffff167f17307eab39ab6107e8899845ad3d59bd9653f200f220920489ca2b5937696c318360405161462d91906153fa565b60405180910390a3505050565b60008373ffffffffffffffffffffffffffffffffffffffff163b11156147e4578273ffffffffffffffffffffffffffffffffffffffff1663150b7a02868685856040518563ffffffff1660e01b81526004016146999493929190616ec8565b6020604051808303816000875af19250505080156146d557506040513d601f19601f820116820180604052508101906146d29190616f29565b60015b614759573d8060008114614705576040519150601f19603f3d011682016040523d82523d6000602084013e61470a565b606091505b50600081510361475157836040517f64a0ae92000000000000000000000000000000000000000000000000000000008152600401614748919061556b565b60405180910390fd5b805181602001fd5b63150b7a0260e01b7bffffffffffffffffffffffffffffffffffffffffffffffffffffffff1916817bffffffffffffffffffffffffffffffffffffffffffffffffffffffff1916146147e257836040517f64a0ae920000000000000000000000000000000000000000000000000000000081526004016147d9919061556b565b60405180910390fd5b505b5050505050565b60606147f68261291e565b50600060066000848152602001908152602001600020805461481790616190565b80601f016020809104026020016040519081016040528092919081815260200182805461484390616190565b80156148905780601f1061486557610100808354040283529160200191614890565b820191906000526020600020905b81548152906001019060200180831161487357829003601f168201915b5050505050905060006148a1614cc4565b905060008151036148b65781925050506148f9565b6000825111156148eb5780826040516020016148d3929190616f92565b604051602081830303815290604052925050506148f9565b6148f484614cdb565b925050505b919050565b614918828260405180602001604052806000815250614d44565b5050565b60007f80ac58cd000000000000000000000000000000000000000000000000000000007bffffffffffffffffffffffffffffffffffffffffffffffffffffffff1916827bffffffffffffffffffffffffffffffffffffffffffffffffffffffff191614806149e757507f5b5e139f000000000000000000000000000000000000000000000000000000007bffffffffffffffffffffffffffffffffffffffffffffffffffffffff1916827bffffffffffffffffffffffffffffffffffffffffffffffffffffffff1916145b806149f757506149f682614d68565b5b9050919050565b60006002600083815260200190815260200160002060009054906101000a900473ffffffffffffffffffffffffffffffffffffffff169050919050565b8080614a745750600073ffffffffffffffffffffffffffffffffffffffff168273ffffffffffffffffffffffffffffffffffffffff1614155b15614ba8576000614a848461291e565b9050600073ffffffffffffffffffffffffffffffffffffffff168373ffffffffffffffffffffffffffffffffffffffff1614158015614aef57508273ffffffffffffffffffffffffffffffffffffffff168173ffffffffffffffffffffffffffffffffffffffff1614155b8015614b025750614b00818461272d565b155b15614b4457826040517fa9fbf51f000000000000000000000000000000000000000000000000000000008152600401614b3b919061556b565b60405180910390fd5b8115614ba657838573ffffffffffffffffffffffffffffffffffffffff168273ffffffffffffffffffffffffffffffffffffffff167f8c5be1e5ebec7d5bd14f71427d1e84f3dd0314c0f7b2291e5b200ac8c7c3b92560405160405180910390a45b505b836004600085815260200190815260200160002060006101000a81548173ffffffffffffffffffffffffffffffffffffffff021916908373ffffffffffffffffffffffffffffffffffffffff16021790555050505050565b614c0b838383614dd2565b614cbf57600073ffffffffffffffffffffffffffffffffffffffff168373ffffffffffffffffffffffffffffffffffffffff1603614c8057806040517f7e273289000000000000000000000000000000000000000000000000000000008152600401614c779190615d11565b60405180910390fd5b81816040517f177e802f000000000000000000000000000000000000000000000000000000008152600401614cb6929190616994565b60405180910390fd5b505050565b606060405180602001604052806000815250905090565b6060614ce68261291e565b506000614cf1614cc4565b90506000815111614d115760405180602001604052806000815250614d3c565b80614d1b84614e93565b604051602001614d2c929190616f92565b6040516020818303038152906040525b915050919050565b614d4e8383614f61565b614d63614d596129e3565b600085858561463a565b505050565b60007f01ffc9a7000000000000000000000000000000000000000000000000000000007bffffffffffffffffffffffffffffffffffffffffffffffffffffffff1916827bffffffffffffffffffffffffffffffffffffffffffffffffffffffff1916149050919050565b60008073ffffffffffffffffffffffffffffffffffffffff168373ffffffffffffffffffffffffffffffffffffffff1614158015614e8a57508273ffffffffffffffffffffffffffffffffffffffff168473ffffffffffffffffffffffffffffffffffffffff161480614e4b5750614e4a848461272d565b5b80614e8957508273ffffffffffffffffffffffffffffffffffffffff16614e71836129a6565b73ffffffffffffffffffffffffffffffffffffffff16145b5b90509392505050565b606060006001614ea28461505a565b01905060008167ffffffffffffffff811115614ec157614ec06158c4565b5b6040519080825280601f01601f191660200182016040528015614ef35781602001600182028036833780820191505090505b509050600082602001820190505b600115614f56578080600190039150507f3031323334353637383961626364656600000000000000000000000000000000600a86061a8153600a8581614f4a57614f49616fb6565b5b04945060008503614f01575b819350505050919050565b600073ffffffffffffffffffffffffffffffffffffffff168273ffffffffffffffffffffffffffffffffffffffff1603614fd35760006040517f64a0ae92000000000000000000000000000000000000000000000000000000008152600401614fca919061556b565b60405180910390fd5b6000614fe1838360006129fd565b9050600073ffffffffffffffffffffffffffffffffffffffff168173ffffffffffffffffffffffffffffffffffffffff16146150555760006040517f73c6ac6e00000000000000000000000000000000000000000000000000000000815260040161504c919061556b565b60405180910390fd5b505050565b600080600090507a184f03e93ff9f4daa797ed6e38ed64bf6a1f01000000000000000083106150b8577a184f03e93ff9f4daa797ed6e38ed64bf6a1f01000000000000000083816150ae576150ad616fb6565b5b0492506040810190505b6d04ee2d6d415b85acef810000000083106150f5576d04ee2d6d415b85acef810000000083816150eb576150ea616fb6565b5b0492506020810190505b662386f26fc10000831061512457662386f26fc10000838161511a57615119616fb6565b5b0492506010810190505b6305f5e100831061514d576305f5e100838161514357615142616fb6565b5b0492506008810190505b612710831061517257612710838161516857615167616fb6565b5b0492506004810190505b60648310615195576064838161518b5761518a616fb6565b5b0492506002810190505b600a83106151a4576001810190505b80915050919050565b828054828255906000526020600020908101928215615226579160200282015b828111156152255782518260006101000a81548173ffffffffffffffffffffffffffffffffffffffff021916908373ffffffffffffffffffffffffffffffffffffffff160217905550916020019190600101906151cd565b5b50905061523391906152e4565b5090565b828054828255906000526020600020908101928215615286579160200282015b82811115615285578251829080519060200190615275929190615297565b5091602001919060010190615257565b5b5090506152939190615301565b5090565b8280548282559060005260206000209081019282156152d3579160200282015b828111156152d25782518255916020019190600101906152b7565b5b5090506152e091906152e4565b5090565b5b808211156152fd5760008160009055506001016152e5565b5090565b5b8082111561532157600081816153189190615325565b50600101615302565b5090565b508054600082559060005260206000209081019061534391906152e4565b50565b6000604051905090565b600080fd5b600080fd5b60007fffffffff0000000000000000000000000000000000000000000000000000000082169050919050565b61538f8161535a565b811461539a57600080fd5b50565b6000813590506153ac81615386565b92915050565b6000602082840312156153c8576153c7615350565b5b60006153d68482850161539d565b91505092915050565b60008115159050919050565b6153f4816153df565b82525050565b600060208201905061540f60008301846153eb565b92915050565b600081519050919050565b600082825260208201905092915050565b60005b8381101561544f578082015181840152602081019050615434565b60008484015250505050565b6000601f19601f8301169050919050565b600061547782615415565b6154818185615420565b9350615491818560208601615431565b61549a8161545b565b840191505092915050565b600060208201905081810360008301526154bf818461546c565b905092915050565b6000819050919050565b6154da816154c7565b81146154e557600080fd5b50565b6000813590506154f7816154d1565b92915050565b60006020828403121561551357615512615350565b5b6000615521848285016154e8565b91505092915050565b600073ffffffffffffffffffffffffffffffffffffffff82169050919050565b60006155558261552a565b9050919050565b6155658161554a565b82525050565b6000602082019050615580600083018461555c565b92915050565b61558f8161554a565b811461559a57600080fd5b50565b6000813590506155ac81615586565b92915050565b600080604083850312156155c9576155c8615350565b5b60006155d78582860161559d565b92505060206155e8858286016154e8565b9150509250929050565b60008060006060848603121561560b5761560a615350565b5b60006156198682870161559d565b935050602061562a8682870161559d565b925050604061563b868287016154e8565b9150509250925092565b600081519050919050565b600082825260208201905092915050565b6000819050602082019050919050565b61567a8161554a565b82525050565b600061568c8383615671565b60208301905092915050565b6000602082019050919050565b60006156b082615645565b6156ba8185615650565b93506156c583615661565b8060005b838110156156f65781516156dd8882615680565b97506156e883615698565b9250506001810190506156c9565b5085935050505092915050565b600081519050919050565b600082825260208201905092915050565b6000819050602082019050919050565b600081519050919050565b600082825260208201905092915050565b6000819050602082019050919050565b615764816154c7565b82525050565b6000615776838361575b565b60208301905092915050565b6000602082019050919050565b600061579a8261572f565b6157a4818561573a565b93506157af8361574b565b8060005b838110156157e05781516157c7888261576a565b97506157d283615782565b9250506001810190506157b3565b5085935050505092915050565b60006157f9838361578f565b905092915050565b6000602082019050919050565b600061581982615703565b615823818561570e565b9350836020820285016158358561571f565b8060005b85811015615871578484038952815161585285826157ed565b945061585d83615801565b925060208a01995050600181019050615839565b50829750879550505050505092915050565b6000604082019050818103600083015261589d81856156a5565b905081810360208301526158b1818461580e565b90509392505050565b600080fd5b600080fd5b7f4e487b7100000000000000000000000000000000000000000000000000000000600052604160045260246000fd5b6158fc8261545b565b810181811067ffffffffffffffff8211171561591b5761591a6158c4565b5b80604052505050565b600061592e615346565b905061593a82826158f3565b919050565b600067ffffffffffffffff82111561595a576159596158c4565b5b6159638261545b565b9050602081019050919050565b82818337600083830152505050565b600061599261598d8461593f565b615924565b9050828152602081018484840111156159ae576159ad6158bf565b5b6159b9848285615970565b509392505050565b600082601f8301126159d6576159d56158ba565b5b81356159e684826020860161597f565b91505092915050565b600067ffffffffffffffff821115615a0a57615a096158c4565b5b602082029050602081019050919050565b600080fd5b6000615a33615a2e846159ef565b615924565b90508083825260208201905060208402830185811115615a5657615a55615a1b565b5b835b81811015615a7f5780615a6b888261559d565b845260208401935050602081019050615a58565b5050509392505050565b600082601f830112615a9e57615a9d6158ba565b5b8135615aae848260208601615a20565b91505092915050565b600067ffffffffffffffff821115615ad257615ad16158c4565b5b602082029050602081019050919050565b600067ffffffffffffffff821115615afe57615afd6158c4565b5b602082029050602081019050919050565b6000615b22615b1d84615ae3565b615924565b90508083825260208201905060208402830185811115615b4557615b44615a1b565b5b835b81811015615b6e5780615b5a88826154e8565b845260208401935050602081019050615b47565b5050509392505050565b600082601f830112615b8d57615b8c6158ba565b5b8135615b9d848260208601615b0f565b91505092915050565b6000615bb9615bb484615ab7565b615924565b90508083825260208201905060208402830185811115615bdc57615bdb615a1b565b5b835b81811015615c2357803567ffffffffffffffff811115615c0157615c006158ba565b5b808601615c0e8982615b78565b85526020850194505050602081019050615bde565b5050509392505050565b600082601f830112615c4257615c416158ba565b5b8135615c52848260208601615ba6565b91505092915050565b600080600060608486031215615c7457615c73615350565b5b600084013567ffffffffffffffff811115615c9257615c91615355565b5b615c9e868287016159c1565b935050602084013567ffffffffffffffff811115615cbf57615cbe615355565b5b615ccb86828701615a89565b925050604084013567ffffffffffffffff811115615cec57615ceb615355565b5b615cf886828701615c2d565b9150509250925092565b615d0b816154c7565b82525050565b6000602082019050615d266000830184615d02565b92915050565b600080600060608486031215615d4557615d44615350565b5b6000615d538682870161559d565b9350506020615d64868287016154e8565b925050604084013567ffffffffffffffff811115615d8557615d84615355565b5b615d91868287016159c1565b9150509250925092565b600080600060608486031215615db457615db3615350565b5b6000615dc28682870161559d565b9350506020615dd3868287016154e8565b925050604084013567ffffffffffffffff811115615df457615df3615355565b5b615e0086828701615b78565b9150509250925092565b6000604082019050615e1f600083018561555c565b8181036020830152615e31818461546c565b90509392505050565b600080600060608486031215615e5357615e52615350565b5b6000615e61868287016154e8565b935050602084013567ffffffffffffffff811115615e8257615e81615355565b5b615e8e86828701615a89565b925050604084013567ffffffffffffffff811115615eaf57615eae615355565b5b615ebb86828701615c2d565b9150509250925092565b600060208284031215615edb57615eda615350565b5b6000615ee98482850161559d565b91505092915050565b615efb816153df565b8114615f0657600080fd5b50565b600081359050615f1881615ef2565b92915050565b60008060408385031215615f3557615f34615350565b5b6000615f438582860161559d565b9250506020615f5485828601615f09565b9150509250929050565b600067ffffffffffffffff821115615f7957615f786158c4565b5b615f828261545b565b9050602081019050919050565b6000615fa2615f9d84615f5e565b615924565b905082815260208101848484011115615fbe57615fbd6158bf565b5b615fc9848285615970565b509392505050565b600082601f830112615fe657615fe56158ba565b5b8135615ff6848260208601615f8f565b91505092915050565b6000806000806080858703121561601957616018615350565b5b60006160278782880161559d565b94505060206160388782880161559d565b9350506040616049878288016154e8565b925050606085013567ffffffffffffffff81111561606a57616069615355565b5b61607687828801615fd1565b91505092959194509250565b6000806040838503121561609957616098615350565b5b60006160a78582860161559d565b92505060206160b88582860161559d565b9150509250929050565b600080600080608085870312156160dc576160db615350565b5b60006160ea8782880161559d565b94505060206160fb878288016154e8565b935050604085013567ffffffffffffffff81111561611c5761611b615355565b5b61612887828801615a89565b925050606085013567ffffffffffffffff81111561614957616148615355565b5b61615587828801615c2d565b91505092959194509250565b7f4e487b7100000000000000000000000000000000000000000000000000000000600052602260045260246000fd5b600060028204905060018216806161a857607f821691505b6020821081036161bb576161ba616161565b5b50919050565b60006060820190506161d6600083018661555c565b6161e36020830185615d02565b6161f0604083018461555c565b949350505050565b7f4e487b7100000000000000000000000000000000000000000000000000000000600052601160045260246000fd5b6000616232826154c7565b915061623d836154c7565b9250828203905081811115616255576162546161f8565b5b92915050565b60008190508160005260206000209050919050565b60006020601f8301049050919050565b600082821b905092915050565b6000600883026162bd7fffffffffffffffffffffffffffffffffffffffffffffffffffffffffffffffff82616280565b6162c78683616280565b95508019841693508086168417925050509392505050565b6000819050919050565b60006163046162ff6162fa846154c7565b6162df565b6154c7565b9050919050565b6000819050919050565b61631e836162e9565b61633261632a8261630b565b84845461628d565b825550505050565b600090565b61634761633a565b616352818484616315565b505050565b5b818110156163765761636b60008261633f565b600181019050616358565b5050565b601f8211156163bb5761638c8161625b565b61639584616270565b810160208510156163a4578190505b6163b86163b085616270565b830182616357565b50505b505050565b600082821c905092915050565b60006163de600019846008026163c0565b1980831691505092915050565b60006163f783836163cd565b9150826002028217905092915050565b61641082615415565b67ffffffffffffffff811115616429576164286158c4565b5b6164338254616190565b61643e82828561637a565b600060209050601f831160018114616471576000841561645f578287015190505b61646985826163eb565b8655506164d1565b601f19841661647f8661625b565b60005b828110156164a757848901518255600182019150602085019450602081019050616482565b868310156164c457848901516164c0601f8916826163cd565b8355505b6001600288020188555050505b505050505050565b60006164e4826154c7565b91507fffffffffffffffffffffffffffffffffffffffffffffffffffffffffffffffff8203616516576165156161f8565b5b600182019050919050565b7f4552435f353532313a20746f6b656e204944206e6f7420657869737465640000600082015250565b6000616557601e83615420565b915061656282616521565b602082019050919050565b600060208201905081810360008301526165868161654a565b9050919050565b7f4552435f353532313a207472616e736665722063616c6c6572206973206e6f7460008201527f206f776e6572206e6f7220617070726f76656400000000000000000000000000602082015250565b60006165e9603383615420565b91506165f48261658d565b604082019050919050565b60006020820190508181036000830152616618816165dc565b9050919050565b7f4e487b7100000000000000000000000000000000000000000000000000000000600052603260045260246000fd5b7f4552435f353532313a2074686973206d75737420626520616e2065787465726e60008201527f616c20636f6e7472616374206164647265737300000000000000000000000000602082015250565b60006166aa603383615420565b91506166b58261664e565b604082019050919050565b600060208201905081810360008301526166d98161669d565b9050919050565b7f4552435f353532313a2074686520726566657272656420724e4654206e65656460008201527f7320746f2062652061207072656465636573736f720000000000000000000000602082015250565b600061673c603583615420565b9150616747826166e0565b604082019050919050565b6000602082019050818103600083015261676b8161672f565b9050919050565b7f41646472657373657320616e6420546f6b656e494420617272617973206d757360008201527f742068617665207468652073616d65206c656e67746800000000000000000000602082015250565b60006167ce603683615420565b91506167d982616772565b604082019050919050565b600060208201905081810360008301526167fd816167c1565b9050919050565b7f4552435f353532313a2074686520726566657272696e67206c6973742063616e60008201527f6e6f7420626520656d7074790000000000000000000000000000000000000000602082015250565b6000616860602c83615420565b915061686b82616804565b604082019050919050565b6000602082019050818103600083015261688f81616853565b9050919050565b61689f8161535a565b82525050565b60006020820190506168ba6000830184616896565b92915050565b6000815190506168cf81615ef2565b92915050565b6000602082840312156168eb576168ea615350565b5b60006168f9848285016168c0565b91505092915050565b7f4552435f353532313a2074617267657420636f6e7472616374206e6f7420737560008201527f70706f7274656400000000000000000000000000000000000000000000000000602082015250565b600061695e602783615420565b915061696982616902565b604082019050919050565b6000602082019050818103600083015261698d81616951565b9050919050565b60006040820190506169a9600083018561555c565b6169b66020830184615d02565b9392505050565b6000815190506169cc81615586565b92915050565b60006169e56169e0846159ef565b615924565b90508083825260208201905060208402830185811115616a0857616a07615a1b565b5b835b81811015616a315780616a1d88826169bd565b845260208401935050602081019050616a0a565b5050509392505050565b600082601f830112616a5057616a4f6158ba565b5b8151616a608482602086016169d2565b91505092915050565b600081519050616a78816154d1565b92915050565b6000616a91616a8c84615ae3565b615924565b90508083825260208201905060208402830185811115616ab457616ab3615a1b565b5b835b81811015616add5780616ac98882616a69565b845260208401935050602081019050616ab6565b5050509392505050565b600082601f830112616afc57616afb6158ba565b5b8151616b0c848260208601616a7e565b91505092915050565b6000616b28616b2384615ab7565b615924565b90508083825260208201905060208402830185811115616b4b57616b4a615a1b565b5b835b81811015616b9257805167ffffffffffffffff811115616b7057616b6f6158ba565b5b808601616b7d8982616ae7565b85526020850194505050602081019050616b4d565b5050509392505050565b600082601f830112616bb157616bb06158ba565b5b8151616bc1848260208601616b15565b91505092915050565b60008060408385031215616be157616be0615350565b5b600083015167ffffffffffffffff811115616bff57616bfe615355565b5b616c0b85828601616a3b565b925050602083015167ffffffffffffffff811115616c2c57616c2b615355565b5b616c3885828601616b9c565b9150509250929050565b600060208284031215616c5857616c57615350565b5b6000616c6684828501616a69565b91505092915050565b600060208284031215616c8557616c84615350565b5b6000616c93848285016169bd565b91505092915050565b6000606082019050616cb1600083018661555c565b616cbe602083018561555c565b616ccb6040830184615d02565b949350505050565b60006080820190508181036000830152616ced81876156a5565b90508181036020830152616d01818661580e565b90508181036040830152616d1581856156a5565b90508181036060830152616d29818461580e565b905095945050505050565b7f4552435f353532313a2073656c662d7265666572656e6365206e6f7420616c6c60008201527f6f77656400000000000000000000000000000000000000000000000000000000602082015250565b6000616d90602483615420565b9150616d9b82616d34565b604082019050919050565b60006020820190508181036000830152616dbf81616d83565b9050919050565b600082825260208201905092915050565b6000616de28261572f565b616dec8185616dc6565b9350616df78361574b565b8060005b83811015616e28578151616e0f888261576a565b9750616e1a83615782565b925050600181019050616dfb565b5085935050505092915050565b6000606082019050616e4a600083018661555c565b616e576020830185615d02565b8181036040830152616e698184616dd7565b9050949350505050565b600081519050919050565b600082825260208201905092915050565b6000616e9a82616e73565b616ea48185616e7e565b9350616eb4818560208601615431565b616ebd8161545b565b840191505092915050565b6000608082019050616edd600083018761555c565b616eea602083018661555c565b616ef76040830185615d02565b8181036060830152616f098184616e8f565b905095945050505050565b600081519050616f2381615386565b92915050565b600060208284031215616f3f57616f3e615350565b5b6000616f4d84828501616f14565b91505092915050565b600081905092915050565b6000616f6c82615415565b616f768185616f56565b9350616f86818560208601615431565b80840191505092915050565b6000616f9e8285616f61565b9150616faa8284616f61565b91508190509392505050565b7f4e487b7100000000000000000000000000000000000000000000000000000000600052601260045260246000fdfea26469706673582212200f40550e8d39818836ff0f467634b01296387b70d0ca4ae4d4e3865ee023d8c364736f6c634300081c0033a2646970667358221220573843488165237eabfac51a5d714f3e2fe93fdf4a9da570380789b087a2595864736f6c634300081c003360a06040526000600860006101000a81548173ffffffffffffffffffffffffffffffffffffffff021916908373ffffffffffffffffffffffffffffffffffffffff160217905550620f424060095534801561005957600080fd5b50604051617687380380617687833981810160405281019061007b9190610259565b6040518060400160405280601081526020017f536f667477617265204c6963656e7365000000000000000000000000000000008152506040518060400160405280600781526020017f4c4943454e534500000000000000000000000000000000000000000000000000815250818181600090816100f891906104d6565b50806001908161010891906104d6565b50505061012567c840a870701d7d7e60c01b6101f060201b60201c565b61013f67823150fe3b41ad9d60c01b6101f060201b60201c565b33600860006101000a81548173ffffffffffffffffffffffffffffffffffffffff021916908373ffffffffffffffffffffffffffffffffffffffff160217905550505061019c67f3ebc56482a69a4860c01b6101f360201b60201c565b6101b6677684b2f624a6fc4b60c01b6101f360201b60201c565b8073ffffffffffffffffffffffffffffffffffffffff1660808173ffffffffffffffffffffffffffffffffffffffff1681525050506105a8565b50565b50565b600080fd5b600073ffffffffffffffffffffffffffffffffffffffff82169050919050565b6000610226826101fb565b9050919050565b6102368161021b565b811461024157600080fd5b50565b6000815190506102538161022d565b92915050565b60006020828403121561026f5761026e6101f6565b5b600061027d84828501610244565b91505092915050565b600081519050919050565b7f4e487b7100000000000000000000000000000000000000000000000000000000600052604160045260246000fd5b7f4e487b7100000000000000000000000000000000000000000000000000000000600052602260045260246000fd5b6000600282049050600182168061030757607f821691505b60208210810361031a576103196102c0565b5b50919050565b60008190508160005260206000209050919050565b60006020601f8301049050919050565b600082821b905092915050565b6000600883026103827fffffffffffffffffffffffffffffffffffffffffffffffffffffffffffffffff82610345565b61038c8683610345565b95508019841693508086168417925050509392505050565b6000819050919050565b6000819050919050565b60006103d36103ce6103c9846103a4565b6103ae565b6103a4565b9050919050565b6000819050919050565b6103ed836103b8565b6104016103f9826103da565b848454610352565b825550505050565b600090565b610416610409565b6104218184846103e4565b505050565b5b818110156104455761043a60008261040e565b600181019050610427565b5050565b601f82111561048a5761045b81610320565b61046484610335565b81016020851015610473578190505b61048761047f85610335565b830182610426565b50505b505050565b600082821c905092915050565b60006104ad6000198460080261048f565b1980831691505092915050565b60006104c6838361049c565b9150826002028217905092915050565b6104df82610286565b67ffffffffffffffff8111156104f8576104f7610291565b5b61050282546102ef565b61050d828285610449565b600060209050601f831160018114610540576000841561052e578287015190505b61053885826104ba565b8655506105a0565b601f19841661054e86610320565b60005b8281101561057657848901518255600182019150602085019450602081019050610551565b86831015610593578489015161058f601f89168261049c565b8355505b6001600288020188555050505b505050505050565b6080516170c46105c3600039600061093101526170c46000f3fe608060405234801561001057600080fd5b506004361061018e5760003560e01c806364f9b0e6116100de578063b88d4fde11610097578063e985e9c511610071578063e985e9c5146104f1578063eb40f81814610521578063edda5e7314610551578063f9a927301461056d5761018e565b8063b88d4fde14610475578063c87b56dd14610491578063d30d968d146104c15761018e565b806364f9b0e61461037957806370a08231146103aa57806377f2d69e146103da57806395d89b411461040a578063a22cb46514610428578063a35391ac146104445761018e565b8063420859911161014b57806355c104401161012557806355c10440146102e15780635995d158146102fd578063616c55351461032d5780636352211e146103495761018e565b8063420859911461027957806342842e0e146102a95780634e5786bf146102c55761018e565b806301ffc9a71461019357806306fdde03146101c3578063081812fc146101e1578063095ea7b31461021157806323b872dd1461022d57806338ffc19414610249575b600080fd5b6101ad60048036038101906101a89190615401565b61059d565b6040516101ba9190615449565b60405180910390f35b6101cb61072b565b6040516101d891906154f4565b60405180910390f35b6101fb60048036038101906101f6919061554c565b6107bd565b60405161020891906155ba565b60405180910390f35b61022b60048036038101906102269190615601565b6107d9565b005b61024760048036038101906102429190615641565b6107ef565b005b610263600480360381019061025e9190615641565b6108f1565b60405161027091906156a3565b60405180910390f35b610293600480360381019061028e919061554c565b61119c565b6040516102a091906156a3565b60405180910390f35b6102c360048036038101906102be9190615641565b6111b4565b005b6102df60048036038101906102da91906157f3565b6111d4565b005b6102fb60048036038101906102f6919061592a565b61137d565b005b6103176004803603810190610312919061554c565b6117db565b60405161032491906155ba565b60405180910390f35b61034760048036038101906103429190615b3d565b61180e565b005b610363600480360381019061035e919061554c565b611a39565b60405161037091906155ba565b60405180910390f35b610393600480360381019061038e9190615601565b611a4b565b6040516103a1929190615e06565b60405180910390f35b6103c460048036038101906103bf9190615e3d565b611e29565b6040516103d191906156a3565b60405180910390f35b6103f460048036038101906103ef9190615641565b611ee3565b6040516104019190615ed9565b60405180910390f35b610412612387565b60405161041f91906154f4565b60405180910390f35b610442600480360381019061043d9190615f27565b612419565b005b61045e60048036038101906104599190615601565b61242f565b60405161046c929190615e06565b60405180910390f35b61048f600480360381019061048a9190616008565b61280d565b005b6104ab60048036038101906104a6919061554c565b612832565b6040516104b891906154f4565b60405180910390f35b6104db60048036038101906104d69190615601565b612880565b6040516104e891906156a3565b60405180910390f35b61050b6004803603810190610506919061608b565b612c57565b6040516105189190615449565b60405180910390f35b61053b60048036038101906105369190615641565b612ceb565b6040516105489190615449565b60405180910390f35b61056b600480360381019061056691906160cb565b612f5c565b005b6105876004803603810190610582919061616a565b61304a565b60405161059491906156a3565b60405180910390f35b60006105b3672c6691fc303c777460c01b613088565b6105c7676e3c9fc6d79090e060c01b613088565b6105db6764d1d70437a1652860c01b613088565b7f74342b55000000000000000000000000000000000000000000000000000000007bffffffffffffffffffffffffffffffffffffffffffffffffffffffff1916827bffffffffffffffffffffffffffffffffffffffffffffffffffffffff1916148015610658575061065767fdc747d6098a322960c01b61308b565b5b806106f857507f40997a20000000000000000000000000000000000000000000000000000000007bffffffffffffffffffffffffffffffffffffffffffffffffffffffff1916827bffffffffffffffffffffffffffffffffffffffffffffffffffffffff19161480156106db57506106da67d8fbbb74a60b8d6760c01b61308b565b5b80156106f757506106f6673cbc8b5003de07f060c01b61308b565b5b5b80610724575061070782613096565b8015610723575061072267581d91d92400a7ff60c01b61308b565b5b5b9050919050565b60606000805461073a906161ec565b80601f0160208091040260200160405190810160405280929190818152602001828054610766906161ec565b80156107b35780601f10610788576101008083540402835291602001916107b3565b820191906000526020600020905b81548152906001019060200180831161079657829003601f168201915b5050505050905090565b60006107c8826130f7565b506107d28261317f565b9050919050565b6107eb82826107e66131bc565b6131c4565b5050565b600073ffffffffffffffffffffffffffffffffffffffff168273ffffffffffffffffffffffffffffffffffffffff16036108615760006040517f64a0ae9200000000000000000000000000000000000000000000000000000000815260040161085891906155ba565b60405180910390fd5b600061087583836108706131bc565b6131d6565b90508373ffffffffffffffffffffffffffffffffffffffff168173ffffffffffffffffffffffffffffffffffffffff16146108eb578382826040517f64283d7b0000000000000000000000000000000000000000000000000000000081526004016108e29392919061621d565b60405180910390fd5b50505050565b6000610907674433e7dcb06eee2b60c01b6133f0565b61091b67aa647e154de0d36460c01b6133f0565b61092f6703e92dae9c99ea7360c01b6133f0565b7f000000000000000000000000000000000000000000000000000000000000000073ffffffffffffffffffffffffffffffffffffffff163373ffffffffffffffffffffffffffffffffffffffff16146109c8576109966702684f3e6b59fc3860c01b6133f0565b6040517fea8e4eb500000000000000000000000000000000000000000000000000000000815260040160405180910390fd5b6109dc679024ee34f55771e760c01b6133f0565b6109f06715df69cc5fbdd2eb60c01b6133f0565b610a04679419f65e11f3055b60c01b6133f0565b6000839050610a1d6701d7b9a851ec49c260c01b6133f0565b610a3167204986f87ac6b2da60c01b6133f0565b8073ffffffffffffffffffffffffffffffffffffffff16637a4440726040518163ffffffff1660e01b8152600401602060405180830381865afa925050508015610a9957506040513d601f19601f82011682018060405250810190610a969190616269565b60015b610ae357610ab1671436f3e2fb4a5a0360c01b6133f0565b6040517fb5be0bc300000000000000000000000000000000000000000000000000000000815260040160405180910390fd5b50610af8679df69722b72ffb7d60c01b6133f0565b610b0c679e8a40eea2c91b6760c01b6133f0565b8073ffffffffffffffffffffffffffffffffffffffff16638e489d0c846040518263ffffffff1660e01b8152600401610b4591906156a3565b600060405180830381865afa925050508015610b8457506040513d6000823e3d601f19601f82011682018060405250810190610b819190616306565b60015b610bce57610b9c671ccef54609c968b660c01b6133f0565b6040517ff89114b000000000000000000000000000000000000000000000000000000000815260040160405180910390fd5b50610be36789cc6d57602dc59760c01b6133f0565b610bf767e889acf419b7cd1060c01b6133f0565b60006009549050610c12670fe685452fb3c5ad60c01b6133f0565b60096000815480929190610c259061637e565b9190505550610c3e67609177475a438aa760c01b6133f0565b610c5267ddd6f67fa64a689160c01b6133f0565b6000600167ffffffffffffffff811115610c6f57610c6e6156c8565b5b604051908082528060200260200182016040528015610c9d5781602001602082028036833780820191505090505b509050610cb4674c37e398081bd15260c01b6133f0565b8581600081518110610cc957610cc86163c6565b5b602002602001019073ffffffffffffffffffffffffffffffffffffffff16908173ffffffffffffffffffffffffffffffffffffffff1681525050610d1767279e1d4ec9e74a1f60c01b6133f0565b610d2b67bdae9dbf0754f6ab60c01b6133f0565b6000600167ffffffffffffffff811115610d4857610d476156c8565b5b604051908082528060200260200182016040528015610d7b57816020015b6060815260200190600190039081610d665790505b509050610d926775ab94463a8f139c60c01b6133f0565b610da6673f5e21784effecf460c01b6133f0565b6000600167ffffffffffffffff811115610dc357610dc26156c8565b5b604051908082528060200260200182016040528015610df15781602001602082028036833780820191505090505b509050610e08677f2865ff8525c4d060c01b6133f0565b8681600081518110610e1d57610e1c6163c6565b5b602002602001018181525050610e3d67ce9823d2416cbd0560c01b6133f0565b8082600081518110610e5257610e516163c6565b5b6020026020010181905250610e716742fccec01339befd60c01b6133f0565b610e8567bfe93700199e8f9160c01b6133f0565b610e9189858585612f5c565b610ea567884aca7cfb93792460c01b6133f0565b610eb967e6c4952b366ca0f260c01b6133f0565b60008573ffffffffffffffffffffffffffffffffffffffff16638e489d0c896040518263ffffffff1660e01b8152600401610ef491906156a3565b600060405180830381865afa158015610f11573d6000803e3d6000fd5b505050506040513d6000823e3d601f19601f82011682018060405250810190610f3a9190616306565b9050610f50671c934ea0e73c2ca060c01b6133f0565b610f646774aee51aebea928160c01b6133f0565b600081604051602001610f77919061647d565b6040516020818303038152906040529050610f9c6784e63776ad93d13760c01b6133f0565b610fb067c0bc46bcbf6445e660c01b6133f0565b610fba86826133f3565b610fce67dc1983a5205c3b4960c01b6133f0565b89600a600088815260200190815260200160002060006101000a81548173ffffffffffffffffffffffffffffffffffffffff021916908373ffffffffffffffffffffffffffffffffffffffff160217905550611034678ff1f706b95586ab60c01b6133f0565b88600b600088815260200190815260200160002081905550611060675f5e7643c0c75ca960c01b6133f0565b6110746737eb7ee9cc3ac35d60c01b6133f0565b600c60008b73ffffffffffffffffffffffffffffffffffffffff1673ffffffffffffffffffffffffffffffffffffffff16815260200190815260200160002060008a81526020019081526020016000208690806001815401808255809150506001900390600052602060002001600090919091909150556110ff670f2d0994911113ff60c01b6133f0565b611113673f4e14a3f686b99c60c01b6133f0565b888a73ffffffffffffffffffffffffffffffffffffffff16877fd14409b136f4c46af205dbc7e9b237bb1ae44b59893a672421c9c5d56bd156ea8e60405161115b91906155ba565b60405180910390a4611177671f24cf22de1274a860c01b6133f0565b61118b677c8a53a718ec82cc60c01b6133f0565b859750505050505050509392505050565b600b6020528060005260406000206000915090505481565b6111cf8383836040518060200160405280600081525061280d565b505050565b6111e8675460d426fe03f53160c01b613088565b6111fc672369de8ba82750ae60c01b613088565b61121067c57cd77cbcf82b0860c01b613088565b61122467d77ee60c6960a26b60c01b613088565b61122d8261344f565b61126c576040517f08c379a0000000000000000000000000000000000000000000000000000000008152600401611263906164eb565b60405180910390fd5b611280674c6d96aa1ebd69de60c01b613088565b611294679b09636edbce122260c01b613088565b6112a867166969bd30f8c6a460c01b613088565b6112bc67c24a90b361552e8c60c01b613088565b8273ffffffffffffffffffffffffffffffffffffffff166112dc83611a39565b73ffffffffffffffffffffffffffffffffffffffff1614611332576040517f08c379a00000000000000000000000000000000000000000000000000000000081526004016113299061657d565b60405180910390fd5b61134667e6da66c33ef13c0b60c01b613088565b61135a67c2d40873c743479c60c01b613088565b61136e67ec6a8f1db842c50760c01b613088565b61137882826133f3565b505050565b6113916744d522bfc4dce1fd60c01b613088565b6113a567cd07cbe570d009d060c01b613088565b6113b9676b5452cc7717c5f860c01b613088565b60005b81518110156117d5576113d967dee8783c88618df560c01b613088565b6113ed672d8417a79d7b157360c01b613088565b600060076000848481518110611406576114056163c6565b5b6020026020010151815260200190815260200160002090506114326703bc2de35def15fd60c01b613088565b6114466754eb828e1802581360c01b613088565b60008160010160008773ffffffffffffffffffffffffffffffffffffffff1673ffffffffffffffffffffffffffffffffffffffff1681526020019081526020016000208054905003611538576114a6679f559926d843336460c01b613088565b6114ba679f9036cace47dac060c01b613088565b6114ce67b9a37cc97320d6fd60c01b613088565b80600301859080600181540180825580915050600190039060005260206000200160009091909190916101000a81548173ffffffffffffffffffffffffffffffffffffffff021916908373ffffffffffffffffffffffffffffffffffffffff16021790555061154d565b61154c67e7fed0b1eee5515560c01b613088565b5b611561675026784be95772bf60c01b613088565b6115756734f274dde38c367060c01b613088565b6115896712c0c0b8bc82604760c01b613088565b3073ffffffffffffffffffffffffffffffffffffffff168573ffffffffffffffffffffffffffffffffffffffff16036115f7576040517f08c379a00000000000000000000000000000000000000000000000000000000081526004016115ee9061660f565b60405180910390fd5b61160b67d4d16ef04de2a37360c01b613088565b61161f6741a5f0e4fa1261a560c01b613088565b6116336787fe8de97a936ad760c01b613088565b428160040154106116b55761165267761ecbdd1b085eb660c01b613088565b61166667dae5f892bd6cfb7060c01b613088565b61167a672fa4eaf35cccf81660c01b613088565b6040517f08c379a00000000000000000000000000000000000000000000000000000000081526004016116ac906166a1565b60405180910390fd5b6116c967ac14116296ace09b60c01b613088565b6116dd67a0faf5961f12d78460c01b613088565b6116f1670b95427db614c82d60c01b613088565b8060010160008673ffffffffffffffffffffffffffffffffffffffff1673ffffffffffffffffffffffffffffffffffffffff16815260200190815260200160002084908060018154018082558091505060019003906000526020600020016000909190919091505561176d67d3fd0ed1c1ab9dc060c01b613088565b6117816776c3a9e598f7f5a460c01b613088565b6117c7838381518110611797576117966163c6565b5b60200260200101516117c28585815181106117b5576117b46163c6565b5b6020026020010151611a39565b6134cd565b5080806001019150506113bc565b50505050565b600a6020528060005260406000206000915054906101000a900473ffffffffffffffffffffffffffffffffffffffff1681565b61182267540a1f49f495207360c01b613088565b611836677a41a37a50ed1ab960c01b613088565b61184a67a9d0219c1451235a60c01b613088565b61185e679c399e9905d457ba60c01b613088565b80518251146118a2576040517f08c379a000000000000000000000000000000000000000000000000000000000815260040161189990616733565b60405180910390fd5b6118b66799f52b12bb4c812a60c01b613088565b6118ca67d361ee80edb3b37660c01b613088565b6118de6769ac35d2a3c4e1c660c01b613088565b60005b81518110156119cd576118fe679545a5b343d0855f60c01b613088565b611912674a7e5911a5acc5ed60c01b613088565b6000828281518110611927576119266163c6565b5b602002602001015151036119ac576119496768e12075e8729c1b60c01b613088565b61195d6746eb90669f0cec0e60c01b613088565b611971677a571f63fca5229460c01b613088565b6040517f08c379a00000000000000000000000000000000000000000000000000000000081526004016119a3906167c5565b60405180910390fd5b6119c0673f1d7d9e487855c760c01b613088565b80806001019150506118e1565b506119e2673d882426684f689c60c01b613088565b6119f667e44dddacb820741860c01b613088565b611a018284836135da565b611a15678bfe7a8981cd09ff60c01b613088565b611a2967dda4df4d0431397760c01b613088565b611a348284836138c5565b505050565b6000611a44826130f7565b9050919050565b606080611a62672a8057187da5cf8260c01b613088565b611a76679add4aeda7003fe160c01b613088565b611a8a67c6660e119135058f60c01b613088565b6060611aa067b3a4a8259077ba9860c01b613088565b611ab4672430bfeb8b97136260c01b613088565b6060611aca67bd3d68142fe6281b60c01b613088565b611ade67174391bbb45b39a760c01b613088565b3073ffffffffffffffffffffffffffffffffffffffff168673ffffffffffffffffffffffffffffffffffffffff1603611be957611b25679e1e839d46291d9b60c01b613088565b611b396764ca6838e432570260c01b613088565b611b4d67ab0285a8fec84ec460c01b613088565b611b616741c6b1f0e1bcabc860c01b613088565b611b6a8561344f565b611ba9576040517f08c379a0000000000000000000000000000000000000000000000000000000008152600401611ba0906164eb565b60405180910390fd5b611bbd679ca3fa73c943ed2560c01b613088565b611bd1679fbae1ec2cabc93960c01b613088565b611bdc8560006140c7565b8092508193505050611df2565b611bfd677b90ee9dee2b0dd260c01b613088565b611c1167e2822b8f3364110c60c01b613088565b611c256718addc167f8b300360c01b613088565b6000869050611c3e673af9373257c4372f60c01b613088565b611c5267af82304f2637001e60c01b613088565b611c6667cb839d786b652eee60c01b613088565b8073ffffffffffffffffffffffffffffffffffffffff166301ffc9a77f40997a20000000000000000000000000000000000000000000000000000000006040518263ffffffff1660e01b8152600401611cbf91906167f4565b602060405180830381865afa158015611cdc573d6000803e3d6000fd5b505050506040513d601f19601f82011682018060405250810190611d009190616824565b611d3f576040517f08c379a0000000000000000000000000000000000000000000000000000000008152600401611d36906168c3565b60405180910390fd5b611d53676d207c4bfc3ed37060c01b613088565b611d676760547426a1aa4e5e60c01b613088565b8073ffffffffffffffffffffffffffffffffffffffff166364f9b0e688886040518363ffffffff1660e01b8152600401611da29291906168e3565b600060405180830381865afa158015611dbf573d6000803e3d6000fd5b505050506040513d6000823e3d601f19601f82011682018060405250810190611de89190616b04565b8093508194505050505b611e0667a716787646ac1d3f60c01b613088565b611e1a675e3e396560457aec60c01b613088565b81819350935050509250929050565b60008073ffffffffffffffffffffffffffffffffffffffff168273ffffffffffffffffffffffffffffffffffffffff1603611e9c5760006040517f89c62b64000000000000000000000000000000000000000000000000000000008152600401611e9391906155ba565b60405180910390fd5b600360008373ffffffffffffffffffffffffffffffffffffffff1673ffffffffffffffffffffffffffffffffffffffff168152602001908152602001600020549050919050565b6060611ef9671d52ea9cf7ca559260c01b6133f0565b611f0d67710f907f19a7723f60c01b6133f0565b611f2167eb908e3be51faea460c01b6133f0565b6000600c60008573ffffffffffffffffffffffffffffffffffffffff1673ffffffffffffffffffffffffffffffffffffffff1681526020019081526020016000206000848152602001908152602001600020805480602002602001604051908101604052809291908181526020018280548015611fbd57602002820191906000526020600020905b815481526020019060010190808311611fa9575b50505050509050611fd8677dd8c3064dc4a4df60c01b6133f0565b611fec6736fa8bae5255322360c01b6133f0565b6000612002676b0e8d0a29e93c4d60c01b6133f0565b61201667352557cb88b292dc60c01b6133f0565b60005b82518110156121285761203667632d1c78a6ad3dbe60c01b6133f0565b61204a6705194fcad7e8a3ea60c01b6133f0565b61206d8382815181106120605761205f6163c6565b5b602002602001015161344f565b80156120c657508673ffffffffffffffffffffffffffffffffffffffff166120ae8483815181106120a1576120a06163c6565b5b6020026020010151611a39565b73ffffffffffffffffffffffffffffffffffffffff16145b15612106576120df67be916c9341f9379c60c01b6133f0565b6120f367041785f4923f409d60c01b6133f0565b81806120fe9061637e565b92505061211b565b61211a67e9f65347c12326c460c01b6133f0565b5b8080600101915050612019565b5061213d678079faba7366a7e060c01b6133f0565b61215167f2ec95002c1c2e6e60c01b6133f0565b60008167ffffffffffffffff81111561216d5761216c6156c8565b5b60405190808252806020026020018201604052801561219b5781602001602082028036833780820191505090505b5090506121b26775f394e40c90add260c01b6133f0565b6121c667e4a34be1bcd3f2ad60c01b6133f0565b60006121dc67bf88851c8a52eae660c01b6133f0565b6121f067b5ec6eb95311e7f760c01b6133f0565b60005b845181101561235057612210678247bb2d9879f4f160c01b6133f0565b612224678ac5d3579bd2813e60c01b6133f0565b61224785828151811061223a576122396163c6565b5b602002602001015161344f565b80156122a057508873ffffffffffffffffffffffffffffffffffffffff1661228886838151811061227b5761227a6163c6565b5b6020026020010151611a39565b73ffffffffffffffffffffffffffffffffffffffff16145b1561232e576122b967481978fb2df854ab60c01b6133f0565b6122cd67f4f351d37f13e84960c01b6133f0565b8481815181106122e0576122df6163c6565b5b60200260200101518383815181106122fb576122fa6163c6565b5b60200260200101818152505061231b678f3f7654996d5cf360c01b6133f0565b81806123269061637e565b925050612343565b61234267cee097345af5a16f60c01b6133f0565b5b80806001019150506121f3565b5061236567323893a46617ce4960c01b6133f0565b61237967455b5c543485d6f560c01b6133f0565b819450505050509392505050565b606060018054612396906161ec565b80601f01602080910402602001604051908101604052809291908181526020018280546123c2906161ec565b801561240f5780601f106123e45761010080835404028352916020019161240f565b820191906000526020600020905b8154815290600101906020018083116123f257829003601f168201915b5050505050905090565b61242b6124246131bc565b8383614649565b5050565b60608061244667d86d32e20293ebb160c01b613088565b61245a670a586fffcbf4c6f760c01b613088565b61246e67f645f467f738065560c01b613088565b6060612484678b1676a574efa5a960c01b613088565b61249867d949a6b568906fc160c01b613088565b60606124ae677fcebe001c6a9be160c01b613088565b6124c267c22d6f017b655ce360c01b613088565b3073ffffffffffffffffffffffffffffffffffffffff168673ffffffffffffffffffffffffffffffffffffffff16036125cd5761250967a0ea19dce62cac5560c01b613088565b61251d677e5afd651f520a6660c01b613088565b612531676b5f420ffff6827660c01b613088565b612545673349e809553ef15c60c01b613088565b61254e8561344f565b61258d576040517f08c379a0000000000000000000000000000000000000000000000000000000008152600401612584906164eb565b60405180910390fd5b6125a16749eccfc133eb6c5660c01b613088565b6125b56710d325ca5b6fb94d60c01b613088565b6125c08560016140c7565b80925081935050506127d6565b6125e1674c3d438bfd38ee0e60c01b613088565b6125f567877f097faf13e03060c01b613088565b61260967ae8d316ce031b54f60c01b613088565b6000869050612622679bfddd83cca26e5660c01b613088565b6126366730904ec10040453060c01b613088565b61264a677c2d222a48483e7e60c01b613088565b8073ffffffffffffffffffffffffffffffffffffffff166301ffc9a77f40997a20000000000000000000000000000000000000000000000000000000006040518263ffffffff1660e01b81526004016126a391906167f4565b602060405180830381865afa1580156126c0573d6000803e3d6000fd5b505050506040513d601f19601f820116820180604052508101906126e49190616824565b612723576040517f08c379a000000000000000000000000000000000000000000000000000000000815260040161271a906168c3565b60405180910390fd5b6127376722d6790ee4835cd960c01b613088565b61274b67991a0eb7a444ecba60c01b613088565b8073ffffffffffffffffffffffffffffffffffffffff1663a35391ac88886040518363ffffffff1660e01b81526004016127869291906168e3565b600060405180830381865afa1580156127a3573d6000803e3d6000fd5b505050506040513d6000823e3d601f19601f820116820180604052508101906127cc9190616b04565b8093508194505050505b6127ea67499cc878fa47decd60c01b613088565b6127fe67908473de3423b77f60c01b613088565b81819350935050509250929050565b6128188484846107ef565b61282c6128236131bc565b858585856147b8565b50505050565b606061284867219dff15491ec04860c01b613088565b61285c67fb03ce6e7d29487e60c01b613088565b61287067c3ed6073bf9b7c8f60c01b613088565b61287982614969565b9050919050565b600061289667922a19d09fbeb1f060c01b613088565b6128aa67b6089a468e74062e60c01b613088565b6128be670489b003a74db55260c01b613088565b60006128d4673565147131b76fbd60c01b613088565b6128e8672847415d99b6576360c01b613088565b3073ffffffffffffffffffffffffffffffffffffffff168473ffffffffffffffffffffffffffffffffffffffff1603612a275761292f67d967ca7a173dce7160c01b613088565b6129436777f507db8991dd9660c01b613088565b61295767671e4031e8f1a71660c01b613088565b61296b67a442e2f69ea8e32360c01b613088565b6129748361344f565b6129b3576040517f08c379a00000000000000000000000000000000000000000000000000000000081526004016129aa906164eb565b60405180910390fd5b6129c76773dd998ecc5fd80060c01b613088565b6129db67d28be19dad1d4e7f60c01b613088565b6129ef6757cc17201b11ea0660c01b613088565b6000600760008581526020019081526020016000209050612a1a6731d0ff825dbc1fcc60c01b613088565b8060040154915050612c25565b612a3b67b402457233ff120260c01b613088565b612a4f6798b3e8f4f484e8c160c01b613088565b612a6367da8c3905f1548e9960c01b613088565b6000849050612a7c67584e8a86ecdb28bb60c01b613088565b612a9067bc5b15fe5430a67460c01b613088565b612aa467bbc49cc2a21cbe1560c01b613088565b8073ffffffffffffffffffffffffffffffffffffffff166301ffc9a77f40997a20000000000000000000000000000000000000000000000000000000006040518263ffffffff1660e01b8152600401612afd91906167f4565b602060405180830381865afa158015612b1a573d6000803e3d6000fd5b505050506040513d601f19601f82011682018060405250810190612b3e9190616824565b612b7d576040517f08c379a0000000000000000000000000000000000000000000000000000000008152600401612b74906168c3565b60405180910390fd5b612b9167ec6e3248fade815260c01b613088565b612ba567406563109d49183b60c01b613088565b8073ffffffffffffffffffffffffffffffffffffffff1663d30d968d86866040518363ffffffff1660e01b8152600401612be09291906168e3565b602060405180830381865afa158015612bfd573d6000803e3d6000fd5b505050506040513d601f19601f82011682018060405250810190612c219190616b7c565b9150505b612c3967bac7073e1bce58a060c01b613088565b612c4d67ee374d7fafbcf9c760c01b613088565b8091505092915050565b6000600560008473ffffffffffffffffffffffffffffffffffffffff1673ffffffffffffffffffffffffffffffffffffffff16815260200190815260200160002060008373ffffffffffffffffffffffffffffffffffffffff1673ffffffffffffffffffffffffffffffffffffffff16815260200190815260200160002060009054906101000a900460ff16905092915050565b6000612d01674659226549d7f00e60c01b6133f0565b612d156783963febd558fe3960c01b6133f0565b612d2967affe0aa33dcb276c60c01b6133f0565b6000600c60008573ffffffffffffffffffffffffffffffffffffffff1673ffffffffffffffffffffffffffffffffffffffff1681526020019081526020016000206000848152602001908152602001600020805480602002602001604051908101604052809291908181526020018280548015612dc557602002820191906000526020600020905b815481526020019060010190808311612db1575b50505050509050612de067d504e1361f64e4bd60c01b6133f0565b612df467e7a1f9281f0d362560c01b6133f0565b60005b8151811015612f2657612e1467cf89e2f4c8b28e4260c01b6133f0565b612e28677933b33fd83578eb60c01b6133f0565b6000828281518110612e3d57612e3c6163c6565b5b60200260200101519050612e5b67eabf399a03e9966060c01b6133f0565b612e6f67ec617f3591e17f6960c01b6133f0565b612e788161344f565b8015612eb757508673ffffffffffffffffffffffffffffffffffffffff16612e9f82611a39565b73ffffffffffffffffffffffffffffffffffffffff16145b15612f0457612ed06754716f9a9c8be51160c01b6133f0565b612ee46731b71d4274c2b52760c01b6133f0565b612ef86710fc860bcfc83fa060c01b6133f0565b60019350505050612f55565b612f1867f3d3fb9d4abf1ee860c01b6133f0565b508080600101915050612df7565b50612f3b6750bc01ea816f548a60c01b6133f0565b612f4f67ee35b5376351ced260c01b6133f0565b60009150505b9392505050565b612f70675492b8c535dc75e060c01b613088565b612f8467c5665a1e311030ac60c01b613088565b612f9867e9f7d1de8c0500a260c01b613088565b612fa28484614a7c565b612fb66703fd6745a2b1e4a960c01b613088565b612fca6791ae5ffffe978b5260c01b613088565b6000815114158015612fde57506000825114155b1561302f57612ff767197bd7e8bc0b52ed60c01b613088565b61300b67724e9ef09b32a50860c01b613088565b61301f6757f07f7f0e85bc9b60c01b613088565b61302a83838361180e565b613044565b61304367cf7332ec9bc2c88a60c01b613088565b5b50505050565b600c602052826000526040600020602052816000526040600020818154811061307257600080fd5b9060005260206000200160009250925050505481565b50565b600060019050919050565b6000634906490660e01b7bffffffffffffffffffffffffffffffffffffffffffffffffffffffff1916827bffffffffffffffffffffffffffffffffffffffffffffffffffffffff191614806130f057506130ef82614a9a565b5b9050919050565b60008061310383614b7c565b9050600073ffffffffffffffffffffffffffffffffffffffff168173ffffffffffffffffffffffffffffffffffffffff160361317657826040517f7e27328900000000000000000000000000000000000000000000000000000000815260040161316d91906156a3565b60405180910390fd5b80915050919050565b60006004600083815260200190815260200160002060009054906101000a900473ffffffffffffffffffffffffffffffffffffffff169050919050565b600033905090565b6131d18383836001614bb9565b505050565b6000806131e284614b7c565b9050600073ffffffffffffffffffffffffffffffffffffffff168373ffffffffffffffffffffffffffffffffffffffff161461322457613223818486614d7e565b5b600073ffffffffffffffffffffffffffffffffffffffff168173ffffffffffffffffffffffffffffffffffffffff16146132b557613266600085600080614bb9565b6001600360008373ffffffffffffffffffffffffffffffffffffffff1673ffffffffffffffffffffffffffffffffffffffff168152602001908152602001600020600082825403925050819055505b600073ffffffffffffffffffffffffffffffffffffffff168573ffffffffffffffffffffffffffffffffffffffff1614613338576001600360008773ffffffffffffffffffffffffffffffffffffffff1673ffffffffffffffffffffffffffffffffffffffff168152602001908152602001600020600082825401925050819055505b846002600086815260200190815260200160002060006101000a81548173ffffffffffffffffffffffffffffffffffffffff021916908373ffffffffffffffffffffffffffffffffffffffff160217905550838573ffffffffffffffffffffffffffffffffffffffff168273ffffffffffffffffffffffffffffffffffffffff167fddf252ad1be2c89b69c2b068fc378daa952ba7f163c4a11628f55a4df523b3ef60405160405180910390a4809150509392505050565b50565b806006600084815260200190815260200160002090816134139190616d55565b507ff8e1a15aba9398e019f0b49df1a4fde98ee17ae345cb5f6b5e2c27f5033e8ce78260405161344391906156a3565b60405180910390a15050565b60006134656796a6b609c6d1eb2d60c01b613088565b613479679026c3eb5a9d11b860c01b613088565b61348d67f8bd7d56748f9d3460c01b613088565b600073ffffffffffffffffffffffffffffffffffffffff166134ae83611a39565b73ffffffffffffffffffffffffffffffffffffffff1614159050919050565b6134e167adf78b3b1579fc6260c01b613088565b6134f56733b954b076514d7060c01b613088565b6135096781714145c809a1dc60c01b613088565b6000806135178460016140c7565b9150915061352f67df8a3382a9c03d3c60c01b613088565b61354367d6b849daa297032c60c01b613088565b6000806135518660006140c7565b915091506135696750249e3ad984a83760c01b613088565b61357d678e16e2923a7dea6a60c01b613088565b8473ffffffffffffffffffffffffffffffffffffffff16867f81bed52c04e8cd65796985202162bad7e20a8ffaa732fe2e0a0bc79f687e4d66868686866040516135ca9493929190616e27565b60405180910390a3505050505050565b6135ee674dac4d6b12717c7e60c01b613088565b61360267685a152b54e717f360c01b613088565b6136166777f929af3438512f60c01b613088565b6000600760008481526020019081526020016000209050613641678e458fbeadabdd5960c01b613088565b613655675f2fc45deea99fdd60c01b613088565b60005b845181101561386f576136756785c5e3fbc183606460c01b613088565b61368967d8a1d2bcc3e516c060c01b613088565b60008260000160008784815181106136a4576136a36163c6565b5b602002602001015173ffffffffffffffffffffffffffffffffffffffff1673ffffffffffffffffffffffffffffffffffffffff16815260200190815260200160002080549050036137af5761370367c83094816b0c8dc260c01b613088565b61371767bce6fe83daee16fc60c01b613088565b61372b674eb186806663984560c01b613088565b81600201858281518110613742576137416163c6565b5b60200260200101519080600181540180825580915050600190039060005260206000200160009091909190916101000a81548173ffffffffffffffffffffffffffffffffffffffff021916908373ffffffffffffffffffffffffffffffffffffffff1602179055506137c4565b6137c367cf8089f71bb59d0560c01b613088565b5b6137d8675536f92cec9768c660c01b613088565b8281815181106137eb576137ea6163c6565b5b602002602001015182600001600087848151811061380c5761380b6163c6565b5b602002602001015173ffffffffffffffffffffffffffffffffffffffff1673ffffffffffffffffffffffffffffffffffffffff168152602001908152602001600020908051906020019061386192919061532b565b508080600101915050613658565b5061388467698030a8e604f0d060c01b613088565b4281600401819055506138a167416ffe2852f1c6ab60c01b613088565b6138b5673f6b5792e10bf97a60c01b613088565b6138bf83336134cd565b50505050565b6138d9670dfd7d5a926631bc60c01b613088565b6138ec6612171346c366fc60c01b613088565b61390067ebdd72b62daa7fe060c01b613088565b60005b83518110156140c15761392067ac1d061f240d056e60c01b613088565b613934673d2b56996d6dac3b60c01b613088565b3073ffffffffffffffffffffffffffffffffffffffff1684828151811061395e5761395d6163c6565b5b602002602001015173ffffffffffffffffffffffffffffffffffffffff1603613e835761399567cf95859994893d4b60c01b613088565b6139a967101c6357f20657d160c01b613088565b6139bd67bddb021f04a8936660c01b613088565b60005b8282815181106139d3576139d26163c6565b5b602002602001015151811015613e7d576139f7671ec3aaf902715c8d60c01b613088565b613a0b67e39e39f0833e87e960c01b613088565b600060076000858581518110613a2457613a236163c6565b5b60200260200101518481518110613a3e57613a3d6163c6565b5b602002602001015181526020019081526020016000209050613a6a6789696f61d4096f0060c01b613088565b613a7e67eab6a0c1bfd93c6f60c01b613088565b6000816001016000888681518110613a9957613a986163c6565b5b602002602001015173ffffffffffffffffffffffffffffffffffffffff1673ffffffffffffffffffffffffffffffffffffffff1681526020019081526020016000208054905003613ba457613af86783a8528c3982cd0e60c01b613088565b613b0c67fb9b0b5b9e018d0460c01b613088565b613b206713501e79ad84128660c01b613088565b80600301868481518110613b3757613b366163c6565b5b60200260200101519080600181540180825580915050600190039060005260206000200160009091909190916101000a81548173ffffffffffffffffffffffffffffffffffffffff021916908373ffffffffffffffffffffffffffffffffffffffff160217905550613bb9565b613bb867c5ba9666b37d3bc260c01b613088565b5b613bcd67239e433522a110da60c01b613088565b613be167d301368bedc65ad560c01b613088565b613bf5670726be337865ba4d60c01b613088565b838381518110613c0857613c076163c6565b5b60200260200101518281518110613c2257613c216163c6565b5b60200260200101518503613c6b576040517f08c379a0000000000000000000000000000000000000000000000000000000008152600401613c6290616efa565b60405180910390fd5b613c7f674f7cc68646c24e4e60c01b613088565b613c9367c7e8abb19549febe60c01b613088565b613ca767da11b2fbd1e6987660c01b613088565b42816004015410613d2957613cc667fcd4831cbe36884560c01b613088565b613cda67c8a634ac8f73f9ce60c01b613088565b613cee67f0543f15e11c4ab760c01b613088565b6040517f08c379a0000000000000000000000000000000000000000000000000000000008152600401613d20906166a1565b60405180910390fd5b613d3d67db4510bc9be57d4860c01b613088565b613d51672a229b5d514333d960c01b613088565b613d6567e642867953b38ffa60c01b613088565b8060010160003073ffffffffffffffffffffffffffffffffffffffff1673ffffffffffffffffffffffffffffffffffffffff168152602001908152602001600020859080600181540180825580915050600190039060005260206000200160009091909190915055613de1675d7fbc5563d058e360c01b613088565b613df567a13f6b70785cd77b60c01b613088565b613e6f848481518110613e0b57613e0a6163c6565b5b60200260200101518381518110613e2557613e246163c6565b5b6020026020010151613e6a868681518110613e4357613e426163c6565b5b60200260200101518581518110613e5d57613e5c6163c6565b5b6020026020010151611a39565b6134cd565b5080806001019150506139c0565b506140b4565b613e976712a8f52de2a8923360c01b613088565b613eab67c810b4a0fe24a62160c01b613088565b613ebf670102fb90a76c52da60c01b613088565b6000848281518110613ed457613ed36163c6565b5b60200260200101519050613ef2677416649f45a6056760c01b613088565b613f0667c14326e58b85d4a360c01b613088565b60008173ffffffffffffffffffffffffffffffffffffffff166301ffc9a77f40997a20000000000000000000000000000000000000000000000000000000006040518263ffffffff1660e01b8152600401613f6191906167f4565b602060405180830381865afa158015613f7e573d6000803e3d6000fd5b505050506040513d601f19601f82011682018060405250810190613fa29190616824565b9050613fb8674c10347e8f2fab9e60c01b613088565b613fcc6753b8de672ad546c360c01b613088565b801561409c57613fe667d3d0a0e2ef0a59ec60c01b613088565b613ffa6702f1f267c4a3746e60c01b613088565b61400e67ffb6e75851ba729260c01b613088565b8173ffffffffffffffffffffffffffffffffffffffff166355c10440308787878151811061403f5761403e6163c6565b5b60200260200101516040518463ffffffff1660e01b815260040161406593929190616f1a565b600060405180830381600087803b15801561407f57600080fd5b505af1158015614093573d6000803e3d6000fd5b505050506140b1565b6140b067a0d76f2af6bb283c60c01b613088565b5b50505b8080600101915050613903565b50505050565b6060806140de67c045bb855c8f90ca60c01b613088565b6140f2679afe305efbb6915b60c01b613088565b61410667af67464a02ffe4ab60c01b613088565b60006007600086815260200190815260200160002090506141316795dc51acdbfb697060c01b613088565b614145675fb0b59e7d80728160c01b613088565b606061415b671d9c1dfdbd39a0ff60c01b613088565b61416f67056f61d010f0977960c01b613088565b606061418567a284e1d97d603e5d60c01b613088565b61419967f8974b53bf13562860c01b613088565b85156143da576141b3673576a8e80fa0ae7060c01b613088565b6141c76793ee727b96137bcd60c01b613088565b8260020180548060200260200160405190810160405280929190818152602001828054801561424b57602002820191906000526020600020905b8160009054906101000a900473ffffffffffffffffffffffffffffffffffffffff1673ffffffffffffffffffffffffffffffffffffffff1681526020019060010190808311614201575b5050505050915061426667bff9ea6d1820fce960c01b613088565b815167ffffffffffffffff811115614281576142806156c8565b5b6040519080825280602002602001820160405280156142b457816020015b606081526020019060019003908161429f5790505b5090506142cb676532678eeb57114c60c01b613088565b6142df672fd1a4bf1c90fd7360c01b613088565b60005b82518110156143d4576142ff674ffdf90c89f3122a60c01b613088565b836000016000848381518110614318576143176163c6565b5b602002602001015173ffffffffffffffffffffffffffffffffffffffff1673ffffffffffffffffffffffffffffffffffffffff1681526020019081526020016000208054806020026020016040519081016040528092919081815260200182805480156143a457602002820191906000526020600020905b815481526020019060010190808311614390575b50505050508282815181106143bc576143bb6163c6565b5b602002602001018190525080806001019150506142e2565b50614611565b6143ee679c0cba8c4db5c38560c01b613088565b61440267ae0c2bf4b808856760c01b613088565b8260030180548060200260200160405190810160405280929190818152602001828054801561448657602002820191906000526020600020905b8160009054906101000a900473ffffffffffffffffffffffffffffffffffffffff1673ffffffffffffffffffffffffffffffffffffffff168152602001906001019080831161443c575b505050505091506144a167bc16725d583300a460c01b613088565b815167ffffffffffffffff8111156144bc576144bb6156c8565b5b6040519080825280602002602001820160405280156144ef57816020015b60608152602001906001900390816144da5790505b50905061450667d798f0a5671d5b2360c01b613088565b61451a67571e1f6b7880669760c01b613088565b60005b825181101561460f5761453a67ebf71c5b21f77b4860c01b613088565b836001016000848381518110614553576145526163c6565b5b602002602001015173ffffffffffffffffffffffffffffffffffffffff1673ffffffffffffffffffffffffffffffffffffffff1681526020019081526020016000208054806020026020016040519081016040528092919081815260200182805480156145df57602002820191906000526020600020905b8154815260200190600101908083116145cb575b50505050508282815181106145f7576145f66163c6565b5b6020026020010181905250808060010191505061451d565b505b6146256777a3ee7b95ea2e0560c01b613088565b614639672218791ed2864eda60c01b613088565b8181945094505050509250929050565b600073ffffffffffffffffffffffffffffffffffffffff168273ffffffffffffffffffffffffffffffffffffffff16036146ba57816040517f5b08ba180000000000000000000000000000000000000000000000000000000081526004016146b191906155ba565b60405180910390fd5b80600560008573ffffffffffffffffffffffffffffffffffffffff1673ffffffffffffffffffffffffffffffffffffffff16815260200190815260200160002060008473ffffffffffffffffffffffffffffffffffffffff1673ffffffffffffffffffffffffffffffffffffffff16815260200190815260200160002060006101000a81548160ff0219169083151502179055508173ffffffffffffffffffffffffffffffffffffffff168373ffffffffffffffffffffffffffffffffffffffff167f17307eab39ab6107e8899845ad3d59bd9653f200f220920489ca2b5937696c31836040516147ab9190615449565b60405180910390a3505050565b60008373ffffffffffffffffffffffffffffffffffffffff163b1115614962578273ffffffffffffffffffffffffffffffffffffffff1663150b7a02868685856040518563ffffffff1660e01b81526004016148179493929190616fad565b6020604051808303816000875af192505050801561485357506040513d601f19601f82011682018060405250810190614850919061700e565b60015b6148d7573d8060008114614883576040519150601f19603f3d011682016040523d82523d6000602084013e614888565b606091505b5060008151036148cf57836040517f64a0ae920000000000000000000000000000000000000000000000000000000081526004016148c691906155ba565b60405180910390fd5b805181602001fd5b63150b7a0260e01b7bffffffffffffffffffffffffffffffffffffffffffffffffffffffff1916817bffffffffffffffffffffffffffffffffffffffffffffffffffffffff19161461496057836040517f64a0ae9200000000000000000000000000000000000000000000000000000000815260040161495791906155ba565b60405180910390fd5b505b5050505050565b6060614974826130f7565b506000600660008481526020019081526020016000208054614995906161ec565b80601f01602080910402602001604051908101604052809291908181526020018280546149c1906161ec565b8015614a0e5780601f106149e357610100808354040283529160200191614a0e565b820191906000526020600020905b8154815290600101906020018083116149f157829003601f168201915b505050505090506000614a1f614e42565b90506000815103614a34578192505050614a77565b600082511115614a69578082604051602001614a5192919061703b565b60405160208183030381529060405292505050614a77565b614a7284614e59565b925050505b919050565b614a96828260405180602001604052806000815250614ec2565b5050565b60007f80ac58cd000000000000000000000000000000000000000000000000000000007bffffffffffffffffffffffffffffffffffffffffffffffffffffffff1916827bffffffffffffffffffffffffffffffffffffffffffffffffffffffff19161480614b6557507f5b5e139f000000000000000000000000000000000000000000000000000000007bffffffffffffffffffffffffffffffffffffffffffffffffffffffff1916827bffffffffffffffffffffffffffffffffffffffffffffffffffffffff1916145b80614b755750614b7482614ee6565b5b9050919050565b60006002600083815260200190815260200160002060009054906101000a900473ffffffffffffffffffffffffffffffffffffffff169050919050565b8080614bf25750600073ffffffffffffffffffffffffffffffffffffffff168273ffffffffffffffffffffffffffffffffffffffff1614155b15614d26576000614c02846130f7565b9050600073ffffffffffffffffffffffffffffffffffffffff168373ffffffffffffffffffffffffffffffffffffffff1614158015614c6d57508273ffffffffffffffffffffffffffffffffffffffff168173ffffffffffffffffffffffffffffffffffffffff1614155b8015614c805750614c7e8184612c57565b155b15614cc257826040517fa9fbf51f000000000000000000000000000000000000000000000000000000008152600401614cb991906155ba565b60405180910390fd5b8115614d2457838573ffffffffffffffffffffffffffffffffffffffff168273ffffffffffffffffffffffffffffffffffffffff167f8c5be1e5ebec7d5bd14f71427d1e84f3dd0314c0f7b2291e5b200ac8c7c3b92560405160405180910390a45b505b836004600085815260200190815260200160002060006101000a81548173ffffffffffffffffffffffffffffffffffffffff021916908373ffffffffffffffffffffffffffffffffffffffff16021790555050505050565b614d89838383614f50565b614e3d57600073ffffffffffffffffffffffffffffffffffffffff168373ffffffffffffffffffffffffffffffffffffffff1603614dfe57806040517f7e273289000000000000000000000000000000000000000000000000000000008152600401614df591906156a3565b60405180910390fd5b81816040517f177e802f000000000000000000000000000000000000000000000000000000008152600401614e349291906168e3565b60405180910390fd5b505050565b606060405180602001604052806000815250905090565b6060614e64826130f7565b506000614e6f614e42565b90506000815111614e8f5760405180602001604052806000815250614eba565b80614e9984615011565b604051602001614eaa92919061703b565b6040516020818303038152906040525b915050919050565b614ecc83836150df565b614ee1614ed76131bc565b60008585856147b8565b505050565b60007f01ffc9a7000000000000000000000000000000000000000000000000000000007bffffffffffffffffffffffffffffffffffffffffffffffffffffffff1916827bffffffffffffffffffffffffffffffffffffffffffffffffffffffff1916149050919050565b60008073ffffffffffffffffffffffffffffffffffffffff168373ffffffffffffffffffffffffffffffffffffffff161415801561500857508273ffffffffffffffffffffffffffffffffffffffff168473ffffffffffffffffffffffffffffffffffffffff161480614fc95750614fc88484612c57565b5b8061500757508273ffffffffffffffffffffffffffffffffffffffff16614fef8361317f565b73ffffffffffffffffffffffffffffffffffffffff16145b5b90509392505050565b606060006001615020846151d8565b01905060008167ffffffffffffffff81111561503f5761503e6156c8565b5b6040519080825280601f01601f1916602001820160405280156150715781602001600182028036833780820191505090505b509050600082602001820190505b6001156150d4578080600190039150507f3031323334353637383961626364656600000000000000000000000000000000600a86061a8153600a85816150c8576150c761705f565b5b0494506000850361507f575b819350505050919050565b600073ffffffffffffffffffffffffffffffffffffffff168273ffffffffffffffffffffffffffffffffffffffff16036151515760006040517f64a0ae9200000000000000000000000000000000000000000000000000000000815260040161514891906155ba565b60405180910390fd5b600061515f838360006131d6565b9050600073ffffffffffffffffffffffffffffffffffffffff168173ffffffffffffffffffffffffffffffffffffffff16146151d35760006040517f73c6ac6e0000000000000000000000000000000000000000000000000000000081526004016151ca91906155ba565b60405180910390fd5b505050565b600080600090507a184f03e93ff9f4daa797ed6e38ed64bf6a1f0100000000000000008310615236577a184f03e93ff9f4daa797ed6e38ed64bf6a1f010000000000000000838161522c5761522b61705f565b5b0492506040810190505b6d04ee2d6d415b85acef81000000008310615273576d04ee2d6d415b85acef810000000083816152695761526861705f565b5b0492506020810190505b662386f26fc1000083106152a257662386f26fc1000083816152985761529761705f565b5b0492506010810190505b6305f5e10083106152cb576305f5e10083816152c1576152c061705f565b5b0492506008810190505b61271083106152f05761271083816152e6576152e561705f565b5b0492506004810190505b6064831061531357606483816153095761530861705f565b5b0492506002810190505b600a8310615322576001810190505b80915050919050565b828054828255906000526020600020908101928215615367579160200282015b8281111561536657825182559160200191906001019061534b565b5b5090506153749190615378565b5090565b5b80821115615391576000816000905550600101615379565b5090565b6000604051905090565b600080fd5b600080fd5b60007fffffffff0000000000000000000000000000000000000000000000000000000082169050919050565b6153de816153a9565b81146153e957600080fd5b50565b6000813590506153fb816153d5565b92915050565b6000602082840312156154175761541661539f565b5b6000615425848285016153ec565b91505092915050565b60008115159050919050565b6154438161542e565b82525050565b600060208201905061545e600083018461543a565b92915050565b600081519050919050565b600082825260208201905092915050565b60005b8381101561549e578082015181840152602081019050615483565b60008484015250505050565b6000601f19601f8301169050919050565b60006154c682615464565b6154d0818561546f565b93506154e0818560208601615480565b6154e9816154aa565b840191505092915050565b6000602082019050818103600083015261550e81846154bb565b905092915050565b6000819050919050565b61552981615516565b811461553457600080fd5b50565b60008135905061554681615520565b92915050565b6000602082840312156155625761556161539f565b5b600061557084828501615537565b91505092915050565b600073ffffffffffffffffffffffffffffffffffffffff82169050919050565b60006155a482615579565b9050919050565b6155b481615599565b82525050565b60006020820190506155cf60008301846155ab565b92915050565b6155de81615599565b81146155e957600080fd5b50565b6000813590506155fb816155d5565b92915050565b600080604083850312156156185761561761539f565b5b6000615626858286016155ec565b925050602061563785828601615537565b9150509250929050565b60008060006060848603121561565a5761565961539f565b5b6000615668868287016155ec565b9350506020615679868287016155ec565b925050604061568a86828701615537565b9150509250925092565b61569d81615516565b82525050565b60006020820190506156b86000830184615694565b92915050565b600080fd5b600080fd5b7f4e487b7100000000000000000000000000000000000000000000000000000000600052604160045260246000fd5b615700826154aa565b810181811067ffffffffffffffff8211171561571f5761571e6156c8565b5b80604052505050565b6000615732615395565b905061573e82826156f7565b919050565b600067ffffffffffffffff82111561575e5761575d6156c8565b5b615767826154aa565b9050602081019050919050565b82818337600083830152505050565b600061579661579184615743565b615728565b9050828152602081018484840111156157b2576157b16156c3565b5b6157bd848285615774565b509392505050565b600082601f8301126157da576157d96156be565b5b81356157ea848260208601615783565b91505092915050565b60008060006060848603121561580c5761580b61539f565b5b600061581a868287016155ec565b935050602061582b86828701615537565b925050604084013567ffffffffffffffff81111561584c5761584b6153a4565b5b615858868287016157c5565b9150509250925092565b600067ffffffffffffffff82111561587d5761587c6156c8565b5b602082029050602081019050919050565b600080fd5b60006158a66158a184615862565b615728565b905080838252602082019050602084028301858111156158c9576158c861588e565b5b835b818110156158f257806158de8882615537565b8452602084019350506020810190506158cb565b5050509392505050565b600082601f830112615911576159106156be565b5b8135615921848260208601615893565b91505092915050565b6000806000606084860312156159435761594261539f565b5b6000615951868287016155ec565b935050602061596286828701615537565b925050604084013567ffffffffffffffff811115615983576159826153a4565b5b61598f868287016158fc565b9150509250925092565b600067ffffffffffffffff8211156159b4576159b36156c8565b5b602082029050602081019050919050565b60006159d86159d384615999565b615728565b905080838252602082019050602084028301858111156159fb576159fa61588e565b5b835b81811015615a245780615a1088826155ec565b8452602084019350506020810190506159fd565b5050509392505050565b600082601f830112615a4357615a426156be565b5b8135615a538482602086016159c5565b91505092915050565b600067ffffffffffffffff821115615a7757615a766156c8565b5b602082029050602081019050919050565b6000615a9b615a9684615a5c565b615728565b90508083825260208201905060208402830185811115615abe57615abd61588e565b5b835b81811015615b0557803567ffffffffffffffff811115615ae357615ae26156be565b5b808601615af089826158fc565b85526020850194505050602081019050615ac0565b5050509392505050565b600082601f830112615b2457615b236156be565b5b8135615b34848260208601615a88565b91505092915050565b600080600060608486031215615b5657615b5561539f565b5b6000615b6486828701615537565b935050602084013567ffffffffffffffff811115615b8557615b846153a4565b5b615b9186828701615a2e565b925050604084013567ffffffffffffffff811115615bb257615bb16153a4565b5b615bbe86828701615b0f565b9150509250925092565b600081519050919050565b600082825260208201905092915050565b6000819050602082019050919050565b615bfd81615599565b82525050565b6000615c0f8383615bf4565b60208301905092915050565b6000602082019050919050565b6000615c3382615bc8565b615c3d8185615bd3565b9350615c4883615be4565b8060005b83811015615c79578151615c608882615c03565b9750615c6b83615c1b565b925050600181019050615c4c565b5085935050505092915050565b600081519050919050565b600082825260208201905092915050565b6000819050602082019050919050565b600081519050919050565b600082825260208201905092915050565b6000819050602082019050919050565b615ce781615516565b82525050565b6000615cf98383615cde565b60208301905092915050565b6000602082019050919050565b6000615d1d82615cb2565b615d278185615cbd565b9350615d3283615cce565b8060005b83811015615d63578151615d4a8882615ced565b9750615d5583615d05565b925050600181019050615d36565b5085935050505092915050565b6000615d7c8383615d12565b905092915050565b6000602082019050919050565b6000615d9c82615c86565b615da68185615c91565b935083602082028501615db885615ca2565b8060005b85811015615df45784840389528151615dd58582615d70565b9450615de083615d84565b925060208a01995050600181019050615dbc565b50829750879550505050505092915050565b60006040820190508181036000830152615e208185615c28565b90508181036020830152615e348184615d91565b90509392505050565b600060208284031215615e5357615e5261539f565b5b6000615e61848285016155ec565b91505092915050565b600082825260208201905092915050565b6000615e8682615cb2565b615e908185615e6a565b9350615e9b83615cce565b8060005b83811015615ecc578151615eb38882615ced565b9750615ebe83615d05565b925050600181019050615e9f565b5085935050505092915050565b60006020820190508181036000830152615ef38184615e7b565b905092915050565b615f048161542e565b8114615f0f57600080fd5b50565b600081359050615f2181615efb565b92915050565b60008060408385031215615f3e57615f3d61539f565b5b6000615f4c858286016155ec565b9250506020615f5d85828601615f12565b9150509250929050565b600067ffffffffffffffff821115615f8257615f816156c8565b5b615f8b826154aa565b9050602081019050919050565b6000615fab615fa684615f67565b615728565b905082815260208101848484011115615fc757615fc66156c3565b5b615fd2848285615774565b509392505050565b600082601f830112615fef57615fee6156be565b5b8135615fff848260208601615f98565b91505092915050565b600080600080608085870312156160225761602161539f565b5b6000616030878288016155ec565b9450506020616041878288016155ec565b935050604061605287828801615537565b925050606085013567ffffffffffffffff811115616073576160726153a4565b5b61607f87828801615fda565b91505092959194509250565b600080604083850312156160a2576160a161539f565b5b60006160b0858286016155ec565b92505060206160c1858286016155ec565b9150509250929050565b600080600080608085870312156160e5576160e461539f565b5b60006160f3878288016155ec565b945050602061610487828801615537565b935050604085013567ffffffffffffffff811115616125576161246153a4565b5b61613187828801615a2e565b925050606085013567ffffffffffffffff811115616152576161516153a4565b5b61615e87828801615b0f565b91505092959194509250565b6000806000606084860312156161835761618261539f565b5b6000616191868287016155ec565b93505060206161a286828701615537565b92505060406161b386828701615537565b9150509250925092565b7f4e487b7100000000000000000000000000000000000000000000000000000000600052602260045260246000fd5b6000600282049050600182168061620457607f821691505b602082108103616217576162166161bd565b5b50919050565b600060608201905061623260008301866155ab565b61623f6020830185615694565b61624c60408301846155ab565b949350505050565b600081519050616263816155d5565b92915050565b60006020828403121561627f5761627e61539f565b5b600061628d84828501616254565b91505092915050565b60006162a96162a484615743565b615728565b9050828152602081018484840111156162c5576162c46156c3565b5b6162d0848285615480565b509392505050565b600082601f8301126162ed576162ec6156be565b5b81516162fd848260208601616296565b91505092915050565b60006020828403121561631c5761631b61539f565b5b600082015167ffffffffffffffff81111561633a576163396153a4565b5b616346848285016162d8565b91505092915050565b7f4e487b7100000000000000000000000000000000000000000000000000000000600052601160045260246000fd5b600061638982615516565b91507fffffffffffffffffffffffffffffffffffffffffffffffffffffffffffffffff82036163bb576163ba61634f565b5b600182019050919050565b7f4e487b7100000000000000000000000000000000000000000000000000000000600052603260045260246000fd5b600081905092915050565b7f6c6963656e73652d666f722d0000000000000000000000000000000000000000600082015250565b6000616436600c836163f5565b915061644182616400565b600c82019050919050565b600061645782615464565b61646181856163f5565b9350616471818560208601615480565b80840191505092915050565b600061648882616429565b9150616494828461644c565b915081905092915050565b7f4552435f353532313a20746f6b656e204944206e6f7420657869737465640000600082015250565b60006164d5601e8361546f565b91506164e08261649f565b602082019050919050565b60006020820190508181036000830152616504816164c8565b9050919050565b7f4552435f353532313a207472616e736665722063616c6c6572206973206e6f7460008201527f206f776e6572206e6f7220617070726f76656400000000000000000000000000602082015250565b600061656760338361546f565b91506165728261650b565b604082019050919050565b600060208201905081810360008301526165968161655a565b9050919050565b7f4552435f353532313a2074686973206d75737420626520616e2065787465726e60008201527f616c20636f6e7472616374206164647265737300000000000000000000000000602082015250565b60006165f960338361546f565b91506166048261659d565b604082019050919050565b60006020820190508181036000830152616628816165ec565b9050919050565b7f4552435f353532313a2074686520726566657272656420724e4654206e65656460008201527f7320746f2062652061207072656465636573736f720000000000000000000000602082015250565b600061668b60358361546f565b91506166968261662f565b604082019050919050565b600060208201905081810360008301526166ba8161667e565b9050919050565b7f41646472657373657320616e6420546f6b656e494420617272617973206d757360008201527f742068617665207468652073616d65206c656e67746800000000000000000000602082015250565b600061671d60368361546f565b9150616728826166c1565b604082019050919050565b6000602082019050818103600083015261674c81616710565b9050919050565b7f4552435f353532313a2074686520726566657272696e67206c6973742063616e60008201527f6e6f7420626520656d7074790000000000000000000000000000000000000000602082015250565b60006167af602c8361546f565b91506167ba82616753565b604082019050919050565b600060208201905081810360008301526167de816167a2565b9050919050565b6167ee816153a9565b82525050565b600060208201905061680960008301846167e5565b92915050565b60008151905061681e81615efb565b92915050565b60006020828403121561683a5761683961539f565b5b60006168488482850161680f565b91505092915050565b7f4552435f353532313a2074617267657420636f6e7472616374206e6f7420737560008201527f70706f7274656400000000000000000000000000000000000000000000000000602082015250565b60006168ad60278361546f565b91506168b882616851565b604082019050919050565b600060208201905081810360008301526168dc816168a0565b9050919050565b60006040820190506168f860008301856155ab565b6169056020830184615694565b9392505050565b600061691f61691a84615999565b615728565b905080838252602082019050602084028301858111156169425761694161588e565b5b835b8181101561696b57806169578882616254565b845260208401935050602081019050616944565b5050509392505050565b600082601f83011261698a576169896156be565b5b815161699a84826020860161690c565b91505092915050565b6000815190506169b281615520565b92915050565b60006169cb6169c684615862565b615728565b905080838252602082019050602084028301858111156169ee576169ed61588e565b5b835b81811015616a175780616a0388826169a3565b8452602084019350506020810190506169f0565b5050509392505050565b600082601f830112616a3657616a356156be565b5b8151616a468482602086016169b8565b91505092915050565b6000616a62616a5d84615a5c565b615728565b90508083825260208201905060208402830185811115616a8557616a8461588e565b5b835b81811015616acc57805167ffffffffffffffff811115616aaa57616aa96156be565b5b808601616ab78982616a21565b85526020850194505050602081019050616a87565b5050509392505050565b600082601f830112616aeb57616aea6156be565b5b8151616afb848260208601616a4f565b91505092915050565b60008060408385031215616b1b57616b1a61539f565b5b600083015167ffffffffffffffff811115616b3957616b386153a4565b5b616b4585828601616975565b925050602083015167ffffffffffffffff811115616b6657616b656153a4565b5b616b7285828601616ad6565b9150509250929050565b600060208284031215616b9257616b9161539f565b5b6000616ba0848285016169a3565b91505092915050565b60008190508160005260206000209050919050565b60006020601f8301049050919050565b600082821b905092915050565b600060088302616c0b7fffffffffffffffffffffffffffffffffffffffffffffffffffffffffffffffff82616bce565b616c158683616bce565b95508019841693508086168417925050509392505050565b6000819050919050565b6000616c52616c4d616c4884615516565b616c2d565b615516565b9050919050565b6000819050919050565b616c6c83616c37565b616c80616c7882616c59565b848454616bdb565b825550505050565b600090565b616c95616c88565b616ca0818484616c63565b505050565b5b81811015616cc457616cb9600082616c8d565b600181019050616ca6565b5050565b601f821115616d0957616cda81616ba9565b616ce384616bbe565b81016020851015616cf2578190505b616d06616cfe85616bbe565b830182616ca5565b50505b505050565b600082821c905092915050565b6000616d2c60001984600802616d0e565b1980831691505092915050565b6000616d458383616d1b565b9150826002028217905092915050565b616d5e82615464565b67ffffffffffffffff811115616d7757616d766156c8565b5b616d8182546161ec565b616d8c828285616cc8565b600060209050601f831160018114616dbf5760008415616dad578287015190505b616db78582616d39565b865550616e1f565b601f198416616dcd86616ba9565b60005b82811015616df557848901518255600182019150602085019450602081019050616dd0565b86831015616e125784890151616e0e601f891682616d1b565b8355505b6001600288020188555050505b505050505050565b60006080820190508181036000830152616e418187615c28565b90508181036020830152616e558186615d91565b90508181036040830152616e698185615c28565b90508181036060830152616e7d8184615d91565b905095945050505050565b7f4552435f353532313a2073656c662d7265666572656e6365206e6f7420616c6c60008201527f6f77656400000000000000000000000000000000000000000000000000000000602082015250565b6000616ee460248361546f565b9150616eef82616e88565b604082019050919050565b60006020820190508181036000830152616f1381616ed7565b9050919050565b6000606082019050616f2f60008301866155ab565b616f3c6020830185615694565b8181036040830152616f4e8184615e7b565b9050949350505050565b600081519050919050565b600082825260208201905092915050565b6000616f7f82616f58565b616f898185616f63565b9350616f99818560208601615480565b616fa2816154aa565b840191505092915050565b6000608082019050616fc260008301876155ab565b616fcf60208301866155ab565b616fdc6040830185615694565b8181036060830152616fee8184616f74565b905095945050505050565b600081519050617008816153d5565b92915050565b6000602082840312156170245761702361539f565b5b600061703284828501616ff9565b91505092915050565b6000617047828561644c565b9150617053828461644c565b91508190509392505050565b7f4e487b7100000000000000000000000000000000000000000000000000000000600052601260045260246000fdfea26469706673582212207f3f28bd21312a783e9b36f3f77f1b87fd374a0fc82571b45cba081fe5b42ac464736f6c634300081c003360c060405234801561001057600080fd5b50604051611389380380611389833981810160405281019061003291906101c8565b61004c6793d281f04c157eea60c01b61016260201b60201c565b6100666798be9d337a10a91860c01b61016260201b60201c565b3373ffffffffffffffffffffffffffffffffffffffff1660808173ffffffffffffffffffffffffffffffffffffffff16815250506100b4672f6aa618d9e3696d60c01b61016260201b60201c565b8073ffffffffffffffffffffffffffffffffffffffff1660a08173ffffffffffffffffffffffffffffffffffffffff168152505061010267e25531999d96487460c01b61016260201b60201c565b61011c67396956c4fcc7a5bc60c01b61016260201b60201c565b7f93a30136aae1c03168149ad89c17916bf87e42510e99641ddf9d6e11234af9c1600a605f62278d00604051610154939291906102ba565b60405180910390a1506102f1565b50565b600080fd5b600073ffffffffffffffffffffffffffffffffffffffff82169050919050565b60006101958261016a565b9050919050565b6101a58161018a565b81146101b057600080fd5b50565b6000815190506101c28161019c565b92915050565b6000602082840312156101de576101dd610165565b5b60006101ec848285016101b3565b91505092915050565b6000819050919050565b6000819050919050565b6000819050919050565b600061022e610229610224846101f5565b610209565b6101ff565b9050919050565b61023e81610213565b82525050565b6000819050919050565b600061026961026461025f84610244565b610209565b6101ff565b9050919050565b6102798161024e565b82525050565b6000819050919050565b60006102a461029f61029a8461027f565b610209565b6101ff565b9050919050565b6102b481610289565b82525050565b60006060820190506102cf6000830186610235565b6102dc6020830185610270565b6102e960408301846102ab565b949350505050565b60805160a05161106c61031d6000396000610580015260008181610a1f0152610b70015261106c6000f3fe6080604052600436106100705760003560e01c806322964af91161004e57806322964af9146101065780639a2fa9bb14610122578063bce7b0301461015f578063ea0cf9a01461018857610070565b8063024fa0d61461007557806308f2da85146100b257806321c34fcb146100ef575b600080fd5b34801561008157600080fd5b5061009c60048036038101906100979190610d64565b6101a4565b6040516100a99190610daa565b60405180910390f35b3480156100be57600080fd5b506100d960048036038101906100d49190610df1565b610228565b6040516100e69190610daa565b60405180910390f35b3480156100fb57600080fd5b5061010461024d565b005b610120600480360381019061011b9190610e31565b610542565b005b34801561012e57600080fd5b5061014960048036038101906101449190610d64565b6109c9565b6040516101569190610daa565b60405180910390f35b34801561016b57600080fd5b5061018660048036038101906101819190610e98565b6109e1565b005b6101a2600480360381019061019d9190610df1565b610b32565b005b60006101ba67a040635c04ded1e060c01b610cfe565b6101ce67990699600536a8ea60c01b610cfe565b6101e267c7e49c637db615a060c01b610cfe565b6000808373ffffffffffffffffffffffffffffffffffffffff1673ffffffffffffffffffffffffffffffffffffffff168152602001908152602001600020549050919050565b6001602052816000526040600020602052806000526040600020600091509150505481565b61026066fc061395b888b960c01b610cfe565b61027467b80f99066d28dbf760c01b610cfe565b610288675efd4a78a7341d0d60c01b610cfe565b60008060003373ffffffffffffffffffffffffffffffffffffffff1673ffffffffffffffffffffffffffffffffffffffff1681526020019081526020016000205490506102df67f3670505c47f7e3c60c01b610cfe565b6102f367dde72eb2cfde459660c01b610cfe565b600081036103415761030f67854f40222687c9f760c01b610cfe565b6040517fa844960900000000000000000000000000000000000000000000000000000000815260040160405180910390fd5b6103556783d8876cffe39ecc60c01b610cfe565b6103696719ee7ba1ab7c6d2e60c01b610cfe565b60008060003373ffffffffffffffffffffffffffffffffffffffff1673ffffffffffffffffffffffffffffffffffffffff168152602001908152602001600020819055506103c16747e65d588874945760c01b610cfe565b6103d567c49f5b1898919cb160c01b610cfe565b60003373ffffffffffffffffffffffffffffffffffffffff16826040516103fb90610f1c565b60006040518083038185875af1925050503d8060008114610438576040519150601f19603f3d011682016040523d82523d6000602084013e61043d565b606091505b50509050610455670486f8e423b17b4f60c01b610cfe565b610469676ee66e255e3cb21660c01b610cfe565b806104b4576104826731f602245a5e676d60c01b610cfe565b6040517f90b8ec1800000000000000000000000000000000000000000000000000000000815260040160405180910390fd5b6104c867afce52ce1405e96d60c01b610cfe565b6104dc67a5ca721c5f2f00da60c01b610cfe565b6104f0679e006a9ac93d736f60c01b610cfe565b3373ffffffffffffffffffffffffffffffffffffffff167f9c56d4e207b08f0df71c47be77f4558c7954505688b8f5372c828ed167846e40836040516105369190610daa565b60405180910390a25050565b6105566723bf62c1b2318ee860c01b610cfe565b61056a67f35eac24f80c678360c01b610cfe565b61057e67ee6a38f681e6932e60c01b610cfe565b7f000000000000000000000000000000000000000000000000000000000000000073ffffffffffffffffffffffffffffffffffffffff16630d21bcd56040518163ffffffff1660e01b8152600401602060405180830381865afa1580156105e9573d6000803e3d6000fd5b505050506040513d601f19601f8201168201806040525081019061060d9190610f46565b73ffffffffffffffffffffffffffffffffffffffff163373ffffffffffffffffffffffffffffffffffffffff16146106845761065266bdefb3a06fb7b260c01b610cfe565b6040517fea8e4eb500000000000000000000000000000000000000000000000000000000815260040160405180910390fd5b61069867863df7e98eb9d73c60c01b610cfe565b6106ac6711f9c3d1307c98e460c01b610cfe565b6106c067e415def0f63e2e4460c01b610cfe565b6000600160008573ffffffffffffffffffffffffffffffffffffffff1673ffffffffffffffffffffffffffffffffffffffff168152602001908152602001600020600084815260200190815260200160002054905061072967c4fd3ffe9866819b60c01b610cfe565b61073d673a6c50fb35b5e02660c01b610cfe565b600081036108555761075967aed09d7b4964e2ee60c01b610cfe565b61076d676f4abf3148bcf0ad60c01b610cfe565b42905061078467e646d9860f3bf0c060c01b610cfe565b80600160008673ffffffffffffffffffffffffffffffffffffffff1673ffffffffffffffffffffffffffffffffffffffff1681526020019081526020016000206000858152602001908152602001600020819055506107ed670e672520537312e960c01b610cfe565b6108016735376168e65da3bd60c01b610cfe565b828473ffffffffffffffffffffffffffffffffffffffff167fdf56f2f27826d2cd8261b4e3db31dd34e9144d75dbd025f377f4e8ad296fca25836040516108489190610daa565b60405180910390a361086a565b61086967d7225c0f761c9e9c60c01b610cfe565b5b61087e67c16a576fe0b361c160c01b610cfe565b610892673ee3eea273b31de160c01b610cfe565b828473ffffffffffffffffffffffffffffffffffffffff167f1fe2676d3fb5db35fe57bc07eb1a115f73987b40048ec0965764cce5e989a75a84426040516108db929190610f73565b60405180910390a36108f767a930b4392ceeb4d460c01b610cfe565b346000808773ffffffffffffffffffffffffffffffffffffffff1673ffffffffffffffffffffffffffffffffffffffff16815260200190815260200160002060008282546109459190610fcb565b9250508190555061096067b8799c3caa6f403f60c01b610cfe565b610974676d30d5b4d446c3c560c01b610cfe565b8473ffffffffffffffffffffffffffffffffffffffff167f4815a443b3844e28d56b6a4a5f8a561f0b349b6dd58953295aaec7b5d5a55e45346040516109ba9190610daa565b60405180910390a25050505050565b60006020528060005260406000206000915090505481565b6109f567ecfad5825c80f67d60c01b610cfe565b610a0967026681ab136448d260c01b610cfe565b610a1d673aa18d720a80f3f160c01b610cfe565b7f000000000000000000000000000000000000000000000000000000000000000073ffffffffffffffffffffffffffffffffffffffff163373ffffffffffffffffffffffffffffffffffffffff1614610ab657610a8467d826a94dcce1b70b60c01b610cfe565b6040517fea8e4eb500000000000000000000000000000000000000000000000000000000815260040160405180910390fd5b610aca672121f876afc0981e60c01b610cfe565b610ade6715e06b4b8be10d6d60c01b610cfe565b610af267af86926ba09e9eb960c01b610cfe565b7f93a30136aae1c03168149ad89c17916bf87e42510e99641ddf9d6e11234af9c1838383604051610b2593929190610fff565b60405180910390a1505050565b610b466714660cd49b719ae160c01b610cfe565b610b5a67e24ece0d451322fe60c01b610cfe565b610b6e67cc4f26682a8d700660c01b610cfe565b7f000000000000000000000000000000000000000000000000000000000000000073ffffffffffffffffffffffffffffffffffffffff163373ffffffffffffffffffffffffffffffffffffffff1614610c0757610bd567829e943b88c85f0c60c01b610cfe565b6040517fea8e4eb500000000000000000000000000000000000000000000000000000000815260040160405180910390fd5b610c1b67c7468098fa18569260c01b610cfe565b610c2f675fc294c4e14944e960c01b610cfe565b806000808473ffffffffffffffffffffffffffffffffffffffff1673ffffffffffffffffffffffffffffffffffffffff1681526020019081526020016000206000828254610c7d9190610fcb565b92505081905550610c9867b859ab00b570c87060c01b610cfe565b610cac6787a0a6293d3fcb4560c01b610cfe565b8173ffffffffffffffffffffffffffffffffffffffff167f4815a443b3844e28d56b6a4a5f8a561f0b349b6dd58953295aaec7b5d5a55e4582604051610cf29190610daa565b60405180910390a25050565b50565b600080fd5b600073ffffffffffffffffffffffffffffffffffffffff82169050919050565b6000610d3182610d06565b9050919050565b610d4181610d26565b8114610d4c57600080fd5b50565b600081359050610d5e81610d38565b92915050565b600060208284031215610d7a57610d79610d01565b5b6000610d8884828501610d4f565b91505092915050565b6000819050919050565b610da481610d91565b82525050565b6000602082019050610dbf6000830184610d9b565b92915050565b610dce81610d91565b8114610dd957600080fd5b50565b600081359050610deb81610dc5565b92915050565b60008060408385031215610e0857610e07610d01565b5b6000610e1685828601610d4f565b9250506020610e2785828601610ddc565b9150509250929050565b60008060008060808587031215610e4b57610e4a610d01565b5b6000610e5987828801610d4f565b9450506020610e6a87828801610d4f565b9350506040610e7b87828801610ddc565b9250506060610e8c87828801610ddc565b91505092959194509250565b600080600060608486031215610eb157610eb0610d01565b5b6000610ebf86828701610ddc565b9350506020610ed086828701610ddc565b9250506040610ee186828701610ddc565b9150509250925092565b600081905092915050565b50565b6000610f06600083610eeb565b9150610f1182610ef6565b600082019050919050565b6000610f2782610ef9565b9150819050919050565b600081519050610f4081610d38565b92915050565b600060208284031215610f5c57610f5b610d01565b5b6000610f6a84828501610f31565b91505092915050565b6000604082019050610f886000830185610d9b565b610f956020830184610d9b565b9392505050565b7f4e487b7100000000000000000000000000000000000000000000000000000000600052601160045260246000fd5b6000610fd682610d91565b9150610fe183610d91565b9250828201905080821115610ff957610ff8610f9c565b5b92915050565b60006060820190506110146000830186610d9b565b6110216020830185610d9b565b61102e6040830184610d9b565b94935050505056fea26469706673582212204ff0f846e2b85e4dba46582ab50290965c353bc9bea866662a5f6c2812c04c8b64736f6c634300081c0033",
  "linkReferences": {},
  "deployedLinkReferences": {}
}