{
  "_format": "hh-sol-artifact-1",
  "contractName": "Marketplace",
  "sourceName": "contracts/Marketplace.sol",
  "abi": [
    {
      "inputs": [
        {
          "internalType": "address",
          "name": "_registry",
          "type": "address"
        }
      ],
      "stateMutability": "nonpayable",
      "type": "constructor"
    },
    {
      "inputs": [],
      "name": "AlreadyListed",
      "type": "error"
    },
    {
      "inputs": [],
      "name": "CannotBuyOwnSoftware",
      "type": "error"
    },
    {
      "inputs": [],
      "name": "InsufficientFunds",
      "type": "error"
    },
    {
      "inputs": [],
      "name": "NoRepository",
      "type": "error"
    },
    {
      "inputs": [],
      "name": "NotDeveloper",
      "type": "error"
    },
    {
      "inputs": [],
      "name": "NotListed",
      "type": "error"
    },
    {
      "inputs": [],
      "name": "NotOwner",
      "type": "error"
    },
    {
      "inputs": [],
      "name": "NotSeller",
      "type": "error"
    },
    {
      "anonymous": false,
      "inputs": [
        {
          "indexed": true,
          "internalType": "address",
          "name": "buyer",
          "type": "address"
        },
        {
          "indexed": true,
          "internalType": "address",
          "name": "nftContract",
          "type": "address"
        },
        {
          "indexed": true,
          "internalType": "uint256",
          "name": "tokenId",
          "type": "uint256"
        },
        {
          "indexed": false,
          "internalType": "uint256",
          "name": "licenseId",
          "type": "uint256"
        },
        {
          "indexed": false,
          "internalType": "uint256",
          "name": "price",
          "type": "uint256"
        }
      ],
      "name": "LicensePurchased",
      "type": "event"
    },
    {
      "anonymous": false,
      "inputs": [
        {
          "indexed": true,
          "internalType": "address",
          "name": "nftContract",
          "type": "address"
        },
        {
          "indexed": true,
          "internalType": "uint256",
          "name": "tokenId",
          "type": "uint256"
        },
        {
          "indexed": true,
          "internalType": "address",
          "name": "developer",
          "type": "address"
        },
        {
          "indexed": false,
          "internalType": "uint256",
          "name": "price",
          "type": "uint256"
        }
      ],
      "name": "SoftwareListed",
      "type": "event"
    },
    {
      "inputs": [
        {
          "internalType": "address",
          "name": "repository",
          "type": "address"
        },
        {
          "internalType": "uint256",
          "name": "tokenId",
          "type": "uint256"
        }
      ],
      "name": "buySoftware",
      "outputs": [
        {
          "internalType": "uint256",
          "name": "",
          "type": "uint256"
        }
      ],
      "stateMutability": "payable",
      "type": "function"
    },
    {
      "inputs": [
        {
          "internalType": "address",
          "name": "repository",
          "type": "address"
        },
        {
          "internalType": "uint256",
          "name": "tokenId",
          "type": "uint256"
        }
      ],
      "name": "cancelListing",
      "outputs": [],
      "stateMutability": "nonpayable",
      "type": "function"
    },
    {
      "inputs": [
        {
          "internalType": "address",
          "name": "repository",
          "type": "address"
        },
        {
          "internalType": "uint256",
          "name": "tokenId",
          "type": "uint256"
        }
      ],
      "name": "checkIsListed",
      "outputs": [
        {
          "internalType": "bool",
          "name": "",
          "type": "bool"
        }
      ],
      "stateMutability": "view",
      "type": "function"
    },
    {
      "inputs": [
        {
          "internalType": "address",
          "name": "repository",
          "type": "address"
        },
        {
          "internalType": "uint256",
          "name": "tokenId",
          "type": "uint256"
        }
      ],
      "name": "getListingPrice",
      "outputs": [
        {
          "internalType": "uint256",
          "name": "",
          "type": "uint256"
        }
      ],
      "stateMutability": "view",
      "type": "function"
    },
    {
      "inputs": [
        {
          "internalType": "uint256",
          "name": "tokenId",
          "type": "uint256"
        },
        {
          "internalType": "uint256",
          "name": "listingPrice",
          "type": "uint256"
        }
      ],
      "name": "listSoftware",
      "outputs": [],
      "stateMutability": "nonpayable",
      "type": "function"
    }
  ],
  "bytecode": "0x608060405234801561001057600080fd5b5060405161177f38038061177f83398181016040528101906100329190610112565b61004c67b8737b0339ec1aca60c01b6100ac60201b60201c565b610066673398ad96ee2d486c60c01b6100ac60201b60201c565b806000806101000a81548173ffffffffffffffffffffffffffffffffffffffff021916908373ffffffffffffffffffffffffffffffffffffffff1602179055505061013f565b50565b600080fd5b600073ffffffffffffffffffffffffffffffffffffffff82169050919050565b60006100df826100b4565b9050919050565b6100ef816100d4565b81146100fa57600080fd5b50565b60008151905061010c816100e6565b92915050565b600060208284031215610128576101276100af565b5b6000610136848285016100fd565b91505092915050565b6116318061014e6000396000f3fe60806040526004361061004a5760003560e01c806306d783971461004f5780631f739c751461008c5780635cf738d5146100b5578063b2ddee06146100e5578063eaab53221461010e575b600080fd5b34801561005b57600080fd5b5061007660048036038101906100719190611346565b61014b565b6040516100839190611395565b60405180910390f35b34801561009857600080fd5b506100b360048036038101906100ae91906113b0565b6102c2565b005b6100cf60048036038101906100ca9190611346565b6108e9565b6040516100dc9190611395565b60405180910390f35b3480156100f157600080fd5b5061010c60048036038101906101079190611346565b611037565b005b34801561011a57600080fd5b5061013560048036038101906101309190611346565b61120d565b604051610142919061140b565b60405180910390f35b600061016167cf815b4c79ebb6df60c01b6112aa565b61017567a571132ca3d8c51460c01b6112aa565b61018967b6d1a161f74b16bf60c01b6112aa565b6000600160008573ffffffffffffffffffffffffffffffffffffffff1673ffffffffffffffffffffffffffffffffffffffff1681526020019081526020016000206000848152602001908152602001600020600101540361022a576101f867993ea3aa07611b5860c01b6112aa565b6040517f665c1c5700000000000000000000000000000000000000000000000000000000815260040160405180910390fd5b61023e67b3dbe9a1edcc170860c01b6112aa565b61025267835a9413c428c7b560c01b6112aa565b61026667e6405a898cb0a93560c01b6112aa565b600160008473ffffffffffffffffffffffffffffffffffffffff1673ffffffffffffffffffffffffffffffffffffffff168152602001908152602001600020600083815260200190815260200160002060010154905092915050565b6102d66720558406ff612af060c01b6112aa565b6102ea677f2b04fc4a7f5fc760c01b6112aa565b6102fe67fe2a77a304d84fa560c01b6112aa565b60008060009054906101000a900473ffffffffffffffffffffffffffffffffffffffff1673ffffffffffffffffffffffffffffffffffffffff16631a7c177e336040518263ffffffff1660e01b815260040161035a9190611435565b602060405180830381865afa158015610377573d6000803e3d6000fd5b505050506040513d601f19601f8201168201806040525081019061039b9190611465565b90506103b1672ee995894917423260c01b6112aa565b6103c567b7880086e8afe7bc60c01b6112aa565b6000600160008373ffffffffffffffffffffffffffffffffffffffff1673ffffffffffffffffffffffffffffffffffffffff16815260200190815260200160002060008581526020019081526020016000206001015411156104675761043567edc493fc873304ce60c01b6112aa565b6040517fa3d582ec00000000000000000000000000000000000000000000000000000000815260040160405180910390fd5b61047b677b1f68616c26b8ad60c01b6112aa565b61048f67d41e6dbd8ae3e81960c01b6112aa565b6104a367418ac0f75038669660c01b6112aa565b60008054906101000a900473ffffffffffffffffffffffffffffffffffffffff1673ffffffffffffffffffffffffffffffffffffffff16635eca4a70336040518263ffffffff1660e01b81526004016104fc9190611435565b602060405180830381865afa158015610519573d6000803e3d6000fd5b505050506040513d601f19601f8201168201806040525081019061053d91906114be565b6105875761055567ad15b05950aa241260c01b6112aa565b6040517f8858596300000000000000000000000000000000000000000000000000000000815260040160405180910390fd5b61059b6717a6292a5160e53560c01b6112aa565b6105af67fba831c14a222dfc60c01b6112aa565b6105c3670bfe3888757343f860c01b6112aa565b600073ffffffffffffffffffffffffffffffffffffffff168173ffffffffffffffffffffffffffffffffffffffff160361063d5761060b6795684a98e30f2c4f60c01b6112aa565b6040517f3c79282000000000000000000000000000000000000000000000000000000000815260040160405180910390fd5b610651672069ed275e5ee91c60c01b6112aa565b61066567d051352a3ed6ab6460c01b6112aa565b61067967b820b18bb75b58e060c01b6112aa565b60008054906101000a900473ffffffffffffffffffffffffffffffffffffffff1673ffffffffffffffffffffffffffffffffffffffff1663bb6e2f8682856040518363ffffffff1660e01b81526004016106d49291906114eb565b602060405180830381865afa1580156106f1573d6000803e3d6000fd5b505050506040513d601f19601f8201168201806040525081019061071591906114be565b61075f5761072d678f54569c30d2f5a460c01b6112aa565b6040517f30cd747100000000000000000000000000000000000000000000000000000000815260040160405180910390fd5b61077367af53744a2901877e60c01b6112aa565b6107876794300d2d4ba6cdf560c01b6112aa565b60405180604001604052803373ffffffffffffffffffffffffffffffffffffffff16815260200183815250600160008373ffffffffffffffffffffffffffffffffffffffff1673ffffffffffffffffffffffffffffffffffffffff168152602001908152602001600020600085815260200190815260200160002060008201518160000160006101000a81548173ffffffffffffffffffffffffffffffffffffffff021916908373ffffffffffffffffffffffffffffffffffffffff1602179055506020820151816001015590505061086a6768c7318fdedc4b3960c01b6112aa565b61087e67569ffbeecc270dad60c01b6112aa565b3373ffffffffffffffffffffffffffffffffffffffff16838273ffffffffffffffffffffffffffffffffffffffff167fb2fe8b8db74b35ecf28fa902c2c92ffaf61ea5c839bd93f41159fa3d174b9faa856040516108dc9190611395565b60405180910390a4505050565b60006108ff6775736349fc768cf260c01b6112aa565b61091367b1b2723e0c94b6da60c01b6112aa565b61092767afc6a4b8daff217660c01b6112aa565b6000600160008573ffffffffffffffffffffffffffffffffffffffff1673ffffffffffffffffffffffffffffffffffffffff168152602001908152602001600020600084815260200190815260200160002060010154036109c8576109966793727075188ed8e160c01b6112aa565b6040517f665c1c5700000000000000000000000000000000000000000000000000000000815260040160405180910390fd5b6109dc6712c7c3f87387e0aa60c01b6112aa565b6109f0678b54e572c150b69b60c01b6112aa565b610a0467d04b855d8ca5962d60c01b6112aa565b3373ffffffffffffffffffffffffffffffffffffffff16600160008573ffffffffffffffffffffffffffffffffffffffff1673ffffffffffffffffffffffffffffffffffffffff168152602001908152602001600020600084815260200190815260200160002060000160009054906101000a900473ffffffffffffffffffffffffffffffffffffffff1673ffffffffffffffffffffffffffffffffffffffff1603610af057610abe67493c373c429302a660c01b6112aa565b6040517ff254b59200000000000000000000000000000000000000000000000000000000815260040160405180910390fd5b610b04670db186ead26804d460c01b6112aa565b610b1867926701ecc6bc6eee60c01b6112aa565b610b2c6776686e57374ad43260c01b6112aa565b6000600160008573ffffffffffffffffffffffffffffffffffffffff1673ffffffffffffffffffffffffffffffffffffffff1681526020019081526020016000206000848152602001908152602001600020600101549050610b986767c8132b0fc0693c60c01b6112aa565b610bac670e366db52829c66560c01b6112aa565b80341015610bfa57610bc8670697daa42dee797660c01b6112aa565b6040517f356680b700000000000000000000000000000000000000000000000000000000815260040160405180910390fd5b610c0e67384b2b7ca85190f360c01b6112aa565b610c226713090bb3677c769e60c01b6112aa565b610c36679aceef80fc7fa27460c01b6112aa565b6000600160008673ffffffffffffffffffffffffffffffffffffffff1673ffffffffffffffffffffffffffffffffffffffff168152602001908152602001600020600085815260200190815260200160002060000160009054906101000a900473ffffffffffffffffffffffffffffffffffffffff169050610cc26758d9518af333875560c01b6112aa565b610cd66716216dadff7cec6460c01b6112aa565b60008060009054906101000a900473ffffffffffffffffffffffffffffffffffffffff1673ffffffffffffffffffffffffffffffffffffffff166338ffc19433600160008a73ffffffffffffffffffffffffffffffffffffffff1673ffffffffffffffffffffffffffffffffffffffff168152602001908152602001600020600089815260200190815260200160002060000160009054906101000a900473ffffffffffffffffffffffffffffffffffffffff16886040518463ffffffff1660e01b8152600401610da993929190611514565b6020604051808303816000875af1158015610dc8573d6000803e3d6000fd5b505050506040513d601f19601f82011682018060405250810190610dec9190611560565b9050610e02670d931d5a78aade7f60c01b6112aa565b610e166712189f6ddf86195f60c01b6112aa565b60008060009054906101000a900473ffffffffffffffffffffffffffffffffffffffff1673ffffffffffffffffffffffffffffffffffffffff16639a1b2fb46040518163ffffffff1660e01b8152600401602060405180830381865afa158015610e84573d6000803e3d6000fd5b505050506040513d601f19601f82011682018060405250810190610ea89190611465565b9050610ebe676fe056d030ee155060c01b6112aa565b610ed26739ff2f5ca699629660c01b6112aa565b6000819050610eeb67fbd88f89864f98d760c01b6112aa565b610eff67523f882e0924a61860c01b6112aa565b8073ffffffffffffffffffffffffffffffffffffffff166322964af934868b8b8a6040518663ffffffff1660e01b8152600401610f3f949392919061158d565b6000604051808303818588803b158015610f5857600080fd5b505af1158015610f6c573d6000803e3d6000fd5b5050505050610f8567a26a84448a5078f460c01b6112aa565b610f996734bbc86154bdc36060c01b6112aa565b868873ffffffffffffffffffffffffffffffffffffffff163373ffffffffffffffffffffffffffffffffffffffff167f96264bbc207fc189d5e12e353cb56e88076d3850c35b256d63c541521d4d46f28689604051610ff99291906115d2565b60405180910390a46110156754877a3c4004673760c01b6112aa565b6110296757dfd1ddaf8f115a60c01b6112aa565b829550505050505092915050565b61104b675c4347bbe8d07edb60c01b6112aa565b61105f67a86f1f0bb4170dad60c01b6112aa565b61107367c8be4378c51da84760c01b6112aa565b3373ffffffffffffffffffffffffffffffffffffffff16600160008473ffffffffffffffffffffffffffffffffffffffff1673ffffffffffffffffffffffffffffffffffffffff168152602001908152602001600020600083815260200190815260200160002060000160009054906101000a900473ffffffffffffffffffffffffffffffffffffffff1673ffffffffffffffffffffffffffffffffffffffff161461115f5761112d6725119187a7ddfb6b60c01b6112aa565b6040517f5ec8235100000000000000000000000000000000000000000000000000000000815260040160405180910390fd5b6111736741f397f7d46f062e60c01b6112aa565b61118767f6bf4f7aa9fedb7160c01b6112aa565b600160008373ffffffffffffffffffffffffffffffffffffffff1673ffffffffffffffffffffffffffffffffffffffff1681526020019081526020016000206000828152602001908152602001600020600080820160006101000a81549073ffffffffffffffffffffffffffffffffffffffff0219169055600182016000905550505050565b600061122367034cf32bfe900f3760c01b6112aa565b6112376753c3ee7c9c88af1160c01b6112aa565b61124b67fb77e53dd60c949e60c01b6112aa565b6000600160008573ffffffffffffffffffffffffffffffffffffffff1673ffffffffffffffffffffffffffffffffffffffff16815260200190815260200160002060008481526020019081526020016000206001015411905092915050565b50565b600080fd5b600073ffffffffffffffffffffffffffffffffffffffff82169050919050565b60006112dd826112b2565b9050919050565b6112ed816112d2565b81146112f857600080fd5b50565b60008135905061130a816112e4565b92915050565b6000819050919050565b61132381611310565b811461132e57600080fd5b50565b6000813590506113408161131a565b92915050565b6000806040838503121561135d5761135c6112ad565b5b600061136b858286016112fb565b925050602061137c85828601611331565b9150509250929050565b61138f81611310565b82525050565b60006020820190506113aa6000830184611386565b92915050565b600080604083850312156113c7576113c66112ad565b5b60006113d585828601611331565b92505060206113e685828601611331565b9150509250929050565b60008115159050919050565b611405816113f0565b82525050565b600060208201905061142060008301846113fc565b92915050565b61142f816112d2565b82525050565b600060208201905061144a6000830184611426565b92915050565b60008151905061145f816112e4565b92915050565b60006020828403121561147b5761147a6112ad565b5b600061148984828501611450565b91505092915050565b61149b816113f0565b81146114a657600080fd5b50565b6000815190506114b881611492565b92915050565b6000602082840312156114d4576114d36112ad565b5b60006114e2848285016114a9565b91505092915050565b60006040820190506115006000830185611426565b61150d6020830184611386565b9392505050565b60006060820190506115296000830186611426565b6115366020830185611426565b6115436040830184611386565b949350505050565b60008151905061155a8161131a565b92915050565b600060208284031215611576576115756112ad565b5b60006115848482850161154b565b91505092915050565b60006080820190506115a26000830187611426565b6115af6020830186611426565b6115bc6040830185611386565b6115c96060830184611386565b95945050505050565b60006040820190506115e76000830185611386565b6115f46020830184611386565b939250505056fea2646970667358221220be1d12fdc9f1529bdaf361e06cd7ff70839d73487d9ce6f3235a595d5c90408a64736f6c634300081c0033",
  "linkReferences": {},
  "deployedLinkReferences": {}
}