{
  "_format": "hh-sol-artifact-1",
  "contractName": "Marketplace",
  "sourceName": "contracts/Marketplace.sol",
  "abi": [
    {
      "inputs": [
        {
          "internalType": "address",
          "name": "_registry",
          "type": "address"
        }
      ],
      "stateMutability": "nonpayable",
      "type": "constructor"
    },
    {
      "inputs": [],
      "name": "AlreadyListed",
      "type": "error"
    },
    {
      "inputs": [],
      "name": "CannotBuyOwnSoftware",
      "type": "error"
    },
    {
      "inputs": [],
      "name": "InsufficientFunds",
      "type": "error"
    },
    {
      "inputs": [],
      "name": "NoRepository",
      "type": "error"
    },
    {
      "inputs": [],
      "name": "NotDeveloper",
      "type": "error"
    },
    {
      "inputs": [],
      "name": "NotListed",
      "type": "error"
    },
    {
      "inputs": [],
      "name": "NotOwner",
      "type": "error"
    },
    {
      "inputs": [],
      "name": "NotSeller",
      "type": "error"
    },
    {
      "anonymous": false,
      "inputs": [
        {
          "indexed": true,
          "internalType": "address",
          "name": "buyer",
          "type": "address"
        },
        {
          "indexed": true,
          "internalType": "address",
          "name": "nftContract",
          "type": "address"
        },
        {
          "indexed": true,
          "internalType": "uint256",
          "name": "tokenId",
          "type": "uint256"
        },
        {
          "indexed": false,
          "internalType": "uint256",
          "name": "licenseId",
          "type": "uint256"
        },
        {
          "indexed": false,
          "internalType": "uint256",
          "name": "price",
          "type": "uint256"
        }
      ],
      "name": "LicensePurchased",
      "type": "event"
    },
    {
      "anonymous": false,
      "inputs": [
        {
          "indexed": true,
          "internalType": "address",
          "name": "nftContract",
          "type": "address"
        },
        {
          "indexed": true,
          "internalType": "uint256",
          "name": "tokenId",
          "type": "uint256"
        },
        {
          "indexed": true,
          "internalType": "address",
          "name": "developer",
          "type": "address"
        },
        {
          "indexed": false,
          "internalType": "uint256",
          "name": "price",
          "type": "uint256"
        }
      ],
      "name": "SoftwareListed",
      "type": "event"
    },
    {
      "inputs": [
        {
          "internalType": "address",
          "name": "repository",
          "type": "address"
        },
        {
          "internalType": "uint256",
          "name": "tokenId",
          "type": "uint256"
        }
      ],
      "name": "buySoftware",
      "outputs": [
        {
          "internalType": "uint256",
          "name": "",
          "type": "uint256"
        }
      ],
      "stateMutability": "payable",
      "type": "function"
    },
    {
      "inputs": [
        {
          "internalType": "address",
          "name": "repository",
          "type": "address"
        },
        {
          "internalType": "uint256",
          "name": "tokenId",
          "type": "uint256"
        }
      ],
      "name": "cancelListing",
      "outputs": [],
      "stateMutability": "nonpayable",
      "type": "function"
    },
    {
      "inputs": [
        {
          "internalType": "address",
          "name": "repository",
          "type": "address"
        },
        {
          "internalType": "uint256",
          "name": "tokenId",
          "type": "uint256"
        }
      ],
      "name": "checkIsListed",
      "outputs": [
        {
          "internalType": "bool",
          "name": "",
          "type": "bool"
        }
      ],
      "stateMutability": "view",
      "type": "function"
    },
    {
      "inputs": [
        {
          "internalType": "address",
          "name": "repository",
          "type": "address"
        },
        {
          "internalType": "uint256",
          "name": "tokenId",
          "type": "uint256"
        }
      ],
      "name": "getListingPrice",
      "outputs": [
        {
          "internalType": "uint256",
          "name": "",
          "type": "uint256"
        }
      ],
      "stateMutability": "view",
      "type": "function"
    },
    {
      "inputs": [
        {
          "internalType": "uint256",
          "name": "tokenId",
          "type": "uint256"
        },
        {
          "internalType": "uint256",
          "name": "listingPrice",
          "type": "uint256"
        }
      ],
      "name": "listSoftware",
      "outputs": [],
      "stateMutability": "nonpayable",
      "type": "function"
    }
  ],
  "bytecode": "0x6080604052348015600f57600080fd5b50604051610821380380610821833981016040819052602c916050565b600080546001600160a01b0319166001600160a01b0392909216919091179055607e565b600060208284031215606157600080fd5b81516001600160a01b0381168114607757600080fd5b9392505050565b6107948061008d6000396000f3fe60806040526004361061004a5760003560e01c806306d783971461004f5780631f739c75146100825780635cf738d5146100a4578063b2ddee06146100b7578063eaab5322146100d7575b600080fd5b34801561005b57600080fd5b5061006f61006a3660046106b1565b61012f565b6040519081526020015b60405180910390f35b34801561008e57600080fd5b506100a261009d3660046106dd565b61019f565b005b61006f6100b23660046106b1565b610423565b3480156100c357600080fd5b506100a26100d23660046106b1565b61061b565b3480156100e357600080fd5b5061011f6100f23660046106b1565b6001600160a01b039190911660009081526001602081815260408084209484529390529190200154151590565b6040519015158152602001610079565b6001600160a01b03821660009081526001602081815260408084208585529091528220015481036101735760405163665c1c5760e01b815260040160405180910390fd5b506001600160a01b03919091166000908152600160208181526040808420948452939052919020015490565b60008054604051630d3e0bbf60e11b81523360048201526001600160a01b0390911690631a7c177e90602401602060405180830381865afa1580156101e8573d6000803e3d6000fd5b505050506040513d601f19601f8201168201806040525081019061020c91906106ff565b6001600160a01b0381166000908152600160208181526040808420888552909152909120015490915015610253576040516328f560bb60e21b815260040160405180910390fd5b6000546040516305eca4a760e41b81523360048201526001600160a01b0390911690635eca4a7090602401602060405180830381865afa15801561029b573d6000803e3d6000fd5b505050506040513d601f19601f820116820180604052508101906102bf9190610723565b6102dc57604051638858596360e01b815260040160405180910390fd5b6001600160a01b038116610303576040516301e3c94160e51b815260040160405180910390fd5b600054604051635db717c360e11b81526001600160a01b038381166004830152602482018690529091169063bb6e2f8690604401602060405180830381865afa158015610354573d6000803e3d6000fd5b505050506040513d601f19601f820116820180604052508101906103789190610723565b610395576040516330cd747160e01b815260040160405180910390fd5b6040805180820182523380825260208083018681526001600160a01b03868116600081815260018086528882208c8352865290889020965187546001600160a01b03191693169290921786559151940193909355925185815290928692917fb2fe8b8db74b35ecf28fa902c2c92ffaf61ea5c839bd93f41159fa3d174b9faa910160405180910390a4505050565b6001600160a01b03821660009081526001602081815260408084208585529091528220015481036104675760405163665c1c5760e01b815260040160405180910390fd5b6001600160a01b038381166000908152600160209081526040808320868452909152902054339116036104ad5760405163792a5ac960e11b815260040160405180910390fd5b6001600160a01b03831660009081526001602081815260408084208685529091529091200154348111156104f45760405163356680b760e01b815260040160405180910390fd5b6001600160a01b0384811660009081526001602090815260408083208784529091528082205482549151630e3ff06560e21b815233600482015290841660248201819052604482018890529391909116906338ffc194906064016020604051808303816000875af115801561056d573d6000803e3d6000fd5b505050506040513d601f19601f820116820180604052508101906105919190610745565b6040519091506001600160a01b038316903480156108fc02916000818181858888f193505050501580156105c9573d6000803e3d6000fd5b50604080518281526020810185905286916001600160a01b0389169133917f96264bbc207fc189d5e12e353cb56e88076d3850c35b256d63c541521d4d46f2910160405180910390a495945050505050565b6001600160a01b03828116600090815260016020908152604080832085845290915290205416331461066057604051635ec8235160e01b815260040160405180910390fd5b6001600160a01b03909116600090815260016020818152604080842094845293905291812080546001600160a01b031916815590910155565b6001600160a01b03811681146106ae57600080fd5b50565b600080604083850312156106c457600080fd5b82356106cf81610699565b946020939093013593505050565b600080604083850312156106f057600080fd5b50508035926020909101359150565b60006020828403121561071157600080fd5b815161071c81610699565b9392505050565b60006020828403121561073557600080fd5b8151801515811461071c57600080fd5b60006020828403121561075757600080fd5b505191905056fea2646970667358221220fb6eff258fc6c3cf0a699bab93f13d4da9314860c47865495d75fcb29245fa8d64736f6c634300081c0033",
  "linkReferences": {},
  "deployedLinkReferences": {}
}