{
  "_format": "hh-sol-artifact-1",
  "contractName": "RoyaltyManager",
  "sourceName": "contracts/RoyaltyManager.sol",
  "abi": [
    {
      "inputs": [
        {
          "internalType": "address",
          "name": "_registry",
          "type": "address"
        }
      ],
      "stateMutability": "nonpayable",
      "type": "constructor"
    },
    {
      "inputs": [],
      "name": "InsufficientRoyalties",
      "type": "error"
    },
    {
      "inputs": [],
      "name": "NotAuthorized",
      "type": "error"
    },
    {
      "inputs": [],
      "name": "TransferFailed",
      "type": "error"
    },
    {
      "anonymous": false,
      "inputs": [
        {
          "indexed": true,
          "internalType": "address",
          "name": "developer",
          "type": "address"
        },
        {
          "indexed": false,
          "internalType": "uint256",
          "name": "amount",
          "type": "uint256"
        }
      ],
      "name": "RoyaltyAdded",
      "type": "event"
    },
    {
      "anonymous": false,
      "inputs": [
        {
          "indexed": false,
          "internalType": "uint256",
          "name": "initialRate",
          "type": "uint256"
        },
        {
          "indexed": false,
          "internalType": "uint256",
          "name": "decayFactor",
          "type": "uint256"
        },
        {
          "indexed": false,
          "internalType": "uint256",
          "name": "decayPeriod",
          "type": "uint256"
        }
      ],
      "name": "RoyaltyParametersUpdated",
      "type": "event"
    },
    {
      "anonymous": false,
      "inputs": [
        {
          "indexed": true,
          "internalType": "address",
          "name": "developer",
          "type": "address"
        },
        {
          "indexed": false,
          "internalType": "uint256",
          "name": "amount",
          "type": "uint256"
        }
      ],
      "name": "RoyaltyWithdrawn",
      "type": "event"
    },
    {
      "anonymous": false,
      "inputs": [
        {
          "indexed": true,
          "internalType": "address",
          "name": "repository",
          "type": "address"
        },
        {
          "indexed": true,
          "internalType": "uint256",
          "name": "softwareId",
          "type": "uint256"
        },
        {
          "indexed": false,
          "internalType": "uint256",
          "name": "price",
          "type": "uint256"
        },
        {
          "indexed": false,
          "internalType": "uint256",
          "name": "timestamp",
          "type": "uint256"
        }
      ],
      "name": "SaleMade",
      "type": "event"
    },
    {
      "anonymous": false,
      "inputs": [
        {
          "indexed": true,
          "internalType": "address",
          "name": "repository",
          "type": "address"
        },
        {
          "indexed": true,
          "internalType": "uint256",
          "name": "softwareId",
          "type": "uint256"
        },
        {
          "indexed": false,
          "internalType": "uint256",
          "name": "publishTime",
          "type": "uint256"
        }
      ],
      "name": "SoftwarePublished",
      "type": "event"
    },
    {
      "inputs": [
        {
          "internalType": "address",
          "name": "developer",
          "type": "address"
        },
        {
          "internalType": "uint256",
          "name": "amount",
          "type": "uint256"
        }
      ],
      "name": "addRoyalties",
      "outputs": [],
      "stateMutability": "payable",
      "type": "function"
    },
    {
      "inputs": [
        {
          "internalType": "address",
          "name": "developer",
          "type": "address"
        }
      ],
      "name": "getPendingRoyalties",
      "outputs": [
        {
          "internalType": "uint256",
          "name": "",
          "type": "uint256"
        }
      ],
      "stateMutability": "view",
      "type": "function"
    },
    {
      "inputs": [
        {
          "internalType": "address",
          "name": "",
          "type": "address"
        }
      ],
      "name": "pendingRoyalties",
      "outputs": [
        {
          "internalType": "uint256",
          "name": "",
          "type": "uint256"
        }
      ],
      "stateMutability": "view",
      "type": "function"
    },
    {
      "inputs": [
        {
          "internalType": "address",
          "name": "developer",
          "type": "address"
        },
        {
          "internalType": "address",
          "name": "repository",
          "type": "address"
        },
        {
          "internalType": "uint256",
          "name": "softwareId",
          "type": "uint256"
        },
        {
          "internalType": "uint256",
          "name": "price",
          "type": "uint256"
        }
      ],
      "name": "recordSale",
      "outputs": [],
      "stateMutability": "payable",
      "type": "function"
    },
    {
      "inputs": [
        {
          "internalType": "address",
          "name": "",
          "type": "address"
        },
        {
          "internalType": "uint256",
          "name": "",
          "type": "uint256"
        }
      ],
      "name": "softwarePublishTime",
      "outputs": [
        {
          "internalType": "uint256",
          "name": "",
          "type": "uint256"
        }
      ],
      "stateMutability": "view",
      "type": "function"
    },
    {
      "inputs": [
        {
          "internalType": "uint256",
          "name": "_initialRate",
          "type": "uint256"
        },
        {
          "internalType": "uint256",
          "name": "_decayFactor",
          "type": "uint256"
        },
        {
          "internalType": "uint256",
          "name": "_decayPeriod",
          "type": "uint256"
        }
      ],
      "name": "updateRoyaltyParameters",
      "outputs": [],
      "stateMutability": "nonpayable",
      "type": "function"
    },
    {
      "inputs": [],
      "name": "withdrawRoyalties",
      "outputs": [],
      "stateMutability": "nonpayable",
      "type": "function"
    }
  ],
  "bytecode": "0x60c060405234801561001057600080fd5b50604051611389380380611389833981810160405281019061003291906101c8565b61004c6793d281f04c157eea60c01b61016260201b60201c565b6100666798be9d337a10a91860c01b61016260201b60201c565b3373ffffffffffffffffffffffffffffffffffffffff1660808173ffffffffffffffffffffffffffffffffffffffff16815250506100b4672f6aa618d9e3696d60c01b61016260201b60201c565b8073ffffffffffffffffffffffffffffffffffffffff1660a08173ffffffffffffffffffffffffffffffffffffffff168152505061010267e25531999d96487460c01b61016260201b60201c565b61011c67396956c4fcc7a5bc60c01b61016260201b60201c565b7f93a30136aae1c03168149ad89c17916bf87e42510e99641ddf9d6e11234af9c1600a605f62278d00604051610154939291906102ba565b60405180910390a1506102f1565b50565b600080fd5b600073ffffffffffffffffffffffffffffffffffffffff82169050919050565b60006101958261016a565b9050919050565b6101a58161018a565b81146101b057600080fd5b50565b6000815190506101c28161019c565b92915050565b6000602082840312156101de576101dd610165565b5b60006101ec848285016101b3565b91505092915050565b6000819050919050565b6000819050919050565b6000819050919050565b600061022e610229610224846101f5565b610209565b6101ff565b9050919050565b61023e81610213565b82525050565b6000819050919050565b600061026961026461025f84610244565b610209565b6101ff565b9050919050565b6102798161024e565b82525050565b6000819050919050565b60006102a461029f61029a8461027f565b610209565b6101ff565b9050919050565b6102b481610289565b82525050565b60006060820190506102cf6000830186610235565b6102dc6020830185610270565b6102e960408301846102ab565b949350505050565b60805160a05161106c61031d6000396000610580015260008181610a1f0152610b70015261106c6000f3fe6080604052600436106100705760003560e01c806322964af91161004e57806322964af9146101065780639a2fa9bb14610122578063bce7b0301461015f578063ea0cf9a01461018857610070565b8063024fa0d61461007557806308f2da85146100b257806321c34fcb146100ef575b600080fd5b34801561008157600080fd5b5061009c60048036038101906100979190610d64565b6101a4565b6040516100a99190610daa565b60405180910390f35b3480156100be57600080fd5b506100d960048036038101906100d49190610df1565b610228565b6040516100e69190610daa565b60405180910390f35b3480156100fb57600080fd5b5061010461024d565b005b610120600480360381019061011b9190610e31565b610542565b005b34801561012e57600080fd5b5061014960048036038101906101449190610d64565b6109c9565b6040516101569190610daa565b60405180910390f35b34801561016b57600080fd5b5061018660048036038101906101819190610e98565b6109e1565b005b6101a2600480360381019061019d9190610df1565b610b32565b005b60006101ba67a040635c04ded1e060c01b610cfe565b6101ce67990699600536a8ea60c01b610cfe565b6101e267c7e49c637db615a060c01b610cfe565b6000808373ffffffffffffffffffffffffffffffffffffffff1673ffffffffffffffffffffffffffffffffffffffff168152602001908152602001600020549050919050565b6001602052816000526040600020602052806000526040600020600091509150505481565b61026066fc061395b888b960c01b610cfe565b61027467b80f99066d28dbf760c01b610cfe565b610288675efd4a78a7341d0d60c01b610cfe565b60008060003373ffffffffffffffffffffffffffffffffffffffff1673ffffffffffffffffffffffffffffffffffffffff1681526020019081526020016000205490506102df67f3670505c47f7e3c60c01b610cfe565b6102f367dde72eb2cfde459660c01b610cfe565b600081036103415761030f67854f40222687c9f760c01b610cfe565b6040517fa844960900000000000000000000000000000000000000000000000000000000815260040160405180910390fd5b6103556783d8876cffe39ecc60c01b610cfe565b6103696719ee7ba1ab7c6d2e60c01b610cfe565b60008060003373ffffffffffffffffffffffffffffffffffffffff1673ffffffffffffffffffffffffffffffffffffffff168152602001908152602001600020819055506103c16747e65d588874945760c01b610cfe565b6103d567c49f5b1898919cb160c01b610cfe565b60003373ffffffffffffffffffffffffffffffffffffffff16826040516103fb90610f1c565b60006040518083038185875af1925050503d8060008114610438576040519150601f19603f3d011682016040523d82523d6000602084013e61043d565b606091505b50509050610455670486f8e423b17b4f60c01b610cfe565b610469676ee66e255e3cb21660c01b610cfe565b806104b4576104826731f602245a5e676d60c01b610cfe565b6040517f90b8ec1800000000000000000000000000000000000000000000000000000000815260040160405180910390fd5b6104c867afce52ce1405e96d60c01b610cfe565b6104dc67a5ca721c5f2f00da60c01b610cfe565b6104f0679e006a9ac93d736f60c01b610cfe565b3373ffffffffffffffffffffffffffffffffffffffff167f9c56d4e207b08f0df71c47be77f4558c7954505688b8f5372c828ed167846e40836040516105369190610daa565b60405180910390a25050565b6105566723bf62c1b2318ee860c01b610cfe565b61056a67f35eac24f80c678360c01b610cfe565b61057e67ee6a38f681e6932e60c01b610cfe565b7f000000000000000000000000000000000000000000000000000000000000000073ffffffffffffffffffffffffffffffffffffffff16630d21bcd56040518163ffffffff1660e01b8152600401602060405180830381865afa1580156105e9573d6000803e3d6000fd5b505050506040513d601f19601f8201168201806040525081019061060d9190610f46565b73ffffffffffffffffffffffffffffffffffffffff163373ffffffffffffffffffffffffffffffffffffffff16146106845761065266bdefb3a06fb7b260c01b610cfe565b6040517fea8e4eb500000000000000000000000000000000000000000000000000000000815260040160405180910390fd5b61069867863df7e98eb9d73c60c01b610cfe565b6106ac6711f9c3d1307c98e460c01b610cfe565b6106c067e415def0f63e2e4460c01b610cfe565b6000600160008573ffffffffffffffffffffffffffffffffffffffff1673ffffffffffffffffffffffffffffffffffffffff168152602001908152602001600020600084815260200190815260200160002054905061072967c4fd3ffe9866819b60c01b610cfe565b61073d673a6c50fb35b5e02660c01b610cfe565b600081036108555761075967aed09d7b4964e2ee60c01b610cfe565b61076d676f4abf3148bcf0ad60c01b610cfe565b42905061078467e646d9860f3bf0c060c01b610cfe565b80600160008673ffffffffffffffffffffffffffffffffffffffff1673ffffffffffffffffffffffffffffffffffffffff1681526020019081526020016000206000858152602001908152602001600020819055506107ed670e672520537312e960c01b610cfe565b6108016735376168e65da3bd60c01b610cfe565b828473ffffffffffffffffffffffffffffffffffffffff167fdf56f2f27826d2cd8261b4e3db31dd34e9144d75dbd025f377f4e8ad296fca25836040516108489190610daa565b60405180910390a361086a565b61086967d7225c0f761c9e9c60c01b610cfe565b5b61087e67c16a576fe0b361c160c01b610cfe565b610892673ee3eea273b31de160c01b610cfe565b828473ffffffffffffffffffffffffffffffffffffffff167f1fe2676d3fb5db35fe57bc07eb1a115f73987b40048ec0965764cce5e989a75a84426040516108db929190610f73565b60405180910390a36108f767a930b4392ceeb4d460c01b610cfe565b346000808773ffffffffffffffffffffffffffffffffffffffff1673ffffffffffffffffffffffffffffffffffffffff16815260200190815260200160002060008282546109459190610fcb565b9250508190555061096067b8799c3caa6f403f60c01b610cfe565b610974676d30d5b4d446c3c560c01b610cfe565b8473ffffffffffffffffffffffffffffffffffffffff167f4815a443b3844e28d56b6a4a5f8a561f0b349b6dd58953295aaec7b5d5a55e45346040516109ba9190610daa565b60405180910390a25050505050565b60006020528060005260406000206000915090505481565b6109f567ecfad5825c80f67d60c01b610cfe565b610a0967026681ab136448d260c01b610cfe565b610a1d673aa18d720a80f3f160c01b610cfe565b7f000000000000000000000000000000000000000000000000000000000000000073ffffffffffffffffffffffffffffffffffffffff163373ffffffffffffffffffffffffffffffffffffffff1614610ab657610a8467d826a94dcce1b70b60c01b610cfe565b6040517fea8e4eb500000000000000000000000000000000000000000000000000000000815260040160405180910390fd5b610aca672121f876afc0981e60c01b610cfe565b610ade6715e06b4b8be10d6d60c01b610cfe565b610af267af86926ba09e9eb960c01b610cfe565b7f93a30136aae1c03168149ad89c17916bf87e42510e99641ddf9d6e11234af9c1838383604051610b2593929190610fff565b60405180910390a1505050565b610b466714660cd49b719ae160c01b610cfe565b610b5a67e24ece0d451322fe60c01b610cfe565b610b6e67cc4f26682a8d700660c01b610cfe565b7f000000000000000000000000000000000000000000000000000000000000000073ffffffffffffffffffffffffffffffffffffffff163373ffffffffffffffffffffffffffffffffffffffff1614610c0757610bd567829e943b88c85f0c60c01b610cfe565b6040517fea8e4eb500000000000000000000000000000000000000000000000000000000815260040160405180910390fd5b610c1b67c7468098fa18569260c01b610cfe565b610c2f675fc294c4e14944e960c01b610cfe565b806000808473ffffffffffffffffffffffffffffffffffffffff1673ffffffffffffffffffffffffffffffffffffffff1681526020019081526020016000206000828254610c7d9190610fcb565b92505081905550610c9867b859ab00b570c87060c01b610cfe565b610cac6787a0a6293d3fcb4560c01b610cfe565b8173ffffffffffffffffffffffffffffffffffffffff167f4815a443b3844e28d56b6a4a5f8a561f0b349b6dd58953295aaec7b5d5a55e4582604051610cf29190610daa565b60405180910390a25050565b50565b600080fd5b600073ffffffffffffffffffffffffffffffffffffffff82169050919050565b6000610d3182610d06565b9050919050565b610d4181610d26565b8114610d4c57600080fd5b50565b600081359050610d5e81610d38565b92915050565b600060208284031215610d7a57610d79610d01565b5b6000610d8884828501610d4f565b91505092915050565b6000819050919050565b610da481610d91565b82525050565b6000602082019050610dbf6000830184610d9b565b92915050565b610dce81610d91565b8114610dd957600080fd5b50565b600081359050610deb81610dc5565b92915050565b60008060408385031215610e0857610e07610d01565b5b6000610e1685828601610d4f565b9250506020610e2785828601610ddc565b9150509250929050565b60008060008060808587031215610e4b57610e4a610d01565b5b6000610e5987828801610d4f565b9450506020610e6a87828801610d4f565b9350506040610e7b87828801610ddc565b9250506060610e8c87828801610ddc565b91505092959194509250565b600080600060608486031215610eb157610eb0610d01565b5b6000610ebf86828701610ddc565b9350506020610ed086828701610ddc565b9250506040610ee186828701610ddc565b9150509250925092565b600081905092915050565b50565b6000610f06600083610eeb565b9150610f1182610ef6565b600082019050919050565b6000610f2782610ef9565b9150819050919050565b600081519050610f4081610d38565b92915050565b600060208284031215610f5c57610f5b610d01565b5b6000610f6a84828501610f31565b91505092915050565b6000604082019050610f886000830185610d9b565b610f956020830184610d9b565b9392505050565b7f4e487b7100000000000000000000000000000000000000000000000000000000600052601160045260246000fd5b6000610fd682610d91565b9150610fe183610d91565b9250828201905080821115610ff957610ff8610f9c565b5b92915050565b60006060820190506110146000830186610d9b565b6110216020830185610d9b565b61102e6040830184610d9b565b94935050505056fea26469706673582212204ff0f846e2b85e4dba46582ab50290965c353bc9bea866662a5f6c2812c04c8b64736f6c634300081c0033",
  "linkReferences": {},
  "deployedLinkReferences": {}
}