{
  "_format": "hh-sol-artifact-1",
  "contractName": "LicenseManager",
  "sourceName": "contracts/LicenseManager.sol",
  "abi": [
    {
      "inputs": [
        {
          "internalType": "address",
          "name": "_registry",
          "type": "address"
        }
      ],
      "stateMutability": "nonpayable",
      "type": "constructor"
    },
    {
      "inputs": [
        {
          "internalType": "address",
          "name": "sender",
          "type": "address"
        },
        {
          "internalType": "uint256",
          "name": "tokenId",
          "type": "uint256"
        },
        {
          "internalType": "address",
          "name": "owner",
          "type": "address"
        }
      ],
      "name": "ERC721IncorrectOwner",
      "type": "error"
    },
    {
      "inputs": [
        {
          "internalType": "address",
          "name": "operator",
          "type": "address"
        },
        {
          "internalType": "uint256",
          "name": "tokenId",
          "type": "uint256"
        }
      ],
      "name": "ERC721InsufficientApproval",
      "type": "error"
    },
    {
      "inputs": [
        {
          "internalType": "address",
          "name": "approver",
          "type": "address"
        }
      ],
      "name": "ERC721InvalidApprover",
      "type": "error"
    },
    {
      "inputs": [
        {
          "internalType": "address",
          "name": "operator",
          "type": "address"
        }
      ],
      "name": "ERC721InvalidOperator",
      "type": "error"
    },
    {
      "inputs": [
        {
          "internalType": "address",
          "name": "owner",
          "type": "address"
        }
      ],
      "name": "ERC721InvalidOwner",
      "type": "error"
    },
    {
      "inputs": [
        {
          "internalType": "address",
          "name": "receiver",
          "type": "address"
        }
      ],
      "name": "ERC721InvalidReceiver",
      "type": "error"
    },
    {
      "inputs": [
        {
          "internalType": "address",
          "name": "sender",
          "type": "address"
        }
      ],
      "name": "ERC721InvalidSender",
      "type": "error"
    },
    {
      "inputs": [
        {
          "internalType": "uint256",
          "name": "tokenId",
          "type": "uint256"
        }
      ],
      "name": "ERC721NonexistentToken",
      "type": "error"
    },
    {
      "inputs": [],
      "name": "NotAuthorized",
      "type": "error"
    },
    {
      "inputs": [],
      "name": "RepositoryNotFound",
      "type": "error"
    },
    {
      "inputs": [],
      "name": "SoftwareNotFound",
      "type": "error"
    },
    {
      "anonymous": false,
      "inputs": [
        {
          "indexed": true,
          "internalType": "address",
          "name": "owner",
          "type": "address"
        },
        {
          "indexed": true,
          "internalType": "address",
          "name": "approved",
          "type": "address"
        },
        {
          "indexed": true,
          "internalType": "uint256",
          "name": "tokenId",
          "type": "uint256"
        }
      ],
      "name": "Approval",
      "type": "event"
    },
    {
      "anonymous": false,
      "inputs": [
        {
          "indexed": true,
          "internalType": "address",
          "name": "owner",
          "type": "address"
        },
        {
          "indexed": true,
          "internalType": "address",
          "name": "operator",
          "type": "address"
        },
        {
          "indexed": false,
          "internalType": "bool",
          "name": "approved",
          "type": "bool"
        }
      ],
      "name": "ApprovalForAll",
      "type": "event"
    },
    {
      "anonymous": false,
      "inputs": [
        {
          "indexed": false,
          "internalType": "uint256",
          "name": "_fromTokenId",
          "type": "uint256"
        },
        {
          "indexed": false,
          "internalType": "uint256",
          "name": "_toTokenId",
          "type": "uint256"
        }
      ],
      "name": "BatchMetadataUpdate",
      "type": "event"
    },
    {
      "anonymous": false,
      "inputs": [
        {
          "indexed": true,
          "internalType": "uint256",
          "name": "licenseId",
          "type": "uint256"
        },
        {
          "indexed": true,
          "internalType": "address",
          "name": "repository",
          "type": "address"
        },
        {
          "indexed": true,
          "internalType": "uint256",
          "name": "softwareId",
          "type": "uint256"
        },
        {
          "indexed": false,
          "internalType": "address",
          "name": "licensee",
          "type": "address"
        }
      ],
      "name": "LicenseCreated",
      "type": "event"
    },
    {
      "anonymous": false,
      "inputs": [
        {
          "indexed": false,
          "internalType": "uint256",
          "name": "_tokenId",
          "type": "uint256"
        }
      ],
      "name": "MetadataUpdate",
      "type": "event"
    },
    {
      "anonymous": false,
      "inputs": [
        {
          "indexed": true,
          "internalType": "address",
          "name": "from",
          "type": "address"
        },
        {
          "indexed": true,
          "internalType": "address",
          "name": "to",
          "type": "address"
        },
        {
          "indexed": true,
          "internalType": "uint256",
          "name": "tokenId",
          "type": "uint256"
        }
      ],
      "name": "Transfer",
      "type": "event"
    },
    {
      "anonymous": false,
      "inputs": [
        {
          "indexed": true,
          "internalType": "uint256",
          "name": "tokenId",
          "type": "uint256"
        },
        {
          "indexed": true,
          "internalType": "address",
          "name": "owner",
          "type": "address"
        },
        {
          "indexed": false,
          "internalType": "address[]",
          "name": "_address_referringList",
          "type": "address[]"
        },
        {
          "indexed": false,
          "internalType": "uint256[][]",
          "name": "_tokenIds_referringList",
          "type": "uint256[][]"
        },
        {
          "indexed": false,
          "internalType": "address[]",
          "name": "_address_referredList",
          "type": "address[]"
        },
        {
          "indexed": false,
          "internalType": "uint256[][]",
          "name": "_tokenIds_referredList",
          "type": "uint256[][]"
        }
      ],
      "name": "UpdateNode",
      "type": "event"
    },
    {
      "inputs": [
        {
          "internalType": "address",
          "name": "to",
          "type": "address"
        },
        {
          "internalType": "uint256",
          "name": "tokenId",
          "type": "uint256"
        }
      ],
      "name": "approve",
      "outputs": [],
      "stateMutability": "nonpayable",
      "type": "function"
    },
    {
      "inputs": [
        {
          "internalType": "address",
          "name": "owner",
          "type": "address"
        }
      ],
      "name": "balanceOf",
      "outputs": [
        {
          "internalType": "uint256",
          "name": "",
          "type": "uint256"
        }
      ],
      "stateMutability": "view",
      "type": "function"
    },
    {
      "inputs": [
        {
          "internalType": "address",
          "name": "_address",
          "type": "address"
        },
        {
          "internalType": "uint256",
          "name": "tokenId",
          "type": "uint256"
        }
      ],
      "name": "createdTimestampOf",
      "outputs": [
        {
          "internalType": "uint256",
          "name": "",
          "type": "uint256"
        }
      ],
      "stateMutability": "view",
      "type": "function"
    },
    {
      "inputs": [
        {
          "internalType": "uint256",
          "name": "tokenId",
          "type": "uint256"
        }
      ],
      "name": "getApproved",
      "outputs": [
        {
          "internalType": "address",
          "name": "",
          "type": "address"
        }
      ],
      "stateMutability": "view",
      "type": "function"
    },
    {
      "inputs": [
        {
          "internalType": "address",
          "name": "user",
          "type": "address"
        },
        {
          "internalType": "address",
          "name": "repository",
          "type": "address"
        },
        {
          "internalType": "uint256",
          "name": "softwareId",
          "type": "uint256"
        }
      ],
      "name": "getUserLicenses",
      "outputs": [
        {
          "internalType": "uint256[]",
          "name": "",
          "type": "uint256[]"
        }
      ],
      "stateMutability": "view",
      "type": "function"
    },
    {
      "inputs": [
        {
          "internalType": "address",
          "name": "user",
          "type": "address"
        },
        {
          "internalType": "address",
          "name": "repository",
          "type": "address"
        },
        {
          "internalType": "uint256",
          "name": "softwareId",
          "type": "uint256"
        }
      ],
      "name": "hasLicense",
      "outputs": [
        {
          "internalType": "bool",
          "name": "",
          "type": "bool"
        }
      ],
      "stateMutability": "view",
      "type": "function"
    },
    {
      "inputs": [
        {
          "internalType": "address",
          "name": "owner",
          "type": "address"
        },
        {
          "internalType": "address",
          "name": "operator",
          "type": "address"
        }
      ],
      "name": "isApprovedForAll",
      "outputs": [
        {
          "internalType": "bool",
          "name": "",
          "type": "bool"
        }
      ],
      "stateMutability": "view",
      "type": "function"
    },
    {
      "inputs": [
        {
          "internalType": "uint256",
          "name": "",
          "type": "uint256"
        }
      ],
      "name": "licenseToRepository",
      "outputs": [
        {
          "internalType": "address",
          "name": "",
          "type": "address"
        }
      ],
      "stateMutability": "view",
      "type": "function"
    },
    {
      "inputs": [
        {
          "internalType": "uint256",
          "name": "",
          "type": "uint256"
        }
      ],
      "name": "licenseToSoftware",
      "outputs": [
        {
          "internalType": "uint256",
          "name": "",
          "type": "uint256"
        }
      ],
      "stateMutability": "view",
      "type": "function"
    },
    {
      "inputs": [
        {
          "internalType": "address",
          "name": "licensee",
          "type": "address"
        },
        {
          "internalType": "address",
          "name": "repository",
          "type": "address"
        },
        {
          "internalType": "uint256",
          "name": "softwareId",
          "type": "uint256"
        }
      ],
      "name": "mintLicense",
      "outputs": [
        {
          "internalType": "uint256",
          "name": "",
          "type": "uint256"
        }
      ],
      "stateMutability": "nonpayable",
      "type": "function"
    },
    {
      "inputs": [],
      "name": "name",
      "outputs": [
        {
          "internalType": "string",
          "name": "",
          "type": "string"
        }
      ],
      "stateMutability": "view",
      "type": "function"
    },
    {
      "inputs": [
        {
          "internalType": "uint256",
          "name": "tokenId",
          "type": "uint256"
        }
      ],
      "name": "ownerOf",
      "outputs": [
        {
          "internalType": "address",
          "name": "",
          "type": "address"
        }
      ],
      "stateMutability": "view",
      "type": "function"
    },
    {
      "inputs": [
        {
          "internalType": "address",
          "name": "_address",
          "type": "address"
        },
        {
          "internalType": "uint256",
          "name": "tokenId",
          "type": "uint256"
        }
      ],
      "name": "referredOf",
      "outputs": [
        {
          "internalType": "address[]",
          "name": "",
          "type": "address[]"
        },
        {
          "internalType": "uint256[][]",
          "name": "",
          "type": "uint256[][]"
        }
      ],
      "stateMutability": "view",
      "type": "function"
    },
    {
      "inputs": [
        {
          "internalType": "address",
          "name": "_address",
          "type": "address"
        },
        {
          "internalType": "uint256",
          "name": "tokenId",
          "type": "uint256"
        }
      ],
      "name": "referringOf",
      "outputs": [
        {
          "internalType": "address[]",
          "name": "",
          "type": "address[]"
        },
        {
          "internalType": "uint256[][]",
          "name": "",
          "type": "uint256[][]"
        }
      ],
      "stateMutability": "view",
      "type": "function"
    },
    {
      "inputs": [
        {
          "internalType": "address",
          "name": "to",
          "type": "address"
        },
        {
          "internalType": "uint256",
          "name": "tokenId",
          "type": "uint256"
        },
        {
          "internalType": "address[]",
          "name": "addresses",
          "type": "address[]"
        },
        {
          "internalType": "uint256[][]",
          "name": "_tokenIds",
          "type": "uint256[][]"
        }
      ],
      "name": "safeMint",
      "outputs": [],
      "stateMutability": "nonpayable",
      "type": "function"
    },
    {
      "inputs": [
        {
          "internalType": "address",
          "name": "from",
          "type": "address"
        },
        {
          "internalType": "address",
          "name": "to",
          "type": "address"
        },
        {
          "internalType": "uint256",
          "name": "tokenId",
          "type": "uint256"
        }
      ],
      "name": "safeTransferFrom",
      "outputs": [],
      "stateMutability": "nonpayable",
      "type": "function"
    },
    {
      "inputs": [
        {
          "internalType": "address",
          "name": "from",
          "type": "address"
        },
        {
          "internalType": "address",
          "name": "to",
          "type": "address"
        },
        {
          "internalType": "uint256",
          "name": "tokenId",
          "type": "uint256"
        },
        {
          "internalType": "bytes",
          "name": "data",
          "type": "bytes"
        }
      ],
      "name": "safeTransferFrom",
      "outputs": [],
      "stateMutability": "nonpayable",
      "type": "function"
    },
    {
      "inputs": [
        {
          "internalType": "address",
          "name": "operator",
          "type": "address"
        },
        {
          "internalType": "bool",
          "name": "approved",
          "type": "bool"
        }
      ],
      "name": "setApprovalForAll",
      "outputs": [],
      "stateMutability": "nonpayable",
      "type": "function"
    },
    {
      "inputs": [
        {
          "internalType": "uint256",
          "name": "tokenId",
          "type": "uint256"
        },
        {
          "internalType": "address[]",
          "name": "addresses",
          "type": "address[]"
        },
        {
          "internalType": "uint256[][]",
          "name": "tokenIds",
          "type": "uint256[][]"
        }
      ],
      "name": "setNode",
      "outputs": [],
      "stateMutability": "nonpayable",
      "type": "function"
    },
    {
      "inputs": [
        {
          "internalType": "address",
          "name": "_address",
          "type": "address"
        },
        {
          "internalType": "uint256",
          "name": "tokenId",
          "type": "uint256"
        },
        {
          "internalType": "uint256[]",
          "name": "_tokenIds",
          "type": "uint256[]"
        }
      ],
      "name": "setNodeReferredExternal",
      "outputs": [],
      "stateMutability": "nonpayable",
      "type": "function"
    },
    {
      "inputs": [
        {
          "internalType": "address",
          "name": "developer",
          "type": "address"
        },
        {
          "internalType": "uint256",
          "name": "tokenId",
          "type": "uint256"
        },
        {
          "internalType": "string",
          "name": "_tokenURI",
          "type": "string"
        }
      ],
      "name": "setTokenURI",
      "outputs": [],
      "stateMutability": "nonpayable",
      "type": "function"
    },
    {
      "inputs": [
        {
          "internalType": "address",
          "name": "",
          "type": "address"
        },
        {
          "internalType": "uint256",
          "name": "",
          "type": "uint256"
        },
        {
          "internalType": "uint256",
          "name": "",
          "type": "uint256"
        }
      ],
      "name": "softwareToLicenses",
      "outputs": [
        {
          "internalType": "uint256",
          "name": "",
          "type": "uint256"
        }
      ],
      "stateMutability": "view",
      "type": "function"
    },
    {
      "inputs": [
        {
          "internalType": "bytes4",
          "name": "interfaceId",
          "type": "bytes4"
        }
      ],
      "name": "supportsInterface",
      "outputs": [
        {
          "internalType": "bool",
          "name": "",
          "type": "bool"
        }
      ],
      "stateMutability": "view",
      "type": "function"
    },
    {
      "inputs": [],
      "name": "symbol",
      "outputs": [
        {
          "internalType": "string",
          "name": "",
          "type": "string"
        }
      ],
      "stateMutability": "view",
      "type": "function"
    },
    {
      "inputs": [
        {
          "internalType": "uint256",
          "name": "tokenId",
          "type": "uint256"
        }
      ],
      "name": "tokenURI",
      "outputs": [
        {
          "internalType": "string",
          "name": "",
          "type": "string"
        }
      ],
      "stateMutability": "view",
      "type": "function"
    },
    {
      "inputs": [
        {
          "internalType": "address",
          "name": "from",
          "type": "address"
        },
        {
          "internalType": "address",
          "name": "to",
          "type": "address"
        },
        {
          "internalType": "uint256",
          "name": "tokenId",
          "type": "uint256"
        }
      ],
      "name": "transferFrom",
      "outputs": [],
      "stateMutability": "nonpayable",
      "type": "function"
    }
  ],
  "bytecode": "0x60a0604052600880546001600160a01b0319169055620f424060095534801561002757600080fd5b506040516136db3803806136db833981016040819052610046916100d5565b6040518060400160405280601081526020016f536f667477617265204c6963656e736560801b815250604051806040016040528060078152602001664c4943454e534560c81b815250818181600090816100a091906101a4565b5060016100ad82826101a4565b5050600880546001600160a01b031916331790555050506001600160a01b0316608052610262565b6000602082840312156100e757600080fd5b81516001600160a01b03811681146100fe57600080fd5b9392505050565b634e487b7160e01b600052604160045260246000fd5b600181811c9082168061012f57607f821691505b60208210810361014f57634e487b7160e01b600052602260045260246000fd5b50919050565b601f82111561019f57806000526020600020601f840160051c8101602085101561017c5750805b601f840160051c820191505b8181101561019c5760008155600101610188565b50505b505050565b81516001600160401b038111156101bd576101bd610105565b6101d1816101cb845461011b565b84610155565b6020601f82116001811461020557600083156101ed5750848201515b600019600385901b1c1916600184901b17845561019c565b600084815260208120601f198516915b828110156102355787850151825560209485019460019092019101610215565b50848210156102535786840151600019600387901b60f8161c191681555b50505050600190811b01905550565b60805161345e61027d60003960006105a0015261345e6000f3fe608060405234801561001057600080fd5b506004361061018e5760003560e01c806364f9b0e6116100de578063b88d4fde11610097578063e985e9c511610071578063e985e9c5146103a7578063eb40f818146103ba578063edda5e73146103cd578063f9a92730146103e057600080fd5b8063b88d4fde1461036e578063c87b56dd14610381578063d30d968d1461039457600080fd5b806364f9b0e6146102ec57806370a082311461030d57806377f2d69e1461032057806395d89b4114610340578063a22cb46514610348578063a35391ac1461035b57600080fd5b8063420859911161014b57806355c104401161012557806355c104401461028a5780635995d1581461029d578063616c5535146102c65780636352211e146102d957600080fd5b8063420859911461024457806342842e0e146102645780634e5786bf1461027757600080fd5b806301ffc9a71461019357806306fdde03146101bb578063081812fc146101d0578063095ea7b3146101fb57806323b872dd1461021057806338ffc19414610223575b600080fd5b6101a66101a136600461270f565b6103f3565b60405190151581526020015b60405180910390f35b6101c3610439565b6040516101b2919061277c565b6101e36101de36600461278f565b6104cb565b6040516001600160a01b0390911681526020016101b2565b61020e6102093660046127bd565b6104f4565b005b61020e61021e3660046127e9565b610503565b6102366102313660046127e9565b610593565b6040519081526020016101b2565b61023661025236600461278f565b600b6020526000908152604090205481565b61020e6102723660046127e9565b610991565b61020e6102853660046128d5565b6109b1565b61020e6102983660046129cc565b610a65565b6101e36102ab36600461278f565b600a602052600090815260409020546001600160a01b031681565b61020e6102d4366004612b03565b610c18565b6101e36102e736600461278f565b610d32565b6102ff6102fa3660046127bd565b610d3d565b6040516101b2929190612c3c565b61023661031b366004612c61565b610ea1565b61033361032e3660046127e9565b610ee9565b6040516101b29190612c7e565b6101c36110cb565b61020e610356366004612c9f565b6110da565b6102ff6103693660046127bd565b6110e5565b61020e61037c366004612cd8565b6111ec565b6101c361038f36600461278f565b611204565b6102366103a23660046127bd565b61120f565b6101a66103b5366004612d57565b611366565b6101a66103c83660046127e9565b611394565b61020e6103db366004612d85565b61147e565b6102366103ee366004612dfc565b6114a8565b60006001600160e01b031982166374342b5560e01b148061042457506001600160e01b03198216630204cbd160e51b145b806104335750610433826114e6565b92915050565b60606000805461044890612e31565b80601f016020809104026020016040519081016040528092919081815260200182805461047490612e31565b80156104c15780601f10610496576101008083540402835291602001916104c1565b820191906000526020600020905b8154815290600101906020018083116104a457829003601f168201915b5050505050905090565b60006104d68261150b565b506000828152600460205260409020546001600160a01b0316610433565b6104ff828233611544565b5050565b6001600160a01b03821661053257604051633250574960e11b8152600060048201526024015b60405180910390fd5b600061053f838333611551565b9050836001600160a01b0316816001600160a01b03161461058d576040516364283d7b60e01b81526001600160a01b0380861660048301526024820184905282166044820152606401610529565b50505050565b6000336001600160a01b037f000000000000000000000000000000000000000000000000000000000000000016146105de5760405163ea8e4eb560e01b815260040160405180910390fd5b6000839050806001600160a01b0316637a4440726040518163ffffffff1660e01b8152600401602060405180830381865afa92505050801561063d575060408051601f3d908101601f1916820190925261063a91810190612e6b565b60015b61065a5760405163b5be0bc360e01b815260040160405180910390fd5b50604051632392274360e21b8152600481018490526001600160a01b03821690638e489d0c90602401600060405180830381865afa9250505080156106c157506040513d6000823e601f3d908101601f191682016040526106be9190810190612e88565b60015b6106de57604051630f89114b60e41b815260040160405180910390fd5b506009805490819060006106f183612ef5565b909155505060408051600180825281830190925260009160208083019080368337019050509050858160008151811061072c5761072c612f1c565b6001600160a01b039290921660209283029190910190910152604080516001808252818301909252600091816020015b606081526020019060019003908161075c575050604080516001808252818301909252919250600091906020808301908036833701905050905086816000815181106107aa576107aa612f1c565b60200260200101818152505080826000815181106107ca576107ca612f1c565b60200260200101819052506107e18985858561147e565b604051632392274360e21b8152600481018890526000906001600160a01b03871690638e489d0c90602401600060405180830381865afa158015610829573d6000803e3d6000fd5b505050506040513d6000823e601f3d908101601f191682016040526108519190810190612e88565b90506000816040516020016108669190612f32565b6040516020818303038152906040529050610881868261164a565b89600a600088815260200190815260200160002060006101000a8154816001600160a01b0302191690836001600160a01b0316021790555088600b600088815260200190815260200160002081905550600c60008b6001600160a01b03166001600160a01b0316815260200190815260200160002060008a8152602001908152602001600020869080600181540180825580915050600190039060005260206000200160009091909190915055888a6001600160a01b0316877fd14409b136f4c46af205dbc7e9b237bb1ae44b59893a672421c9c5d56bd156ea8e60405161097891906001600160a01b0391909116815260200190565b60405180910390a45093955050505050505b9392505050565b6109ac838383604051806020016040528060008152506111ec565b505050565b6109ba8261169a565b6109d65760405162461bcd60e51b815260040161052990612f66565b826001600160a01b03166109e983610d32565b6001600160a01b031614610a5b5760405162461bcd60e51b815260206004820152603360248201527f4552435f353532313a207472616e736665722063616c6c6572206973206e6f74604482015272081bdddb995c881b9bdc88185c1c1c9bdd9959606a1b6064820152608401610529565b6109ac828261164a565b60005b815181101561058d57600060076000848481518110610a8957610a89612f1c565b602002602001015181526020019081526020016000209050806001016000866001600160a01b03166001600160a01b0316815260200190815260200160002080549050600003610b0457600381018054600181018255600091825260209091200180546001600160a01b0319166001600160a01b0387161790555b306001600160a01b03861603610b785760405162461bcd60e51b815260206004820152603360248201527f4552435f353532313a2074686973206d75737420626520616e2065787465726e604482015272616c20636f6e7472616374206164647265737360681b6064820152608401610529565b42816004015410610b9b5760405162461bcd60e51b815260040161052990612f9d565b6001600160a01b03851660009081526001808301602090815260408320805492830181558352909120018490558251610c0f90849084908110610be057610be0612f1c565b6020026020010151610c0a858581518110610bfd57610bfd612f1c565b6020026020010151610d32565b6116b7565b50600101610a68565b8051825114610c885760405162461bcd60e51b815260206004820152603660248201527f41646472657373657320616e6420546f6b656e494420617272617973206d75736044820152750e840d0c2ecca40e8d0ca40e6c2daca40d8cadccee8d60531b6064820152608401610529565b60005b8151811015610d1b57818181518110610ca657610ca6612f1c565b602002602001015151600003610d135760405162461bcd60e51b815260206004820152602c60248201527f4552435f353532313a2074686520726566657272696e67206c6973742063616e60448201526b6e6f7420626520656d70747960a01b6064820152608401610529565b600101610c8b565b50610d2782848361172b565b6109ac828483611868565b60006104338261150b565b6060808080306001600160a01b03871603610d8c57610d5b8561169a565b610d775760405162461bcd60e51b815260040161052990612f66565b610d82856000611c1e565b9092509050610e96565b6040516301ffc9a760e01b8152630204cbd160e51b600482015286906001600160a01b038216906301ffc9a790602401602060405180830381865afa158015610dd9573d6000803e3d6000fd5b505050506040513d601f19601f82011682018060405250810190610dfd9190612ff2565b610e195760405162461bcd60e51b81526004016105299061300f565b60405163327cd87360e11b81526001600160a01b038881166004830152602482018890528216906364f9b0e6906044015b600060405180830381865afa158015610e67573d6000803e3d6000fd5b505050506040513d6000823e601f3d908101601f19168201604052610e8f9190810190613137565b9093509150505b909590945092505050565b60006001600160a01b038216610ecd576040516322718ad960e21b815260006004820152602401610529565b506001600160a01b031660009081526003602052604090205490565b6001600160a01b0382166000908152600c602090815260408083208484528252808320805482518185028101850190935280835260609493830182828015610f5057602002820191906000526020600020905b815481526020019060010190808311610f3c575b505050505090506000805b8251811015610fd257610f86838281518110610f7957610f79612f1c565b602002602001015161169a565b8015610fb75750866001600160a01b0316610fac848381518110610bfd57610bfd612f1c565b6001600160a01b0316145b15610fca5781610fc681612ef5565b9250505b600101610f5b565b506000816001600160401b03811115610fed57610fed61282a565b604051908082528060200260200182016040528015611016578160200160208202803683370190505b5090506000805b84518110156110be5761103b858281518110610f7957610f79612f1c565b801561106c5750886001600160a01b0316611061868381518110610bfd57610bfd612f1c565b6001600160a01b0316145b156110b65784818151811061108357611083612f1c565b602002602001015183838151811061109d5761109d612f1c565b6020908102919091010152816110b281612ef5565b9250505b60010161101d565b5090979650505050505050565b60606001805461044890612e31565b6104ff338383611f29565b6060808080306001600160a01b0387160361112a576111038561169a565b61111f5760405162461bcd60e51b815260040161052990612f66565b610d82856001611c1e565b6040516301ffc9a760e01b8152630204cbd160e51b600482015286906001600160a01b038216906301ffc9a790602401602060405180830381865afa158015611177573d6000803e3d6000fd5b505050506040513d601f19601f8201168201806040525081019061119b9190612ff2565b6111b75760405162461bcd60e51b81526004016105299061300f565b6040516328d4e46b60e21b81526001600160a01b0388811660048301526024820188905282169063a35391ac90604401610e4a565b6111f7848484610503565b61058d3385858585611fc8565b6060610433826120f3565b600080306001600160a01b0385160361125f5761122b8361169a565b6112475760405162461bcd60e51b815260040161052990612f66565b5060008281526007602052604090206004015461098a565b6040516301ffc9a760e01b8152630204cbd160e51b600482015284906001600160a01b038216906301ffc9a790602401602060405180830381865afa1580156112ac573d6000803e3d6000fd5b505050506040513d601f19601f820116820180604052508101906112d09190612ff2565b6112ec5760405162461bcd60e51b81526004016105299061300f565b60405163d30d968d60e01b81526001600160a01b0386811660048301526024820186905282169063d30d968d90604401602060405180830381865afa158015611339573d6000803e3d6000fd5b505050506040513d601f19601f8201168201806040525081019061135d9190613202565b95945050505050565b6001600160a01b03918216600090815260056020908152604080832093909416825291909152205460ff1690565b6001600160a01b0382166000908152600c602090815260408083208484528252808320805482518185028101850190935280835284938301828280156113f957602002820191906000526020600020905b8154815260200190600101908083116113e5575b5050505050905060005b815181101561147257600082828151811061142057611420612f1c565b602002602001015190506114338161169a565b80156114585750866001600160a01b031661144d82610d32565b6001600160a01b0316145b15611469576001935050505061098a565b50600101611403565b50600095945050505050565b6114888484612204565b8051158015906114985750815115155b1561058d5761058d838383610c18565b600c60205282600052604060002060205281600052604060002081815481106114d057600080fd5b9060005260206000200160009250925050505481565b60006001600160e01b03198216632483248360e11b148061043357506104338261221e565b6000818152600260205260408120546001600160a01b03168061043357604051637e27328960e01b815260048101849052602401610529565b6109ac838383600161226e565b6000828152600260205260408120546001600160a01b039081169083161561157e5761157e818486612374565b6001600160a01b038116156115bc5761159b60008560008061226e565b6001600160a01b038116600090815260036020526040902080546000190190555b6001600160a01b038516156115eb576001600160a01b0385166000908152600360205260409020805460010190555b60008481526002602052604080822080546001600160a01b0319166001600160a01b0389811691821790925591518793918516917fddf252ad1be2c89b69c2b068fc378daa952ba7f163c4a11628f55a4df523b3ef91a4949350505050565b60008281526006602052604090206116628282613262565b506040518281527ff8e1a15aba9398e019f0b49df1a4fde98ee17ae345cb5f6b5e2c27f5033e8ce79060200160405180910390a15050565b6000806116a683610d32565b6001600160a01b0316141592915050565b6000806116c5846001611c1e565b915091506000806116d7866000611c1e565b91509150846001600160a01b0316867f81bed52c04e8cd65796985202162bad7e20a8ffaa732fe2e0a0bc79f687e4d668686868660405161171b9493929190613320565b60405180910390a3505050505050565b6000828152600760205260408120905b84518110156118575781600001600086838151811061175c5761175c612f1c565b60200260200101516001600160a01b03166001600160a01b03168152602001908152602001600020805490506000036117e157816002018582815181106117a5576117a5612f1c565b60209081029190910181015182546001810184556000938452919092200180546001600160a01b0319166001600160a01b039092169190911790555b8281815181106117f3576117f3612f1c565b602002602001015182600001600087848151811061181357611813612f1c565b60200260200101516001600160a01b03166001600160a01b03168152602001908152602001600020908051906020019061184e929190612696565b5060010161173b565b5042600482015561058d83336116b7565b60005b835181101561058d57306001600160a01b031684828151811061189057611890612f1c565b60200260200101516001600160a01b031603611afb5760005b8282815181106118bb576118bb612f1c565b602002602001015151811015611af5576000600760008585815181106118e3576118e3612f1c565b602002602001015184815181106118fc576118fc612f1c565b60200260200101518152602001908152602001600020905080600101600087858151811061192c5761192c612f1c565b60200260200101516001600160a01b03166001600160a01b03168152602001908152602001600020805490506000036119b1578060030186848151811061197557611975612f1c565b60209081029190910181015182546001810184556000938452919092200180546001600160a01b0319166001600160a01b039092169190911790555b8383815181106119c3576119c3612f1c565b602002602001015182815181106119dc576119dc612f1c565b60200260200101518503611a3e5760405162461bcd60e51b8152602060048201526024808201527f4552435f353532313a2073656c662d7265666572656e6365206e6f7420616c6c6044820152631bddd95960e21b6064820152608401610529565b42816004015410611a615760405162461bcd60e51b815260040161052990612f9d565b3060009081526001808301602090815260408320805492830181558352909120018590558351611aec90859085908110611a9d57611a9d612f1c565b60200260200101518381518110611ab657611ab6612f1c565b6020026020010151610c0a868681518110611ad357611ad3612f1c565b60200260200101518581518110610bfd57610bfd612f1c565b506001016118a9565b50611c16565b6000848281518110611b0f57611b0f612f1c565b60209081029190910101516040516301ffc9a760e01b8152630204cbd160e51b60048201529091506000906001600160a01b038316906301ffc9a790602401602060405180830381865afa158015611b6b573d6000803e3d6000fd5b505050506040513d601f19601f82011682018060405250810190611b8f9190612ff2565b90508015611c1357816001600160a01b03166355c104403087878781518110611bba57611bba612f1c565b60200260200101516040518463ffffffff1660e01b8152600401611be093929190613378565b600060405180830381600087803b158015611bfa57600080fd5b505af1158015611c0e573d6000803e3d6000fd5b505050505b50505b60010161186b565b6000828152600760205260409020606090819081808515611dad5782600201805480602002602001604051908101604052809291908181526020018280548015611c9157602002820191906000526020600020905b81546001600160a01b03168152600190910190602001808311611c73575b5050505050915081516001600160401b03811115611cb157611cb161282a565b604051908082528060200260200182016040528015611ce457816020015b6060815260200190600190039081611ccf5790505b50905060005b8251811015611da757836000016000848381518110611d0b57611d0b612f1c565b60200260200101516001600160a01b03166001600160a01b03168152602001908152602001600020805480602002602001604051908101604052809291908181526020018280548015611d7d57602002820191906000526020600020905b815481526020019060010190808311611d69575b5050505050828281518110611d9457611d94612f1c565b6020908102919091010152600101611cea565b50611f1d565b82600301805480602002602001604051908101604052809291908181526020018280548015611e0557602002820191906000526020600020905b81546001600160a01b03168152600190910190602001808311611de7575b5050505050915081516001600160401b03811115611e2557611e2561282a565b604051908082528060200260200182016040528015611e5857816020015b6060815260200190600190039081611e435790505b50905060005b8251811015611f1b57836001016000848381518110611e7f57611e7f612f1c565b60200260200101516001600160a01b03166001600160a01b03168152602001908152602001600020805480602002602001604051908101604052809291908181526020018280548015611ef157602002820191906000526020600020905b815481526020019060010190808311611edd575b5050505050828281518110611f0857611f08612f1c565b6020908102919091010152600101611e5e565b505b90969095509350505050565b6001600160a01b038216611f5b57604051630b61174360e31b81526001600160a01b0383166004820152602401610529565b6001600160a01b03838116600081815260056020908152604080832094871680845294825291829020805460ff191686151590811790915591519182527f17307eab39ab6107e8899845ad3d59bd9653f200f220920489ca2b5937696c31910160405180910390a3505050565b6001600160a01b0383163b156120ec57604051630a85bd0160e11b81526001600160a01b0384169063150b7a029061200a90889088908790879060040161339f565b6020604051808303816000875af1925050508015612045575060408051601f3d908101601f19168201909252612042918101906133dc565b60015b6120ae573d808015612073576040519150601f19603f3d011682016040523d82523d6000602084013e612078565b606091505b5080516000036120a657604051633250574960e11b81526001600160a01b0385166004820152602401610529565b805181602001fd5b6001600160e01b03198116630a85bd0160e11b146120ea57604051633250574960e11b81526001600160a01b0385166004820152602401610529565b505b5050505050565b60606120fe8261150b565b506000828152600660205260408120805461211890612e31565b80601f016020809104026020016040519081016040528092919081815260200182805461214490612e31565b80156121915780601f1061216657610100808354040283529160200191612191565b820191906000526020600020905b81548152906001019060200180831161217457829003601f168201915b5050505050905060006121af60408051602081019091526000815290565b905080516000036121c1575092915050565b8151156121f35780826040516020016121db9291906133f9565b60405160208183030381529060405292505050919050565b6121fc846123d8565b949350505050565b6104ff82826040518060200160405280600081525061244c565b60006001600160e01b031982166380ac58cd60e01b148061224f57506001600160e01b03198216635b5e139f60e01b145b8061043357506301ffc9a760e01b6001600160e01b0319831614610433565b808061228257506001600160a01b03821615155b156123445760006122928461150b565b90506001600160a01b038316158015906122be5750826001600160a01b0316816001600160a01b031614155b80156122d157506122cf8184611366565b155b156122fa5760405163a9fbf51f60e01b81526001600160a01b0384166004820152602401610529565b81156123425783856001600160a01b0316826001600160a01b03167f8c5be1e5ebec7d5bd14f71427d1e84f3dd0314c0f7b2291e5b200ac8c7c3b92560405160405180910390a45b505b5050600090815260046020526040902080546001600160a01b0319166001600160a01b0392909216919091179055565b61237f838383612464565b6109ac576001600160a01b0383166123ad57604051637e27328960e01b815260048101829052602401610529565b60405163177e802f60e01b81526001600160a01b038316600482015260248101829052604401610529565b60606123e38261150b565b5060006123fb60408051602081019091526000815290565b9050600081511161241b576040518060200160405280600081525061098a565b80612425846124c7565b6040516020016124369291906133f9565b6040516020818303038152906040529392505050565b6124568383612559565b6109ac336000858585611fc8565b60006001600160a01b038316158015906121fc5750826001600160a01b0316846001600160a01b0316148061249e575061249e8484611366565b806121fc5750506000908152600460205260409020546001600160a01b03908116911614919050565b606060006124d4836125be565b60010190506000816001600160401b038111156124f3576124f361282a565b6040519080825280601f01601f19166020018201604052801561251d576020820181803683370190505b5090508181016020015b600019016f181899199a1a9b1b9c1cb0b131b232b360811b600a86061a8153600a850494508461252757509392505050565b6001600160a01b03821661258357604051633250574960e11b815260006004820152602401610529565b600061259183836000611551565b90506001600160a01b038116156109ac576040516339e3563760e11b815260006004820152602401610529565b60008072184f03e93ff9f4daa797ed6e38ed64bf6a1f0160401b83106125fd5772184f03e93ff9f4daa797ed6e38ed64bf6a1f0160401b830492506040015b6d04ee2d6d415b85acef81000000008310612629576d04ee2d6d415b85acef8100000000830492506020015b662386f26fc10000831061264757662386f26fc10000830492506010015b6305f5e100831061265f576305f5e100830492506008015b612710831061267357612710830492506004015b60648310612685576064830492506002015b600a83106104335760010192915050565b8280548282559060005260206000209081019282156126d1579160200282015b828111156126d15782518255916020019190600101906126b6565b506126dd9291506126e1565b5090565b5b808211156126dd57600081556001016126e2565b6001600160e01b03198116811461270c57600080fd5b50565b60006020828403121561272157600080fd5b813561098a816126f6565b60005b8381101561274757818101518382015260200161272f565b50506000910152565b6000815180845261276881602086016020860161272c565b601f01601f19169290920160200192915050565b60208152600061098a6020830184612750565b6000602082840312156127a157600080fd5b5035919050565b6001600160a01b038116811461270c57600080fd5b600080604083850312156127d057600080fd5b82356127db816127a8565b946020939093013593505050565b6000806000606084860312156127fe57600080fd5b8335612809816127a8565b92506020840135612819816127a8565b929592945050506040919091013590565b634e487b7160e01b600052604160045260246000fd5b604051601f8201601f191681016001600160401b03811182821017156128685761286861282a565b604052919050565b60006001600160401b038211156128895761288961282a565b50601f01601f191660200190565b60006128aa6128a584612870565b612840565b90508281528383830111156128be57600080fd5b828260208301376000602084830101529392505050565b6000806000606084860312156128ea57600080fd5b83356128f5816127a8565b92506020840135915060408401356001600160401b0381111561291757600080fd5b8401601f8101861361292857600080fd5b61293786823560208401612897565b9150509250925092565b60006001600160401b0382111561295a5761295a61282a565b5060051b60200190565b600082601f83011261297557600080fd5b81356129836128a582612941565b8082825260208201915060208360051b8601019250858311156129a557600080fd5b602085015b838110156129c25780358352602092830192016129aa565b5095945050505050565b6000806000606084860312156129e157600080fd5b83356129ec816127a8565b92506020840135915060408401356001600160401b03811115612a0e57600080fd5b61293786828701612964565b600082601f830112612a2b57600080fd5b8135612a396128a582612941565b8082825260208201915060208360051b860101925085831115612a5b57600080fd5b602085015b838110156129c2578035612a73816127a8565b835260209283019201612a60565b600082601f830112612a9257600080fd5b8135612aa06128a582612941565b8082825260208201915060208360051b860101925085831115612ac257600080fd5b602085015b838110156129c25780356001600160401b03811115612ae557600080fd5b612af4886020838a0101612964565b84525060209283019201612ac7565b600080600060608486031215612b1857600080fd5b8335925060208401356001600160401b03811115612b3557600080fd5b612b4186828701612a1a565b92505060408401356001600160401b03811115612b5d57600080fd5b61293786828701612a81565b600081518084526020840193506020830160005b82811015612ba45781516001600160a01b0316865260209586019590910190600101612b7d565b5093949350505050565b600081518084526020840193506020830160005b82811015612ba4578151865260209586019590910190600101612bc2565b600082825180855260208501945060208160051b8301016020850160005b83811015612c3057601f19858403018852612c1a838351612bae565b6020988901989093509190910190600101612bfe565b50909695505050505050565b604081526000612c4f6040830185612b69565b828103602084015261135d8185612be0565b600060208284031215612c7357600080fd5b813561098a816127a8565b60208152600061098a6020830184612bae565b801515811461270c57600080fd5b60008060408385031215612cb257600080fd5b8235612cbd816127a8565b91506020830135612ccd81612c91565b809150509250929050565b60008060008060808587031215612cee57600080fd5b8435612cf9816127a8565b93506020850135612d09816127a8565b92506040850135915060608501356001600160401b03811115612d2b57600080fd5b8501601f81018713612d3c57600080fd5b612d4b87823560208401612897565b91505092959194509250565b60008060408385031215612d6a57600080fd5b8235612d75816127a8565b91506020830135612ccd816127a8565b60008060008060808587031215612d9b57600080fd5b8435612da6816127a8565b93506020850135925060408501356001600160401b03811115612dc857600080fd5b612dd487828801612a1a565b92505060608501356001600160401b03811115612df057600080fd5b612d4b87828801612a81565b600080600060608486031215612e1157600080fd5b8335612e1c816127a8565b95602085013595506040909401359392505050565b600181811c90821680612e4557607f821691505b602082108103612e6557634e487b7160e01b600052602260045260246000fd5b50919050565b600060208284031215612e7d57600080fd5b815161098a816127a8565b600060208284031215612e9a57600080fd5b81516001600160401b03811115612eb057600080fd5b8201601f81018413612ec157600080fd5b8051612ecf6128a582612870565b818152856020838501011115612ee457600080fd5b61135d82602083016020860161272c565b600060018201612f1557634e487b7160e01b600052601160045260246000fd5b5060010190565b634e487b7160e01b600052603260045260246000fd5b6b6c6963656e73652d666f722d60a01b815260008251612f5981600c85016020870161272c565b91909101600c0192915050565b6020808252601e908201527f4552435f353532313a20746f6b656e204944206e6f7420657869737465640000604082015260600190565b60208082526035908201527f4552435f353532313a2074686520726566657272656420724e4654206e65656460408201527439903a37903132903090383932b232b1b2b9b9b7b960591b606082015260800190565b60006020828403121561300457600080fd5b815161098a81612c91565b60208082526027908201527f4552435f353532313a2074617267657420636f6e7472616374206e6f742073756040820152661c1c1bdc9d195960ca1b606082015260800190565b600082601f83011261306757600080fd5b81516130756128a582612941565b8082825260208201915060208360051b86010192508583111561309757600080fd5b602085015b838110156129c25780516001600160401b038111156130ba57600080fd5b8601603f810188136130cb57600080fd5b60208101516130dc6128a582612941565b808282526020820191506020808460051b8601010192508a83111561310057600080fd5b6040840193505b82841015613122578351825260209384019390910190613107565b8652505060209384019391909101905061309c565b6000806040838503121561314a57600080fd5b82516001600160401b0381111561316057600080fd5b8301601f8101851361317157600080fd5b805161317f6128a582612941565b8082825260208201915060208360051b8501019250878311156131a157600080fd5b6020840193505b828410156131cc5783516131bb816127a8565b8252602093840193909101906131a8565b8095505050505060208301516001600160401b038111156131ec57600080fd5b6131f885828601613056565b9150509250929050565b60006020828403121561321457600080fd5b5051919050565b601f8211156109ac57806000526020600020601f840160051c810160208510156132425750805b601f840160051c820191505b818110156120ec576000815560010161324e565b81516001600160401b0381111561327b5761327b61282a565b61328f816132898454612e31565b8461321b565b6020601f8211600181146132c357600083156132ab5750848201515b600019600385901b1c1916600184901b1784556120ec565b600084815260208120601f198516915b828110156132f357878501518255602094850194600190920191016132d3565b50848210156133115786840151600019600387901b60f8161c191681555b50505050600190811b01905550565b6080815260006133336080830187612b69565b82810360208401526133458187612be0565b905082810360408401526133598186612b69565b9050828103606084015261336d8185612be0565b979650505050505050565b60018060a01b038416815282602082015260606040820152600061135d6060830184612bae565b6001600160a01b03858116825284166020820152604081018390526080606082018190526000906133d290830184612750565b9695505050505050565b6000602082840312156133ee57600080fd5b815161098a816126f6565b6000835161340b81846020880161272c565b83519083019061341f81836020880161272c565b0194935050505056fea264697066735822122088321701a179caf76735642be9df68ad49d9f09e23d2cb15a0ef0d8b5a2847a864736f6c634300081c0033",
  "linkReferences": {},
  "deployedLinkReferences": {}
}