{
  "_format": "hh-sol-artifact-1",
  "contractName": "LicenseManager",
  "sourceName": "contracts/LicenseManager.sol",
  "abi": [
    {
      "inputs": [
        {
          "internalType": "address",
          "name": "_registry",
          "type": "address"
        }
      ],
      "stateMutability": "nonpayable",
      "type": "constructor"
    },
    {
      "inputs": [
        {
          "internalType": "address",
          "name": "sender",
          "type": "address"
        },
        {
          "internalType": "uint256",
          "name": "tokenId",
          "type": "uint256"
        },
        {
          "internalType": "address",
          "name": "owner",
          "type": "address"
        }
      ],
      "name": "ERC721IncorrectOwner",
      "type": "error"
    },
    {
      "inputs": [
        {
          "internalType": "address",
          "name": "operator",
          "type": "address"
        },
        {
          "internalType": "uint256",
          "name": "tokenId",
          "type": "uint256"
        }
      ],
      "name": "ERC721InsufficientApproval",
      "type": "error"
    },
    {
      "inputs": [
        {
          "internalType": "address",
          "name": "approver",
          "type": "address"
        }
      ],
      "name": "ERC721InvalidApprover",
      "type": "error"
    },
    {
      "inputs": [
        {
          "internalType": "address",
          "name": "operator",
          "type": "address"
        }
      ],
      "name": "ERC721InvalidOperator",
      "type": "error"
    },
    {
      "inputs": [
        {
          "internalType": "address",
          "name": "owner",
          "type": "address"
        }
      ],
      "name": "ERC721InvalidOwner",
      "type": "error"
    },
    {
      "inputs": [
        {
          "internalType": "address",
          "name": "receiver",
          "type": "address"
        }
      ],
      "name": "ERC721InvalidReceiver",
      "type": "error"
    },
    {
      "inputs": [
        {
          "internalType": "address",
          "name": "sender",
          "type": "address"
        }
      ],
      "name": "ERC721InvalidSender",
      "type": "error"
    },
    {
      "inputs": [
        {
          "internalType": "uint256",
          "name": "tokenId",
          "type": "uint256"
        }
      ],
      "name": "ERC721NonexistentToken",
      "type": "error"
    },
    {
      "inputs": [],
      "name": "NotAuthorized",
      "type": "error"
    },
    {
      "inputs": [],
      "name": "RepositoryNotFound",
      "type": "error"
    },
    {
      "inputs": [],
      "name": "SoftwareNotFound",
      "type": "error"
    },
    {
      "anonymous": false,
      "inputs": [
        {
          "indexed": true,
          "internalType": "address",
          "name": "owner",
          "type": "address"
        },
        {
          "indexed": true,
          "internalType": "address",
          "name": "approved",
          "type": "address"
        },
        {
          "indexed": true,
          "internalType": "uint256",
          "name": "tokenId",
          "type": "uint256"
        }
      ],
      "name": "Approval",
      "type": "event"
    },
    {
      "anonymous": false,
      "inputs": [
        {
          "indexed": true,
          "internalType": "address",
          "name": "owner",
          "type": "address"
        },
        {
          "indexed": true,
          "internalType": "address",
          "name": "operator",
          "type": "address"
        },
        {
          "indexed": false,
          "internalType": "bool",
          "name": "approved",
          "type": "bool"
        }
      ],
      "name": "ApprovalForAll",
      "type": "event"
    },
    {
      "anonymous": false,
      "inputs": [
        {
          "indexed": false,
          "internalType": "uint256",
          "name": "_fromTokenId",
          "type": "uint256"
        },
        {
          "indexed": false,
          "internalType": "uint256",
          "name": "_toTokenId",
          "type": "uint256"
        }
      ],
      "name": "BatchMetadataUpdate",
      "type": "event"
    },
    {
      "anonymous": false,
      "inputs": [
        {
          "indexed": true,
          "internalType": "uint256",
          "name": "licenseId",
          "type": "uint256"
        },
        {
          "indexed": true,
          "internalType": "address",
          "name": "repository",
          "type": "address"
        },
        {
          "indexed": true,
          "internalType": "uint256",
          "name": "softwareId",
          "type": "uint256"
        },
        {
          "indexed": false,
          "internalType": "address",
          "name": "licensee",
          "type": "address"
        }
      ],
      "name": "LicenseCreated",
      "type": "event"
    },
    {
      "anonymous": false,
      "inputs": [
        {
          "indexed": false,
          "internalType": "uint256",
          "name": "_tokenId",
          "type": "uint256"
        }
      ],
      "name": "MetadataUpdate",
      "type": "event"
    },
    {
      "anonymous": false,
      "inputs": [
        {
          "indexed": true,
          "internalType": "address",
          "name": "from",
          "type": "address"
        },
        {
          "indexed": true,
          "internalType": "address",
          "name": "to",
          "type": "address"
        },
        {
          "indexed": true,
          "internalType": "uint256",
          "name": "tokenId",
          "type": "uint256"
        }
      ],
      "name": "Transfer",
      "type": "event"
    },
    {
      "anonymous": false,
      "inputs": [
        {
          "indexed": true,
          "internalType": "uint256",
          "name": "tokenId",
          "type": "uint256"
        },
        {
          "indexed": true,
          "internalType": "address",
          "name": "owner",
          "type": "address"
        },
        {
          "indexed": false,
          "internalType": "address[]",
          "name": "_address_referringList",
          "type": "address[]"
        },
        {
          "indexed": false,
          "internalType": "uint256[][]",
          "name": "_tokenIds_referringList",
          "type": "uint256[][]"
        },
        {
          "indexed": false,
          "internalType": "address[]",
          "name": "_address_referredList",
          "type": "address[]"
        },
        {
          "indexed": false,
          "internalType": "uint256[][]",
          "name": "_tokenIds_referredList",
          "type": "uint256[][]"
        }
      ],
      "name": "UpdateNode",
      "type": "event"
    },
    {
      "inputs": [
        {
          "internalType": "address",
          "name": "to",
          "type": "address"
        },
        {
          "internalType": "uint256",
          "name": "tokenId",
          "type": "uint256"
        }
      ],
      "name": "approve",
      "outputs": [],
      "stateMutability": "nonpayable",
      "type": "function"
    },
    {
      "inputs": [
        {
          "internalType": "address",
          "name": "owner",
          "type": "address"
        }
      ],
      "name": "balanceOf",
      "outputs": [
        {
          "internalType": "uint256",
          "name": "",
          "type": "uint256"
        }
      ],
      "stateMutability": "view",
      "type": "function"
    },
    {
      "inputs": [
        {
          "internalType": "address",
          "name": "_address",
          "type": "address"
        },
        {
          "internalType": "uint256",
          "name": "tokenId",
          "type": "uint256"
        }
      ],
      "name": "createdTimestampOf",
      "outputs": [
        {
          "internalType": "uint256",
          "name": "",
          "type": "uint256"
        }
      ],
      "stateMutability": "view",
      "type": "function"
    },
    {
      "inputs": [
        {
          "internalType": "uint256",
          "name": "tokenId",
          "type": "uint256"
        }
      ],
      "name": "getApproved",
      "outputs": [
        {
          "internalType": "address",
          "name": "",
          "type": "address"
        }
      ],
      "stateMutability": "view",
      "type": "function"
    },
    {
      "inputs": [
        {
          "internalType": "address",
          "name": "user",
          "type": "address"
        },
        {
          "internalType": "address",
          "name": "repository",
          "type": "address"
        },
        {
          "internalType": "uint256",
          "name": "softwareId",
          "type": "uint256"
        }
      ],
      "name": "getUserLicenses",
      "outputs": [
        {
          "internalType": "uint256[]",
          "name": "",
          "type": "uint256[]"
        }
      ],
      "stateMutability": "view",
      "type": "function"
    },
    {
      "inputs": [
        {
          "internalType": "address",
          "name": "user",
          "type": "address"
        },
        {
          "internalType": "address",
          "name": "repository",
          "type": "address"
        },
        {
          "internalType": "uint256",
          "name": "softwareId",
          "type": "uint256"
        }
      ],
      "name": "hasLicense",
      "outputs": [
        {
          "internalType": "bool",
          "name": "",
          "type": "bool"
        }
      ],
      "stateMutability": "view",
      "type": "function"
    },
    {
      "inputs": [
        {
          "internalType": "address",
          "name": "owner",
          "type": "address"
        },
        {
          "internalType": "address",
          "name": "operator",
          "type": "address"
        }
      ],
      "name": "isApprovedForAll",
      "outputs": [
        {
          "internalType": "bool",
          "name": "",
          "type": "bool"
        }
      ],
      "stateMutability": "view",
      "type": "function"
    },
    {
      "inputs": [
        {
          "internalType": "uint256",
          "name": "",
          "type": "uint256"
        }
      ],
      "name": "licenseToRepository",
      "outputs": [
        {
          "internalType": "address",
          "name": "",
          "type": "address"
        }
      ],
      "stateMutability": "view",
      "type": "function"
    },
    {
      "inputs": [
        {
          "internalType": "uint256",
          "name": "",
          "type": "uint256"
        }
      ],
      "name": "licenseToSoftware",
      "outputs": [
        {
          "internalType": "uint256",
          "name": "",
          "type": "uint256"
        }
      ],
      "stateMutability": "view",
      "type": "function"
    },
    {
      "inputs": [
        {
          "internalType": "address",
          "name": "licensee",
          "type": "address"
        },
        {
          "internalType": "address",
          "name": "repository",
          "type": "address"
        },
        {
          "internalType": "uint256",
          "name": "softwareId",
          "type": "uint256"
        }
      ],
      "name": "mintLicense",
      "outputs": [
        {
          "internalType": "uint256",
          "name": "",
          "type": "uint256"
        }
      ],
      "stateMutability": "nonpayable",
      "type": "function"
    },
    {
      "inputs": [],
      "name": "name",
      "outputs": [
        {
          "internalType": "string",
          "name": "",
          "type": "string"
        }
      ],
      "stateMutability": "view",
      "type": "function"
    },
    {
      "inputs": [
        {
          "internalType": "uint256",
          "name": "tokenId",
          "type": "uint256"
        }
      ],
      "name": "ownerOf",
      "outputs": [
        {
          "internalType": "address",
          "name": "",
          "type": "address"
        }
      ],
      "stateMutability": "view",
      "type": "function"
    },
    {
      "inputs": [
        {
          "internalType": "address",
          "name": "_address",
          "type": "address"
        },
        {
          "internalType": "uint256",
          "name": "tokenId",
          "type": "uint256"
        }
      ],
      "name": "referredOf",
      "outputs": [
        {
          "internalType": "address[]",
          "name": "",
          "type": "address[]"
        },
        {
          "internalType": "uint256[][]",
          "name": "",
          "type": "uint256[][]"
        }
      ],
      "stateMutability": "view",
      "type": "function"
    },
    {
      "inputs": [
        {
          "internalType": "address",
          "name": "_address",
          "type": "address"
        },
        {
          "internalType": "uint256",
          "name": "tokenId",
          "type": "uint256"
        }
      ],
      "name": "referringOf",
      "outputs": [
        {
          "internalType": "address[]",
          "name": "",
          "type": "address[]"
        },
        {
          "internalType": "uint256[][]",
          "name": "",
          "type": "uint256[][]"
        }
      ],
      "stateMutability": "view",
      "type": "function"
    },
    {
      "inputs": [
        {
          "internalType": "address",
          "name": "to",
          "type": "address"
        },
        {
          "internalType": "uint256",
          "name": "tokenId",
          "type": "uint256"
        },
        {
          "internalType": "address[]",
          "name": "addresses",
          "type": "address[]"
        },
        {
          "internalType": "uint256[][]",
          "name": "_tokenIds",
          "type": "uint256[][]"
        }
      ],
      "name": "safeMint",
      "outputs": [],
      "stateMutability": "nonpayable",
      "type": "function"
    },
    {
      "inputs": [
        {
          "internalType": "address",
          "name": "from",
          "type": "address"
        },
        {
          "internalType": "address",
          "name": "to",
          "type": "address"
        },
        {
          "internalType": "uint256",
          "name": "tokenId",
          "type": "uint256"
        }
      ],
      "name": "safeTransferFrom",
      "outputs": [],
      "stateMutability": "nonpayable",
      "type": "function"
    },
    {
      "inputs": [
        {
          "internalType": "address",
          "name": "from",
          "type": "address"
        },
        {
          "internalType": "address",
          "name": "to",
          "type": "address"
        },
        {
          "internalType": "uint256",
          "name": "tokenId",
          "type": "uint256"
        },
        {
          "internalType": "bytes",
          "name": "data",
          "type": "bytes"
        }
      ],
      "name": "safeTransferFrom",
      "outputs": [],
      "stateMutability": "nonpayable",
      "type": "function"
    },
    {
      "inputs": [
        {
          "internalType": "address",
          "name": "operator",
          "type": "address"
        },
        {
          "internalType": "bool",
          "name": "approved",
          "type": "bool"
        }
      ],
      "name": "setApprovalForAll",
      "outputs": [],
      "stateMutability": "nonpayable",
      "type": "function"
    },
    {
      "inputs": [
        {
          "internalType": "uint256",
          "name": "tokenId",
          "type": "uint256"
        },
        {
          "internalType": "address[]",
          "name": "addresses",
          "type": "address[]"
        },
        {
          "internalType": "uint256[][]",
          "name": "tokenIds",
          "type": "uint256[][]"
        }
      ],
      "name": "setNode",
      "outputs": [],
      "stateMutability": "nonpayable",
      "type": "function"
    },
    {
      "inputs": [
        {
          "internalType": "address",
          "name": "_address",
          "type": "address"
        },
        {
          "internalType": "uint256",
          "name": "tokenId",
          "type": "uint256"
        },
        {
          "internalType": "uint256[]",
          "name": "_tokenIds",
          "type": "uint256[]"
        }
      ],
      "name": "setNodeReferredExternal",
      "outputs": [],
      "stateMutability": "nonpayable",
      "type": "function"
    },
    {
      "inputs": [
        {
          "internalType": "address",
          "name": "developer",
          "type": "address"
        },
        {
          "internalType": "uint256",
          "name": "tokenId",
          "type": "uint256"
        },
        {
          "internalType": "string",
          "name": "_tokenURI",
          "type": "string"
        }
      ],
      "name": "setTokenURI",
      "outputs": [],
      "stateMutability": "nonpayable",
      "type": "function"
    },
    {
      "inputs": [
        {
          "internalType": "address",
          "name": "",
          "type": "address"
        },
        {
          "internalType": "uint256",
          "name": "",
          "type": "uint256"
        },
        {
          "internalType": "uint256",
          "name": "",
          "type": "uint256"
        }
      ],
      "name": "softwareToLicenses",
      "outputs": [
        {
          "internalType": "uint256",
          "name": "",
          "type": "uint256"
        }
      ],
      "stateMutability": "view",
      "type": "function"
    },
    {
      "inputs": [
        {
          "internalType": "bytes4",
          "name": "interfaceId",
          "type": "bytes4"
        }
      ],
      "name": "supportsInterface",
      "outputs": [
        {
          "internalType": "bool",
          "name": "",
          "type": "bool"
        }
      ],
      "stateMutability": "view",
      "type": "function"
    },
    {
      "inputs": [],
      "name": "symbol",
      "outputs": [
        {
          "internalType": "string",
          "name": "",
          "type": "string"
        }
      ],
      "stateMutability": "view",
      "type": "function"
    },
    {
      "inputs": [
        {
          "internalType": "uint256",
          "name": "tokenId",
          "type": "uint256"
        }
      ],
      "name": "tokenURI",
      "outputs": [
        {
          "internalType": "string",
          "name": "",
          "type": "string"
        }
      ],
      "stateMutability": "view",
      "type": "function"
    },
    {
      "inputs": [
        {
          "internalType": "address",
          "name": "from",
          "type": "address"
        },
        {
          "internalType": "address",
          "name": "to",
          "type": "address"
        },
        {
          "internalType": "uint256",
          "name": "tokenId",
          "type": "uint256"
        }
      ],
      "name": "transferFrom",
      "outputs": [],
      "stateMutability": "nonpayable",
      "type": "function"
    }
  ],
  "bytecode": "0x60a06040526000600860006101000a81548173ffffffffffffffffffffffffffffffffffffffff021916908373ffffffffffffffffffffffffffffffffffffffff160217905550620f424060095534801561005957600080fd5b50604051617687380380617687833981810160405281019061007b9190610259565b6040518060400160405280601081526020017f536f667477617265204c6963656e7365000000000000000000000000000000008152506040518060400160405280600781526020017f4c4943454e534500000000000000000000000000000000000000000000000000815250818181600090816100f891906104d6565b50806001908161010891906104d6565b50505061012567c840a870701d7d7e60c01b6101f060201b60201c565b61013f67823150fe3b41ad9d60c01b6101f060201b60201c565b33600860006101000a81548173ffffffffffffffffffffffffffffffffffffffff021916908373ffffffffffffffffffffffffffffffffffffffff160217905550505061019c67f3ebc56482a69a4860c01b6101f360201b60201c565b6101b6677684b2f624a6fc4b60c01b6101f360201b60201c565b8073ffffffffffffffffffffffffffffffffffffffff1660808173ffffffffffffffffffffffffffffffffffffffff1681525050506105a8565b50565b50565b600080fd5b600073ffffffffffffffffffffffffffffffffffffffff82169050919050565b6000610226826101fb565b9050919050565b6102368161021b565b811461024157600080fd5b50565b6000815190506102538161022d565b92915050565b60006020828403121561026f5761026e6101f6565b5b600061027d84828501610244565b91505092915050565b600081519050919050565b7f4e487b7100000000000000000000000000000000000000000000000000000000600052604160045260246000fd5b7f4e487b7100000000000000000000000000000000000000000000000000000000600052602260045260246000fd5b6000600282049050600182168061030757607f821691505b60208210810361031a576103196102c0565b5b50919050565b60008190508160005260206000209050919050565b60006020601f8301049050919050565b600082821b905092915050565b6000600883026103827fffffffffffffffffffffffffffffffffffffffffffffffffffffffffffffffff82610345565b61038c8683610345565b95508019841693508086168417925050509392505050565b6000819050919050565b6000819050919050565b60006103d36103ce6103c9846103a4565b6103ae565b6103a4565b9050919050565b6000819050919050565b6103ed836103b8565b6104016103f9826103da565b848454610352565b825550505050565b600090565b610416610409565b6104218184846103e4565b505050565b5b818110156104455761043a60008261040e565b600181019050610427565b5050565b601f82111561048a5761045b81610320565b61046484610335565b81016020851015610473578190505b61048761047f85610335565b830182610426565b50505b505050565b600082821c905092915050565b60006104ad6000198460080261048f565b1980831691505092915050565b60006104c6838361049c565b9150826002028217905092915050565b6104df82610286565b67ffffffffffffffff8111156104f8576104f7610291565b5b61050282546102ef565b61050d828285610449565b600060209050601f831160018114610540576000841561052e578287015190505b61053885826104ba565b8655506105a0565b601f19841661054e86610320565b60005b8281101561057657848901518255600182019150602085019450602081019050610551565b86831015610593578489015161058f601f89168261049c565b8355505b6001600288020188555050505b505050505050565b6080516170c46105c3600039600061093101526170c46000f3fe608060405234801561001057600080fd5b506004361061018e5760003560e01c806364f9b0e6116100de578063b88d4fde11610097578063e985e9c511610071578063e985e9c5146104f1578063eb40f81814610521578063edda5e7314610551578063f9a927301461056d5761018e565b8063b88d4fde14610475578063c87b56dd14610491578063d30d968d146104c15761018e565b806364f9b0e61461037957806370a08231146103aa57806377f2d69e146103da57806395d89b411461040a578063a22cb46514610428578063a35391ac146104445761018e565b8063420859911161014b57806355c104401161012557806355c10440146102e15780635995d158146102fd578063616c55351461032d5780636352211e146103495761018e565b8063420859911461027957806342842e0e146102a95780634e5786bf146102c55761018e565b806301ffc9a71461019357806306fdde03146101c3578063081812fc146101e1578063095ea7b31461021157806323b872dd1461022d57806338ffc19414610249575b600080fd5b6101ad60048036038101906101a89190615401565b61059d565b6040516101ba9190615449565b60405180910390f35b6101cb61072b565b6040516101d891906154f4565b60405180910390f35b6101fb60048036038101906101f6919061554c565b6107bd565b60405161020891906155ba565b60405180910390f35b61022b60048036038101906102269190615601565b6107d9565b005b61024760048036038101906102429190615641565b6107ef565b005b610263600480360381019061025e9190615641565b6108f1565b60405161027091906156a3565b60405180910390f35b610293600480360381019061028e919061554c565b61119c565b6040516102a091906156a3565b60405180910390f35b6102c360048036038101906102be9190615641565b6111b4565b005b6102df60048036038101906102da91906157f3565b6111d4565b005b6102fb60048036038101906102f6919061592a565b61137d565b005b6103176004803603810190610312919061554c565b6117db565b60405161032491906155ba565b60405180910390f35b61034760048036038101906103429190615b3d565b61180e565b005b610363600480360381019061035e919061554c565b611a39565b60405161037091906155ba565b60405180910390f35b610393600480360381019061038e9190615601565b611a4b565b6040516103a1929190615e06565b60405180910390f35b6103c460048036038101906103bf9190615e3d565b611e29565b6040516103d191906156a3565b60405180910390f35b6103f460048036038101906103ef9190615641565b611ee3565b6040516104019190615ed9565b60405180910390f35b610412612387565b60405161041f91906154f4565b60405180910390f35b610442600480360381019061043d9190615f27565b612419565b005b61045e60048036038101906104599190615601565b61242f565b60405161046c929190615e06565b60405180910390f35b61048f600480360381019061048a9190616008565b61280d565b005b6104ab60048036038101906104a6919061554c565b612832565b6040516104b891906154f4565b60405180910390f35b6104db60048036038101906104d69190615601565b612880565b6040516104e891906156a3565b60405180910390f35b61050b6004803603810190610506919061608b565b612c57565b6040516105189190615449565b60405180910390f35b61053b60048036038101906105369190615641565b612ceb565b6040516105489190615449565b60405180910390f35b61056b600480360381019061056691906160cb565b612f5c565b005b6105876004803603810190610582919061616a565b61304a565b60405161059491906156a3565b60405180910390f35b60006105b3672c6691fc303c777460c01b613088565b6105c7676e3c9fc6d79090e060c01b613088565b6105db6764d1d70437a1652860c01b613088565b7f74342b55000000000000000000000000000000000000000000000000000000007bffffffffffffffffffffffffffffffffffffffffffffffffffffffff1916827bffffffffffffffffffffffffffffffffffffffffffffffffffffffff1916148015610658575061065767fdc747d6098a322960c01b61308b565b5b806106f857507f40997a20000000000000000000000000000000000000000000000000000000007bffffffffffffffffffffffffffffffffffffffffffffffffffffffff1916827bffffffffffffffffffffffffffffffffffffffffffffffffffffffff19161480156106db57506106da67d8fbbb74a60b8d6760c01b61308b565b5b80156106f757506106f6673cbc8b5003de07f060c01b61308b565b5b5b80610724575061070782613096565b8015610723575061072267581d91d92400a7ff60c01b61308b565b5b5b9050919050565b60606000805461073a906161ec565b80601f0160208091040260200160405190810160405280929190818152602001828054610766906161ec565b80156107b35780601f10610788576101008083540402835291602001916107b3565b820191906000526020600020905b81548152906001019060200180831161079657829003601f168201915b5050505050905090565b60006107c8826130f7565b506107d28261317f565b9050919050565b6107eb82826107e66131bc565b6131c4565b5050565b600073ffffffffffffffffffffffffffffffffffffffff168273ffffffffffffffffffffffffffffffffffffffff16036108615760006040517f64a0ae9200000000000000000000000000000000000000000000000000000000815260040161085891906155ba565b60405180910390fd5b600061087583836108706131bc565b6131d6565b90508373ffffffffffffffffffffffffffffffffffffffff168173ffffffffffffffffffffffffffffffffffffffff16146108eb578382826040517f64283d7b0000000000000000000000000000000000000000000000000000000081526004016108e29392919061621d565b60405180910390fd5b50505050565b6000610907674433e7dcb06eee2b60c01b6133f0565b61091b67aa647e154de0d36460c01b6133f0565b61092f6703e92dae9c99ea7360c01b6133f0565b7f000000000000000000000000000000000000000000000000000000000000000073ffffffffffffffffffffffffffffffffffffffff163373ffffffffffffffffffffffffffffffffffffffff16146109c8576109966702684f3e6b59fc3860c01b6133f0565b6040517fea8e4eb500000000000000000000000000000000000000000000000000000000815260040160405180910390fd5b6109dc679024ee34f55771e760c01b6133f0565b6109f06715df69cc5fbdd2eb60c01b6133f0565b610a04679419f65e11f3055b60c01b6133f0565b6000839050610a1d6701d7b9a851ec49c260c01b6133f0565b610a3167204986f87ac6b2da60c01b6133f0565b8073ffffffffffffffffffffffffffffffffffffffff16637a4440726040518163ffffffff1660e01b8152600401602060405180830381865afa925050508015610a9957506040513d601f19601f82011682018060405250810190610a969190616269565b60015b610ae357610ab1671436f3e2fb4a5a0360c01b6133f0565b6040517fb5be0bc300000000000000000000000000000000000000000000000000000000815260040160405180910390fd5b50610af8679df69722b72ffb7d60c01b6133f0565b610b0c679e8a40eea2c91b6760c01b6133f0565b8073ffffffffffffffffffffffffffffffffffffffff16638e489d0c846040518263ffffffff1660e01b8152600401610b4591906156a3565b600060405180830381865afa925050508015610b8457506040513d6000823e3d601f19601f82011682018060405250810190610b819190616306565b60015b610bce57610b9c671ccef54609c968b660c01b6133f0565b6040517ff89114b000000000000000000000000000000000000000000000000000000000815260040160405180910390fd5b50610be36789cc6d57602dc59760c01b6133f0565b610bf767e889acf419b7cd1060c01b6133f0565b60006009549050610c12670fe685452fb3c5ad60c01b6133f0565b60096000815480929190610c259061637e565b9190505550610c3e67609177475a438aa760c01b6133f0565b610c5267ddd6f67fa64a689160c01b6133f0565b6000600167ffffffffffffffff811115610c6f57610c6e6156c8565b5b604051908082528060200260200182016040528015610c9d5781602001602082028036833780820191505090505b509050610cb4674c37e398081bd15260c01b6133f0565b8581600081518110610cc957610cc86163c6565b5b602002602001019073ffffffffffffffffffffffffffffffffffffffff16908173ffffffffffffffffffffffffffffffffffffffff1681525050610d1767279e1d4ec9e74a1f60c01b6133f0565b610d2b67bdae9dbf0754f6ab60c01b6133f0565b6000600167ffffffffffffffff811115610d4857610d476156c8565b5b604051908082528060200260200182016040528015610d7b57816020015b6060815260200190600190039081610d665790505b509050610d926775ab94463a8f139c60c01b6133f0565b610da6673f5e21784effecf460c01b6133f0565b6000600167ffffffffffffffff811115610dc357610dc26156c8565b5b604051908082528060200260200182016040528015610df15781602001602082028036833780820191505090505b509050610e08677f2865ff8525c4d060c01b6133f0565b8681600081518110610e1d57610e1c6163c6565b5b602002602001018181525050610e3d67ce9823d2416cbd0560c01b6133f0565b8082600081518110610e5257610e516163c6565b5b6020026020010181905250610e716742fccec01339befd60c01b6133f0565b610e8567bfe93700199e8f9160c01b6133f0565b610e9189858585612f5c565b610ea567884aca7cfb93792460c01b6133f0565b610eb967e6c4952b366ca0f260c01b6133f0565b60008573ffffffffffffffffffffffffffffffffffffffff16638e489d0c896040518263ffffffff1660e01b8152600401610ef491906156a3565b600060405180830381865afa158015610f11573d6000803e3d6000fd5b505050506040513d6000823e3d601f19601f82011682018060405250810190610f3a9190616306565b9050610f50671c934ea0e73c2ca060c01b6133f0565b610f646774aee51aebea928160c01b6133f0565b600081604051602001610f77919061647d565b6040516020818303038152906040529050610f9c6784e63776ad93d13760c01b6133f0565b610fb067c0bc46bcbf6445e660c01b6133f0565b610fba86826133f3565b610fce67dc1983a5205c3b4960c01b6133f0565b89600a600088815260200190815260200160002060006101000a81548173ffffffffffffffffffffffffffffffffffffffff021916908373ffffffffffffffffffffffffffffffffffffffff160217905550611034678ff1f706b95586ab60c01b6133f0565b88600b600088815260200190815260200160002081905550611060675f5e7643c0c75ca960c01b6133f0565b6110746737eb7ee9cc3ac35d60c01b6133f0565b600c60008b73ffffffffffffffffffffffffffffffffffffffff1673ffffffffffffffffffffffffffffffffffffffff16815260200190815260200160002060008a81526020019081526020016000208690806001815401808255809150506001900390600052602060002001600090919091909150556110ff670f2d0994911113ff60c01b6133f0565b611113673f4e14a3f686b99c60c01b6133f0565b888a73ffffffffffffffffffffffffffffffffffffffff16877fd14409b136f4c46af205dbc7e9b237bb1ae44b59893a672421c9c5d56bd156ea8e60405161115b91906155ba565b60405180910390a4611177671f24cf22de1274a860c01b6133f0565b61118b677c8a53a718ec82cc60c01b6133f0565b859750505050505050509392505050565b600b6020528060005260406000206000915090505481565b6111cf8383836040518060200160405280600081525061280d565b505050565b6111e8675460d426fe03f53160c01b613088565b6111fc672369de8ba82750ae60c01b613088565b61121067c57cd77cbcf82b0860c01b613088565b61122467d77ee60c6960a26b60c01b613088565b61122d8261344f565b61126c576040517f08c379a0000000000000000000000000000000000000000000000000000000008152600401611263906164eb565b60405180910390fd5b611280674c6d96aa1ebd69de60c01b613088565b611294679b09636edbce122260c01b613088565b6112a867166969bd30f8c6a460c01b613088565b6112bc67c24a90b361552e8c60c01b613088565b8273ffffffffffffffffffffffffffffffffffffffff166112dc83611a39565b73ffffffffffffffffffffffffffffffffffffffff1614611332576040517f08c379a00000000000000000000000000000000000000000000000000000000081526004016113299061657d565b60405180910390fd5b61134667e6da66c33ef13c0b60c01b613088565b61135a67c2d40873c743479c60c01b613088565b61136e67ec6a8f1db842c50760c01b613088565b61137882826133f3565b505050565b6113916744d522bfc4dce1fd60c01b613088565b6113a567cd07cbe570d009d060c01b613088565b6113b9676b5452cc7717c5f860c01b613088565b60005b81518110156117d5576113d967dee8783c88618df560c01b613088565b6113ed672d8417a79d7b157360c01b613088565b600060076000848481518110611406576114056163c6565b5b6020026020010151815260200190815260200160002090506114326703bc2de35def15fd60c01b613088565b6114466754eb828e1802581360c01b613088565b60008160010160008773ffffffffffffffffffffffffffffffffffffffff1673ffffffffffffffffffffffffffffffffffffffff1681526020019081526020016000208054905003611538576114a6679f559926d843336460c01b613088565b6114ba679f9036cace47dac060c01b613088565b6114ce67b9a37cc97320d6fd60c01b613088565b80600301859080600181540180825580915050600190039060005260206000200160009091909190916101000a81548173ffffffffffffffffffffffffffffffffffffffff021916908373ffffffffffffffffffffffffffffffffffffffff16021790555061154d565b61154c67e7fed0b1eee5515560c01b613088565b5b611561675026784be95772bf60c01b613088565b6115756734f274dde38c367060c01b613088565b6115896712c0c0b8bc82604760c01b613088565b3073ffffffffffffffffffffffffffffffffffffffff168573ffffffffffffffffffffffffffffffffffffffff16036115f7576040517f08c379a00000000000000000000000000000000000000000000000000000000081526004016115ee9061660f565b60405180910390fd5b61160b67d4d16ef04de2a37360c01b613088565b61161f6741a5f0e4fa1261a560c01b613088565b6116336787fe8de97a936ad760c01b613088565b428160040154106116b55761165267761ecbdd1b085eb660c01b613088565b61166667dae5f892bd6cfb7060c01b613088565b61167a672fa4eaf35cccf81660c01b613088565b6040517f08c379a00000000000000000000000000000000000000000000000000000000081526004016116ac906166a1565b60405180910390fd5b6116c967ac14116296ace09b60c01b613088565b6116dd67a0faf5961f12d78460c01b613088565b6116f1670b95427db614c82d60c01b613088565b8060010160008673ffffffffffffffffffffffffffffffffffffffff1673ffffffffffffffffffffffffffffffffffffffff16815260200190815260200160002084908060018154018082558091505060019003906000526020600020016000909190919091505561176d67d3fd0ed1c1ab9dc060c01b613088565b6117816776c3a9e598f7f5a460c01b613088565b6117c7838381518110611797576117966163c6565b5b60200260200101516117c28585815181106117b5576117b46163c6565b5b6020026020010151611a39565b6134cd565b5080806001019150506113bc565b50505050565b600a6020528060005260406000206000915054906101000a900473ffffffffffffffffffffffffffffffffffffffff1681565b61182267540a1f49f495207360c01b613088565b611836677a41a37a50ed1ab960c01b613088565b61184a67a9d0219c1451235a60c01b613088565b61185e679c399e9905d457ba60c01b613088565b80518251146118a2576040517f08c379a000000000000000000000000000000000000000000000000000000000815260040161189990616733565b60405180910390fd5b6118b66799f52b12bb4c812a60c01b613088565b6118ca67d361ee80edb3b37660c01b613088565b6118de6769ac35d2a3c4e1c660c01b613088565b60005b81518110156119cd576118fe679545a5b343d0855f60c01b613088565b611912674a7e5911a5acc5ed60c01b613088565b6000828281518110611927576119266163c6565b5b602002602001015151036119ac576119496768e12075e8729c1b60c01b613088565b61195d6746eb90669f0cec0e60c01b613088565b611971677a571f63fca5229460c01b613088565b6040517f08c379a00000000000000000000000000000000000000000000000000000000081526004016119a3906167c5565b60405180910390fd5b6119c0673f1d7d9e487855c760c01b613088565b80806001019150506118e1565b506119e2673d882426684f689c60c01b613088565b6119f667e44dddacb820741860c01b613088565b611a018284836135da565b611a15678bfe7a8981cd09ff60c01b613088565b611a2967dda4df4d0431397760c01b613088565b611a348284836138c5565b505050565b6000611a44826130f7565b9050919050565b606080611a62672a8057187da5cf8260c01b613088565b611a76679add4aeda7003fe160c01b613088565b611a8a67c6660e119135058f60c01b613088565b6060611aa067b3a4a8259077ba9860c01b613088565b611ab4672430bfeb8b97136260c01b613088565b6060611aca67bd3d68142fe6281b60c01b613088565b611ade67174391bbb45b39a760c01b613088565b3073ffffffffffffffffffffffffffffffffffffffff168673ffffffffffffffffffffffffffffffffffffffff1603611be957611b25679e1e839d46291d9b60c01b613088565b611b396764ca6838e432570260c01b613088565b611b4d67ab0285a8fec84ec460c01b613088565b611b616741c6b1f0e1bcabc860c01b613088565b611b6a8561344f565b611ba9576040517f08c379a0000000000000000000000000000000000000000000000000000000008152600401611ba0906164eb565b60405180910390fd5b611bbd679ca3fa73c943ed2560c01b613088565b611bd1679fbae1ec2cabc93960c01b613088565b611bdc8560006140c7565b8092508193505050611df2565b611bfd677b90ee9dee2b0dd260c01b613088565b611c1167e2822b8f3364110c60c01b613088565b611c256718addc167f8b300360c01b613088565b6000869050611c3e673af9373257c4372f60c01b613088565b611c5267af82304f2637001e60c01b613088565b611c6667cb839d786b652eee60c01b613088565b8073ffffffffffffffffffffffffffffffffffffffff166301ffc9a77f40997a20000000000000000000000000000000000000000000000000000000006040518263ffffffff1660e01b8152600401611cbf91906167f4565b602060405180830381865afa158015611cdc573d6000803e3d6000fd5b505050506040513d601f19601f82011682018060405250810190611d009190616824565b611d3f576040517f08c379a0000000000000000000000000000000000000000000000000000000008152600401611d36906168c3565b60405180910390fd5b611d53676d207c4bfc3ed37060c01b613088565b611d676760547426a1aa4e5e60c01b613088565b8073ffffffffffffffffffffffffffffffffffffffff166364f9b0e688886040518363ffffffff1660e01b8152600401611da29291906168e3565b600060405180830381865afa158015611dbf573d6000803e3d6000fd5b505050506040513d6000823e3d601f19601f82011682018060405250810190611de89190616b04565b8093508194505050505b611e0667a716787646ac1d3f60c01b613088565b611e1a675e3e396560457aec60c01b613088565b81819350935050509250929050565b60008073ffffffffffffffffffffffffffffffffffffffff168273ffffffffffffffffffffffffffffffffffffffff1603611e9c5760006040517f89c62b64000000000000000000000000000000000000000000000000000000008152600401611e9391906155ba565b60405180910390fd5b600360008373ffffffffffffffffffffffffffffffffffffffff1673ffffffffffffffffffffffffffffffffffffffff168152602001908152602001600020549050919050565b6060611ef9671d52ea9cf7ca559260c01b6133f0565b611f0d67710f907f19a7723f60c01b6133f0565b611f2167eb908e3be51faea460c01b6133f0565b6000600c60008573ffffffffffffffffffffffffffffffffffffffff1673ffffffffffffffffffffffffffffffffffffffff1681526020019081526020016000206000848152602001908152602001600020805480602002602001604051908101604052809291908181526020018280548015611fbd57602002820191906000526020600020905b815481526020019060010190808311611fa9575b50505050509050611fd8677dd8c3064dc4a4df60c01b6133f0565b611fec6736fa8bae5255322360c01b6133f0565b6000612002676b0e8d0a29e93c4d60c01b6133f0565b61201667352557cb88b292dc60c01b6133f0565b60005b82518110156121285761203667632d1c78a6ad3dbe60c01b6133f0565b61204a6705194fcad7e8a3ea60c01b6133f0565b61206d8382815181106120605761205f6163c6565b5b602002602001015161344f565b80156120c657508673ffffffffffffffffffffffffffffffffffffffff166120ae8483815181106120a1576120a06163c6565b5b6020026020010151611a39565b73ffffffffffffffffffffffffffffffffffffffff16145b15612106576120df67be916c9341f9379c60c01b6133f0565b6120f367041785f4923f409d60c01b6133f0565b81806120fe9061637e565b92505061211b565b61211a67e9f65347c12326c460c01b6133f0565b5b8080600101915050612019565b5061213d678079faba7366a7e060c01b6133f0565b61215167f2ec95002c1c2e6e60c01b6133f0565b60008167ffffffffffffffff81111561216d5761216c6156c8565b5b60405190808252806020026020018201604052801561219b5781602001602082028036833780820191505090505b5090506121b26775f394e40c90add260c01b6133f0565b6121c667e4a34be1bcd3f2ad60c01b6133f0565b60006121dc67bf88851c8a52eae660c01b6133f0565b6121f067b5ec6eb95311e7f760c01b6133f0565b60005b845181101561235057612210678247bb2d9879f4f160c01b6133f0565b612224678ac5d3579bd2813e60c01b6133f0565b61224785828151811061223a576122396163c6565b5b602002602001015161344f565b80156122a057508873ffffffffffffffffffffffffffffffffffffffff1661228886838151811061227b5761227a6163c6565b5b6020026020010151611a39565b73ffffffffffffffffffffffffffffffffffffffff16145b1561232e576122b967481978fb2df854ab60c01b6133f0565b6122cd67f4f351d37f13e84960c01b6133f0565b8481815181106122e0576122df6163c6565b5b60200260200101518383815181106122fb576122fa6163c6565b5b60200260200101818152505061231b678f3f7654996d5cf360c01b6133f0565b81806123269061637e565b925050612343565b61234267cee097345af5a16f60c01b6133f0565b5b80806001019150506121f3565b5061236567323893a46617ce4960c01b6133f0565b61237967455b5c543485d6f560c01b6133f0565b819450505050509392505050565b606060018054612396906161ec565b80601f01602080910402602001604051908101604052809291908181526020018280546123c2906161ec565b801561240f5780601f106123e45761010080835404028352916020019161240f565b820191906000526020600020905b8154815290600101906020018083116123f257829003601f168201915b5050505050905090565b61242b6124246131bc565b8383614649565b5050565b60608061244667d86d32e20293ebb160c01b613088565b61245a670a586fffcbf4c6f760c01b613088565b61246e67f645f467f738065560c01b613088565b6060612484678b1676a574efa5a960c01b613088565b61249867d949a6b568906fc160c01b613088565b60606124ae677fcebe001c6a9be160c01b613088565b6124c267c22d6f017b655ce360c01b613088565b3073ffffffffffffffffffffffffffffffffffffffff168673ffffffffffffffffffffffffffffffffffffffff16036125cd5761250967a0ea19dce62cac5560c01b613088565b61251d677e5afd651f520a6660c01b613088565b612531676b5f420ffff6827660c01b613088565b612545673349e809553ef15c60c01b613088565b61254e8561344f565b61258d576040517f08c379a0000000000000000000000000000000000000000000000000000000008152600401612584906164eb565b60405180910390fd5b6125a16749eccfc133eb6c5660c01b613088565b6125b56710d325ca5b6fb94d60c01b613088565b6125c08560016140c7565b80925081935050506127d6565b6125e1674c3d438bfd38ee0e60c01b613088565b6125f567877f097faf13e03060c01b613088565b61260967ae8d316ce031b54f60c01b613088565b6000869050612622679bfddd83cca26e5660c01b613088565b6126366730904ec10040453060c01b613088565b61264a677c2d222a48483e7e60c01b613088565b8073ffffffffffffffffffffffffffffffffffffffff166301ffc9a77f40997a20000000000000000000000000000000000000000000000000000000006040518263ffffffff1660e01b81526004016126a391906167f4565b602060405180830381865afa1580156126c0573d6000803e3d6000fd5b505050506040513d601f19601f820116820180604052508101906126e49190616824565b612723576040517f08c379a000000000000000000000000000000000000000000000000000000000815260040161271a906168c3565b60405180910390fd5b6127376722d6790ee4835cd960c01b613088565b61274b67991a0eb7a444ecba60c01b613088565b8073ffffffffffffffffffffffffffffffffffffffff1663a35391ac88886040518363ffffffff1660e01b81526004016127869291906168e3565b600060405180830381865afa1580156127a3573d6000803e3d6000fd5b505050506040513d6000823e3d601f19601f820116820180604052508101906127cc9190616b04565b8093508194505050505b6127ea67499cc878fa47decd60c01b613088565b6127fe67908473de3423b77f60c01b613088565b81819350935050509250929050565b6128188484846107ef565b61282c6128236131bc565b858585856147b8565b50505050565b606061284867219dff15491ec04860c01b613088565b61285c67fb03ce6e7d29487e60c01b613088565b61287067c3ed6073bf9b7c8f60c01b613088565b61287982614969565b9050919050565b600061289667922a19d09fbeb1f060c01b613088565b6128aa67b6089a468e74062e60c01b613088565b6128be670489b003a74db55260c01b613088565b60006128d4673565147131b76fbd60c01b613088565b6128e8672847415d99b6576360c01b613088565b3073ffffffffffffffffffffffffffffffffffffffff168473ffffffffffffffffffffffffffffffffffffffff1603612a275761292f67d967ca7a173dce7160c01b613088565b6129436777f507db8991dd9660c01b613088565b61295767671e4031e8f1a71660c01b613088565b61296b67a442e2f69ea8e32360c01b613088565b6129748361344f565b6129b3576040517f08c379a00000000000000000000000000000000000000000000000000000000081526004016129aa906164eb565b60405180910390fd5b6129c76773dd998ecc5fd80060c01b613088565b6129db67d28be19dad1d4e7f60c01b613088565b6129ef6757cc17201b11ea0660c01b613088565b6000600760008581526020019081526020016000209050612a1a6731d0ff825dbc1fcc60c01b613088565b8060040154915050612c25565b612a3b67b402457233ff120260c01b613088565b612a4f6798b3e8f4f484e8c160c01b613088565b612a6367da8c3905f1548e9960c01b613088565b6000849050612a7c67584e8a86ecdb28bb60c01b613088565b612a9067bc5b15fe5430a67460c01b613088565b612aa467bbc49cc2a21cbe1560c01b613088565b8073ffffffffffffffffffffffffffffffffffffffff166301ffc9a77f40997a20000000000000000000000000000000000000000000000000000000006040518263ffffffff1660e01b8152600401612afd91906167f4565b602060405180830381865afa158015612b1a573d6000803e3d6000fd5b505050506040513d601f19601f82011682018060405250810190612b3e9190616824565b612b7d576040517f08c379a0000000000000000000000000000000000000000000000000000000008152600401612b74906168c3565b60405180910390fd5b612b9167ec6e3248fade815260c01b613088565b612ba567406563109d49183b60c01b613088565b8073ffffffffffffffffffffffffffffffffffffffff1663d30d968d86866040518363ffffffff1660e01b8152600401612be09291906168e3565b602060405180830381865afa158015612bfd573d6000803e3d6000fd5b505050506040513d601f19601f82011682018060405250810190612c219190616b7c565b9150505b612c3967bac7073e1bce58a060c01b613088565b612c4d67ee374d7fafbcf9c760c01b613088565b8091505092915050565b6000600560008473ffffffffffffffffffffffffffffffffffffffff1673ffffffffffffffffffffffffffffffffffffffff16815260200190815260200160002060008373ffffffffffffffffffffffffffffffffffffffff1673ffffffffffffffffffffffffffffffffffffffff16815260200190815260200160002060009054906101000a900460ff16905092915050565b6000612d01674659226549d7f00e60c01b6133f0565b612d156783963febd558fe3960c01b6133f0565b612d2967affe0aa33dcb276c60c01b6133f0565b6000600c60008573ffffffffffffffffffffffffffffffffffffffff1673ffffffffffffffffffffffffffffffffffffffff1681526020019081526020016000206000848152602001908152602001600020805480602002602001604051908101604052809291908181526020018280548015612dc557602002820191906000526020600020905b815481526020019060010190808311612db1575b50505050509050612de067d504e1361f64e4bd60c01b6133f0565b612df467e7a1f9281f0d362560c01b6133f0565b60005b8151811015612f2657612e1467cf89e2f4c8b28e4260c01b6133f0565b612e28677933b33fd83578eb60c01b6133f0565b6000828281518110612e3d57612e3c6163c6565b5b60200260200101519050612e5b67eabf399a03e9966060c01b6133f0565b612e6f67ec617f3591e17f6960c01b6133f0565b612e788161344f565b8015612eb757508673ffffffffffffffffffffffffffffffffffffffff16612e9f82611a39565b73ffffffffffffffffffffffffffffffffffffffff16145b15612f0457612ed06754716f9a9c8be51160c01b6133f0565b612ee46731b71d4274c2b52760c01b6133f0565b612ef86710fc860bcfc83fa060c01b6133f0565b60019350505050612f55565b612f1867f3d3fb9d4abf1ee860c01b6133f0565b508080600101915050612df7565b50612f3b6750bc01ea816f548a60c01b6133f0565b612f4f67ee35b5376351ced260c01b6133f0565b60009150505b9392505050565b612f70675492b8c535dc75e060c01b613088565b612f8467c5665a1e311030ac60c01b613088565b612f9867e9f7d1de8c0500a260c01b613088565b612fa28484614a7c565b612fb66703fd6745a2b1e4a960c01b613088565b612fca6791ae5ffffe978b5260c01b613088565b6000815114158015612fde57506000825114155b1561302f57612ff767197bd7e8bc0b52ed60c01b613088565b61300b67724e9ef09b32a50860c01b613088565b61301f6757f07f7f0e85bc9b60c01b613088565b61302a83838361180e565b613044565b61304367cf7332ec9bc2c88a60c01b613088565b5b50505050565b600c602052826000526040600020602052816000526040600020818154811061307257600080fd5b9060005260206000200160009250925050505481565b50565b600060019050919050565b6000634906490660e01b7bffffffffffffffffffffffffffffffffffffffffffffffffffffffff1916827bffffffffffffffffffffffffffffffffffffffffffffffffffffffff191614806130f057506130ef82614a9a565b5b9050919050565b60008061310383614b7c565b9050600073ffffffffffffffffffffffffffffffffffffffff168173ffffffffffffffffffffffffffffffffffffffff160361317657826040517f7e27328900000000000000000000000000000000000000000000000000000000815260040161316d91906156a3565b60405180910390fd5b80915050919050565b60006004600083815260200190815260200160002060009054906101000a900473ffffffffffffffffffffffffffffffffffffffff169050919050565b600033905090565b6131d18383836001614bb9565b505050565b6000806131e284614b7c565b9050600073ffffffffffffffffffffffffffffffffffffffff168373ffffffffffffffffffffffffffffffffffffffff161461322457613223818486614d7e565b5b600073ffffffffffffffffffffffffffffffffffffffff168173ffffffffffffffffffffffffffffffffffffffff16146132b557613266600085600080614bb9565b6001600360008373ffffffffffffffffffffffffffffffffffffffff1673ffffffffffffffffffffffffffffffffffffffff168152602001908152602001600020600082825403925050819055505b600073ffffffffffffffffffffffffffffffffffffffff168573ffffffffffffffffffffffffffffffffffffffff1614613338576001600360008773ffffffffffffffffffffffffffffffffffffffff1673ffffffffffffffffffffffffffffffffffffffff168152602001908152602001600020600082825401925050819055505b846002600086815260200190815260200160002060006101000a81548173ffffffffffffffffffffffffffffffffffffffff021916908373ffffffffffffffffffffffffffffffffffffffff160217905550838573ffffffffffffffffffffffffffffffffffffffff168273ffffffffffffffffffffffffffffffffffffffff167fddf252ad1be2c89b69c2b068fc378daa952ba7f163c4a11628f55a4df523b3ef60405160405180910390a4809150509392505050565b50565b806006600084815260200190815260200160002090816134139190616d55565b507ff8e1a15aba9398e019f0b49df1a4fde98ee17ae345cb5f6b5e2c27f5033e8ce78260405161344391906156a3565b60405180910390a15050565b60006134656796a6b609c6d1eb2d60c01b613088565b613479679026c3eb5a9d11b860c01b613088565b61348d67f8bd7d56748f9d3460c01b613088565b600073ffffffffffffffffffffffffffffffffffffffff166134ae83611a39565b73ffffffffffffffffffffffffffffffffffffffff1614159050919050565b6134e167adf78b3b1579fc6260c01b613088565b6134f56733b954b076514d7060c01b613088565b6135096781714145c809a1dc60c01b613088565b6000806135178460016140c7565b9150915061352f67df8a3382a9c03d3c60c01b613088565b61354367d6b849daa297032c60c01b613088565b6000806135518660006140c7565b915091506135696750249e3ad984a83760c01b613088565b61357d678e16e2923a7dea6a60c01b613088565b8473ffffffffffffffffffffffffffffffffffffffff16867f81bed52c04e8cd65796985202162bad7e20a8ffaa732fe2e0a0bc79f687e4d66868686866040516135ca9493929190616e27565b60405180910390a3505050505050565b6135ee674dac4d6b12717c7e60c01b613088565b61360267685a152b54e717f360c01b613088565b6136166777f929af3438512f60c01b613088565b6000600760008481526020019081526020016000209050613641678e458fbeadabdd5960c01b613088565b613655675f2fc45deea99fdd60c01b613088565b60005b845181101561386f576136756785c5e3fbc183606460c01b613088565b61368967d8a1d2bcc3e516c060c01b613088565b60008260000160008784815181106136a4576136a36163c6565b5b602002602001015173ffffffffffffffffffffffffffffffffffffffff1673ffffffffffffffffffffffffffffffffffffffff16815260200190815260200160002080549050036137af5761370367c83094816b0c8dc260c01b613088565b61371767bce6fe83daee16fc60c01b613088565b61372b674eb186806663984560c01b613088565b81600201858281518110613742576137416163c6565b5b60200260200101519080600181540180825580915050600190039060005260206000200160009091909190916101000a81548173ffffffffffffffffffffffffffffffffffffffff021916908373ffffffffffffffffffffffffffffffffffffffff1602179055506137c4565b6137c367cf8089f71bb59d0560c01b613088565b5b6137d8675536f92cec9768c660c01b613088565b8281815181106137eb576137ea6163c6565b5b602002602001015182600001600087848151811061380c5761380b6163c6565b5b602002602001015173ffffffffffffffffffffffffffffffffffffffff1673ffffffffffffffffffffffffffffffffffffffff168152602001908152602001600020908051906020019061386192919061532b565b508080600101915050613658565b5061388467698030a8e604f0d060c01b613088565b4281600401819055506138a167416ffe2852f1c6ab60c01b613088565b6138b5673f6b5792e10bf97a60c01b613088565b6138bf83336134cd565b50505050565b6138d9670dfd7d5a926631bc60c01b613088565b6138ec6612171346c366fc60c01b613088565b61390067ebdd72b62daa7fe060c01b613088565b60005b83518110156140c15761392067ac1d061f240d056e60c01b613088565b613934673d2b56996d6dac3b60c01b613088565b3073ffffffffffffffffffffffffffffffffffffffff1684828151811061395e5761395d6163c6565b5b602002602001015173ffffffffffffffffffffffffffffffffffffffff1603613e835761399567cf95859994893d4b60c01b613088565b6139a967101c6357f20657d160c01b613088565b6139bd67bddb021f04a8936660c01b613088565b60005b8282815181106139d3576139d26163c6565b5b602002602001015151811015613e7d576139f7671ec3aaf902715c8d60c01b613088565b613a0b67e39e39f0833e87e960c01b613088565b600060076000858581518110613a2457613a236163c6565b5b60200260200101518481518110613a3e57613a3d6163c6565b5b602002602001015181526020019081526020016000209050613a6a6789696f61d4096f0060c01b613088565b613a7e67eab6a0c1bfd93c6f60c01b613088565b6000816001016000888681518110613a9957613a986163c6565b5b602002602001015173ffffffffffffffffffffffffffffffffffffffff1673ffffffffffffffffffffffffffffffffffffffff1681526020019081526020016000208054905003613ba457613af86783a8528c3982cd0e60c01b613088565b613b0c67fb9b0b5b9e018d0460c01b613088565b613b206713501e79ad84128660c01b613088565b80600301868481518110613b3757613b366163c6565b5b60200260200101519080600181540180825580915050600190039060005260206000200160009091909190916101000a81548173ffffffffffffffffffffffffffffffffffffffff021916908373ffffffffffffffffffffffffffffffffffffffff160217905550613bb9565b613bb867c5ba9666b37d3bc260c01b613088565b5b613bcd67239e433522a110da60c01b613088565b613be167d301368bedc65ad560c01b613088565b613bf5670726be337865ba4d60c01b613088565b838381518110613c0857613c076163c6565b5b60200260200101518281518110613c2257613c216163c6565b5b60200260200101518503613c6b576040517f08c379a0000000000000000000000000000000000000000000000000000000008152600401613c6290616efa565b60405180910390fd5b613c7f674f7cc68646c24e4e60c01b613088565b613c9367c7e8abb19549febe60c01b613088565b613ca767da11b2fbd1e6987660c01b613088565b42816004015410613d2957613cc667fcd4831cbe36884560c01b613088565b613cda67c8a634ac8f73f9ce60c01b613088565b613cee67f0543f15e11c4ab760c01b613088565b6040517f08c379a0000000000000000000000000000000000000000000000000000000008152600401613d20906166a1565b60405180910390fd5b613d3d67db4510bc9be57d4860c01b613088565b613d51672a229b5d514333d960c01b613088565b613d6567e642867953b38ffa60c01b613088565b8060010160003073ffffffffffffffffffffffffffffffffffffffff1673ffffffffffffffffffffffffffffffffffffffff168152602001908152602001600020859080600181540180825580915050600190039060005260206000200160009091909190915055613de1675d7fbc5563d058e360c01b613088565b613df567a13f6b70785cd77b60c01b613088565b613e6f848481518110613e0b57613e0a6163c6565b5b60200260200101518381518110613e2557613e246163c6565b5b6020026020010151613e6a868681518110613e4357613e426163c6565b5b60200260200101518581518110613e5d57613e5c6163c6565b5b6020026020010151611a39565b6134cd565b5080806001019150506139c0565b506140b4565b613e976712a8f52de2a8923360c01b613088565b613eab67c810b4a0fe24a62160c01b613088565b613ebf670102fb90a76c52da60c01b613088565b6000848281518110613ed457613ed36163c6565b5b60200260200101519050613ef2677416649f45a6056760c01b613088565b613f0667c14326e58b85d4a360c01b613088565b60008173ffffffffffffffffffffffffffffffffffffffff166301ffc9a77f40997a20000000000000000000000000000000000000000000000000000000006040518263ffffffff1660e01b8152600401613f6191906167f4565b602060405180830381865afa158015613f7e573d6000803e3d6000fd5b505050506040513d601f19601f82011682018060405250810190613fa29190616824565b9050613fb8674c10347e8f2fab9e60c01b613088565b613fcc6753b8de672ad546c360c01b613088565b801561409c57613fe667d3d0a0e2ef0a59ec60c01b613088565b613ffa6702f1f267c4a3746e60c01b613088565b61400e67ffb6e75851ba729260c01b613088565b8173ffffffffffffffffffffffffffffffffffffffff166355c10440308787878151811061403f5761403e6163c6565b5b60200260200101516040518463ffffffff1660e01b815260040161406593929190616f1a565b600060405180830381600087803b15801561407f57600080fd5b505af1158015614093573d6000803e3d6000fd5b505050506140b1565b6140b067a0d76f2af6bb283c60c01b613088565b5b50505b8080600101915050613903565b50505050565b6060806140de67c045bb855c8f90ca60c01b613088565b6140f2679afe305efbb6915b60c01b613088565b61410667af67464a02ffe4ab60c01b613088565b60006007600086815260200190815260200160002090506141316795dc51acdbfb697060c01b613088565b614145675fb0b59e7d80728160c01b613088565b606061415b671d9c1dfdbd39a0ff60c01b613088565b61416f67056f61d010f0977960c01b613088565b606061418567a284e1d97d603e5d60c01b613088565b61419967f8974b53bf13562860c01b613088565b85156143da576141b3673576a8e80fa0ae7060c01b613088565b6141c76793ee727b96137bcd60c01b613088565b8260020180548060200260200160405190810160405280929190818152602001828054801561424b57602002820191906000526020600020905b8160009054906101000a900473ffffffffffffffffffffffffffffffffffffffff1673ffffffffffffffffffffffffffffffffffffffff1681526020019060010190808311614201575b5050505050915061426667bff9ea6d1820fce960c01b613088565b815167ffffffffffffffff811115614281576142806156c8565b5b6040519080825280602002602001820160405280156142b457816020015b606081526020019060019003908161429f5790505b5090506142cb676532678eeb57114c60c01b613088565b6142df672fd1a4bf1c90fd7360c01b613088565b60005b82518110156143d4576142ff674ffdf90c89f3122a60c01b613088565b836000016000848381518110614318576143176163c6565b5b602002602001015173ffffffffffffffffffffffffffffffffffffffff1673ffffffffffffffffffffffffffffffffffffffff1681526020019081526020016000208054806020026020016040519081016040528092919081815260200182805480156143a457602002820191906000526020600020905b815481526020019060010190808311614390575b50505050508282815181106143bc576143bb6163c6565b5b602002602001018190525080806001019150506142e2565b50614611565b6143ee679c0cba8c4db5c38560c01b613088565b61440267ae0c2bf4b808856760c01b613088565b8260030180548060200260200160405190810160405280929190818152602001828054801561448657602002820191906000526020600020905b8160009054906101000a900473ffffffffffffffffffffffffffffffffffffffff1673ffffffffffffffffffffffffffffffffffffffff168152602001906001019080831161443c575b505050505091506144a167bc16725d583300a460c01b613088565b815167ffffffffffffffff8111156144bc576144bb6156c8565b5b6040519080825280602002602001820160405280156144ef57816020015b60608152602001906001900390816144da5790505b50905061450667d798f0a5671d5b2360c01b613088565b61451a67571e1f6b7880669760c01b613088565b60005b825181101561460f5761453a67ebf71c5b21f77b4860c01b613088565b836001016000848381518110614553576145526163c6565b5b602002602001015173ffffffffffffffffffffffffffffffffffffffff1673ffffffffffffffffffffffffffffffffffffffff1681526020019081526020016000208054806020026020016040519081016040528092919081815260200182805480156145df57602002820191906000526020600020905b8154815260200190600101908083116145cb575b50505050508282815181106145f7576145f66163c6565b5b6020026020010181905250808060010191505061451d565b505b6146256777a3ee7b95ea2e0560c01b613088565b614639672218791ed2864eda60c01b613088565b8181945094505050509250929050565b600073ffffffffffffffffffffffffffffffffffffffff168273ffffffffffffffffffffffffffffffffffffffff16036146ba57816040517f5b08ba180000000000000000000000000000000000000000000000000000000081526004016146b191906155ba565b60405180910390fd5b80600560008573ffffffffffffffffffffffffffffffffffffffff1673ffffffffffffffffffffffffffffffffffffffff16815260200190815260200160002060008473ffffffffffffffffffffffffffffffffffffffff1673ffffffffffffffffffffffffffffffffffffffff16815260200190815260200160002060006101000a81548160ff0219169083151502179055508173ffffffffffffffffffffffffffffffffffffffff168373ffffffffffffffffffffffffffffffffffffffff167f17307eab39ab6107e8899845ad3d59bd9653f200f220920489ca2b5937696c31836040516147ab9190615449565b60405180910390a3505050565b60008373ffffffffffffffffffffffffffffffffffffffff163b1115614962578273ffffffffffffffffffffffffffffffffffffffff1663150b7a02868685856040518563ffffffff1660e01b81526004016148179493929190616fad565b6020604051808303816000875af192505050801561485357506040513d601f19601f82011682018060405250810190614850919061700e565b60015b6148d7573d8060008114614883576040519150601f19603f3d011682016040523d82523d6000602084013e614888565b606091505b5060008151036148cf57836040517f64a0ae920000000000000000000000000000000000000000000000000000000081526004016148c691906155ba565b60405180910390fd5b805181602001fd5b63150b7a0260e01b7bffffffffffffffffffffffffffffffffffffffffffffffffffffffff1916817bffffffffffffffffffffffffffffffffffffffffffffffffffffffff19161461496057836040517f64a0ae9200000000000000000000000000000000000000000000000000000000815260040161495791906155ba565b60405180910390fd5b505b5050505050565b6060614974826130f7565b506000600660008481526020019081526020016000208054614995906161ec565b80601f01602080910402602001604051908101604052809291908181526020018280546149c1906161ec565b8015614a0e5780601f106149e357610100808354040283529160200191614a0e565b820191906000526020600020905b8154815290600101906020018083116149f157829003601f168201915b505050505090506000614a1f614e42565b90506000815103614a34578192505050614a77565b600082511115614a69578082604051602001614a5192919061703b565b60405160208183030381529060405292505050614a77565b614a7284614e59565b925050505b919050565b614a96828260405180602001604052806000815250614ec2565b5050565b60007f80ac58cd000000000000000000000000000000000000000000000000000000007bffffffffffffffffffffffffffffffffffffffffffffffffffffffff1916827bffffffffffffffffffffffffffffffffffffffffffffffffffffffff19161480614b6557507f5b5e139f000000000000000000000000000000000000000000000000000000007bffffffffffffffffffffffffffffffffffffffffffffffffffffffff1916827bffffffffffffffffffffffffffffffffffffffffffffffffffffffff1916145b80614b755750614b7482614ee6565b5b9050919050565b60006002600083815260200190815260200160002060009054906101000a900473ffffffffffffffffffffffffffffffffffffffff169050919050565b8080614bf25750600073ffffffffffffffffffffffffffffffffffffffff168273ffffffffffffffffffffffffffffffffffffffff1614155b15614d26576000614c02846130f7565b9050600073ffffffffffffffffffffffffffffffffffffffff168373ffffffffffffffffffffffffffffffffffffffff1614158015614c6d57508273ffffffffffffffffffffffffffffffffffffffff168173ffffffffffffffffffffffffffffffffffffffff1614155b8015614c805750614c7e8184612c57565b155b15614cc257826040517fa9fbf51f000000000000000000000000000000000000000000000000000000008152600401614cb991906155ba565b60405180910390fd5b8115614d2457838573ffffffffffffffffffffffffffffffffffffffff168273ffffffffffffffffffffffffffffffffffffffff167f8c5be1e5ebec7d5bd14f71427d1e84f3dd0314c0f7b2291e5b200ac8c7c3b92560405160405180910390a45b505b836004600085815260200190815260200160002060006101000a81548173ffffffffffffffffffffffffffffffffffffffff021916908373ffffffffffffffffffffffffffffffffffffffff16021790555050505050565b614d89838383614f50565b614e3d57600073ffffffffffffffffffffffffffffffffffffffff168373ffffffffffffffffffffffffffffffffffffffff1603614dfe57806040517f7e273289000000000000000000000000000000000000000000000000000000008152600401614df591906156a3565b60405180910390fd5b81816040517f177e802f000000000000000000000000000000000000000000000000000000008152600401614e349291906168e3565b60405180910390fd5b505050565b606060405180602001604052806000815250905090565b6060614e64826130f7565b506000614e6f614e42565b90506000815111614e8f5760405180602001604052806000815250614eba565b80614e9984615011565b604051602001614eaa92919061703b565b6040516020818303038152906040525b915050919050565b614ecc83836150df565b614ee1614ed76131bc565b60008585856147b8565b505050565b60007f01ffc9a7000000000000000000000000000000000000000000000000000000007bffffffffffffffffffffffffffffffffffffffffffffffffffffffff1916827bffffffffffffffffffffffffffffffffffffffffffffffffffffffff1916149050919050565b60008073ffffffffffffffffffffffffffffffffffffffff168373ffffffffffffffffffffffffffffffffffffffff161415801561500857508273ffffffffffffffffffffffffffffffffffffffff168473ffffffffffffffffffffffffffffffffffffffff161480614fc95750614fc88484612c57565b5b8061500757508273ffffffffffffffffffffffffffffffffffffffff16614fef8361317f565b73ffffffffffffffffffffffffffffffffffffffff16145b5b90509392505050565b606060006001615020846151d8565b01905060008167ffffffffffffffff81111561503f5761503e6156c8565b5b6040519080825280601f01601f1916602001820160405280156150715781602001600182028036833780820191505090505b509050600082602001820190505b6001156150d4578080600190039150507f3031323334353637383961626364656600000000000000000000000000000000600a86061a8153600a85816150c8576150c761705f565b5b0494506000850361507f575b819350505050919050565b600073ffffffffffffffffffffffffffffffffffffffff168273ffffffffffffffffffffffffffffffffffffffff16036151515760006040517f64a0ae9200000000000000000000000000000000000000000000000000000000815260040161514891906155ba565b60405180910390fd5b600061515f838360006131d6565b9050600073ffffffffffffffffffffffffffffffffffffffff168173ffffffffffffffffffffffffffffffffffffffff16146151d35760006040517f73c6ac6e0000000000000000000000000000000000000000000000000000000081526004016151ca91906155ba565b60405180910390fd5b505050565b600080600090507a184f03e93ff9f4daa797ed6e38ed64bf6a1f0100000000000000008310615236577a184f03e93ff9f4daa797ed6e38ed64bf6a1f010000000000000000838161522c5761522b61705f565b5b0492506040810190505b6d04ee2d6d415b85acef81000000008310615273576d04ee2d6d415b85acef810000000083816152695761526861705f565b5b0492506020810190505b662386f26fc1000083106152a257662386f26fc1000083816152985761529761705f565b5b0492506010810190505b6305f5e10083106152cb576305f5e10083816152c1576152c061705f565b5b0492506008810190505b61271083106152f05761271083816152e6576152e561705f565b5b0492506004810190505b6064831061531357606483816153095761530861705f565b5b0492506002810190505b600a8310615322576001810190505b80915050919050565b828054828255906000526020600020908101928215615367579160200282015b8281111561536657825182559160200191906001019061534b565b5b5090506153749190615378565b5090565b5b80821115615391576000816000905550600101615379565b5090565b6000604051905090565b600080fd5b600080fd5b60007fffffffff0000000000000000000000000000000000000000000000000000000082169050919050565b6153de816153a9565b81146153e957600080fd5b50565b6000813590506153fb816153d5565b92915050565b6000602082840312156154175761541661539f565b5b6000615425848285016153ec565b91505092915050565b60008115159050919050565b6154438161542e565b82525050565b600060208201905061545e600083018461543a565b92915050565b600081519050919050565b600082825260208201905092915050565b60005b8381101561549e578082015181840152602081019050615483565b60008484015250505050565b6000601f19601f8301169050919050565b60006154c682615464565b6154d0818561546f565b93506154e0818560208601615480565b6154e9816154aa565b840191505092915050565b6000602082019050818103600083015261550e81846154bb565b905092915050565b6000819050919050565b61552981615516565b811461553457600080fd5b50565b60008135905061554681615520565b92915050565b6000602082840312156155625761556161539f565b5b600061557084828501615537565b91505092915050565b600073ffffffffffffffffffffffffffffffffffffffff82169050919050565b60006155a482615579565b9050919050565b6155b481615599565b82525050565b60006020820190506155cf60008301846155ab565b92915050565b6155de81615599565b81146155e957600080fd5b50565b6000813590506155fb816155d5565b92915050565b600080604083850312156156185761561761539f565b5b6000615626858286016155ec565b925050602061563785828601615537565b9150509250929050565b60008060006060848603121561565a5761565961539f565b5b6000615668868287016155ec565b9350506020615679868287016155ec565b925050604061568a86828701615537565b9150509250925092565b61569d81615516565b82525050565b60006020820190506156b86000830184615694565b92915050565b600080fd5b600080fd5b7f4e487b7100000000000000000000000000000000000000000000000000000000600052604160045260246000fd5b615700826154aa565b810181811067ffffffffffffffff8211171561571f5761571e6156c8565b5b80604052505050565b6000615732615395565b905061573e82826156f7565b919050565b600067ffffffffffffffff82111561575e5761575d6156c8565b5b615767826154aa565b9050602081019050919050565b82818337600083830152505050565b600061579661579184615743565b615728565b9050828152602081018484840111156157b2576157b16156c3565b5b6157bd848285615774565b509392505050565b600082601f8301126157da576157d96156be565b5b81356157ea848260208601615783565b91505092915050565b60008060006060848603121561580c5761580b61539f565b5b600061581a868287016155ec565b935050602061582b86828701615537565b925050604084013567ffffffffffffffff81111561584c5761584b6153a4565b5b615858868287016157c5565b9150509250925092565b600067ffffffffffffffff82111561587d5761587c6156c8565b5b602082029050602081019050919050565b600080fd5b60006158a66158a184615862565b615728565b905080838252602082019050602084028301858111156158c9576158c861588e565b5b835b818110156158f257806158de8882615537565b8452602084019350506020810190506158cb565b5050509392505050565b600082601f830112615911576159106156be565b5b8135615921848260208601615893565b91505092915050565b6000806000606084860312156159435761594261539f565b5b6000615951868287016155ec565b935050602061596286828701615537565b925050604084013567ffffffffffffffff811115615983576159826153a4565b5b61598f868287016158fc565b9150509250925092565b600067ffffffffffffffff8211156159b4576159b36156c8565b5b602082029050602081019050919050565b60006159d86159d384615999565b615728565b905080838252602082019050602084028301858111156159fb576159fa61588e565b5b835b81811015615a245780615a1088826155ec565b8452602084019350506020810190506159fd565b5050509392505050565b600082601f830112615a4357615a426156be565b5b8135615a538482602086016159c5565b91505092915050565b600067ffffffffffffffff821115615a7757615a766156c8565b5b602082029050602081019050919050565b6000615a9b615a9684615a5c565b615728565b90508083825260208201905060208402830185811115615abe57615abd61588e565b5b835b81811015615b0557803567ffffffffffffffff811115615ae357615ae26156be565b5b808601615af089826158fc565b85526020850194505050602081019050615ac0565b5050509392505050565b600082601f830112615b2457615b236156be565b5b8135615b34848260208601615a88565b91505092915050565b600080600060608486031215615b5657615b5561539f565b5b6000615b6486828701615537565b935050602084013567ffffffffffffffff811115615b8557615b846153a4565b5b615b9186828701615a2e565b925050604084013567ffffffffffffffff811115615bb257615bb16153a4565b5b615bbe86828701615b0f565b9150509250925092565b600081519050919050565b600082825260208201905092915050565b6000819050602082019050919050565b615bfd81615599565b82525050565b6000615c0f8383615bf4565b60208301905092915050565b6000602082019050919050565b6000615c3382615bc8565b615c3d8185615bd3565b9350615c4883615be4565b8060005b83811015615c79578151615c608882615c03565b9750615c6b83615c1b565b925050600181019050615c4c565b5085935050505092915050565b600081519050919050565b600082825260208201905092915050565b6000819050602082019050919050565b600081519050919050565b600082825260208201905092915050565b6000819050602082019050919050565b615ce781615516565b82525050565b6000615cf98383615cde565b60208301905092915050565b6000602082019050919050565b6000615d1d82615cb2565b615d278185615cbd565b9350615d3283615cce565b8060005b83811015615d63578151615d4a8882615ced565b9750615d5583615d05565b925050600181019050615d36565b5085935050505092915050565b6000615d7c8383615d12565b905092915050565b6000602082019050919050565b6000615d9c82615c86565b615da68185615c91565b935083602082028501615db885615ca2565b8060005b85811015615df45784840389528151615dd58582615d70565b9450615de083615d84565b925060208a01995050600181019050615dbc565b50829750879550505050505092915050565b60006040820190508181036000830152615e208185615c28565b90508181036020830152615e348184615d91565b90509392505050565b600060208284031215615e5357615e5261539f565b5b6000615e61848285016155ec565b91505092915050565b600082825260208201905092915050565b6000615e8682615cb2565b615e908185615e6a565b9350615e9b83615cce565b8060005b83811015615ecc578151615eb38882615ced565b9750615ebe83615d05565b925050600181019050615e9f565b5085935050505092915050565b60006020820190508181036000830152615ef38184615e7b565b905092915050565b615f048161542e565b8114615f0f57600080fd5b50565b600081359050615f2181615efb565b92915050565b60008060408385031215615f3e57615f3d61539f565b5b6000615f4c858286016155ec565b9250506020615f5d85828601615f12565b9150509250929050565b600067ffffffffffffffff821115615f8257615f816156c8565b5b615f8b826154aa565b9050602081019050919050565b6000615fab615fa684615f67565b615728565b905082815260208101848484011115615fc757615fc66156c3565b5b615fd2848285615774565b509392505050565b600082601f830112615fef57615fee6156be565b5b8135615fff848260208601615f98565b91505092915050565b600080600080608085870312156160225761602161539f565b5b6000616030878288016155ec565b9450506020616041878288016155ec565b935050604061605287828801615537565b925050606085013567ffffffffffffffff811115616073576160726153a4565b5b61607f87828801615fda565b91505092959194509250565b600080604083850312156160a2576160a161539f565b5b60006160b0858286016155ec565b92505060206160c1858286016155ec565b9150509250929050565b600080600080608085870312156160e5576160e461539f565b5b60006160f3878288016155ec565b945050602061610487828801615537565b935050604085013567ffffffffffffffff811115616125576161246153a4565b5b61613187828801615a2e565b925050606085013567ffffffffffffffff811115616152576161516153a4565b5b61615e87828801615b0f565b91505092959194509250565b6000806000606084860312156161835761618261539f565b5b6000616191868287016155ec565b93505060206161a286828701615537565b92505060406161b386828701615537565b9150509250925092565b7f4e487b7100000000000000000000000000000000000000000000000000000000600052602260045260246000fd5b6000600282049050600182168061620457607f821691505b602082108103616217576162166161bd565b5b50919050565b600060608201905061623260008301866155ab565b61623f6020830185615694565b61624c60408301846155ab565b949350505050565b600081519050616263816155d5565b92915050565b60006020828403121561627f5761627e61539f565b5b600061628d84828501616254565b91505092915050565b60006162a96162a484615743565b615728565b9050828152602081018484840111156162c5576162c46156c3565b5b6162d0848285615480565b509392505050565b600082601f8301126162ed576162ec6156be565b5b81516162fd848260208601616296565b91505092915050565b60006020828403121561631c5761631b61539f565b5b600082015167ffffffffffffffff81111561633a576163396153a4565b5b616346848285016162d8565b91505092915050565b7f4e487b7100000000000000000000000000000000000000000000000000000000600052601160045260246000fd5b600061638982615516565b91507fffffffffffffffffffffffffffffffffffffffffffffffffffffffffffffffff82036163bb576163ba61634f565b5b600182019050919050565b7f4e487b7100000000000000000000000000000000000000000000000000000000600052603260045260246000fd5b600081905092915050565b7f6c6963656e73652d666f722d0000000000000000000000000000000000000000600082015250565b6000616436600c836163f5565b915061644182616400565b600c82019050919050565b600061645782615464565b61646181856163f5565b9350616471818560208601615480565b80840191505092915050565b600061648882616429565b9150616494828461644c565b915081905092915050565b7f4552435f353532313a20746f6b656e204944206e6f7420657869737465640000600082015250565b60006164d5601e8361546f565b91506164e08261649f565b602082019050919050565b60006020820190508181036000830152616504816164c8565b9050919050565b7f4552435f353532313a207472616e736665722063616c6c6572206973206e6f7460008201527f206f776e6572206e6f7220617070726f76656400000000000000000000000000602082015250565b600061656760338361546f565b91506165728261650b565b604082019050919050565b600060208201905081810360008301526165968161655a565b9050919050565b7f4552435f353532313a2074686973206d75737420626520616e2065787465726e60008201527f616c20636f6e7472616374206164647265737300000000000000000000000000602082015250565b60006165f960338361546f565b91506166048261659d565b604082019050919050565b60006020820190508181036000830152616628816165ec565b9050919050565b7f4552435f353532313a2074686520726566657272656420724e4654206e65656460008201527f7320746f2062652061207072656465636573736f720000000000000000000000602082015250565b600061668b60358361546f565b91506166968261662f565b604082019050919050565b600060208201905081810360008301526166ba8161667e565b9050919050565b7f41646472657373657320616e6420546f6b656e494420617272617973206d757360008201527f742068617665207468652073616d65206c656e67746800000000000000000000602082015250565b600061671d60368361546f565b9150616728826166c1565b604082019050919050565b6000602082019050818103600083015261674c81616710565b9050919050565b7f4552435f353532313a2074686520726566657272696e67206c6973742063616e60008201527f6e6f7420626520656d7074790000000000000000000000000000000000000000602082015250565b60006167af602c8361546f565b91506167ba82616753565b604082019050919050565b600060208201905081810360008301526167de816167a2565b9050919050565b6167ee816153a9565b82525050565b600060208201905061680960008301846167e5565b92915050565b60008151905061681e81615efb565b92915050565b60006020828403121561683a5761683961539f565b5b60006168488482850161680f565b91505092915050565b7f4552435f353532313a2074617267657420636f6e7472616374206e6f7420737560008201527f70706f7274656400000000000000000000000000000000000000000000000000602082015250565b60006168ad60278361546f565b91506168b882616851565b604082019050919050565b600060208201905081810360008301526168dc816168a0565b9050919050565b60006040820190506168f860008301856155ab565b6169056020830184615694565b9392505050565b600061691f61691a84615999565b615728565b905080838252602082019050602084028301858111156169425761694161588e565b5b835b8181101561696b57806169578882616254565b845260208401935050602081019050616944565b5050509392505050565b600082601f83011261698a576169896156be565b5b815161699a84826020860161690c565b91505092915050565b6000815190506169b281615520565b92915050565b60006169cb6169c684615862565b615728565b905080838252602082019050602084028301858111156169ee576169ed61588e565b5b835b81811015616a175780616a0388826169a3565b8452602084019350506020810190506169f0565b5050509392505050565b600082601f830112616a3657616a356156be565b5b8151616a468482602086016169b8565b91505092915050565b6000616a62616a5d84615a5c565b615728565b90508083825260208201905060208402830185811115616a8557616a8461588e565b5b835b81811015616acc57805167ffffffffffffffff811115616aaa57616aa96156be565b5b808601616ab78982616a21565b85526020850194505050602081019050616a87565b5050509392505050565b600082601f830112616aeb57616aea6156be565b5b8151616afb848260208601616a4f565b91505092915050565b60008060408385031215616b1b57616b1a61539f565b5b600083015167ffffffffffffffff811115616b3957616b386153a4565b5b616b4585828601616975565b925050602083015167ffffffffffffffff811115616b6657616b656153a4565b5b616b7285828601616ad6565b9150509250929050565b600060208284031215616b9257616b9161539f565b5b6000616ba0848285016169a3565b91505092915050565b60008190508160005260206000209050919050565b60006020601f8301049050919050565b600082821b905092915050565b600060088302616c0b7fffffffffffffffffffffffffffffffffffffffffffffffffffffffffffffffff82616bce565b616c158683616bce565b95508019841693508086168417925050509392505050565b6000819050919050565b6000616c52616c4d616c4884615516565b616c2d565b615516565b9050919050565b6000819050919050565b616c6c83616c37565b616c80616c7882616c59565b848454616bdb565b825550505050565b600090565b616c95616c88565b616ca0818484616c63565b505050565b5b81811015616cc457616cb9600082616c8d565b600181019050616ca6565b5050565b601f821115616d0957616cda81616ba9565b616ce384616bbe565b81016020851015616cf2578190505b616d06616cfe85616bbe565b830182616ca5565b50505b505050565b600082821c905092915050565b6000616d2c60001984600802616d0e565b1980831691505092915050565b6000616d458383616d1b565b9150826002028217905092915050565b616d5e82615464565b67ffffffffffffffff811115616d7757616d766156c8565b5b616d8182546161ec565b616d8c828285616cc8565b600060209050601f831160018114616dbf5760008415616dad578287015190505b616db78582616d39565b865550616e1f565b601f198416616dcd86616ba9565b60005b82811015616df557848901518255600182019150602085019450602081019050616dd0565b86831015616e125784890151616e0e601f891682616d1b565b8355505b6001600288020188555050505b505050505050565b60006080820190508181036000830152616e418187615c28565b90508181036020830152616e558186615d91565b90508181036040830152616e698185615c28565b90508181036060830152616e7d8184615d91565b905095945050505050565b7f4552435f353532313a2073656c662d7265666572656e6365206e6f7420616c6c60008201527f6f77656400000000000000000000000000000000000000000000000000000000602082015250565b6000616ee460248361546f565b9150616eef82616e88565b604082019050919050565b60006020820190508181036000830152616f1381616ed7565b9050919050565b6000606082019050616f2f60008301866155ab565b616f3c6020830185615694565b8181036040830152616f4e8184615e7b565b9050949350505050565b600081519050919050565b600082825260208201905092915050565b6000616f7f82616f58565b616f898185616f63565b9350616f99818560208601615480565b616fa2816154aa565b840191505092915050565b6000608082019050616fc260008301876155ab565b616fcf60208301866155ab565b616fdc6040830185615694565b8181036060830152616fee8184616f74565b905095945050505050565b600081519050617008816153d5565b92915050565b6000602082840312156170245761702361539f565b5b600061703284828501616ff9565b91505092915050565b6000617047828561644c565b9150617053828461644c565b91508190509392505050565b7f4e487b7100000000000000000000000000000000000000000000000000000000600052601260045260246000fdfea26469706673582212207f3f28bd21312a783e9b36f3f77f1b87fd374a0fc82571b45cba081fe5b42ac464736f6c634300081c0033",
  "linkReferences": {},
  "deployedLinkReferences": {}
}