{
  "_format": "hh-sol-artifact-1",
  "contractName": "Repository",
  "sourceName": "contracts/Repository.sol",
  "abi": [
    {
      "inputs": [
        {
          "internalType": "address",
          "name": "_registry",
          "type": "address"
        },
        {
          "internalType": "address",
          "name": "_developer",
          "type": "address"
        }
      ],
      "stateMutability": "nonpayable",
      "type": "constructor"
    },
    {
      "inputs": [
        {
          "internalType": "address",
          "name": "sender",
          "type": "address"
        },
        {
          "internalType": "uint256",
          "name": "tokenId",
          "type": "uint256"
        },
        {
          "internalType": "address",
          "name": "owner",
          "type": "address"
        }
      ],
      "name": "ERC721IncorrectOwner",
      "type": "error"
    },
    {
      "inputs": [
        {
          "internalType": "address",
          "name": "operator",
          "type": "address"
        },
        {
          "internalType": "uint256",
          "name": "tokenId",
          "type": "uint256"
        }
      ],
      "name": "ERC721InsufficientApproval",
      "type": "error"
    },
    {
      "inputs": [
        {
          "internalType": "address",
          "name": "approver",
          "type": "address"
        }
      ],
      "name": "ERC721InvalidApprover",
      "type": "error"
    },
    {
      "inputs": [
        {
          "internalType": "address",
          "name": "operator",
          "type": "address"
        }
      ],
      "name": "ERC721InvalidOperator",
      "type": "error"
    },
    {
      "inputs": [
        {
          "internalType": "address",
          "name": "owner",
          "type": "address"
        }
      ],
      "name": "ERC721InvalidOwner",
      "type": "error"
    },
    {
      "inputs": [
        {
          "internalType": "address",
          "name": "receiver",
          "type": "address"
        }
      ],
      "name": "ERC721InvalidReceiver",
      "type": "error"
    },
    {
      "inputs": [
        {
          "internalType": "address",
          "name": "sender",
          "type": "address"
        }
      ],
      "name": "ERC721InvalidSender",
      "type": "error"
    },
    {
      "inputs": [
        {
          "internalType": "uint256",
          "name": "tokenId",
          "type": "uint256"
        }
      ],
      "name": "ERC721NonexistentToken",
      "type": "error"
    },
    {
      "inputs": [],
      "name": "invalidDependencyArrays",
      "type": "error"
    },
    {
      "inputs": [],
      "name": "isNotOwner",
      "type": "error"
    },
    {
      "inputs": [
        {
          "internalType": "address",
          "name": "repository",
          "type": "address"
        },
        {
          "internalType": "uint256",
          "name": "tokenId",
          "type": "uint256"
        }
      ],
      "name": "missingLicenses",
      "type": "error"
    },
    {
      "inputs": [],
      "name": "notAuthorized",
      "type": "error"
    },
    {
      "inputs": [],
      "name": "softwareDoesNotExist",
      "type": "error"
    },
    {
      "anonymous": false,
      "inputs": [
        {
          "indexed": true,
          "internalType": "address",
          "name": "owner",
          "type": "address"
        },
        {
          "indexed": true,
          "internalType": "address",
          "name": "approved",
          "type": "address"
        },
        {
          "indexed": true,
          "internalType": "uint256",
          "name": "tokenId",
          "type": "uint256"
        }
      ],
      "name": "Approval",
      "type": "event"
    },
    {
      "anonymous": false,
      "inputs": [
        {
          "indexed": true,
          "internalType": "address",
          "name": "owner",
          "type": "address"
        },
        {
          "indexed": true,
          "internalType": "address",
          "name": "operator",
          "type": "address"
        },
        {
          "indexed": false,
          "internalType": "bool",
          "name": "approved",
          "type": "bool"
        }
      ],
      "name": "ApprovalForAll",
      "type": "event"
    },
    {
      "anonymous": false,
      "inputs": [
        {
          "indexed": false,
          "internalType": "uint256",
          "name": "_fromTokenId",
          "type": "uint256"
        },
        {
          "indexed": false,
          "internalType": "uint256",
          "name": "_toTokenId",
          "type": "uint256"
        }
      ],
      "name": "BatchMetadataUpdate",
      "type": "event"
    },
    {
      "anonymous": false,
      "inputs": [
        {
          "indexed": false,
          "internalType": "uint256",
          "name": "_tokenId",
          "type": "uint256"
        }
      ],
      "name": "MetadataUpdate",
      "type": "event"
    },
    {
      "anonymous": false,
      "inputs": [
        {
          "indexed": true,
          "internalType": "uint256",
          "name": "tokenId",
          "type": "uint256"
        },
        {
          "indexed": false,
          "internalType": "address[]",
          "name": "addresses",
          "type": "address[]"
        },
        {
          "indexed": false,
          "internalType": "uint256[][]",
          "name": "tokenIds",
          "type": "uint256[][]"
        }
      ],
      "name": "ReferenceCreated",
      "type": "event"
    },
    {
      "anonymous": false,
      "inputs": [
        {
          "indexed": true,
          "internalType": "address",
          "name": "from",
          "type": "address"
        },
        {
          "indexed": true,
          "internalType": "address",
          "name": "to",
          "type": "address"
        },
        {
          "indexed": true,
          "internalType": "uint256",
          "name": "tokenId",
          "type": "uint256"
        }
      ],
      "name": "Transfer",
      "type": "event"
    },
    {
      "anonymous": false,
      "inputs": [
        {
          "indexed": true,
          "internalType": "uint256",
          "name": "tokenId",
          "type": "uint256"
        },
        {
          "indexed": true,
          "internalType": "address",
          "name": "owner",
          "type": "address"
        },
        {
          "indexed": false,
          "internalType": "address[]",
          "name": "_address_referringList",
          "type": "address[]"
        },
        {
          "indexed": false,
          "internalType": "uint256[][]",
          "name": "_tokenIds_referringList",
          "type": "uint256[][]"
        },
        {
          "indexed": false,
          "internalType": "address[]",
          "name": "_address_referredList",
          "type": "address[]"
        },
        {
          "indexed": false,
          "internalType": "uint256[][]",
          "name": "_tokenIds_referredList",
          "type": "uint256[][]"
        }
      ],
      "name": "UpdateNode",
      "type": "event"
    },
    {
      "inputs": [
        {
          "internalType": "address",
          "name": "to",
          "type": "address"
        },
        {
          "internalType": "uint256",
          "name": "tokenId",
          "type": "uint256"
        }
      ],
      "name": "approve",
      "outputs": [],
      "stateMutability": "nonpayable",
      "type": "function"
    },
    {
      "inputs": [
        {
          "internalType": "address",
          "name": "owner",
          "type": "address"
        }
      ],
      "name": "balanceOf",
      "outputs": [
        {
          "internalType": "uint256",
          "name": "",
          "type": "uint256"
        }
      ],
      "stateMutability": "view",
      "type": "function"
    },
    {
      "inputs": [
        {
          "internalType": "address",
          "name": "_address",
          "type": "address"
        },
        {
          "internalType": "uint256",
          "name": "tokenId",
          "type": "uint256"
        }
      ],
      "name": "createdTimestampOf",
      "outputs": [
        {
          "internalType": "uint256",
          "name": "",
          "type": "uint256"
        }
      ],
      "stateMutability": "view",
      "type": "function"
    },
    {
      "inputs": [
        {
          "internalType": "uint256",
          "name": "tokenId",
          "type": "uint256"
        }
      ],
      "name": "getApproved",
      "outputs": [
        {
          "internalType": "address",
          "name": "",
          "type": "address"
        }
      ],
      "stateMutability": "view",
      "type": "function"
    },
    {
      "inputs": [],
      "name": "getDeveloper",
      "outputs": [
        {
          "internalType": "address",
          "name": "",
          "type": "address"
        }
      ],
      "stateMutability": "view",
      "type": "function"
    },
    {
      "inputs": [],
      "name": "getOwner",
      "outputs": [
        {
          "internalType": "address",
          "name": "",
          "type": "address"
        }
      ],
      "stateMutability": "view",
      "type": "function"
    },
    {
      "inputs": [
        {
          "internalType": "uint256",
          "name": "tokenId",
          "type": "uint256"
        }
      ],
      "name": "getSoftwareDependencies",
      "outputs": [
        {
          "internalType": "address[]",
          "name": "deps",
          "type": "address[]"
        },
        {
          "internalType": "uint256[][]",
          "name": "depTokenIds",
          "type": "uint256[][]"
        }
      ],
      "stateMutability": "view",
      "type": "function"
    },
    {
      "inputs": [
        {
          "internalType": "uint256",
          "name": "tokenId",
          "type": "uint256"
        }
      ],
      "name": "getSoftwareURI",
      "outputs": [
        {
          "internalType": "string",
          "name": "",
          "type": "string"
        }
      ],
      "stateMutability": "view",
      "type": "function"
    },
    {
      "inputs": [
        {
          "internalType": "address",
          "name": "owner",
          "type": "address"
        },
        {
          "internalType": "address",
          "name": "operator",
          "type": "address"
        }
      ],
      "name": "isApprovedForAll",
      "outputs": [
        {
          "internalType": "bool",
          "name": "",
          "type": "bool"
        }
      ],
      "stateMutability": "view",
      "type": "function"
    },
    {
      "inputs": [
        {
          "internalType": "string",
          "name": "_tokenURI",
          "type": "string"
        },
        {
          "internalType": "address[]",
          "name": "addresses",
          "type": "address[]"
        },
        {
          "internalType": "uint256[][]",
          "name": "_tokenIds",
          "type": "uint256[][]"
        }
      ],
      "name": "mintSoftware",
      "outputs": [
        {
          "internalType": "uint256",
          "name": "",
          "type": "uint256"
        }
      ],
      "stateMutability": "nonpayable",
      "type": "function"
    },
    {
      "inputs": [],
      "name": "name",
      "outputs": [
        {
          "internalType": "string",
          "name": "",
          "type": "string"
        }
      ],
      "stateMutability": "view",
      "type": "function"
    },
    {
      "inputs": [
        {
          "internalType": "uint256",
          "name": "tokenId",
          "type": "uint256"
        }
      ],
      "name": "ownerOf",
      "outputs": [
        {
          "internalType": "address",
          "name": "",
          "type": "address"
        }
      ],
      "stateMutability": "view",
      "type": "function"
    },
    {
      "inputs": [
        {
          "internalType": "address",
          "name": "_address",
          "type": "address"
        },
        {
          "internalType": "uint256",
          "name": "tokenId",
          "type": "uint256"
        }
      ],
      "name": "referredOf",
      "outputs": [
        {
          "internalType": "address[]",
          "name": "",
          "type": "address[]"
        },
        {
          "internalType": "uint256[][]",
          "name": "",
          "type": "uint256[][]"
        }
      ],
      "stateMutability": "view",
      "type": "function"
    },
    {
      "inputs": [
        {
          "internalType": "address",
          "name": "_address",
          "type": "address"
        },
        {
          "internalType": "uint256",
          "name": "tokenId",
          "type": "uint256"
        }
      ],
      "name": "referringOf",
      "outputs": [
        {
          "internalType": "address[]",
          "name": "",
          "type": "address[]"
        },
        {
          "internalType": "uint256[][]",
          "name": "",
          "type": "uint256[][]"
        }
      ],
      "stateMutability": "view",
      "type": "function"
    },
    {
      "inputs": [
        {
          "internalType": "address",
          "name": "to",
          "type": "address"
        },
        {
          "internalType": "uint256",
          "name": "tokenId",
          "type": "uint256"
        },
        {
          "internalType": "address[]",
          "name": "addresses",
          "type": "address[]"
        },
        {
          "internalType": "uint256[][]",
          "name": "_tokenIds",
          "type": "uint256[][]"
        }
      ],
      "name": "safeMint",
      "outputs": [],
      "stateMutability": "nonpayable",
      "type": "function"
    },
    {
      "inputs": [
        {
          "internalType": "address",
          "name": "from",
          "type": "address"
        },
        {
          "internalType": "address",
          "name": "to",
          "type": "address"
        },
        {
          "internalType": "uint256",
          "name": "tokenId",
          "type": "uint256"
        }
      ],
      "name": "safeTransferFrom",
      "outputs": [],
      "stateMutability": "nonpayable",
      "type": "function"
    },
    {
      "inputs": [
        {
          "internalType": "address",
          "name": "from",
          "type": "address"
        },
        {
          "internalType": "address",
          "name": "to",
          "type": "address"
        },
        {
          "internalType": "uint256",
          "name": "tokenId",
          "type": "uint256"
        },
        {
          "internalType": "bytes",
          "name": "data",
          "type": "bytes"
        }
      ],
      "name": "safeTransferFrom",
      "outputs": [],
      "stateMutability": "nonpayable",
      "type": "function"
    },
    {
      "inputs": [
        {
          "internalType": "address",
          "name": "operator",
          "type": "address"
        },
        {
          "internalType": "bool",
          "name": "approved",
          "type": "bool"
        }
      ],
      "name": "setApprovalForAll",
      "outputs": [],
      "stateMutability": "nonpayable",
      "type": "function"
    },
    {
      "inputs": [
        {
          "internalType": "uint256",
          "name": "tokenId",
          "type": "uint256"
        },
        {
          "internalType": "address[]",
          "name": "addresses",
          "type": "address[]"
        },
        {
          "internalType": "uint256[][]",
          "name": "tokenIds",
          "type": "uint256[][]"
        }
      ],
      "name": "setNode",
      "outputs": [],
      "stateMutability": "nonpayable",
      "type": "function"
    },
    {
      "inputs": [
        {
          "internalType": "address",
          "name": "_address",
          "type": "address"
        },
        {
          "internalType": "uint256",
          "name": "tokenId",
          "type": "uint256"
        },
        {
          "internalType": "uint256[]",
          "name": "_tokenIds",
          "type": "uint256[]"
        }
      ],
      "name": "setNodeReferredExternal",
      "outputs": [],
      "stateMutability": "nonpayable",
      "type": "function"
    },
    {
      "inputs": [
        {
          "internalType": "address",
          "name": "developer",
          "type": "address"
        },
        {
          "internalType": "uint256",
          "name": "tokenId",
          "type": "uint256"
        },
        {
          "internalType": "string",
          "name": "_tokenURI",
          "type": "string"
        }
      ],
      "name": "setTokenURI",
      "outputs": [],
      "stateMutability": "nonpayable",
      "type": "function"
    },
    {
      "inputs": [],
      "name": "softwareCount",
      "outputs": [
        {
          "internalType": "uint256",
          "name": "",
          "type": "uint256"
        }
      ],
      "stateMutability": "view",
      "type": "function"
    },
    {
      "inputs": [
        {
          "internalType": "uint256",
          "name": "",
          "type": "uint256"
        }
      ],
      "name": "softwareMeta",
      "outputs": [
        {
          "internalType": "address",
          "name": "creator",
          "type": "address"
        },
        {
          "internalType": "string",
          "name": "tokenURI",
          "type": "string"
        }
      ],
      "stateMutability": "view",
      "type": "function"
    },
    {
      "inputs": [
        {
          "internalType": "bytes4",
          "name": "interfaceId",
          "type": "bytes4"
        }
      ],
      "name": "supportsInterface",
      "outputs": [
        {
          "internalType": "bool",
          "name": "",
          "type": "bool"
        }
      ],
      "stateMutability": "view",
      "type": "function"
    },
    {
      "inputs": [],
      "name": "symbol",
      "outputs": [
        {
          "internalType": "string",
          "name": "",
          "type": "string"
        }
      ],
      "stateMutability": "view",
      "type": "function"
    },
    {
      "inputs": [
        {
          "internalType": "uint256",
          "name": "tokenId",
          "type": "uint256"
        }
      ],
      "name": "tokenURI",
      "outputs": [
        {
          "internalType": "string",
          "name": "",
          "type": "string"
        }
      ],
      "stateMutability": "view",
      "type": "function"
    },
    {
      "inputs": [
        {
          "internalType": "address",
          "name": "from",
          "type": "address"
        },
        {
          "internalType": "address",
          "name": "to",
          "type": "address"
        },
        {
          "internalType": "uint256",
          "name": "tokenId",
          "type": "uint256"
        }
      ],
      "name": "transferFrom",
      "outputs": [],
      "stateMutability": "nonpayable",
      "type": "function"
    }
  ],
  "bytecode": "0x60c06040526000600860006101000a81548173ffffffffffffffffffffffffffffffffffffffff021916908373ffffffffffffffffffffffffffffffffffffffff160217905550620f424060095534801561005957600080fd5b5060405161769d38038061769d833981810160405281019061007b91906102ca565b6040518060400160405280600881526020017f536f6674776172650000000000000000000000000000000000000000000000008152506040518060400160405280600381526020017f534f460000000000000000000000000000000000000000000000000000000000815250818181600090816100f8919061055a565b508060019081610108919061055a565b50505061012567c840a870701d7d7e60c01b61026160201b60201c565b61013f67823150fe3b41ad9d60c01b61026160201b60201c565b33600860006101000a81548173ffffffffffffffffffffffffffffffffffffffff021916908373ffffffffffffffffffffffffffffffffffffffff160217905550505061019c671785e5495be5212760c01b61026460201b60201c565b6101b66746a293c97039600460c01b61026460201b60201c565b8173ffffffffffffffffffffffffffffffffffffffff1660808173ffffffffffffffffffffffffffffffffffffffff16815250506102046719f6da446f9b3f9660c01b61026460201b60201c565b8073ffffffffffffffffffffffffffffffffffffffff1660a08173ffffffffffffffffffffffffffffffffffffffff1681525050610252670f816bdd53fbe71560c01b61026460201b60201c565b6000600a81905550505061062c565b50565b50565b600080fd5b600073ffffffffffffffffffffffffffffffffffffffff82169050919050565b60006102978261026c565b9050919050565b6102a78161028c565b81146102b257600080fd5b50565b6000815190506102c48161029e565b92915050565b600080604083850312156102e1576102e0610267565b5b60006102ef858286016102b5565b9250506020610300858286016102b5565b9150509250929050565b600081519050919050565b7f4e487b7100000000000000000000000000000000000000000000000000000000600052604160045260246000fd5b7f4e487b7100000000000000000000000000000000000000000000000000000000600052602260045260246000fd5b6000600282049050600182168061038b57607f821691505b60208210810361039e5761039d610344565b5b50919050565b60008190508160005260206000209050919050565b60006020601f8301049050919050565b600082821b905092915050565b6000600883026104067fffffffffffffffffffffffffffffffffffffffffffffffffffffffffffffffff826103c9565b61041086836103c9565b95508019841693508086168417925050509392505050565b6000819050919050565b6000819050919050565b600061045761045261044d84610428565b610432565b610428565b9050919050565b6000819050919050565b6104718361043c565b61048561047d8261045e565b8484546103d6565b825550505050565b600090565b61049a61048d565b6104a5818484610468565b505050565b5b818110156104c9576104be600082610492565b6001810190506104ab565b5050565b601f82111561050e576104df816103a4565b6104e8846103b9565b810160208510156104f7578190505b61050b610503856103b9565b8301826104aa565b50505b505050565b600082821c905092915050565b600061053160001984600802610513565b1980831691505092915050565b600061054a8383610520565b9150826002028217905092915050565b6105638261030a565b67ffffffffffffffff81111561057c5761057b610315565b5b6105868254610373565b6105918282856104cd565b600060209050601f8311600181146105c457600084156105b2578287015190505b6105bc858261053e565b865550610624565b601f1984166105d2866103a4565b60005b828110156105fa578489015182556001820191506020850194506020810190506105d5565b868310156106175784890151610613601f891682610520565b8355505b6001600288020188555050505b505050505050565b60805160a05161701b61068260003960008181610ba401528181610ca201528181610df401528181610e4a01528181611cf20152818161308201526131a1015260008181611d5c0152612d77015261701b6000f3fe608060405234801561001057600080fd5b50600436106101a95760003560e01c806364f9b0e6116100f9578063a22cb46511610097578063c87b56dd11610071578063c87b56dd14610508578063d30d968d14610538578063e985e9c514610568578063edda5e7314610598576101a9565b8063a22cb4651461049f578063a35391ac146104bb578063b88d4fde146104ec576101a9565b8063853b592f116100d3578063853b592f14610415578063893d20e8146104335780638e489d0c1461045157806395d89b4114610481576101a9565b806364f9b0e61461039657806370a08231146103c75780637a444072146103f7576101a9565b806342842e0e1161016657806355c104401161014057806355c10440146102fd578063615f45a814610319578063616c55351461034a5780636352211e14610366576101a9565b806342842e0e146102955780634b8a72bf146102b15780634e5786bf146102e1576101a9565b806301ffc9a7146101ae57806306fdde03146101de578063081812fc146101fc578063095ea7b31461022c57806323b872dd14610248578063426e750114610264575b600080fd5b6101c860048036038101906101c391906153b2565b6105b4565b6040516101d591906153fa565b60405180910390f35b6101e6610742565b6040516101f391906154a5565b60405180910390f35b610216600480360381019061021191906154fd565b6107d4565b604051610223919061556b565b60405180910390f35b610246600480360381019061024191906155b2565b6107f0565b005b610262600480360381019061025d91906155f2565b610806565b005b61027e600480360381019061027991906154fd565b610908565b60405161028c929190615883565b60405180910390f35b6102af60048036038101906102aa91906155f2565b610b44565b005b6102cb60048036038101906102c69190615c5b565b610b64565b6040516102d89190615d11565b60405180910390f35b6102fb60048036038101906102f69190615d2c565b610f0a565b005b61031760048036038101906103129190615d9b565b6110b3565b005b610333600480360381019061032e91906154fd565b611511565b604051610341929190615e0a565b60405180910390f35b610364600480360381019061035f9190615e3a565b6115dd565b005b610380600480360381019061037b91906154fd565b611808565b60405161038d919061556b565b60405180910390f35b6103b060048036038101906103ab91906155b2565b61181a565b6040516103be929190615883565b60405180910390f35b6103e160048036038101906103dc9190615ec5565b611bf8565b6040516103ee9190615d11565b60405180910390f35b6103ff611cb2565b60405161040c919061556b565b60405180910390f35b61041d611d16565b60405161042a9190615d11565b60405180910390f35b61043b611d1c565b604051610448919061556b565b60405180910390f35b61046b600480360381019061046691906154fd565b611d80565b60405161047891906154a5565b60405180910390f35b610489611e5d565b60405161049691906154a5565b60405180910390f35b6104b960048036038101906104b49190615f1e565b611eef565b005b6104d560048036038101906104d091906155b2565b611f05565b6040516104e3929190615883565b60405180910390f35b61050660048036038101906105019190615fff565b6122e3565b005b610522600480360381019061051d91906154fd565b612308565b60405161052f91906154a5565b60405180910390f35b610552600480360381019061054d91906155b2565b612356565b60405161055f9190615d11565b60405180910390f35b610582600480360381019061057d9190616082565b61272d565b60405161058f91906153fa565b60405180910390f35b6105b260048036038101906105ad91906160c2565b6127c1565b005b60006105ca672c6691fc303c777460c01b6128af565b6105de676e3c9fc6d79090e060c01b6128af565b6105f26764d1d70437a1652860c01b6128af565b7f74342b55000000000000000000000000000000000000000000000000000000007bffffffffffffffffffffffffffffffffffffffffffffffffffffffff1916827bffffffffffffffffffffffffffffffffffffffffffffffffffffffff191614801561066f575061066e67fdc747d6098a322960c01b6128b2565b5b8061070f57507f40997a20000000000000000000000000000000000000000000000000000000007bffffffffffffffffffffffffffffffffffffffffffffffffffffffff1916827bffffffffffffffffffffffffffffffffffffffffffffffffffffffff19161480156106f257506106f167d8fbbb74a60b8d6760c01b6128b2565b5b801561070e575061070d673cbc8b5003de07f060c01b6128b2565b5b5b8061073b575061071e826128bd565b801561073a575061073967581d91d92400a7ff60c01b6128b2565b5b5b9050919050565b60606000805461075190616190565b80601f016020809104026020016040519081016040528092919081815260200182805461077d90616190565b80156107ca5780601f1061079f576101008083540402835291602001916107ca565b820191906000526020600020905b8154815290600101906020018083116107ad57829003601f168201915b5050505050905090565b60006107df8261291e565b506107e9826129a6565b9050919050565b61080282826107fd6129e3565b6129eb565b5050565b600073ffffffffffffffffffffffffffffffffffffffff168273ffffffffffffffffffffffffffffffffffffffff16036108785760006040517f64a0ae9200000000000000000000000000000000000000000000000000000000815260040161086f919061556b565b60405180910390fd5b600061088c83836108876129e3565b6129fd565b90508373ffffffffffffffffffffffffffffffffffffffff168173ffffffffffffffffffffffffffffffffffffffff1614610902578382826040517f64283d7b0000000000000000000000000000000000000000000000000000000081526004016108f9939291906161c1565b60405180910390fd5b50505050565b60608061091f67d8e58d0938f51b5e60c01b612c17565b61093367fb3a632c392e5b4a60c01b612c17565b610947678f7ff3b62938611a60c01b612c17565b61095083612c1a565b61099a57610968673938de2b27e8ecdb60c01b612c17565b6040517ff3b7772600000000000000000000000000000000000000000000000000000000815260040160405180910390fd5b6109ae67085b6fa2500f6c5360c01b612c17565b6109c2670f73cb27f9bd72ad60c01b612c17565b6109d667e0075842d6d9753060c01b612c17565b600b60006001856109e79190616227565b8152602001908152602001600020600201600b6000600186610a099190616227565b815260200190815260200160002060030181805480602002602001604051908101604052809291908181526020018280548015610a9b57602002820191906000526020600020905b8160009054906101000a900473ffffffffffffffffffffffffffffffffffffffff1673ffffffffffffffffffffffffffffffffffffffff1681526020019060010190808311610a51575b5050505050915080805480602002602001604051908101604052809291908181526020016000905b82821015610b3557838290600052602060002001805480602002602001604051908101604052809291908181526020018280548015610b2157602002820191906000526020600020905b815481526020019060010190808311610b0d575b505050505081526020019060010190610ac3565b50505050905091509150915091565b610b5f838383604051806020016040528060008152506122e3565b505050565b6000610b7a676dc68fe6dc9ef31b60c01b612c17565b610b8e67384d8fb842b3673b60c01b612c17565b610ba26779a4df70dab69d5560c01b612c17565b7f000000000000000000000000000000000000000000000000000000000000000073ffffffffffffffffffffffffffffffffffffffff163373ffffffffffffffffffffffffffffffffffffffff1614610c3b57610c0967527db8fca90a805a60c01b612c17565b6040517fd264e0ae00000000000000000000000000000000000000000000000000000000815260040160405180910390fd5b610c4f67af2a87f41f37855160c01b612c17565b610c63671e2d24cdef447cc360c01b612c17565b610c776752759db3457ac22c60c01b612c17565b610c818383612c98565b610c9567eb47c841b457778160c01b612c17565b60405180608001604052807f000000000000000000000000000000000000000000000000000000000000000073ffffffffffffffffffffffffffffffffffffffff16815260200185815260200184815260200183815250600b6000600a54815260200190815260200160002060008201518160000160006101000a81548173ffffffffffffffffffffffffffffffffffffffff021916908373ffffffffffffffffffffffffffffffffffffffff1602179055506020820151816001019081610d5d9190616407565b506040820151816002019080519060200190610d7a9291906151ad565b506060820151816003019080519060200190610d97929190615237565b50905050610daf67478a6a3363b5185060c01b612c17565b600a6000815480929190610dc2906164d9565b9190505550610ddb67f5cd81d031c535e560c01b612c17565b610def67549a802337e483ad60c01b612c17565b610e1d7f0000000000000000000000000000000000000000000000000000000000000000600a5485856127c1565b610e3167410b2ef6f2b369c760c01b612c17565b610e45679d43e96378ac6b9b60c01b612c17565b610e727f0000000000000000000000000000000000000000000000000000000000000000600a5486610f0a565b610e86671e5211679ea66a5760c01b612c17565b610e9a6745e0a6a73b5974d960c01b612c17565b600a547fb3ac909e5e8f40ea473e9a3c1ae4e23caf0df5e322986ebf81ee5bf1b7029bea8484604051610ece929190615883565b60405180910390a2610eea677277e3a01e97104260c01b612c17565b610efe67d7ea494e544bc8db60c01b612c17565b600a5490509392505050565b610f1e675460d426fe03f53160c01b6128af565b610f32672369de8ba82750ae60c01b6128af565b610f4667c57cd77cbcf82b0860c01b6128af565b610f5a67d77ee60c6960a26b60c01b6128af565b610f6382612c1a565b610fa2576040517f08c379a0000000000000000000000000000000000000000000000000000000008152600401610f999061656d565b60405180910390fd5b610fb6674c6d96aa1ebd69de60c01b6128af565b610fca679b09636edbce122260c01b6128af565b610fde67166969bd30f8c6a460c01b6128af565b610ff267c24a90b361552e8c60c01b6128af565b8273ffffffffffffffffffffffffffffffffffffffff1661101283611808565b73ffffffffffffffffffffffffffffffffffffffff1614611068576040517f08c379a000000000000000000000000000000000000000000000000000000000815260040161105f906165ff565b60405180910390fd5b61107c67e6da66c33ef13c0b60c01b6128af565b61109067c2d40873c743479c60c01b6128af565b6110a467ec6a8f1db842c50760c01b6128af565b6110ae82826132f3565b505050565b6110c76744d522bfc4dce1fd60c01b6128af565b6110db67cd07cbe570d009d060c01b6128af565b6110ef676b5452cc7717c5f860c01b6128af565b60005b815181101561150b5761110f67dee8783c88618df560c01b6128af565b611123672d8417a79d7b157360c01b6128af565b60006007600084848151811061113c5761113b61661f565b5b6020026020010151815260200190815260200160002090506111686703bc2de35def15fd60c01b6128af565b61117c6754eb828e1802581360c01b6128af565b60008160010160008773ffffffffffffffffffffffffffffffffffffffff1673ffffffffffffffffffffffffffffffffffffffff168152602001908152602001600020805490500361126e576111dc679f559926d843336460c01b6128af565b6111f0679f9036cace47dac060c01b6128af565b61120467b9a37cc97320d6fd60c01b6128af565b80600301859080600181540180825580915050600190039060005260206000200160009091909190916101000a81548173ffffffffffffffffffffffffffffffffffffffff021916908373ffffffffffffffffffffffffffffffffffffffff160217905550611283565b61128267e7fed0b1eee5515560c01b6128af565b5b611297675026784be95772bf60c01b6128af565b6112ab6734f274dde38c367060c01b6128af565b6112bf6712c0c0b8bc82604760c01b6128af565b3073ffffffffffffffffffffffffffffffffffffffff168573ffffffffffffffffffffffffffffffffffffffff160361132d576040517f08c379a0000000000000000000000000000000000000000000000000000000008152600401611324906166c0565b60405180910390fd5b61134167d4d16ef04de2a37360c01b6128af565b6113556741a5f0e4fa1261a560c01b6128af565b6113696787fe8de97a936ad760c01b6128af565b428160040154106113eb5761138867761ecbdd1b085eb660c01b6128af565b61139c67dae5f892bd6cfb7060c01b6128af565b6113b0672fa4eaf35cccf81660c01b6128af565b6040517f08c379a00000000000000000000000000000000000000000000000000000000081526004016113e290616752565b60405180910390fd5b6113ff67ac14116296ace09b60c01b6128af565b61141367a0faf5961f12d78460c01b6128af565b611427670b95427db614c82d60c01b6128af565b8060010160008673ffffffffffffffffffffffffffffffffffffffff1673ffffffffffffffffffffffffffffffffffffffff1681526020019081526020016000208490806001815401808255809150506001900390600052602060002001600090919091909150556114a367d3fd0ed1c1ab9dc060c01b6128af565b6114b76776c3a9e598f7f5a460c01b6128af565b6114fd8383815181106114cd576114cc61661f565b5b60200260200101516114f88585815181106114eb576114ea61661f565b5b6020026020010151611808565b61334f565b5080806001019150506110f2565b50505050565b600b6020528060005260406000206000915090508060000160009054906101000a900473ffffffffffffffffffffffffffffffffffffffff169080600101805461155a90616190565b80601f016020809104026020016040519081016040528092919081815260200182805461158690616190565b80156115d35780601f106115a8576101008083540402835291602001916115d3565b820191906000526020600020905b8154815290600101906020018083116115b657829003601f168201915b5050505050905082565b6115f167540a1f49f495207360c01b6128af565b611605677a41a37a50ed1ab960c01b6128af565b61161967a9d0219c1451235a60c01b6128af565b61162d679c399e9905d457ba60c01b6128af565b8051825114611671576040517f08c379a0000000000000000000000000000000000000000000000000000000008152600401611668906167e4565b60405180910390fd5b6116856799f52b12bb4c812a60c01b6128af565b61169967d361ee80edb3b37660c01b6128af565b6116ad6769ac35d2a3c4e1c660c01b6128af565b60005b815181101561179c576116cd679545a5b343d0855f60c01b6128af565b6116e1674a7e5911a5acc5ed60c01b6128af565b60008282815181106116f6576116f561661f565b5b6020026020010151510361177b576117186768e12075e8729c1b60c01b6128af565b61172c6746eb90669f0cec0e60c01b6128af565b611740677a571f63fca5229460c01b6128af565b6040517f08c379a000000000000000000000000000000000000000000000000000000000815260040161177290616876565b60405180910390fd5b61178f673f1d7d9e487855c760c01b6128af565b80806001019150506116b0565b506117b1673d882426684f689c60c01b6128af565b6117c567e44dddacb820741860c01b6128af565b6117d082848361345c565b6117e4678bfe7a8981cd09ff60c01b6128af565b6117f867dda4df4d0431397760c01b6128af565b611803828483613747565b505050565b60006118138261291e565b9050919050565b606080611831672a8057187da5cf8260c01b6128af565b611845679add4aeda7003fe160c01b6128af565b61185967c6660e119135058f60c01b6128af565b606061186f67b3a4a8259077ba9860c01b6128af565b611883672430bfeb8b97136260c01b6128af565b606061189967bd3d68142fe6281b60c01b6128af565b6118ad67174391bbb45b39a760c01b6128af565b3073ffffffffffffffffffffffffffffffffffffffff168673ffffffffffffffffffffffffffffffffffffffff16036119b8576118f4679e1e839d46291d9b60c01b6128af565b6119086764ca6838e432570260c01b6128af565b61191c67ab0285a8fec84ec460c01b6128af565b6119306741c6b1f0e1bcabc860c01b6128af565b61193985612c1a565b611978576040517f08c379a000000000000000000000000000000000000000000000000000000000815260040161196f9061656d565b60405180910390fd5b61198c679ca3fa73c943ed2560c01b6128af565b6119a0679fbae1ec2cabc93960c01b6128af565b6119ab856000613f49565b8092508193505050611bc1565b6119cc677b90ee9dee2b0dd260c01b6128af565b6119e067e2822b8f3364110c60c01b6128af565b6119f46718addc167f8b300360c01b6128af565b6000869050611a0d673af9373257c4372f60c01b6128af565b611a2167af82304f2637001e60c01b6128af565b611a3567cb839d786b652eee60c01b6128af565b8073ffffffffffffffffffffffffffffffffffffffff166301ffc9a77f40997a20000000000000000000000000000000000000000000000000000000006040518263ffffffff1660e01b8152600401611a8e91906168a5565b602060405180830381865afa158015611aab573d6000803e3d6000fd5b505050506040513d601f19601f82011682018060405250810190611acf91906168d5565b611b0e576040517f08c379a0000000000000000000000000000000000000000000000000000000008152600401611b0590616974565b60405180910390fd5b611b22676d207c4bfc3ed37060c01b6128af565b611b366760547426a1aa4e5e60c01b6128af565b8073ffffffffffffffffffffffffffffffffffffffff166364f9b0e688886040518363ffffffff1660e01b8152600401611b71929190616994565b600060405180830381865afa158015611b8e573d6000803e3d6000fd5b505050506040513d6000823e3d601f19601f82011682018060405250810190611bb79190616bca565b8093508194505050505b611bd567a716787646ac1d3f60c01b6128af565b611be9675e3e396560457aec60c01b6128af565b81819350935050509250929050565b60008073ffffffffffffffffffffffffffffffffffffffff168273ffffffffffffffffffffffffffffffffffffffff1603611c6b5760006040517f89c62b64000000000000000000000000000000000000000000000000000000008152600401611c62919061556b565b60405180910390fd5b600360008373ffffffffffffffffffffffffffffffffffffffff1673ffffffffffffffffffffffffffffffffffffffff168152602001908152602001600020549050919050565b6000611cc86708de1521711f7aca60c01b612c17565b611cdc6736efe4aebb53d31560c01b612c17565b611cf067f10bb1be852d7cb060c01b612c17565b7f0000000000000000000000000000000000000000000000000000000000000000905090565b600a5481565b6000611d32674ebaf3c3616117a660c01b612c17565b611d4667e4787bbabb14863b60c01b612c17565b611d5a67bc979307299ed0bf60c01b612c17565b7f0000000000000000000000000000000000000000000000000000000000000000905090565b6060611d96675e8733d5aa071ed260c01b612c17565b611daa67acb9a1a8392f4c4e60c01b612c17565b611dbe6733fd7973e6f10c1160c01b612c17565b611dc782612c1a565b611e1157611ddf672fe0f7f5c10920f160c01b612c17565b6040517ff3b7772600000000000000000000000000000000000000000000000000000000815260040160405180910390fd5b611e2567e44c8241752ee36160c01b612c17565b611e39676d10003abbae2e6460c01b612c17565b611e4d67220ed5855cf3897a60c01b612c17565b611e5682612308565b9050919050565b606060018054611e6c90616190565b80601f0160208091040260200160405190810160405280929190818152602001828054611e9890616190565b8015611ee55780601f10611eba57610100808354040283529160200191611ee5565b820191906000526020600020905b815481529060010190602001808311611ec857829003601f168201915b5050505050905090565b611f01611efa6129e3565b83836144cb565b5050565b606080611f1c67d86d32e20293ebb160c01b6128af565b611f30670a586fffcbf4c6f760c01b6128af565b611f4467f645f467f738065560c01b6128af565b6060611f5a678b1676a574efa5a960c01b6128af565b611f6e67d949a6b568906fc160c01b6128af565b6060611f84677fcebe001c6a9be160c01b6128af565b611f9867c22d6f017b655ce360c01b6128af565b3073ffffffffffffffffffffffffffffffffffffffff168673ffffffffffffffffffffffffffffffffffffffff16036120a357611fdf67a0ea19dce62cac5560c01b6128af565b611ff3677e5afd651f520a6660c01b6128af565b612007676b5f420ffff6827660c01b6128af565b61201b673349e809553ef15c60c01b6128af565b61202485612c1a565b612063576040517f08c379a000000000000000000000000000000000000000000000000000000000815260040161205a9061656d565b60405180910390fd5b6120776749eccfc133eb6c5660c01b6128af565b61208b6710d325ca5b6fb94d60c01b6128af565b612096856001613f49565b80925081935050506122ac565b6120b7674c3d438bfd38ee0e60c01b6128af565b6120cb67877f097faf13e03060c01b6128af565b6120df67ae8d316ce031b54f60c01b6128af565b60008690506120f8679bfddd83cca26e5660c01b6128af565b61210c6730904ec10040453060c01b6128af565b612120677c2d222a48483e7e60c01b6128af565b8073ffffffffffffffffffffffffffffffffffffffff166301ffc9a77f40997a20000000000000000000000000000000000000000000000000000000006040518263ffffffff1660e01b815260040161217991906168a5565b602060405180830381865afa158015612196573d6000803e3d6000fd5b505050506040513d601f19601f820116820180604052508101906121ba91906168d5565b6121f9576040517f08c379a00000000000000000000000000000000000000000000000000000000081526004016121f090616974565b60405180910390fd5b61220d6722d6790ee4835cd960c01b6128af565b61222167991a0eb7a444ecba60c01b6128af565b8073ffffffffffffffffffffffffffffffffffffffff1663a35391ac88886040518363ffffffff1660e01b815260040161225c929190616994565b600060405180830381865afa158015612279573d6000803e3d6000fd5b505050506040513d6000823e3d601f19601f820116820180604052508101906122a29190616bca565b8093508194505050505b6122c067499cc878fa47decd60c01b6128af565b6122d467908473de3423b77f60c01b6128af565b81819350935050509250929050565b6122ee848484610806565b6123026122f96129e3565b8585858561463a565b50505050565b606061231e67219dff15491ec04860c01b6128af565b61233267fb03ce6e7d29487e60c01b6128af565b61234667c3ed6073bf9b7c8f60c01b6128af565b61234f826147eb565b9050919050565b600061236c67922a19d09fbeb1f060c01b6128af565b61238067b6089a468e74062e60c01b6128af565b612394670489b003a74db55260c01b6128af565b60006123aa673565147131b76fbd60c01b6128af565b6123be672847415d99b6576360c01b6128af565b3073ffffffffffffffffffffffffffffffffffffffff168473ffffffffffffffffffffffffffffffffffffffff16036124fd5761240567d967ca7a173dce7160c01b6128af565b6124196777f507db8991dd9660c01b6128af565b61242d67671e4031e8f1a71660c01b6128af565b61244167a442e2f69ea8e32360c01b6128af565b61244a83612c1a565b612489576040517f08c379a00000000000000000000000000000000000000000000000000000000081526004016124809061656d565b60405180910390fd5b61249d6773dd998ecc5fd80060c01b6128af565b6124b167d28be19dad1d4e7f60c01b6128af565b6124c56757cc17201b11ea0660c01b6128af565b60006007600085815260200190815260200160002090506124f06731d0ff825dbc1fcc60c01b6128af565b80600401549150506126fb565b61251167b402457233ff120260c01b6128af565b6125256798b3e8f4f484e8c160c01b6128af565b61253967da8c3905f1548e9960c01b6128af565b600084905061255267584e8a86ecdb28bb60c01b6128af565b61256667bc5b15fe5430a67460c01b6128af565b61257a67bbc49cc2a21cbe1560c01b6128af565b8073ffffffffffffffffffffffffffffffffffffffff166301ffc9a77f40997a20000000000000000000000000000000000000000000000000000000006040518263ffffffff1660e01b81526004016125d391906168a5565b602060405180830381865afa1580156125f0573d6000803e3d6000fd5b505050506040513d601f19601f8201168201806040525081019061261491906168d5565b612653576040517f08c379a000000000000000000000000000000000000000000000000000000000815260040161264a90616974565b60405180910390fd5b61266767ec6e3248fade815260c01b6128af565b61267b67406563109d49183b60c01b6128af565b8073ffffffffffffffffffffffffffffffffffffffff1663d30d968d86866040518363ffffffff1660e01b81526004016126b6929190616994565b602060405180830381865afa1580156126d3573d6000803e3d6000fd5b505050506040513d601f19601f820116820180604052508101906126f79190616c42565b9150505b61270f67bac7073e1bce58a060c01b6128af565b61272367ee374d7fafbcf9c760c01b6128af565b8091505092915050565b6000600560008473ffffffffffffffffffffffffffffffffffffffff1673ffffffffffffffffffffffffffffffffffffffff16815260200190815260200160002060008373ffffffffffffffffffffffffffffffffffffffff1673ffffffffffffffffffffffffffffffffffffffff16815260200190815260200160002060009054906101000a900460ff16905092915050565b6127d5675492b8c535dc75e060c01b6128af565b6127e967c5665a1e311030ac60c01b6128af565b6127fd67e9f7d1de8c0500a260c01b6128af565b61280784846148fe565b61281b6703fd6745a2b1e4a960c01b6128af565b61282f6791ae5ffffe978b5260c01b6128af565b600081511415801561284357506000825114155b156128945761285c67197bd7e8bc0b52ed60c01b6128af565b61287067724e9ef09b32a50860c01b6128af565b6128846757f07f7f0e85bc9b60c01b6128af565b61288f8383836115dd565b6128a9565b6128a867cf7332ec9bc2c88a60c01b6128af565b5b50505050565b50565b600060019050919050565b6000634906490660e01b7bffffffffffffffffffffffffffffffffffffffffffffffffffffffff1916827bffffffffffffffffffffffffffffffffffffffffffffffffffffffff1916148061291757506129168261491c565b5b9050919050565b60008061292a836149fe565b9050600073ffffffffffffffffffffffffffffffffffffffff168173ffffffffffffffffffffffffffffffffffffffff160361299d57826040517f7e2732890000000000000000000000000000000000000000000000000000000081526004016129949190615d11565b60405180910390fd5b80915050919050565b60006004600083815260200190815260200160002060009054906101000a900473ffffffffffffffffffffffffffffffffffffffff169050919050565b600033905090565b6129f88383836001614a3b565b505050565b600080612a09846149fe565b9050600073ffffffffffffffffffffffffffffffffffffffff168373ffffffffffffffffffffffffffffffffffffffff1614612a4b57612a4a818486614c00565b5b600073ffffffffffffffffffffffffffffffffffffffff168173ffffffffffffffffffffffffffffffffffffffff1614612adc57612a8d600085600080614a3b565b6001600360008373ffffffffffffffffffffffffffffffffffffffff1673ffffffffffffffffffffffffffffffffffffffff168152602001908152602001600020600082825403925050819055505b600073ffffffffffffffffffffffffffffffffffffffff168573ffffffffffffffffffffffffffffffffffffffff1614612b5f576001600360008773ffffffffffffffffffffffffffffffffffffffff1673ffffffffffffffffffffffffffffffffffffffff168152602001908152602001600020600082825401925050819055505b846002600086815260200190815260200160002060006101000a81548173ffffffffffffffffffffffffffffffffffffffff021916908373ffffffffffffffffffffffffffffffffffffffff160217905550838573ffffffffffffffffffffffffffffffffffffffff168273ffffffffffffffffffffffffffffffffffffffff167fddf252ad1be2c89b69c2b068fc378daa952ba7f163c4a11628f55a4df523b3ef60405160405180910390a4809150509392505050565b50565b6000612c306796a6b609c6d1eb2d60c01b6128af565b612c44679026c3eb5a9d11b860c01b6128af565b612c5867f8bd7d56748f9d3460c01b6128af565b600073ffffffffffffffffffffffffffffffffffffffff16612c7983611808565b73ffffffffffffffffffffffffffffffffffffffff1614159050919050565b612cac676143b1b2bf5ad7bf60c01b612c17565b612cc067ef3d64bee4b692d760c01b612c17565b612cd467a5a2f4ebac528cde60c01b612c17565b8051825114612d3757612cf167edd6f5bffce2d5a960c01b612c17565b612d05676bd03b3aa491cf3260c01b612c17565b6040517fde4347e800000000000000000000000000000000000000000000000000000000815260040160405180910390fd5b612d4b674ed038c036a5100f60c01b612c17565b612d5f67a9ac0bbcc1f8a86960c01b612c17565b612d73671c2d780355274ba960c01b612c17565b60007f00000000000000000000000000000000000000000000000000000000000000009050612dac67e29917e7b6c7aec860c01b612c17565b612dc06778fb029eb3ce188960c01b612c17565b60008173ffffffffffffffffffffffffffffffffffffffff1663bdcf1ae56040518163ffffffff1660e01b8152600401602060405180830381865afa158015612e0d573d6000803e3d6000fd5b505050506040513d601f19601f82011682018060405250810190612e319190616c6f565b9050612e4767d7e811591b76162f60c01b612c17565b612e5b6787284d4120101ccd60c01b612c17565b6000819050612e74672a1b08990c98a77b60c01b612c17565b612e88673ee2bdf3e4bcce7a60c01b612c17565b60005b85518110156132eb57612ea867ef69e975da2d3ec560c01b612c17565b612ebc6744173d752313235f60c01b612c17565b6000868281518110612ed157612ed061661f565b5b60200260200101519050612eef67dc5ab5067ede1f3e60c01b612c17565b612f0367ffc3377c7ec40aaa60c01b612c17565b600073ffffffffffffffffffffffffffffffffffffffff168173ffffffffffffffffffffffffffffffffffffffff1603612f5157612f4b673649939a493f205c60c01b612c17565b506132de565b612f656776ee02cedef7291760c01b612c17565b612f796763795ab98fd8daf960c01b612c17565b612f8d679eb1e73b443d1b1860c01b612c17565b60005b868381518110612fa357612fa261661f565b5b6020026020010151518110156132db57612fc767f16553236e2a0e4660c01b612c17565b612fdb671a72c40fb15e900660c01b612c17565b6000878481518110612ff057612fef61661f565b5b6020026020010151828151811061300a5761300961661f565b5b6020026020010151905061302867f62d6055c657ff2460c01b612c17565b61303c679c006a0802f55c1260c01b612c17565b3073ffffffffffffffffffffffffffffffffffffffff168373ffffffffffffffffffffffffffffffffffffffff161480156130795750600a548111155b801561311257507f000000000000000000000000000000000000000000000000000000000000000073ffffffffffffffffffffffffffffffffffffffff16600b60006001846130c89190616227565b815260200190815260200160002060000160009054906101000a900473ffffffffffffffffffffffffffffffffffffffff1673ffffffffffffffffffffffffffffffffffffffff16145b156131455761312b671e8c7039cc1f99ab60c01b612c17565b61313f67e8f1ff7eed1ecaba60c01b612c17565b506132ce565b61315967c654a9b1144898fb60c01b612c17565b61316d67ef4bca2331060adb60c01b612c17565b613181672861888a890c83dc60c01b612c17565b60008573ffffffffffffffffffffffffffffffffffffffff1663eb40f8187f000000000000000000000000000000000000000000000000000000000000000086856040518463ffffffff1660e01b81526004016131e093929190616c9c565b602060405180830381865afa1580156131fd573d6000803e3d6000fd5b505050506040513d601f19601f8201168201806040525081019061322191906168d5565b9050613237671d7da5f1f1a474c260c01b612c17565b61324b67bea2b4bf057f13f760c01b612c17565b806132b757613264679bd11b461df34a3260c01b612c17565b613278676aeb506b258e905b60c01b612c17565b83826040517f13f5acc70000000000000000000000000000000000000000000000000000000081526004016132ae929190616994565b60405180910390fd5b6132cb67e2bdd84f9998daf860c01b612c17565b50505b8080600101915050612f90565b50505b8080600101915050612e8b565b505050505050565b806006600084815260200190815260200160002090816133139190616407565b507ff8e1a15aba9398e019f0b49df1a4fde98ee17ae345cb5f6b5e2c27f5033e8ce7826040516133439190615d11565b60405180910390a15050565b61336367adf78b3b1579fc6260c01b6128af565b6133776733b954b076514d7060c01b6128af565b61338b6781714145c809a1dc60c01b6128af565b600080613399846001613f49565b915091506133b167df8a3382a9c03d3c60c01b6128af565b6133c567d6b849daa297032c60c01b6128af565b6000806133d3866000613f49565b915091506133eb6750249e3ad984a83760c01b6128af565b6133ff678e16e2923a7dea6a60c01b6128af565b8473ffffffffffffffffffffffffffffffffffffffff16867f81bed52c04e8cd65796985202162bad7e20a8ffaa732fe2e0a0bc79f687e4d668686868660405161344c9493929190616cd3565b60405180910390a3505050505050565b613470674dac4d6b12717c7e60c01b6128af565b61348467685a152b54e717f360c01b6128af565b6134986777f929af3438512f60c01b6128af565b60006007600084815260200190815260200160002090506134c3678e458fbeadabdd5960c01b6128af565b6134d7675f2fc45deea99fdd60c01b6128af565b60005b84518110156136f1576134f76785c5e3fbc183606460c01b6128af565b61350b67d8a1d2bcc3e516c060c01b6128af565b60008260000160008784815181106135265761352561661f565b5b602002602001015173ffffffffffffffffffffffffffffffffffffffff1673ffffffffffffffffffffffffffffffffffffffff16815260200190815260200160002080549050036136315761358567c83094816b0c8dc260c01b6128af565b61359967bce6fe83daee16fc60c01b6128af565b6135ad674eb186806663984560c01b6128af565b816002018582815181106135c4576135c361661f565b5b60200260200101519080600181540180825580915050600190039060005260206000200160009091909190916101000a81548173ffffffffffffffffffffffffffffffffffffffff021916908373ffffffffffffffffffffffffffffffffffffffff160217905550613646565b61364567cf8089f71bb59d0560c01b6128af565b5b61365a675536f92cec9768c660c01b6128af565b82818151811061366d5761366c61661f565b5b602002602001015182600001600087848151811061368e5761368d61661f565b5b602002602001015173ffffffffffffffffffffffffffffffffffffffff1673ffffffffffffffffffffffffffffffffffffffff16815260200190815260200160002090805190602001906136e3929190615297565b5080806001019150506134da565b5061370667698030a8e604f0d060c01b6128af565b42816004018190555061372367416ffe2852f1c6ab60c01b6128af565b613737673f6b5792e10bf97a60c01b6128af565b613741833361334f565b50505050565b61375b670dfd7d5a926631bc60c01b6128af565b61376e6612171346c366fc60c01b6128af565b61378267ebdd72b62daa7fe060c01b6128af565b60005b8351811015613f43576137a267ac1d061f240d056e60c01b6128af565b6137b6673d2b56996d6dac3b60c01b6128af565b3073ffffffffffffffffffffffffffffffffffffffff168482815181106137e0576137df61661f565b5b602002602001015173ffffffffffffffffffffffffffffffffffffffff1603613d055761381767cf95859994893d4b60c01b6128af565b61382b67101c6357f20657d160c01b6128af565b61383f67bddb021f04a8936660c01b6128af565b60005b8282815181106138555761385461661f565b5b602002602001015151811015613cff57613879671ec3aaf902715c8d60c01b6128af565b61388d67e39e39f0833e87e960c01b6128af565b6000600760008585815181106138a6576138a561661f565b5b602002602001015184815181106138c0576138bf61661f565b5b6020026020010151815260200190815260200160002090506138ec6789696f61d4096f0060c01b6128af565b61390067eab6a0c1bfd93c6f60c01b6128af565b600081600101600088868151811061391b5761391a61661f565b5b602002602001015173ffffffffffffffffffffffffffffffffffffffff1673ffffffffffffffffffffffffffffffffffffffff1681526020019081526020016000208054905003613a265761397a6783a8528c3982cd0e60c01b6128af565b61398e67fb9b0b5b9e018d0460c01b6128af565b6139a26713501e79ad84128660c01b6128af565b806003018684815181106139b9576139b861661f565b5b60200260200101519080600181540180825580915050600190039060005260206000200160009091909190916101000a81548173ffffffffffffffffffffffffffffffffffffffff021916908373ffffffffffffffffffffffffffffffffffffffff160217905550613a3b565b613a3a67c5ba9666b37d3bc260c01b6128af565b5b613a4f67239e433522a110da60c01b6128af565b613a6367d301368bedc65ad560c01b6128af565b613a77670726be337865ba4d60c01b6128af565b838381518110613a8a57613a8961661f565b5b60200260200101518281518110613aa457613aa361661f565b5b60200260200101518503613aed576040517f08c379a0000000000000000000000000000000000000000000000000000000008152600401613ae490616da6565b60405180910390fd5b613b01674f7cc68646c24e4e60c01b6128af565b613b1567c7e8abb19549febe60c01b6128af565b613b2967da11b2fbd1e6987660c01b6128af565b42816004015410613bab57613b4867fcd4831cbe36884560c01b6128af565b613b5c67c8a634ac8f73f9ce60c01b6128af565b613b7067f0543f15e11c4ab760c01b6128af565b6040517f08c379a0000000000000000000000000000000000000000000000000000000008152600401613ba290616752565b60405180910390fd5b613bbf67db4510bc9be57d4860c01b6128af565b613bd3672a229b5d514333d960c01b6128af565b613be767e642867953b38ffa60c01b6128af565b8060010160003073ffffffffffffffffffffffffffffffffffffffff1673ffffffffffffffffffffffffffffffffffffffff168152602001908152602001600020859080600181540180825580915050600190039060005260206000200160009091909190915055613c63675d7fbc5563d058e360c01b6128af565b613c7767a13f6b70785cd77b60c01b6128af565b613cf1848481518110613c8d57613c8c61661f565b5b60200260200101518381518110613ca757613ca661661f565b5b6020026020010151613cec868681518110613cc557613cc461661f565b5b60200260200101518581518110613cdf57613cde61661f565b5b6020026020010151611808565b61334f565b508080600101915050613842565b50613f36565b613d196712a8f52de2a8923360c01b6128af565b613d2d67c810b4a0fe24a62160c01b6128af565b613d41670102fb90a76c52da60c01b6128af565b6000848281518110613d5657613d5561661f565b5b60200260200101519050613d74677416649f45a6056760c01b6128af565b613d8867c14326e58b85d4a360c01b6128af565b60008173ffffffffffffffffffffffffffffffffffffffff166301ffc9a77f40997a20000000000000000000000000000000000000000000000000000000006040518263ffffffff1660e01b8152600401613de391906168a5565b602060405180830381865afa158015613e00573d6000803e3d6000fd5b505050506040513d601f19601f82011682018060405250810190613e2491906168d5565b9050613e3a674c10347e8f2fab9e60c01b6128af565b613e4e6753b8de672ad546c360c01b6128af565b8015613f1e57613e6867d3d0a0e2ef0a59ec60c01b6128af565b613e7c6702f1f267c4a3746e60c01b6128af565b613e9067ffb6e75851ba729260c01b6128af565b8173ffffffffffffffffffffffffffffffffffffffff166355c104403087878781518110613ec157613ec061661f565b5b60200260200101516040518463ffffffff1660e01b8152600401613ee793929190616e35565b600060405180830381600087803b158015613f0157600080fd5b505af1158015613f15573d6000803e3d6000fd5b50505050613f33565b613f3267a0d76f2af6bb283c60c01b6128af565b5b50505b8080600101915050613785565b50505050565b606080613f6067c045bb855c8f90ca60c01b6128af565b613f74679afe305efbb6915b60c01b6128af565b613f8867af67464a02ffe4ab60c01b6128af565b6000600760008681526020019081526020016000209050613fb36795dc51acdbfb697060c01b6128af565b613fc7675fb0b59e7d80728160c01b6128af565b6060613fdd671d9c1dfdbd39a0ff60c01b6128af565b613ff167056f61d010f0977960c01b6128af565b606061400767a284e1d97d603e5d60c01b6128af565b61401b67f8974b53bf13562860c01b6128af565b851561425c57614035673576a8e80fa0ae7060c01b6128af565b6140496793ee727b96137bcd60c01b6128af565b826002018054806020026020016040519081016040528092919081815260200182805480156140cd57602002820191906000526020600020905b8160009054906101000a900473ffffffffffffffffffffffffffffffffffffffff1673ffffffffffffffffffffffffffffffffffffffff1681526020019060010190808311614083575b505050505091506140e867bff9ea6d1820fce960c01b6128af565b815167ffffffffffffffff811115614103576141026158c4565b5b60405190808252806020026020018201604052801561413657816020015b60608152602001906001900390816141215790505b50905061414d676532678eeb57114c60c01b6128af565b614161672fd1a4bf1c90fd7360c01b6128af565b60005b825181101561425657614181674ffdf90c89f3122a60c01b6128af565b83600001600084838151811061419a5761419961661f565b5b602002602001015173ffffffffffffffffffffffffffffffffffffffff1673ffffffffffffffffffffffffffffffffffffffff16815260200190815260200160002080548060200260200160405190810160405280929190818152602001828054801561422657602002820191906000526020600020905b815481526020019060010190808311614212575b505050505082828151811061423e5761423d61661f565b5b60200260200101819052508080600101915050614164565b50614493565b614270679c0cba8c4db5c38560c01b6128af565b61428467ae0c2bf4b808856760c01b6128af565b8260030180548060200260200160405190810160405280929190818152602001828054801561430857602002820191906000526020600020905b8160009054906101000a900473ffffffffffffffffffffffffffffffffffffffff1673ffffffffffffffffffffffffffffffffffffffff16815260200190600101908083116142be575b5050505050915061432367bc16725d583300a460c01b6128af565b815167ffffffffffffffff81111561433e5761433d6158c4565b5b60405190808252806020026020018201604052801561437157816020015b606081526020019060019003908161435c5790505b50905061438867d798f0a5671d5b2360c01b6128af565b61439c67571e1f6b7880669760c01b6128af565b60005b8251811015614491576143bc67ebf71c5b21f77b4860c01b6128af565b8360010160008483815181106143d5576143d461661f565b5b602002602001015173ffffffffffffffffffffffffffffffffffffffff1673ffffffffffffffffffffffffffffffffffffffff16815260200190815260200160002080548060200260200160405190810160405280929190818152602001828054801561446157602002820191906000526020600020905b81548152602001906001019080831161444d575b50505050508282815181106144795761447861661f565b5b6020026020010181905250808060010191505061439f565b505b6144a76777a3ee7b95ea2e0560c01b6128af565b6144bb672218791ed2864eda60c01b6128af565b8181945094505050509250929050565b600073ffffffffffffffffffffffffffffffffffffffff168273ffffffffffffffffffffffffffffffffffffffff160361453c57816040517f5b08ba18000000000000000000000000000000000000000000000000000000008152600401614533919061556b565b60405180910390fd5b80600560008573ffffffffffffffffffffffffffffffffffffffff1673ffffffffffffffffffffffffffffffffffffffff16815260200190815260200160002060008473ffffffffffffffffffffffffffffffffffffffff1673ffffffffffffffffffffffffffffffffffffffff16815260200190815260200160002060006101000a81548160ff0219169083151502179055508173ffffffffffffffffffffffffffffffffffffffff168373ffffffffffffffffffffffffffffffffffffffff167f17307eab39ab6107e8899845ad3d59bd9653f200f220920489ca2b5937696c318360405161462d91906153fa565b60405180910390a3505050565b60008373ffffffffffffffffffffffffffffffffffffffff163b11156147e4578273ffffffffffffffffffffffffffffffffffffffff1663150b7a02868685856040518563ffffffff1660e01b81526004016146999493929190616ec8565b6020604051808303816000875af19250505080156146d557506040513d601f19601f820116820180604052508101906146d29190616f29565b60015b614759573d8060008114614705576040519150601f19603f3d011682016040523d82523d6000602084013e61470a565b606091505b50600081510361475157836040517f64a0ae92000000000000000000000000000000000000000000000000000000008152600401614748919061556b565b60405180910390fd5b805181602001fd5b63150b7a0260e01b7bffffffffffffffffffffffffffffffffffffffffffffffffffffffff1916817bffffffffffffffffffffffffffffffffffffffffffffffffffffffff1916146147e257836040517f64a0ae920000000000000000000000000000000000000000000000000000000081526004016147d9919061556b565b60405180910390fd5b505b5050505050565b60606147f68261291e565b50600060066000848152602001908152602001600020805461481790616190565b80601f016020809104026020016040519081016040528092919081815260200182805461484390616190565b80156148905780601f1061486557610100808354040283529160200191614890565b820191906000526020600020905b81548152906001019060200180831161487357829003601f168201915b5050505050905060006148a1614cc4565b905060008151036148b65781925050506148f9565b6000825111156148eb5780826040516020016148d3929190616f92565b604051602081830303815290604052925050506148f9565b6148f484614cdb565b925050505b919050565b614918828260405180602001604052806000815250614d44565b5050565b60007f80ac58cd000000000000000000000000000000000000000000000000000000007bffffffffffffffffffffffffffffffffffffffffffffffffffffffff1916827bffffffffffffffffffffffffffffffffffffffffffffffffffffffff191614806149e757507f5b5e139f000000000000000000000000000000000000000000000000000000007bffffffffffffffffffffffffffffffffffffffffffffffffffffffff1916827bffffffffffffffffffffffffffffffffffffffffffffffffffffffff1916145b806149f757506149f682614d68565b5b9050919050565b60006002600083815260200190815260200160002060009054906101000a900473ffffffffffffffffffffffffffffffffffffffff169050919050565b8080614a745750600073ffffffffffffffffffffffffffffffffffffffff168273ffffffffffffffffffffffffffffffffffffffff1614155b15614ba8576000614a848461291e565b9050600073ffffffffffffffffffffffffffffffffffffffff168373ffffffffffffffffffffffffffffffffffffffff1614158015614aef57508273ffffffffffffffffffffffffffffffffffffffff168173ffffffffffffffffffffffffffffffffffffffff1614155b8015614b025750614b00818461272d565b155b15614b4457826040517fa9fbf51f000000000000000000000000000000000000000000000000000000008152600401614b3b919061556b565b60405180910390fd5b8115614ba657838573ffffffffffffffffffffffffffffffffffffffff168273ffffffffffffffffffffffffffffffffffffffff167f8c5be1e5ebec7d5bd14f71427d1e84f3dd0314c0f7b2291e5b200ac8c7c3b92560405160405180910390a45b505b836004600085815260200190815260200160002060006101000a81548173ffffffffffffffffffffffffffffffffffffffff021916908373ffffffffffffffffffffffffffffffffffffffff16021790555050505050565b614c0b838383614dd2565b614cbf57600073ffffffffffffffffffffffffffffffffffffffff168373ffffffffffffffffffffffffffffffffffffffff1603614c8057806040517f7e273289000000000000000000000000000000000000000000000000000000008152600401614c779190615d11565b60405180910390fd5b81816040517f177e802f000000000000000000000000000000000000000000000000000000008152600401614cb6929190616994565b60405180910390fd5b505050565b606060405180602001604052806000815250905090565b6060614ce68261291e565b506000614cf1614cc4565b90506000815111614d115760405180602001604052806000815250614d3c565b80614d1b84614e93565b604051602001614d2c929190616f92565b6040516020818303038152906040525b915050919050565b614d4e8383614f61565b614d63614d596129e3565b600085858561463a565b505050565b60007f01ffc9a7000000000000000000000000000000000000000000000000000000007bffffffffffffffffffffffffffffffffffffffffffffffffffffffff1916827bffffffffffffffffffffffffffffffffffffffffffffffffffffffff1916149050919050565b60008073ffffffffffffffffffffffffffffffffffffffff168373ffffffffffffffffffffffffffffffffffffffff1614158015614e8a57508273ffffffffffffffffffffffffffffffffffffffff168473ffffffffffffffffffffffffffffffffffffffff161480614e4b5750614e4a848461272d565b5b80614e8957508273ffffffffffffffffffffffffffffffffffffffff16614e71836129a6565b73ffffffffffffffffffffffffffffffffffffffff16145b5b90509392505050565b606060006001614ea28461505a565b01905060008167ffffffffffffffff811115614ec157614ec06158c4565b5b6040519080825280601f01601f191660200182016040528015614ef35781602001600182028036833780820191505090505b509050600082602001820190505b600115614f56578080600190039150507f3031323334353637383961626364656600000000000000000000000000000000600a86061a8153600a8581614f4a57614f49616fb6565b5b04945060008503614f01575b819350505050919050565b600073ffffffffffffffffffffffffffffffffffffffff168273ffffffffffffffffffffffffffffffffffffffff1603614fd35760006040517f64a0ae92000000000000000000000000000000000000000000000000000000008152600401614fca919061556b565b60405180910390fd5b6000614fe1838360006129fd565b9050600073ffffffffffffffffffffffffffffffffffffffff168173ffffffffffffffffffffffffffffffffffffffff16146150555760006040517f73c6ac6e00000000000000000000000000000000000000000000000000000000815260040161504c919061556b565b60405180910390fd5b505050565b600080600090507a184f03e93ff9f4daa797ed6e38ed64bf6a1f01000000000000000083106150b8577a184f03e93ff9f4daa797ed6e38ed64bf6a1f01000000000000000083816150ae576150ad616fb6565b5b0492506040810190505b6d04ee2d6d415b85acef810000000083106150f5576d04ee2d6d415b85acef810000000083816150eb576150ea616fb6565b5b0492506020810190505b662386f26fc10000831061512457662386f26fc10000838161511a57615119616fb6565b5b0492506010810190505b6305f5e100831061514d576305f5e100838161514357615142616fb6565b5b0492506008810190505b612710831061517257612710838161516857615167616fb6565b5b0492506004810190505b60648310615195576064838161518b5761518a616fb6565b5b0492506002810190505b600a83106151a4576001810190505b80915050919050565b828054828255906000526020600020908101928215615226579160200282015b828111156152255782518260006101000a81548173ffffffffffffffffffffffffffffffffffffffff021916908373ffffffffffffffffffffffffffffffffffffffff160217905550916020019190600101906151cd565b5b50905061523391906152e4565b5090565b828054828255906000526020600020908101928215615286579160200282015b82811115615285578251829080519060200190615275929190615297565b5091602001919060010190615257565b5b5090506152939190615301565b5090565b8280548282559060005260206000209081019282156152d3579160200282015b828111156152d25782518255916020019190600101906152b7565b5b5090506152e091906152e4565b5090565b5b808211156152fd5760008160009055506001016152e5565b5090565b5b8082111561532157600081816153189190615325565b50600101615302565b5090565b508054600082559060005260206000209081019061534391906152e4565b50565b6000604051905090565b600080fd5b600080fd5b60007fffffffff0000000000000000000000000000000000000000000000000000000082169050919050565b61538f8161535a565b811461539a57600080fd5b50565b6000813590506153ac81615386565b92915050565b6000602082840312156153c8576153c7615350565b5b60006153d68482850161539d565b91505092915050565b60008115159050919050565b6153f4816153df565b82525050565b600060208201905061540f60008301846153eb565b92915050565b600081519050919050565b600082825260208201905092915050565b60005b8381101561544f578082015181840152602081019050615434565b60008484015250505050565b6000601f19601f8301169050919050565b600061547782615415565b6154818185615420565b9350615491818560208601615431565b61549a8161545b565b840191505092915050565b600060208201905081810360008301526154bf818461546c565b905092915050565b6000819050919050565b6154da816154c7565b81146154e557600080fd5b50565b6000813590506154f7816154d1565b92915050565b60006020828403121561551357615512615350565b5b6000615521848285016154e8565b91505092915050565b600073ffffffffffffffffffffffffffffffffffffffff82169050919050565b60006155558261552a565b9050919050565b6155658161554a565b82525050565b6000602082019050615580600083018461555c565b92915050565b61558f8161554a565b811461559a57600080fd5b50565b6000813590506155ac81615586565b92915050565b600080604083850312156155c9576155c8615350565b5b60006155d78582860161559d565b92505060206155e8858286016154e8565b9150509250929050565b60008060006060848603121561560b5761560a615350565b5b60006156198682870161559d565b935050602061562a8682870161559d565b925050604061563b868287016154e8565b9150509250925092565b600081519050919050565b600082825260208201905092915050565b6000819050602082019050919050565b61567a8161554a565b82525050565b600061568c8383615671565b60208301905092915050565b6000602082019050919050565b60006156b082615645565b6156ba8185615650565b93506156c583615661565b8060005b838110156156f65781516156dd8882615680565b97506156e883615698565b9250506001810190506156c9565b5085935050505092915050565b600081519050919050565b600082825260208201905092915050565b6000819050602082019050919050565b600081519050919050565b600082825260208201905092915050565b6000819050602082019050919050565b615764816154c7565b82525050565b6000615776838361575b565b60208301905092915050565b6000602082019050919050565b600061579a8261572f565b6157a4818561573a565b93506157af8361574b565b8060005b838110156157e05781516157c7888261576a565b97506157d283615782565b9250506001810190506157b3565b5085935050505092915050565b60006157f9838361578f565b905092915050565b6000602082019050919050565b600061581982615703565b615823818561570e565b9350836020820285016158358561571f565b8060005b85811015615871578484038952815161585285826157ed565b945061585d83615801565b925060208a01995050600181019050615839565b50829750879550505050505092915050565b6000604082019050818103600083015261589d81856156a5565b905081810360208301526158b1818461580e565b90509392505050565b600080fd5b600080fd5b7f4e487b7100000000000000000000000000000000000000000000000000000000600052604160045260246000fd5b6158fc8261545b565b810181811067ffffffffffffffff8211171561591b5761591a6158c4565b5b80604052505050565b600061592e615346565b905061593a82826158f3565b919050565b600067ffffffffffffffff82111561595a576159596158c4565b5b6159638261545b565b9050602081019050919050565b82818337600083830152505050565b600061599261598d8461593f565b615924565b9050828152602081018484840111156159ae576159ad6158bf565b5b6159b9848285615970565b509392505050565b600082601f8301126159d6576159d56158ba565b5b81356159e684826020860161597f565b91505092915050565b600067ffffffffffffffff821115615a0a57615a096158c4565b5b602082029050602081019050919050565b600080fd5b6000615a33615a2e846159ef565b615924565b90508083825260208201905060208402830185811115615a5657615a55615a1b565b5b835b81811015615a7f5780615a6b888261559d565b845260208401935050602081019050615a58565b5050509392505050565b600082601f830112615a9e57615a9d6158ba565b5b8135615aae848260208601615a20565b91505092915050565b600067ffffffffffffffff821115615ad257615ad16158c4565b5b602082029050602081019050919050565b600067ffffffffffffffff821115615afe57615afd6158c4565b5b602082029050602081019050919050565b6000615b22615b1d84615ae3565b615924565b90508083825260208201905060208402830185811115615b4557615b44615a1b565b5b835b81811015615b6e5780615b5a88826154e8565b845260208401935050602081019050615b47565b5050509392505050565b600082601f830112615b8d57615b8c6158ba565b5b8135615b9d848260208601615b0f565b91505092915050565b6000615bb9615bb484615ab7565b615924565b90508083825260208201905060208402830185811115615bdc57615bdb615a1b565b5b835b81811015615c2357803567ffffffffffffffff811115615c0157615c006158ba565b5b808601615c0e8982615b78565b85526020850194505050602081019050615bde565b5050509392505050565b600082601f830112615c4257615c416158ba565b5b8135615c52848260208601615ba6565b91505092915050565b600080600060608486031215615c7457615c73615350565b5b600084013567ffffffffffffffff811115615c9257615c91615355565b5b615c9e868287016159c1565b935050602084013567ffffffffffffffff811115615cbf57615cbe615355565b5b615ccb86828701615a89565b925050604084013567ffffffffffffffff811115615cec57615ceb615355565b5b615cf886828701615c2d565b9150509250925092565b615d0b816154c7565b82525050565b6000602082019050615d266000830184615d02565b92915050565b600080600060608486031215615d4557615d44615350565b5b6000615d538682870161559d565b9350506020615d64868287016154e8565b925050604084013567ffffffffffffffff811115615d8557615d84615355565b5b615d91868287016159c1565b9150509250925092565b600080600060608486031215615db457615db3615350565b5b6000615dc28682870161559d565b9350506020615dd3868287016154e8565b925050604084013567ffffffffffffffff811115615df457615df3615355565b5b615e0086828701615b78565b9150509250925092565b6000604082019050615e1f600083018561555c565b8181036020830152615e31818461546c565b90509392505050565b600080600060608486031215615e5357615e52615350565b5b6000615e61868287016154e8565b935050602084013567ffffffffffffffff811115615e8257615e81615355565b5b615e8e86828701615a89565b925050604084013567ffffffffffffffff811115615eaf57615eae615355565b5b615ebb86828701615c2d565b9150509250925092565b600060208284031215615edb57615eda615350565b5b6000615ee98482850161559d565b91505092915050565b615efb816153df565b8114615f0657600080fd5b50565b600081359050615f1881615ef2565b92915050565b60008060408385031215615f3557615f34615350565b5b6000615f438582860161559d565b9250506020615f5485828601615f09565b9150509250929050565b600067ffffffffffffffff821115615f7957615f786158c4565b5b615f828261545b565b9050602081019050919050565b6000615fa2615f9d84615f5e565b615924565b905082815260208101848484011115615fbe57615fbd6158bf565b5b615fc9848285615970565b509392505050565b600082601f830112615fe657615fe56158ba565b5b8135615ff6848260208601615f8f565b91505092915050565b6000806000806080858703121561601957616018615350565b5b60006160278782880161559d565b94505060206160388782880161559d565b9350506040616049878288016154e8565b925050606085013567ffffffffffffffff81111561606a57616069615355565b5b61607687828801615fd1565b91505092959194509250565b6000806040838503121561609957616098615350565b5b60006160a78582860161559d565b92505060206160b88582860161559d565b9150509250929050565b600080600080608085870312156160dc576160db615350565b5b60006160ea8782880161559d565b94505060206160fb878288016154e8565b935050604085013567ffffffffffffffff81111561611c5761611b615355565b5b61612887828801615a89565b925050606085013567ffffffffffffffff81111561614957616148615355565b5b61615587828801615c2d565b91505092959194509250565b7f4e487b7100000000000000000000000000000000000000000000000000000000600052602260045260246000fd5b600060028204905060018216806161a857607f821691505b6020821081036161bb576161ba616161565b5b50919050565b60006060820190506161d6600083018661555c565b6161e36020830185615d02565b6161f0604083018461555c565b949350505050565b7f4e487b7100000000000000000000000000000000000000000000000000000000600052601160045260246000fd5b6000616232826154c7565b915061623d836154c7565b9250828203905081811115616255576162546161f8565b5b92915050565b60008190508160005260206000209050919050565b60006020601f8301049050919050565b600082821b905092915050565b6000600883026162bd7fffffffffffffffffffffffffffffffffffffffffffffffffffffffffffffffff82616280565b6162c78683616280565b95508019841693508086168417925050509392505050565b6000819050919050565b60006163046162ff6162fa846154c7565b6162df565b6154c7565b9050919050565b6000819050919050565b61631e836162e9565b61633261632a8261630b565b84845461628d565b825550505050565b600090565b61634761633a565b616352818484616315565b505050565b5b818110156163765761636b60008261633f565b600181019050616358565b5050565b601f8211156163bb5761638c8161625b565b61639584616270565b810160208510156163a4578190505b6163b86163b085616270565b830182616357565b50505b505050565b600082821c905092915050565b60006163de600019846008026163c0565b1980831691505092915050565b60006163f783836163cd565b9150826002028217905092915050565b61641082615415565b67ffffffffffffffff811115616429576164286158c4565b5b6164338254616190565b61643e82828561637a565b600060209050601f831160018114616471576000841561645f578287015190505b61646985826163eb565b8655506164d1565b601f19841661647f8661625b565b60005b828110156164a757848901518255600182019150602085019450602081019050616482565b868310156164c457848901516164c0601f8916826163cd565b8355505b6001600288020188555050505b505050505050565b60006164e4826154c7565b91507fffffffffffffffffffffffffffffffffffffffffffffffffffffffffffffffff8203616516576165156161f8565b5b600182019050919050565b7f4552435f353532313a20746f6b656e204944206e6f7420657869737465640000600082015250565b6000616557601e83615420565b915061656282616521565b602082019050919050565b600060208201905081810360008301526165868161654a565b9050919050565b7f4552435f353532313a207472616e736665722063616c6c6572206973206e6f7460008201527f206f776e6572206e6f7220617070726f76656400000000000000000000000000602082015250565b60006165e9603383615420565b91506165f48261658d565b604082019050919050565b60006020820190508181036000830152616618816165dc565b9050919050565b7f4e487b7100000000000000000000000000000000000000000000000000000000600052603260045260246000fd5b7f4552435f353532313a2074686973206d75737420626520616e2065787465726e60008201527f616c20636f6e7472616374206164647265737300000000000000000000000000602082015250565b60006166aa603383615420565b91506166b58261664e565b604082019050919050565b600060208201905081810360008301526166d98161669d565b9050919050565b7f4552435f353532313a2074686520726566657272656420724e4654206e65656460008201527f7320746f2062652061207072656465636573736f720000000000000000000000602082015250565b600061673c603583615420565b9150616747826166e0565b604082019050919050565b6000602082019050818103600083015261676b8161672f565b9050919050565b7f41646472657373657320616e6420546f6b656e494420617272617973206d757360008201527f742068617665207468652073616d65206c656e67746800000000000000000000602082015250565b60006167ce603683615420565b91506167d982616772565b604082019050919050565b600060208201905081810360008301526167fd816167c1565b9050919050565b7f4552435f353532313a2074686520726566657272696e67206c6973742063616e60008201527f6e6f7420626520656d7074790000000000000000000000000000000000000000602082015250565b6000616860602c83615420565b915061686b82616804565b604082019050919050565b6000602082019050818103600083015261688f81616853565b9050919050565b61689f8161535a565b82525050565b60006020820190506168ba6000830184616896565b92915050565b6000815190506168cf81615ef2565b92915050565b6000602082840312156168eb576168ea615350565b5b60006168f9848285016168c0565b91505092915050565b7f4552435f353532313a2074617267657420636f6e7472616374206e6f7420737560008201527f70706f7274656400000000000000000000000000000000000000000000000000602082015250565b600061695e602783615420565b915061696982616902565b604082019050919050565b6000602082019050818103600083015261698d81616951565b9050919050565b60006040820190506169a9600083018561555c565b6169b66020830184615d02565b9392505050565b6000815190506169cc81615586565b92915050565b60006169e56169e0846159ef565b615924565b90508083825260208201905060208402830185811115616a0857616a07615a1b565b5b835b81811015616a315780616a1d88826169bd565b845260208401935050602081019050616a0a565b5050509392505050565b600082601f830112616a5057616a4f6158ba565b5b8151616a608482602086016169d2565b91505092915050565b600081519050616a78816154d1565b92915050565b6000616a91616a8c84615ae3565b615924565b90508083825260208201905060208402830185811115616ab457616ab3615a1b565b5b835b81811015616add5780616ac98882616a69565b845260208401935050602081019050616ab6565b5050509392505050565b600082601f830112616afc57616afb6158ba565b5b8151616b0c848260208601616a7e565b91505092915050565b6000616b28616b2384615ab7565b615924565b90508083825260208201905060208402830185811115616b4b57616b4a615a1b565b5b835b81811015616b9257805167ffffffffffffffff811115616b7057616b6f6158ba565b5b808601616b7d8982616ae7565b85526020850194505050602081019050616b4d565b5050509392505050565b600082601f830112616bb157616bb06158ba565b5b8151616bc1848260208601616b15565b91505092915050565b60008060408385031215616be157616be0615350565b5b600083015167ffffffffffffffff811115616bff57616bfe615355565b5b616c0b85828601616a3b565b925050602083015167ffffffffffffffff811115616c2c57616c2b615355565b5b616c3885828601616b9c565b9150509250929050565b600060208284031215616c5857616c57615350565b5b6000616c6684828501616a69565b91505092915050565b600060208284031215616c8557616c84615350565b5b6000616c93848285016169bd565b91505092915050565b6000606082019050616cb1600083018661555c565b616cbe602083018561555c565b616ccb6040830184615d02565b949350505050565b60006080820190508181036000830152616ced81876156a5565b90508181036020830152616d01818661580e565b90508181036040830152616d1581856156a5565b90508181036060830152616d29818461580e565b905095945050505050565b7f4552435f353532313a2073656c662d7265666572656e6365206e6f7420616c6c60008201527f6f77656400000000000000000000000000000000000000000000000000000000602082015250565b6000616d90602483615420565b9150616d9b82616d34565b604082019050919050565b60006020820190508181036000830152616dbf81616d83565b9050919050565b600082825260208201905092915050565b6000616de28261572f565b616dec8185616dc6565b9350616df78361574b565b8060005b83811015616e28578151616e0f888261576a565b9750616e1a83615782565b925050600181019050616dfb565b5085935050505092915050565b6000606082019050616e4a600083018661555c565b616e576020830185615d02565b8181036040830152616e698184616dd7565b9050949350505050565b600081519050919050565b600082825260208201905092915050565b6000616e9a82616e73565b616ea48185616e7e565b9350616eb4818560208601615431565b616ebd8161545b565b840191505092915050565b6000608082019050616edd600083018761555c565b616eea602083018661555c565b616ef76040830185615d02565b8181036060830152616f098184616e8f565b905095945050505050565b600081519050616f2381615386565b92915050565b600060208284031215616f3f57616f3e615350565b5b6000616f4d84828501616f14565b91505092915050565b600081905092915050565b6000616f6c82615415565b616f768185616f56565b9350616f86818560208601615431565b80840191505092915050565b6000616f9e8285616f61565b9150616faa8284616f61565b91508190509392505050565b7f4e487b7100000000000000000000000000000000000000000000000000000000600052601260045260246000fdfea26469706673582212200f40550e8d39818836ff0f467634b01296387b70d0ca4ae4d4e3865ee023d8c364736f6c634300081c0033",
  "linkReferences": {},
  "deployedLinkReferences": {}
}