{
  "_format": "hh-sol-artifact-1",
  "contractName": "Repository",
  "sourceName": "contracts/Repository.sol",
  "abi": [
    {
      "inputs": [
        {
          "internalType": "address",
          "name": "_registry",
          "type": "address"
        },
        {
          "internalType": "address",
          "name": "_developer",
          "type": "address"
        }
      ],
      "stateMutability": "nonpayable",
      "type": "constructor"
    },
    {
      "inputs": [
        {
          "internalType": "address",
          "name": "sender",
          "type": "address"
        },
        {
          "internalType": "uint256",
          "name": "tokenId",
          "type": "uint256"
        },
        {
          "internalType": "address",
          "name": "owner",
          "type": "address"
        }
      ],
      "name": "ERC721IncorrectOwner",
      "type": "error"
    },
    {
      "inputs": [
        {
          "internalType": "address",
          "name": "operator",
          "type": "address"
        },
        {
          "internalType": "uint256",
          "name": "tokenId",
          "type": "uint256"
        }
      ],
      "name": "ERC721InsufficientApproval",
      "type": "error"
    },
    {
      "inputs": [
        {
          "internalType": "address",
          "name": "approver",
          "type": "address"
        }
      ],
      "name": "ERC721InvalidApprover",
      "type": "error"
    },
    {
      "inputs": [
        {
          "internalType": "address",
          "name": "operator",
          "type": "address"
        }
      ],
      "name": "ERC721InvalidOperator",
      "type": "error"
    },
    {
      "inputs": [
        {
          "internalType": "address",
          "name": "owner",
          "type": "address"
        }
      ],
      "name": "ERC721InvalidOwner",
      "type": "error"
    },
    {
      "inputs": [
        {
          "internalType": "address",
          "name": "receiver",
          "type": "address"
        }
      ],
      "name": "ERC721InvalidReceiver",
      "type": "error"
    },
    {
      "inputs": [
        {
          "internalType": "address",
          "name": "sender",
          "type": "address"
        }
      ],
      "name": "ERC721InvalidSender",
      "type": "error"
    },
    {
      "inputs": [
        {
          "internalType": "uint256",
          "name": "tokenId",
          "type": "uint256"
        }
      ],
      "name": "ERC721NonexistentToken",
      "type": "error"
    },
    {
      "inputs": [],
      "name": "isNotOwner",
      "type": "error"
    },
    {
      "inputs": [],
      "name": "notAuthorized",
      "type": "error"
    },
    {
      "inputs": [],
      "name": "softwareDoesNotExist",
      "type": "error"
    },
    {
      "anonymous": false,
      "inputs": [
        {
          "indexed": true,
          "internalType": "address",
          "name": "owner",
          "type": "address"
        },
        {
          "indexed": true,
          "internalType": "address",
          "name": "approved",
          "type": "address"
        },
        {
          "indexed": true,
          "internalType": "uint256",
          "name": "tokenId",
          "type": "uint256"
        }
      ],
      "name": "Approval",
      "type": "event"
    },
    {
      "anonymous": false,
      "inputs": [
        {
          "indexed": true,
          "internalType": "address",
          "name": "owner",
          "type": "address"
        },
        {
          "indexed": true,
          "internalType": "address",
          "name": "operator",
          "type": "address"
        },
        {
          "indexed": false,
          "internalType": "bool",
          "name": "approved",
          "type": "bool"
        }
      ],
      "name": "ApprovalForAll",
      "type": "event"
    },
    {
      "anonymous": false,
      "inputs": [
        {
          "indexed": false,
          "internalType": "uint256",
          "name": "_fromTokenId",
          "type": "uint256"
        },
        {
          "indexed": false,
          "internalType": "uint256",
          "name": "_toTokenId",
          "type": "uint256"
        }
      ],
      "name": "BatchMetadataUpdate",
      "type": "event"
    },
    {
      "anonymous": false,
      "inputs": [
        {
          "indexed": false,
          "internalType": "uint256",
          "name": "_tokenId",
          "type": "uint256"
        }
      ],
      "name": "MetadataUpdate",
      "type": "event"
    },
    {
      "anonymous": false,
      "inputs": [
        {
          "indexed": true,
          "internalType": "uint256",
          "name": "tokenId",
          "type": "uint256"
        },
        {
          "indexed": false,
          "internalType": "address[]",
          "name": "addresses",
          "type": "address[]"
        },
        {
          "indexed": false,
          "internalType": "uint256[][]",
          "name": "tokenIds",
          "type": "uint256[][]"
        }
      ],
      "name": "ReferenceCreated",
      "type": "event"
    },
    {
      "anonymous": false,
      "inputs": [
        {
          "indexed": true,
          "internalType": "address",
          "name": "from",
          "type": "address"
        },
        {
          "indexed": true,
          "internalType": "address",
          "name": "to",
          "type": "address"
        },
        {
          "indexed": true,
          "internalType": "uint256",
          "name": "tokenId",
          "type": "uint256"
        }
      ],
      "name": "Transfer",
      "type": "event"
    },
    {
      "anonymous": false,
      "inputs": [
        {
          "indexed": true,
          "internalType": "uint256",
          "name": "tokenId",
          "type": "uint256"
        },
        {
          "indexed": true,
          "internalType": "address",
          "name": "owner",
          "type": "address"
        },
        {
          "indexed": false,
          "internalType": "address[]",
          "name": "_address_referringList",
          "type": "address[]"
        },
        {
          "indexed": false,
          "internalType": "uint256[][]",
          "name": "_tokenIds_referringList",
          "type": "uint256[][]"
        },
        {
          "indexed": false,
          "internalType": "address[]",
          "name": "_address_referredList",
          "type": "address[]"
        },
        {
          "indexed": false,
          "internalType": "uint256[][]",
          "name": "_tokenIds_referredList",
          "type": "uint256[][]"
        }
      ],
      "name": "UpdateNode",
      "type": "event"
    },
    {
      "inputs": [
        {
          "internalType": "address",
          "name": "to",
          "type": "address"
        },
        {
          "internalType": "uint256",
          "name": "tokenId",
          "type": "uint256"
        }
      ],
      "name": "approve",
      "outputs": [],
      "stateMutability": "nonpayable",
      "type": "function"
    },
    {
      "inputs": [
        {
          "internalType": "address",
          "name": "owner",
          "type": "address"
        }
      ],
      "name": "balanceOf",
      "outputs": [
        {
          "internalType": "uint256",
          "name": "",
          "type": "uint256"
        }
      ],
      "stateMutability": "view",
      "type": "function"
    },
    {
      "inputs": [
        {
          "internalType": "address",
          "name": "_address",
          "type": "address"
        },
        {
          "internalType": "uint256",
          "name": "tokenId",
          "type": "uint256"
        }
      ],
      "name": "createdTimestampOf",
      "outputs": [
        {
          "internalType": "uint256",
          "name": "",
          "type": "uint256"
        }
      ],
      "stateMutability": "view",
      "type": "function"
    },
    {
      "inputs": [
        {
          "internalType": "uint256",
          "name": "tokenId",
          "type": "uint256"
        }
      ],
      "name": "getApproved",
      "outputs": [
        {
          "internalType": "address",
          "name": "",
          "type": "address"
        }
      ],
      "stateMutability": "view",
      "type": "function"
    },
    {
      "inputs": [],
      "name": "getDeveloper",
      "outputs": [
        {
          "internalType": "address",
          "name": "",
          "type": "address"
        }
      ],
      "stateMutability": "view",
      "type": "function"
    },
    {
      "inputs": [],
      "name": "getOwner",
      "outputs": [
        {
          "internalType": "address",
          "name": "",
          "type": "address"
        }
      ],
      "stateMutability": "view",
      "type": "function"
    },
    {
      "inputs": [
        {
          "internalType": "uint256",
          "name": "tokenId",
          "type": "uint256"
        }
      ],
      "name": "getSoftwareDependencies",
      "outputs": [
        {
          "internalType": "address[]",
          "name": "deps",
          "type": "address[]"
        },
        {
          "internalType": "uint256[][]",
          "name": "depTokenIds",
          "type": "uint256[][]"
        }
      ],
      "stateMutability": "view",
      "type": "function"
    },
    {
      "inputs": [
        {
          "internalType": "uint256",
          "name": "tokenId",
          "type": "uint256"
        }
      ],
      "name": "getSoftwareURI",
      "outputs": [
        {
          "internalType": "string",
          "name": "",
          "type": "string"
        }
      ],
      "stateMutability": "view",
      "type": "function"
    },
    {
      "inputs": [
        {
          "internalType": "address",
          "name": "owner",
          "type": "address"
        },
        {
          "internalType": "address",
          "name": "operator",
          "type": "address"
        }
      ],
      "name": "isApprovedForAll",
      "outputs": [
        {
          "internalType": "bool",
          "name": "",
          "type": "bool"
        }
      ],
      "stateMutability": "view",
      "type": "function"
    },
    {
      "inputs": [
        {
          "internalType": "string",
          "name": "_tokenURI",
          "type": "string"
        },
        {
          "internalType": "address[]",
          "name": "addresses",
          "type": "address[]"
        },
        {
          "internalType": "uint256[][]",
          "name": "_tokenIds",
          "type": "uint256[][]"
        }
      ],
      "name": "mintSoftware",
      "outputs": [
        {
          "internalType": "uint256",
          "name": "",
          "type": "uint256"
        }
      ],
      "stateMutability": "nonpayable",
      "type": "function"
    },
    {
      "inputs": [],
      "name": "name",
      "outputs": [
        {
          "internalType": "string",
          "name": "",
          "type": "string"
        }
      ],
      "stateMutability": "view",
      "type": "function"
    },
    {
      "inputs": [
        {
          "internalType": "uint256",
          "name": "tokenId",
          "type": "uint256"
        }
      ],
      "name": "ownerOf",
      "outputs": [
        {
          "internalType": "address",
          "name": "",
          "type": "address"
        }
      ],
      "stateMutability": "view",
      "type": "function"
    },
    {
      "inputs": [
        {
          "internalType": "address",
          "name": "_address",
          "type": "address"
        },
        {
          "internalType": "uint256",
          "name": "tokenId",
          "type": "uint256"
        }
      ],
      "name": "referredOf",
      "outputs": [
        {
          "internalType": "address[]",
          "name": "",
          "type": "address[]"
        },
        {
          "internalType": "uint256[][]",
          "name": "",
          "type": "uint256[][]"
        }
      ],
      "stateMutability": "view",
      "type": "function"
    },
    {
      "inputs": [
        {
          "internalType": "address",
          "name": "_address",
          "type": "address"
        },
        {
          "internalType": "uint256",
          "name": "tokenId",
          "type": "uint256"
        }
      ],
      "name": "referringOf",
      "outputs": [
        {
          "internalType": "address[]",
          "name": "",
          "type": "address[]"
        },
        {
          "internalType": "uint256[][]",
          "name": "",
          "type": "uint256[][]"
        }
      ],
      "stateMutability": "view",
      "type": "function"
    },
    {
      "inputs": [
        {
          "internalType": "address",
          "name": "to",
          "type": "address"
        },
        {
          "internalType": "uint256",
          "name": "tokenId",
          "type": "uint256"
        },
        {
          "internalType": "address[]",
          "name": "addresses",
          "type": "address[]"
        },
        {
          "internalType": "uint256[][]",
          "name": "_tokenIds",
          "type": "uint256[][]"
        }
      ],
      "name": "safeMint",
      "outputs": [],
      "stateMutability": "nonpayable",
      "type": "function"
    },
    {
      "inputs": [
        {
          "internalType": "address",
          "name": "from",
          "type": "address"
        },
        {
          "internalType": "address",
          "name": "to",
          "type": "address"
        },
        {
          "internalType": "uint256",
          "name": "tokenId",
          "type": "uint256"
        }
      ],
      "name": "safeTransferFrom",
      "outputs": [],
      "stateMutability": "nonpayable",
      "type": "function"
    },
    {
      "inputs": [
        {
          "internalType": "address",
          "name": "from",
          "type": "address"
        },
        {
          "internalType": "address",
          "name": "to",
          "type": "address"
        },
        {
          "internalType": "uint256",
          "name": "tokenId",
          "type": "uint256"
        },
        {
          "internalType": "bytes",
          "name": "data",
          "type": "bytes"
        }
      ],
      "name": "safeTransferFrom",
      "outputs": [],
      "stateMutability": "nonpayable",
      "type": "function"
    },
    {
      "inputs": [
        {
          "internalType": "address",
          "name": "operator",
          "type": "address"
        },
        {
          "internalType": "bool",
          "name": "approved",
          "type": "bool"
        }
      ],
      "name": "setApprovalForAll",
      "outputs": [],
      "stateMutability": "nonpayable",
      "type": "function"
    },
    {
      "inputs": [
        {
          "internalType": "uint256",
          "name": "tokenId",
          "type": "uint256"
        },
        {
          "internalType": "address[]",
          "name": "addresses",
          "type": "address[]"
        },
        {
          "internalType": "uint256[][]",
          "name": "tokenIds",
          "type": "uint256[][]"
        }
      ],
      "name": "setNode",
      "outputs": [],
      "stateMutability": "nonpayable",
      "type": "function"
    },
    {
      "inputs": [
        {
          "internalType": "address",
          "name": "_address",
          "type": "address"
        },
        {
          "internalType": "uint256",
          "name": "tokenId",
          "type": "uint256"
        },
        {
          "internalType": "uint256[]",
          "name": "_tokenIds",
          "type": "uint256[]"
        }
      ],
      "name": "setNodeReferredExternal",
      "outputs": [],
      "stateMutability": "nonpayable",
      "type": "function"
    },
    {
      "inputs": [
        {
          "internalType": "address",
          "name": "developer",
          "type": "address"
        },
        {
          "internalType": "uint256",
          "name": "tokenId",
          "type": "uint256"
        },
        {
          "internalType": "string",
          "name": "_tokenURI",
          "type": "string"
        }
      ],
      "name": "setTokenURI",
      "outputs": [],
      "stateMutability": "nonpayable",
      "type": "function"
    },
    {
      "inputs": [],
      "name": "softwareCount",
      "outputs": [
        {
          "internalType": "uint256",
          "name": "",
          "type": "uint256"
        }
      ],
      "stateMutability": "view",
      "type": "function"
    },
    {
      "inputs": [
        {
          "internalType": "uint256",
          "name": "",
          "type": "uint256"
        }
      ],
      "name": "softwareMeta",
      "outputs": [
        {
          "internalType": "address",
          "name": "creator",
          "type": "address"
        },
        {
          "internalType": "string",
          "name": "tokenURI",
          "type": "string"
        }
      ],
      "stateMutability": "view",
      "type": "function"
    },
    {
      "inputs": [
        {
          "internalType": "bytes4",
          "name": "interfaceId",
          "type": "bytes4"
        }
      ],
      "name": "supportsInterface",
      "outputs": [
        {
          "internalType": "bool",
          "name": "",
          "type": "bool"
        }
      ],
      "stateMutability": "view",
      "type": "function"
    },
    {
      "inputs": [],
      "name": "symbol",
      "outputs": [
        {
          "internalType": "string",
          "name": "",
          "type": "string"
        }
      ],
      "stateMutability": "view",
      "type": "function"
    },
    {
      "inputs": [
        {
          "internalType": "uint256",
          "name": "tokenId",
          "type": "uint256"
        }
      ],
      "name": "tokenURI",
      "outputs": [
        {
          "internalType": "string",
          "name": "",
          "type": "string"
        }
      ],
      "stateMutability": "view",
      "type": "function"
    },
    {
      "inputs": [
        {
          "internalType": "address",
          "name": "from",
          "type": "address"
        },
        {
          "internalType": "address",
          "name": "to",
          "type": "address"
        },
        {
          "internalType": "uint256",
          "name": "tokenId",
          "type": "uint256"
        }
      ],
      "name": "transferFrom",
      "outputs": [],
      "stateMutability": "nonpayable",
      "type": "function"
    }
  ],
  "bytecode": "0x60c0604052600880546001600160a01b0319169055620f424060095534801561002757600080fd5b506040516134b43803806134b4833981016040819052610046916100f0565b60405180604001604052806008815260200167536f66747761726560c01b8152506040518060400160405280600381526020016229a7a360e91b8152508181816000908161009491906101c2565b5060016100a182826101c2565b5050600880546001600160a01b031916331790555050506001600160a01b039182166080521660a0526000600a55610280565b80516001600160a01b03811681146100eb57600080fd5b919050565b6000806040838503121561010357600080fd5b61010c836100d4565b915061011a602084016100d4565b90509250929050565b634e487b7160e01b600052604160045260246000fd5b600181811c9082168061014d57607f821691505b60208210810361016d57634e487b7160e01b600052602260045260246000fd5b50919050565b601f8211156101bd57806000526020600020601f840160051c8101602085101561019a5750805b601f840160051c820191505b818110156101ba57600081556001016101a6565b50505b505050565b81516001600160401b038111156101db576101db610123565b6101ef816101e98454610139565b84610173565b6020601f821160018114610223576000831561020b5750848201515b600019600385901b1c1916600184901b1784556101ba565b600084815260208120601f198516915b828110156102535787850151825560209485019460019092019101610233565b50848210156102715786840151600019600387901b60f8161c191681555b50505050600190811b01905550565b60805160a0516131f36102c1600039600081816103280152818161071f0152818161077e0152818161083a01526108680152600061035701526131f36000f3fe608060405234801561001057600080fd5b50600436106101a95760003560e01c806364f9b0e6116100f9578063a22cb46511610097578063c87b56dd11610071578063c87b56dd146103cf578063d30d968d146103e2578063e985e9c5146103f5578063edda5e731461040857600080fd5b8063a22cb46514610396578063a35391ac146103a9578063b88d4fde146103bc57600080fd5b8063853b592f116100d3578063853b592f1461034c578063893d20e8146103555780638e489d0c1461037b57806395d89b411461038e57600080fd5b806364f9b0e61461030057806370a08231146103135780637a4440721461032657600080fd5b806342842e0e1161016657806355c104401161014057806355c10440146102a6578063615f45a8146102b9578063616c5535146102da5780636352211e146102ed57600080fd5b806342842e0e1461025f5780634b8a72bf146102725780634e5786bf1461029357600080fd5b806301ffc9a7146101ae57806306fdde03146101d6578063081812fc146101eb578063095ea7b31461021657806323b872dd1461022b578063426e75011461023e575b600080fd5b6101c16101bc3660046124f6565b61041b565b60405190151581526020015b60405180910390f35b6101de610461565b6040516101cd9190612563565b6101fe6101f9366004612576565b6104f3565b6040516001600160a01b0390911681526020016101cd565b6102296102243660046125a4565b61051c565b005b6102296102393660046125d0565b61052b565b61025161024c366004612576565b6105bb565b6040516101cd9291906126db565b61022961026d3660046125d0565b6106f2565b610285610280366004612943565b610712565b6040519081526020016101cd565b6102296102a13660046129d4565b6108d7565b6102296102b4366004612a22565b61098b565b6102cc6102c7366004612576565b610b3e565b6040516101cd929190612a70565b6102296102e8366004612a94565b610bed565b6101fe6102fb366004612576565b610d07565b61025161030e3660046125a4565b610d12565b610285610321366004612ac6565b610e76565b7f00000000000000000000000000000000000000000000000000000000000000006101fe565b610285600a5481565b7f00000000000000000000000000000000000000000000000000000000000000006101fe565b6101de610389366004612576565b610ebe565b6101de610eef565b6102296103a4366004612af1565b610efe565b6102516103b73660046125a4565b610f09565b6102296103ca366004612b2a565b611010565b6101de6103dd366004612576565b611028565b6102856103f03660046125a4565b611033565b6101c1610403366004612ba9565b61118c565b610229610416366004612bd7565b6111ba565b60006001600160e01b031982166374342b5560e01b148061044c57506001600160e01b03198216630204cbd160e51b145b8061045b575061045b826111e4565b92915050565b60606000805461047090612c4e565b80601f016020809104026020016040519081016040528092919081815260200182805461049c90612c4e565b80156104e95780601f106104be576101008083540402835291602001916104e9565b820191906000526020600020905b8154815290600101906020018083116104cc57829003601f168201915b5050505050905090565b60006104fe82611209565b506000828152600460205260409020546001600160a01b031661045b565b610527828233611242565b5050565b6001600160a01b03821661055a57604051633250574960e11b8152600060048201526024015b60405180910390fd5b600061056783833361124f565b9050836001600160a01b0316816001600160a01b0316146105b5576040516364283d7b60e01b81526001600160a01b0380861660048301526024820184905282166044820152606401610551565b50505050565b6060806105c783611348565b6105e4576040516379dbbb9360e11b815260040160405180910390fd5b6000838152600b6020908152604091829020600281018054845181850281018501909552808552909360039092019284919083018282801561064f57602002820191906000526020600020905b81546001600160a01b03168152600190910190602001808311610631575b5050505050915080805480602002602001604051908101604052809291908181526020016000905b828210156106e3576000848152602090819020830180546040805182850281018501909152818152928301828280156106cf57602002820191906000526020600020905b8154815260200190600101908083116106bb575b505050505081526020019060010190610677565b50505050905091509150915091565b61070d83838360405180602001604052806000815250611010565b505050565b6000336001600160a01b037f0000000000000000000000000000000000000000000000000000000000000000161461075d57604051636932705760e11b815260040160405180910390fd5b600a805490600061076d83612c88565b9091555050604080516080810182527f00000000000000000000000000000000000000000000000000000000000000006001600160a01b039081168252602080830188815283850188905260608401879052600a546000908152600b909252939020825181546001600160a01b0319169216919091178155915190919060018201906107f99082612cf6565b5060408201518051610815916002840191602090910190612394565b50606082015180516108319160038401916020909101906123f9565b509050506108637f0000000000000000000000000000000000000000000000000000000000000000600a5485856111ba565b6108907f0000000000000000000000000000000000000000000000000000000000000000600a54866108d7565b600a547fb3ac909e5e8f40ea473e9a3c1ae4e23caf0df5e322986ebf81ee5bf1b7029bea84846040516108c49291906126db565b60405180910390a250600a549392505050565b6108e082611348565b6108fc5760405162461bcd60e51b815260040161055190612db4565b826001600160a01b031661090f83610d07565b6001600160a01b0316146109815760405162461bcd60e51b815260206004820152603360248201527f4552435f353532313a207472616e736665722063616c6c6572206973206e6f74604482015272081bdddb995c881b9bdc88185c1c1c9bdd9959606a1b6064820152608401610551565b61070d8282611365565b60005b81518110156105b5576000600760008484815181106109af576109af612deb565b602002602001015181526020019081526020016000209050806001016000866001600160a01b03166001600160a01b0316815260200190815260200160002080549050600003610a2a57600381018054600181018255600091825260209091200180546001600160a01b0319166001600160a01b0387161790555b306001600160a01b03861603610a9e5760405162461bcd60e51b815260206004820152603360248201527f4552435f353532313a2074686973206d75737420626520616e2065787465726e604482015272616c20636f6e7472616374206164647265737360681b6064820152608401610551565b42816004015410610ac15760405162461bcd60e51b815260040161055190612e01565b6001600160a01b03851660009081526001808301602090815260408320805492830181558352909120018490558251610b3590849084908110610b0657610b06612deb565b6020026020010151610b30858581518110610b2357610b23612deb565b6020026020010151610d07565b6113b5565b5060010161098e565b600b60205260009081526040902080546001820180546001600160a01b039092169291610b6a90612c4e565b80601f0160208091040260200160405190810160405280929190818152602001828054610b9690612c4e565b8015610be35780601f10610bb857610100808354040283529160200191610be3565b820191906000526020600020905b815481529060010190602001808311610bc657829003601f168201915b5050505050905082565b8051825114610c5d5760405162461bcd60e51b815260206004820152603660248201527f41646472657373657320616e6420546f6b656e494420617272617973206d75736044820152750e840d0c2ecca40e8d0ca40e6c2daca40d8cadccee8d60531b6064820152608401610551565b60005b8151811015610cf057818181518110610c7b57610c7b612deb565b602002602001015151600003610ce85760405162461bcd60e51b815260206004820152602c60248201527f4552435f353532313a2074686520726566657272696e67206c6973742063616e60448201526b6e6f7420626520656d70747960a01b6064820152608401610551565b600101610c60565b50610cfc828483611429565b61070d828483611566565b600061045b82611209565b6060808080306001600160a01b03871603610d6157610d3085611348565b610d4c5760405162461bcd60e51b815260040161055190612db4565b610d5785600061191c565b9092509050610e6b565b6040516301ffc9a760e01b8152630204cbd160e51b600482015286906001600160a01b038216906301ffc9a790602401602060405180830381865afa158015610dae573d6000803e3d6000fd5b505050506040513d601f19601f82011682018060405250810190610dd29190612e56565b610dee5760405162461bcd60e51b815260040161055190612e73565b60405163327cd87360e11b81526001600160a01b038881166004830152602482018890528216906364f9b0e6906044015b600060405180830381865afa158015610e3c573d6000803e3d6000fd5b505050506040513d6000823e601f3d908101601f19168201604052610e649190810190612f9b565b9093509150505b909590945092505050565b60006001600160a01b038216610ea2576040516322718ad960e21b815260006004820152602401610551565b506001600160a01b031660009081526003602052604090205490565b6060610ec982611348565b610ee6576040516379dbbb9360e11b815260040160405180910390fd5b61045b82611028565b60606001805461047090612c4e565b610527338383611c27565b6060808080306001600160a01b03871603610f4e57610f2785611348565b610f435760405162461bcd60e51b815260040161055190612db4565b610d5785600161191c565b6040516301ffc9a760e01b8152630204cbd160e51b600482015286906001600160a01b038216906301ffc9a790602401602060405180830381865afa158015610f9b573d6000803e3d6000fd5b505050506040513d601f19601f82011682018060405250810190610fbf9190612e56565b610fdb5760405162461bcd60e51b815260040161055190612e73565b6040516328d4e46b60e21b81526001600160a01b0388811660048301526024820188905282169063a35391ac90604401610e1f565b61101b84848461052b565b6105b53385858585611cc6565b606061045b82611df1565b600080306001600160a01b038516036110835761104f83611348565b61106b5760405162461bcd60e51b815260040161055190612db4565b50600082815260076020526040902060040154611185565b6040516301ffc9a760e01b8152630204cbd160e51b600482015284906001600160a01b038216906301ffc9a790602401602060405180830381865afa1580156110d0573d6000803e3d6000fd5b505050506040513d601f19601f820116820180604052508101906110f49190612e56565b6111105760405162461bcd60e51b815260040161055190612e73565b60405163d30d968d60e01b81526001600160a01b0386811660048301526024820186905282169063d30d968d90604401602060405180830381865afa15801561115d573d6000803e3d6000fd5b505050506040513d601f19601f820116820180604052508101906111819190613066565b9150505b9392505050565b6001600160a01b03918216600090815260056020908152604080832093909416825291909152205460ff1690565b6111c48484611f02565b8051158015906111d45750815115155b156105b5576105b5838383610bed565b60006001600160e01b03198216632483248360e11b148061045b575061045b82611f1c565b6000818152600260205260408120546001600160a01b03168061045b57604051637e27328960e01b815260048101849052602401610551565b61070d8383836001611f6c565b6000828152600260205260408120546001600160a01b039081169083161561127c5761127c818486612072565b6001600160a01b038116156112ba57611299600085600080611f6c565b6001600160a01b038116600090815260036020526040902080546000190190555b6001600160a01b038516156112e9576001600160a01b0385166000908152600360205260409020805460010190555b60008481526002602052604080822080546001600160a01b0319166001600160a01b0389811691821790925591518793918516917fddf252ad1be2c89b69c2b068fc378daa952ba7f163c4a11628f55a4df523b3ef91a4949350505050565b60008061135483610d07565b6001600160a01b0316141592915050565b600082815260066020526040902061137d8282612cf6565b506040518281527ff8e1a15aba9398e019f0b49df1a4fde98ee17ae345cb5f6b5e2c27f5033e8ce79060200160405180910390a15050565b6000806113c384600161191c565b915091506000806113d586600061191c565b91509150846001600160a01b0316867f81bed52c04e8cd65796985202162bad7e20a8ffaa732fe2e0a0bc79f687e4d6686868686604051611419949392919061307f565b60405180910390a3505050505050565b6000828152600760205260408120905b84518110156115555781600001600086838151811061145a5761145a612deb565b60200260200101516001600160a01b03166001600160a01b03168152602001908152602001600020805490506000036114df57816002018582815181106114a3576114a3612deb565b60209081029190910181015182546001810184556000938452919092200180546001600160a01b0319166001600160a01b039092169190911790555b8281815181106114f1576114f1612deb565b602002602001015182600001600087848151811061151157611511612deb565b60200260200101516001600160a01b03166001600160a01b03168152602001908152602001600020908051906020019061154c929190612452565b50600101611439565b504260048201556105b583336113b5565b60005b83518110156105b557306001600160a01b031684828151811061158e5761158e612deb565b60200260200101516001600160a01b0316036117f95760005b8282815181106115b9576115b9612deb565b6020026020010151518110156117f3576000600760008585815181106115e1576115e1612deb565b602002602001015184815181106115fa576115fa612deb565b60200260200101518152602001908152602001600020905080600101600087858151811061162a5761162a612deb565b60200260200101516001600160a01b03166001600160a01b03168152602001908152602001600020805490506000036116af578060030186848151811061167357611673612deb565b60209081029190910181015182546001810184556000938452919092200180546001600160a01b0319166001600160a01b039092169190911790555b8383815181106116c1576116c1612deb565b602002602001015182815181106116da576116da612deb565b6020026020010151850361173c5760405162461bcd60e51b8152602060048201526024808201527f4552435f353532313a2073656c662d7265666572656e6365206e6f7420616c6c6044820152631bddd95960e21b6064820152608401610551565b4281600401541061175f5760405162461bcd60e51b815260040161055190612e01565b30600090815260018083016020908152604083208054928301815583529091200185905583516117ea9085908590811061179b5761179b612deb565b602002602001015183815181106117b4576117b4612deb565b6020026020010151610b308686815181106117d1576117d1612deb565b60200260200101518581518110610b2357610b23612deb565b506001016115a7565b50611914565b600084828151811061180d5761180d612deb565b60209081029190910101516040516301ffc9a760e01b8152630204cbd160e51b60048201529091506000906001600160a01b038316906301ffc9a790602401602060405180830381865afa158015611869573d6000803e3d6000fd5b505050506040513d601f19601f8201168201806040525081019061188d9190612e56565b9050801561191157816001600160a01b03166355c1044030878787815181106118b8576118b8612deb565b60200260200101516040518463ffffffff1660e01b81526004016118de939291906130d7565b600060405180830381600087803b1580156118f857600080fd5b505af115801561190c573d6000803e3d6000fd5b505050505b50505b600101611569565b6000828152600760205260409020606090819081808515611aab578260020180548060200260200160405190810160405280929190818152602001828054801561198f57602002820191906000526020600020905b81546001600160a01b03168152600190910190602001808311611971575b5050505050915081516001600160401b038111156119af576119af612709565b6040519080825280602002602001820160405280156119e257816020015b60608152602001906001900390816119cd5790505b50905060005b8251811015611aa557836000016000848381518110611a0957611a09612deb565b60200260200101516001600160a01b03166001600160a01b03168152602001908152602001600020805480602002602001604051908101604052809291908181526020018280548015611a7b57602002820191906000526020600020905b815481526020019060010190808311611a67575b5050505050828281518110611a9257611a92612deb565b60209081029190910101526001016119e8565b50611c1b565b82600301805480602002602001604051908101604052809291908181526020018280548015611b0357602002820191906000526020600020905b81546001600160a01b03168152600190910190602001808311611ae5575b5050505050915081516001600160401b03811115611b2357611b23612709565b604051908082528060200260200182016040528015611b5657816020015b6060815260200190600190039081611b415790505b50905060005b8251811015611c1957836001016000848381518110611b7d57611b7d612deb565b60200260200101516001600160a01b03166001600160a01b03168152602001908152602001600020805480602002602001604051908101604052809291908181526020018280548015611bef57602002820191906000526020600020905b815481526020019060010190808311611bdb575b5050505050828281518110611c0657611c06612deb565b6020908102919091010152600101611b5c565b505b90969095509350505050565b6001600160a01b038216611c5957604051630b61174360e31b81526001600160a01b0383166004820152602401610551565b6001600160a01b03838116600081815260056020908152604080832094871680845294825291829020805460ff191686151590811790915591519182527f17307eab39ab6107e8899845ad3d59bd9653f200f220920489ca2b5937696c31910160405180910390a3505050565b6001600160a01b0383163b15611dea57604051630a85bd0160e11b81526001600160a01b0384169063150b7a0290611d08908890889087908790600401613134565b6020604051808303816000875af1925050508015611d43575060408051601f3d908101601f19168201909252611d4091810190613171565b60015b611dac573d808015611d71576040519150601f19603f3d011682016040523d82523d6000602084013e611d76565b606091505b508051600003611da457604051633250574960e11b81526001600160a01b0385166004820152602401610551565b805181602001fd5b6001600160e01b03198116630a85bd0160e11b14611de857604051633250574960e11b81526001600160a01b0385166004820152602401610551565b505b5050505050565b6060611dfc82611209565b5060008281526006602052604081208054611e1690612c4e565b80601f0160208091040260200160405190810160405280929190818152602001828054611e4290612c4e565b8015611e8f5780601f10611e6457610100808354040283529160200191611e8f565b820191906000526020600020905b815481529060010190602001808311611e7257829003601f168201915b505050505090506000611ead60408051602081019091526000815290565b90508051600003611ebf575092915050565b815115611ef1578082604051602001611ed992919061318e565b60405160208183030381529060405292505050919050565b611efa846120d6565b949350505050565b61052782826040518060200160405280600081525061214a565b60006001600160e01b031982166380ac58cd60e01b1480611f4d57506001600160e01b03198216635b5e139f60e01b145b8061045b57506301ffc9a760e01b6001600160e01b031983161461045b565b8080611f8057506001600160a01b03821615155b15612042576000611f9084611209565b90506001600160a01b03831615801590611fbc5750826001600160a01b0316816001600160a01b031614155b8015611fcf5750611fcd818461118c565b155b15611ff85760405163a9fbf51f60e01b81526001600160a01b0384166004820152602401610551565b81156120405783856001600160a01b0316826001600160a01b03167f8c5be1e5ebec7d5bd14f71427d1e84f3dd0314c0f7b2291e5b200ac8c7c3b92560405160405180910390a45b505b5050600090815260046020526040902080546001600160a01b0319166001600160a01b0392909216919091179055565b61207d838383612162565b61070d576001600160a01b0383166120ab57604051637e27328960e01b815260048101829052602401610551565b60405163177e802f60e01b81526001600160a01b038316600482015260248101829052604401610551565b60606120e182611209565b5060006120f960408051602081019091526000815290565b905060008151116121195760405180602001604052806000815250611185565b80612123846121c5565b60405160200161213492919061318e565b6040516020818303038152906040529392505050565b6121548383612257565b61070d336000858585611cc6565b60006001600160a01b03831615801590611efa5750826001600160a01b0316846001600160a01b0316148061219c575061219c848461118c565b80611efa5750506000908152600460205260409020546001600160a01b03908116911614919050565b606060006121d2836122bc565b60010190506000816001600160401b038111156121f1576121f1612709565b6040519080825280601f01601f19166020018201604052801561221b576020820181803683370190505b5090508181016020015b600019016f181899199a1a9b1b9c1cb0b131b232b360811b600a86061a8153600a850494508461222557509392505050565b6001600160a01b03821661228157604051633250574960e11b815260006004820152602401610551565b600061228f8383600061124f565b90506001600160a01b0381161561070d576040516339e3563760e11b815260006004820152602401610551565b60008072184f03e93ff9f4daa797ed6e38ed64bf6a1f0160401b83106122fb5772184f03e93ff9f4daa797ed6e38ed64bf6a1f0160401b830492506040015b6d04ee2d6d415b85acef81000000008310612327576d04ee2d6d415b85acef8100000000830492506020015b662386f26fc10000831061234557662386f26fc10000830492506010015b6305f5e100831061235d576305f5e100830492506008015b612710831061237157612710830492506004015b60648310612383576064830492506002015b600a831061045b5760010192915050565b8280548282559060005260206000209081019282156123e9579160200282015b828111156123e957825182546001600160a01b0319166001600160a01b039091161782556020909201916001909101906123b4565b506123f592915061248d565b5090565b828054828255906000526020600020908101928215612446579160200282015b828111156124465782518051612436918491602090910190612452565b5091602001919060010190612419565b506123f59291506124a2565b8280548282559060005260206000209081019282156123e9579160200282015b828111156123e9578251825591602001919060010190612472565b5b808211156123f5576000815560010161248e565b808211156123f55760006124b682826124bf565b506001016124a2565b50805460008255906000526020600020908101906124dd919061248d565b50565b6001600160e01b0319811681146124dd57600080fd5b60006020828403121561250857600080fd5b8135611185816124e0565b60005b8381101561252e578181015183820152602001612516565b50506000910152565b6000815180845261254f816020860160208601612513565b601f01601f19169290920160200192915050565b6020815260006111856020830184612537565b60006020828403121561258857600080fd5b5035919050565b6001600160a01b03811681146124dd57600080fd5b600080604083850312156125b757600080fd5b82356125c28161258f565b946020939093013593505050565b6000806000606084860312156125e557600080fd5b83356125f08161258f565b925060208401356126008161258f565b929592945050506040919091013590565b600081518084526020840193506020830160005b8281101561264c5781516001600160a01b0316865260209586019590910190600101612625565b5093949350505050565b600082825180855260208501945060208160051b8301016020850160005b838110156126cf57848303601f190188528151805180855260209182019185019060005b818110156126b6578351835260209384019390920191600101612698565b50506020998a0199909450929092019150600101612674565b50909695505050505050565b6040815260006126ee6040830185612611565b82810360208401526127008185612656565b95945050505050565b634e487b7160e01b600052604160045260246000fd5b604051601f8201601f191681016001600160401b038111828210171561274757612747612709565b604052919050565b6000806001600160401b0384111561276957612769612709565b50601f8301601f191660200161277e8161271f565b91505082815283838301111561279357600080fd5b828260208301376000602084830101529392505050565b600082601f8301126127bb57600080fd5b6111858383356020850161274f565b60006001600160401b038211156127e3576127e3612709565b5060051b60200190565b600082601f8301126127fe57600080fd5b813561281161280c826127ca565b61271f565b8082825260208201915060208360051b86010192508583111561283357600080fd5b602085015b8381101561285957803561284b8161258f565b835260209283019201612838565b5095945050505050565b600082601f83011261287457600080fd5b813561288261280c826127ca565b8082825260208201915060208360051b8601019250858311156128a457600080fd5b602085015b838110156128595780358352602092830192016128a9565b600082601f8301126128d257600080fd5b81356128e061280c826127ca565b8082825260208201915060208360051b86010192508583111561290257600080fd5b602085015b838110156128595780356001600160401b0381111561292557600080fd5b612934886020838a0101612863565b84525060209283019201612907565b60008060006060848603121561295857600080fd5b83356001600160401b0381111561296e57600080fd5b61297a868287016127aa565b93505060208401356001600160401b0381111561299657600080fd5b6129a2868287016127ed565b92505060408401356001600160401b038111156129be57600080fd5b6129ca868287016128c1565b9150509250925092565b6000806000606084860312156129e957600080fd5b83356129f48161258f565b92506020840135915060408401356001600160401b03811115612a1657600080fd5b6129ca868287016127aa565b600080600060608486031215612a3757600080fd5b8335612a428161258f565b92506020840135915060408401356001600160401b03811115612a6457600080fd5b6129ca86828701612863565b6001600160a01b0383168152604060208201819052600090611efa90830184612537565b600080600060608486031215612aa957600080fd5b8335925060208401356001600160401b0381111561299657600080fd5b600060208284031215612ad857600080fd5b81356111858161258f565b80151581146124dd57600080fd5b60008060408385031215612b0457600080fd5b8235612b0f8161258f565b91506020830135612b1f81612ae3565b809150509250929050565b60008060008060808587031215612b4057600080fd5b8435612b4b8161258f565b93506020850135612b5b8161258f565b92506040850135915060608501356001600160401b03811115612b7d57600080fd5b8501601f81018713612b8e57600080fd5b612b9d8782356020840161274f565b91505092959194509250565b60008060408385031215612bbc57600080fd5b8235612bc78161258f565b91506020830135612b1f8161258f565b60008060008060808587031215612bed57600080fd5b8435612bf88161258f565b93506020850135925060408501356001600160401b03811115612c1a57600080fd5b612c26878288016127ed565b92505060608501356001600160401b03811115612c4257600080fd5b612b9d878288016128c1565b600181811c90821680612c6257607f821691505b602082108103612c8257634e487b7160e01b600052602260045260246000fd5b50919050565b600060018201612ca857634e487b7160e01b600052601160045260246000fd5b5060010190565b601f82111561070d57806000526020600020601f840160051c81016020851015612cd65750805b601f840160051c820191505b81811015611dea5760008155600101612ce2565b81516001600160401b03811115612d0f57612d0f612709565b612d2381612d1d8454612c4e565b84612caf565b6020601f821160018114612d575760008315612d3f5750848201515b600019600385901b1c1916600184901b178455611dea565b600084815260208120601f198516915b82811015612d875787850151825560209485019460019092019101612d67565b5084821015612da55786840151600019600387901b60f8161c191681555b50505050600190811b01905550565b6020808252601e908201527f4552435f353532313a20746f6b656e204944206e6f7420657869737465640000604082015260600190565b634e487b7160e01b600052603260045260246000fd5b60208082526035908201527f4552435f353532313a2074686520726566657272656420724e4654206e65656460408201527439903a37903132903090383932b232b1b2b9b9b7b960591b606082015260800190565b600060208284031215612e6857600080fd5b815161118581612ae3565b60208082526027908201527f4552435f353532313a2074617267657420636f6e7472616374206e6f742073756040820152661c1c1bdc9d195960ca1b606082015260800190565b600082601f830112612ecb57600080fd5b8151612ed961280c826127ca565b8082825260208201915060208360051b860101925085831115612efb57600080fd5b602085015b838110156128595780516001600160401b03811115612f1e57600080fd5b8601603f81018813612f2f57600080fd5b6020810151612f4061280c826127ca565b808282526020820191506020808460051b8601010192508a831115612f6457600080fd5b6040840193505b82841015612f86578351825260209384019390910190612f6b565b86525050602093840193919091019050612f00565b60008060408385031215612fae57600080fd5b82516001600160401b03811115612fc457600080fd5b8301601f81018513612fd557600080fd5b8051612fe361280c826127ca565b8082825260208201915060208360051b85010192508783111561300557600080fd5b6020840193505b8284101561303057835161301f8161258f565b82526020938401939091019061300c565b8095505050505060208301516001600160401b0381111561305057600080fd5b61305c85828601612eba565b9150509250929050565b60006020828403121561307857600080fd5b5051919050565b6080815260006130926080830187612611565b82810360208401526130a48187612656565b905082810360408401526130b88186612611565b905082810360608401526130cc8185612656565b979650505050505050565b6001600160a01b0384168152602080820184905260606040830181905283519083018190526000918401906080840190835b81811015613127578351835260209384019390920191600101613109565b5090979650505050505050565b6001600160a01b038581168252841660208201526040810183905260806060820181905260009061316790830184612537565b9695505050505050565b60006020828403121561318357600080fd5b8151611185816124e0565b600083516131a0818460208801612513565b8351908301906131b4818360208801612513565b0194935050505056fea2646970667358221220f5299c34d59103520eb02a6b83c92063654bbec9b774a10aafffc3121b06467a64736f6c634300081c0033",
  "linkReferences": {},
  "deployedLinkReferences": {}
}